{
  "address": "0x93617B850aBc2358F0a5059b652f833Da539B2E5",
  "abi": [
    {
      "inputs": [],
      "name": "NAME",
      "outputs": [
        {
          "internalType": "string",
          "name": "",
          "type": "string"
        }
      ],
      "stateMutability": "view",
      "type": "function"
    },
    {
      "inputs": [],
      "name": "VERSION",
      "outputs": [
        {
          "internalType": "string",
          "name": "",
          "type": "string"
        }
      ],
      "stateMutability": "view",
      "type": "function"
    },
    {
      "inputs": [
        {
          "internalType": "bytes",
          "name": "message",
          "type": "bytes"
        }
      ],
      "name": "getMessageHash",
      "outputs": [
        {
          "internalType": "bytes32",
          "name": "",
          "type": "bytes32"
        }
      ],
      "stateMutability": "view",
      "type": "function"
    },
    {
      "inputs": [
        {
          "internalType": "contract Sodium",
          "name": "so",
          "type": "address"
        },
        {
          "internalType": "bytes",
          "name": "message",
          "type": "bytes"
        }
      ],
      "name": "getMessageHashForSodium",
      "outputs": [
        {
          "internalType": "bytes32",
          "name": "",
          "type": "bytes32"
        }
      ],
      "stateMutability": "view",
      "type": "function"
    },
    {
      "inputs": [
        {
          "internalType": "bytes32",
          "name": "_dataHash",
          "type": "bytes32"
        },
        {
          "internalType": "bytes",
          "name": "_signature",
          "type": "bytes"
        }
      ],
      "name": "isValidSignature",
      "outputs": [
        {
          "internalType": "bytes4",
          "name": "",
          "type": "bytes4"
        }
      ],
      "stateMutability": "view",
      "type": "function"
    },
    {
      "inputs": [
        {
          "internalType": "bytes",
          "name": "_data",
          "type": "bytes"
        },
        {
          "internalType": "bytes",
          "name": "_signature",
          "type": "bytes"
        }
      ],
      "name": "isValidSignature",
      "outputs": [
        {
          "internalType": "bytes4",
          "name": "",
          "type": "bytes4"
        }
      ],
      "stateMutability": "view",
      "type": "function"
    },
    {
      "inputs": [
        {
          "internalType": "address",
          "name": "",
          "type": "address"
        },
        {
          "internalType": "address",
          "name": "",
          "type": "address"
        },
        {
          "internalType": "uint256[]",
          "name": "",
          "type": "uint256[]"
        },
        {
          "internalType": "uint256[]",
          "name": "",
          "type": "uint256[]"
        },
        {
          "internalType": "bytes",
          "name": "",
          "type": "bytes"
        }
      ],
      "name": "onERC1155BatchReceived",
      "outputs": [
        {
          "internalType": "bytes4",
          "name": "",
          "type": "bytes4"
        }
      ],
      "stateMutability": "pure",
      "type": "function"
    },
    {
      "inputs": [
        {
          "internalType": "address",
          "name": "",
          "type": "address"
        },
        {
          "internalType": "address",
          "name": "",
          "type": "address"
        },
        {
          "internalType": "uint256",
          "name": "",
          "type": "uint256"
        },
        {
          "internalType": "uint256",
          "name": "",
          "type": "uint256"
        },
        {
          "internalType": "bytes",
          "name": "",
          "type": "bytes"
        }
      ],
      "name": "onERC1155Received",
      "outputs": [
        {
          "internalType": "bytes4",
          "name": "",
          "type": "bytes4"
        }
      ],
      "stateMutability": "pure",
      "type": "function"
    },
    {
      "inputs": [
        {
          "internalType": "address",
          "name": "",
          "type": "address"
        },
        {
          "internalType": "address",
          "name": "",
          "type": "address"
        },
        {
          "internalType": "uint256",
          "name": "",
          "type": "uint256"
        },
        {
          "internalType": "bytes",
          "name": "",
          "type": "bytes"
        }
      ],
      "name": "onERC721Received",
      "outputs": [
        {
          "internalType": "bytes4",
          "name": "",
          "type": "bytes4"
        }
      ],
      "stateMutability": "pure",
      "type": "function"
    },
    {
      "inputs": [
        {
          "internalType": "bytes4",
          "name": "interfaceId",
          "type": "bytes4"
        }
      ],
      "name": "supportsInterface",
      "outputs": [
        {
          "internalType": "bool",
          "name": "",
          "type": "bool"
        }
      ],
      "stateMutability": "view",
      "type": "function"
    },
    {
      "inputs": [
        {
          "internalType": "address",
          "name": "",
          "type": "address"
        },
        {
          "internalType": "address",
          "name": "",
          "type": "address"
        },
        {
          "internalType": "address",
          "name": "",
          "type": "address"
        },
        {
          "internalType": "uint256",
          "name": "",
          "type": "uint256"
        },
        {
          "internalType": "bytes",
          "name": "",
          "type": "bytes"
        },
        {
          "internalType": "bytes",
          "name": "",
          "type": "bytes"
        }
      ],
      "name": "tokensReceived",
      "outputs": [],
      "stateMutability": "pure",
      "type": "function"
    }
  ],
  "transactionHash": "0xbb16b85133131a10469fe694f7d8265036d951fc6a5348c0e1ae4a845fce3eef",
  "args": [],
  "numDeployments": 4,
  "solcInputHash": "83c51582ee67b079b63a960908c19d43",
  "bytecode": "0x608060405234801561001057600080fd5b50610e82806100206000396000f3fe608060405234801561001057600080fd5b50600436106100a85760003560e01c806320c13b0b1161007157806320c13b0b1461015b578063a3f4df7e1461016e578063bc197c81146101b7578063f23a6e61146101d9578063f653d43c146101f9578063ffa1ad741461020c57600080fd5b806223de29146100ad57806301ffc9a7146100c75780630a1028c4146100ef578063150b7a02146101105780631626ba7e14610148575b600080fd5b6100c56100bb36600461089a565b5050505050505050565b005b6100da6100d5366004610961565b610230565b60405190151581526020015b60405180910390f35b6101026100fd366004610a28565b610282565b6040519081526020016100e6565b61012f61011e366004610a65565b630a85bd0160e11b95945050505050565b6040516001600160e01b031990911681526020016100e6565b61012f610156366004610ad8565b61028e565b61012f610169366004610b24565b61034a565b6101aa6040518060400160405280601881526020017f44656661756c742043616c6c6261636b2048616e646c6572000000000000000081525081565b6040516100e69190610bd6565b61012f6101c5366004610c2e565b63bc197c8160e01b98975050505050505050565b61012f6101e7366004610ccc565b63f23a6e6160e01b9695505050505050565b610102610207366004610d48565b6104b1565b6101aa604051806040016040528060058152602001640312e302e360dc1b81525081565b60006001600160e01b03198216630271189760e51b148061026157506001600160e01b03198216630a85bd0160e11b145b8061027c57506001600160e01b031982166301ffc9a760e01b145b92915050565b600061027c33836104b1565b60408051602080820186905282518083039091018152818301928390526320c13b0b60e01b9092526000913391839183916320c13b0b916102d59189908990604401610d98565b602060405180830381865afa1580156102f2573d6000803e3d6000fd5b505050506040513d601f19601f820116820180604052508101906103169190610dde565b90506001600160e01b031981166320c13b0b60e01b14610337576000610340565b630b135d3f60e11b5b9695505050505050565b60008033905060006103928288888080601f0160208091040260200160405190810160405280939291908181526020018383808284376000920191909152506104b192505050565b9050816001600160a01b0316634b574a026103e587878080601f01602080910402602001604051908101604052809392919081815260200183838082843760009201919091525087939250506105c99050565b6040516001600160e01b031960e084901b1681526001600160a01b039091166004820152602401602060405180830381865afa158015610429573d6000803e3d6000fd5b505050506040513d601f19601f8201168201806040525081019061044d9190610dfb565b61049e5760405162461bcd60e51b815260206004820152601760248201527f77616c6c65743a2077726f6e67207369676e617475726500000000000000000060448201526064015b60405180910390fd5b506320c13b0b60e01b9695505050505050565b6000807f60b3cbf8b4a223d68d641b3b6ddf9a298e7f33710cf3d3a9d1146b5a6150fbca60001b83805190602001206040516020016104fa929190918252602082015260400190565b604051602081830303815290604052805190602001209050601960f81b600160f81b856001600160a01b031663f698da256040518163ffffffff1660e01b8152600401602060405180830381865afa15801561055a573d6000803e3d6000fd5b505050506040513d601f19601f8201168201806040525081019061057e9190610e1d565b6040516001600160f81b031993841660208201529290911660218301526022820152604281018290526062016040516020818303038152906040528051906020012091505092915050565b60008060006105d885856105ed565b915091506105e581610632565b509392505050565b60008082516041036106235760208301516040840151606085015160001a6106178782858561077f565b9450945050505061062b565b506000905060025b9250929050565b600081600481111561064657610646610e36565b0361064e5750565b600181600481111561066257610662610e36565b036106af5760405162461bcd60e51b815260206004820152601860248201527f45434453413a20696e76616c6964207369676e617475726500000000000000006044820152606401610495565b60028160048111156106c3576106c3610e36565b036107105760405162461bcd60e51b815260206004820152601f60248201527f45434453413a20696e76616c6964207369676e6174757265206c656e677468006044820152606401610495565b600381600481111561072457610724610e36565b0361077c5760405162461bcd60e51b815260206004820152602260248201527f45434453413a20696e76616c6964207369676e6174757265202773272076616c604482015261756560f01b6064820152608401610495565b50565b6000807f7fffffffffffffffffffffffffffffff5d576e7357a4501ddfe92f46681b20a08311156107b6575060009050600361083a565b6040805160008082526020820180845289905260ff881692820192909252606081018690526080810185905260019060a0016020604051602081039080840390855afa15801561080a573d6000803e3d6000fd5b5050604051601f1901519150506001600160a01b0381166108335760006001925092505061083a565b9150600090505b94509492505050565b6001600160a01b038116811461077c57600080fd5b60008083601f84011261086a57600080fd5b50813567ffffffffffffffff81111561088257600080fd5b60208301915083602082850101111561062b57600080fd5b60008060008060008060008060c0898b0312156108b657600080fd5b88356108c181610843565b975060208901356108d181610843565b965060408901356108e181610843565b955060608901359450608089013567ffffffffffffffff8082111561090557600080fd5b6109118c838d01610858565b909650945060a08b013591508082111561092a57600080fd5b506109378b828c01610858565b999c989b5096995094979396929594505050565b6001600160e01b03198116811461077c57600080fd5b60006020828403121561097357600080fd5b813561097e8161094b565b9392505050565b634e487b7160e01b600052604160045260246000fd5b600082601f8301126109ac57600080fd5b813567ffffffffffffffff808211156109c7576109c7610985565b604051601f8301601f19908116603f011681019082821181831017156109ef576109ef610985565b81604052838152866020858801011115610a0857600080fd5b836020870160208301376000602085830101528094505050505092915050565b600060208284031215610a3a57600080fd5b813567ffffffffffffffff811115610a5157600080fd5b610a5d8482850161099b565b949350505050565b600080600080600060808688031215610a7d57600080fd5b8535610a8881610843565b94506020860135610a9881610843565b935060408601359250606086013567ffffffffffffffff811115610abb57600080fd5b610ac788828901610858565b969995985093965092949392505050565b600080600060408486031215610aed57600080fd5b83359250602084013567ffffffffffffffff811115610b0b57600080fd5b610b1786828701610858565b9497909650939450505050565b60008060008060408587031215610b3a57600080fd5b843567ffffffffffffffff80821115610b5257600080fd5b610b5e88838901610858565b90965094506020870135915080821115610b7757600080fd5b50610b8487828801610858565b95989497509550505050565b6000815180845260005b81811015610bb657602081850181015186830182015201610b9a565b506000602082860101526020601f19601f83011685010191505092915050565b60208152600061097e6020830184610b90565b60008083601f840112610bfb57600080fd5b50813567ffffffffffffffff811115610c1357600080fd5b6020830191508360208260051b850101111561062b57600080fd5b60008060008060008060008060a0898b031215610c4a57600080fd5b8835610c5581610843565b97506020890135610c6581610843565b9650604089013567ffffffffffffffff80821115610c8257600080fd5b610c8e8c838d01610be9565b909850965060608b0135915080821115610ca757600080fd5b610cb38c838d01610be9565b909650945060808b013591508082111561092a57600080fd5b60008060008060008060a08789031215610ce557600080fd5b8635610cf081610843565b95506020870135610d0081610843565b94506040870135935060608701359250608087013567ffffffffffffffff811115610d2a57600080fd5b610d3689828a01610858565b979a9699509497509295939492505050565b60008060408385031215610d5b57600080fd5b8235610d6681610843565b9150602083013567ffffffffffffffff811115610d8257600080fd5b610d8e8582860161099b565b9150509250929050565b604081526000610dab6040830186610b90565b8281036020840152838152838560208301376000602085830101526020601f19601f860116820101915050949350505050565b600060208284031215610df057600080fd5b815161097e8161094b565b600060208284031215610e0d57600080fd5b8151801515811461097e57600080fd5b600060208284031215610e2f57600080fd5b5051919050565b634e487b7160e01b600052602160045260246000fdfea26469706673582212200b763973c507e6c08d63336a82d777f5a387727e6456557a072dfefb02c1d6b164736f6c63430008110033",
  "devdoc": {
    "kind": "dev",
    "methods": {
      "getMessageHash(bytes)": {
        "details": "Returns hash of a message that can be signed by owners.",
        "params": {
          "message": "Message that should be hashed"
        },
        "returns": {
          "_0": "Message hash."
        }
      },
      "getMessageHashForSodium(address,bytes)": {
        "details": "Returns hash of a message that can be signed by owners.",
        "params": {
          "message": "Message that should be hashed",
          "so": "Sodium to which the message is targeted"
        },
        "returns": {
          "_0": "Message hash."
        }
      },
      "isValidSignature(bytes,bytes)": {
        "details": "Should return whether the signature provided is valid for the provided data.",
        "params": {
          "_data": "Arbitrary length data signed on the behalf of address(msg.sender)",
          "_signature": "Signature byte array associated with _data"
        },
        "returns": {
          "_0": "a bool upon valid or invalid signature with corresponding _data"
        }
      },
      "isValidSignature(bytes32,bytes)": {
        "details": "Should return whether the signature provided is valid for the provided data.       The save does not implement the interface since `checkSignatures` is not a view method.       The method will not perform any state changes (see parameters of `checkSignatures`)",
        "params": {
          "_dataHash": "Hash of the data signed on the behalf of address(msg.sender)",
          "_signature": "Signature byte array associated with _dataHash"
        },
        "returns": {
          "_0": "a bool upon valid or invalid signature with corresponding _dataHash"
        }
      },
      "supportsInterface(bytes4)": {
        "details": "Returns true if this contract implements the interface defined by `interfaceId`. See the corresponding https://eips.ethereum.org/EIPS/eip-165#how-interfaces-are-identified[EIP section] to learn more about how these ids are created. This function call must use less than 30 000 gas."
      }
    },
    "version": 1
  },
  "userdoc": {
    "kind": "user",
    "methods": {
      "isValidSignature(bytes,bytes)": {
        "notice": "Implementation of ISignatureValidator (see `interfaces/ISignatureValidator.sol`)"
      },
      "isValidSignature(bytes32,bytes)": {
        "notice": "Implementation of updated EIP-1271See https://github.com/gnosis/util-contracts/blob/bb5fe5fb5df6d8400998094fb1b32a178a47c3a1/contracts/StorageAccessible.sol"
      }
    },
    "version": 1
  },
  "storageLayout": {
    "storage": [],
    "types": null
  }
}