{
  "address": "0xfeE35E475D04062eB515feb679a5a12611D6B3A4",
  "abi": [
    {
      "inputs": [
        {
          "internalType": "contract SenderCreator",
          "name": "_senderCreator",
          "type": "address"
        }
      ],
      "stateMutability": "nonpayable",
      "type": "constructor"
    },
    {
      "inputs": [
        {
          "internalType": "uint256",
          "name": "preOpGas",
          "type": "uint256"
        },
        {
          "internalType": "uint256",
          "name": "paid",
          "type": "uint256"
        },
        {
          "internalType": "uint48",
          "name": "validAfter",
          "type": "uint48"
        },
        {
          "internalType": "uint48",
          "name": "validUntil",
          "type": "uint48"
        },
        {
          "internalType": "bool",
          "name": "targetSuccess",
          "type": "bool"
        },
        {
          "internalType": "bytes",
          "name": "targetResult",
          "type": "bytes"
        }
      ],
      "name": "ExecutionResult",
      "type": "error"
    },
    {
      "inputs": [
        {
          "internalType": "uint256",
          "name": "opIndex",
          "type": "uint256"
        },
        {
          "internalType": "string",
          "name": "reason",
          "type": "string"
        }
      ],
      "name": "FailedOp",
      "type": "error"
    },
    {
      "inputs": [
        {
          "internalType": "address",
          "name": "sender",
          "type": "address"
        }
      ],
      "name": "SenderAddressResult",
      "type": "error"
    },
    {
      "inputs": [
        {
          "internalType": "address",
          "name": "aggregator",
          "type": "address"
        }
      ],
      "name": "SignatureValidationFailed",
      "type": "error"
    },
    {
      "inputs": [
        {
          "components": [
            {
              "internalType": "uint256",
              "name": "preOpGas",
              "type": "uint256"
            },
            {
              "internalType": "uint256",
              "name": "prefund",
              "type": "uint256"
            },
            {
              "internalType": "bool",
              "name": "sigFailed",
              "type": "bool"
            },
            {
              "internalType": "uint48",
              "name": "validAfter",
              "type": "uint48"
            },
            {
              "internalType": "uint48",
              "name": "validUntil",
              "type": "uint48"
            },
            {
              "internalType": "bytes",
              "name": "paymasterContext",
              "type": "bytes"
            }
          ],
          "internalType": "struct IEntryPoint.ReturnInfo",
          "name": "returnInfo",
          "type": "tuple"
        },
        {
          "components": [
            {
              "internalType": "uint256",
              "name": "stake",
              "type": "uint256"
            },
            {
              "internalType": "uint256",
              "name": "unstakeDelaySec",
              "type": "uint256"
            }
          ],
          "internalType": "struct IStakeManager.StakeInfo",
          "name": "senderInfo",
          "type": "tuple"
        },
        {
          "components": [
            {
              "internalType": "uint256",
              "name": "stake",
              "type": "uint256"
            },
            {
              "internalType": "uint256",
              "name": "unstakeDelaySec",
              "type": "uint256"
            }
          ],
          "internalType": "struct IStakeManager.StakeInfo",
          "name": "factoryInfo",
          "type": "tuple"
        },
        {
          "components": [
            {
              "internalType": "uint256",
              "name": "stake",
              "type": "uint256"
            },
            {
              "internalType": "uint256",
              "name": "unstakeDelaySec",
              "type": "uint256"
            }
          ],
          "internalType": "struct IStakeManager.StakeInfo",
          "name": "paymasterInfo",
          "type": "tuple"
        }
      ],
      "name": "ValidationResult",
      "type": "error"
    },
    {
      "inputs": [
        {
          "components": [
            {
              "internalType": "uint256",
              "name": "preOpGas",
              "type": "uint256"
            },
            {
              "internalType": "uint256",
              "name": "prefund",
              "type": "uint256"
            },
            {
              "internalType": "bool",
              "name": "sigFailed",
              "type": "bool"
            },
            {
              "internalType": "uint48",
              "name": "validAfter",
              "type": "uint48"
            },
            {
              "internalType": "uint48",
              "name": "validUntil",
              "type": "uint48"
            },
            {
              "internalType": "bytes",
              "name": "paymasterContext",
              "type": "bytes"
            }
          ],
          "internalType": "struct IEntryPoint.ReturnInfo",
          "name": "returnInfo",
          "type": "tuple"
        },
        {
          "components": [
            {
              "internalType": "uint256",
              "name": "stake",
              "type": "uint256"
            },
            {
              "internalType": "uint256",
              "name": "unstakeDelaySec",
              "type": "uint256"
            }
          ],
          "internalType": "struct IStakeManager.StakeInfo",
          "name": "senderInfo",
          "type": "tuple"
        },
        {
          "components": [
            {
              "internalType": "uint256",
              "name": "stake",
              "type": "uint256"
            },
            {
              "internalType": "uint256",
              "name": "unstakeDelaySec",
              "type": "uint256"
            }
          ],
          "internalType": "struct IStakeManager.StakeInfo",
          "name": "factoryInfo",
          "type": "tuple"
        },
        {
          "components": [
            {
              "internalType": "uint256",
              "name": "stake",
              "type": "uint256"
            },
            {
              "internalType": "uint256",
              "name": "unstakeDelaySec",
              "type": "uint256"
            }
          ],
          "internalType": "struct IStakeManager.StakeInfo",
          "name": "paymasterInfo",
          "type": "tuple"
        },
        {
          "components": [
            {
              "internalType": "address",
              "name": "aggregator",
              "type": "address"
            },
            {
              "components": [
                {
                  "internalType": "uint256",
                  "name": "stake",
                  "type": "uint256"
                },
                {
                  "internalType": "uint256",
                  "name": "unstakeDelaySec",
                  "type": "uint256"
                }
              ],
              "internalType": "struct IStakeManager.StakeInfo",
              "name": "stakeInfo",
              "type": "tuple"
            }
          ],
          "internalType": "struct IEntryPoint.AggregatorStakeInfo",
          "name": "aggregatorInfo",
          "type": "tuple"
        }
      ],
      "name": "ValidationResultWithAggregation",
      "type": "error"
    },
    {
      "anonymous": false,
      "inputs": [
        {
          "indexed": true,
          "internalType": "bytes32",
          "name": "userOpHash",
          "type": "bytes32"
        },
        {
          "indexed": true,
          "internalType": "address",
          "name": "sender",
          "type": "address"
        },
        {
          "indexed": false,
          "internalType": "address",
          "name": "factory",
          "type": "address"
        },
        {
          "indexed": false,
          "internalType": "address",
          "name": "paymaster",
          "type": "address"
        }
      ],
      "name": "AccountDeployed",
      "type": "event"
    },
    {
      "anonymous": false,
      "inputs": [
        {
          "indexed": true,
          "internalType": "address",
          "name": "account",
          "type": "address"
        },
        {
          "indexed": false,
          "internalType": "uint256",
          "name": "totalDeposit",
          "type": "uint256"
        }
      ],
      "name": "Deposited",
      "type": "event"
    },
    {
      "anonymous": false,
      "inputs": [
        {
          "indexed": true,
          "internalType": "address",
          "name": "aggregator",
          "type": "address"
        }
      ],
      "name": "SignatureAggregatorChanged",
      "type": "event"
    },
    {
      "anonymous": false,
      "inputs": [
        {
          "indexed": true,
          "internalType": "address",
          "name": "account",
          "type": "address"
        },
        {
          "indexed": false,
          "internalType": "uint256",
          "name": "totalStaked",
          "type": "uint256"
        },
        {
          "indexed": false,
          "internalType": "uint256",
          "name": "unstakeDelaySec",
          "type": "uint256"
        }
      ],
      "name": "StakeLocked",
      "type": "event"
    },
    {
      "anonymous": false,
      "inputs": [
        {
          "indexed": true,
          "internalType": "address",
          "name": "account",
          "type": "address"
        },
        {
          "indexed": false,
          "internalType": "uint256",
          "name": "withdrawTime",
          "type": "uint256"
        }
      ],
      "name": "StakeUnlocked",
      "type": "event"
    },
    {
      "anonymous": false,
      "inputs": [
        {
          "indexed": true,
          "internalType": "address",
          "name": "account",
          "type": "address"
        },
        {
          "indexed": false,
          "internalType": "address",
          "name": "withdrawAddress",
          "type": "address"
        },
        {
          "indexed": false,
          "internalType": "uint256",
          "name": "amount",
          "type": "uint256"
        }
      ],
      "name": "StakeWithdrawn",
      "type": "event"
    },
    {
      "anonymous": false,
      "inputs": [
        {
          "indexed": true,
          "internalType": "bytes32",
          "name": "userOpHash",
          "type": "bytes32"
        },
        {
          "indexed": true,
          "internalType": "address",
          "name": "sender",
          "type": "address"
        },
        {
          "indexed": true,
          "internalType": "address",
          "name": "paymaster",
          "type": "address"
        },
        {
          "indexed": false,
          "internalType": "uint256",
          "name": "nonce",
          "type": "uint256"
        },
        {
          "indexed": false,
          "internalType": "bool",
          "name": "success",
          "type": "bool"
        },
        {
          "indexed": false,
          "internalType": "uint256",
          "name": "actualGasCost",
          "type": "uint256"
        },
        {
          "indexed": false,
          "internalType": "uint256",
          "name": "actualGasUsed",
          "type": "uint256"
        }
      ],
      "name": "UserOperationEvent",
      "type": "event"
    },
    {
      "anonymous": false,
      "inputs": [
        {
          "indexed": true,
          "internalType": "bytes32",
          "name": "userOpHash",
          "type": "bytes32"
        },
        {
          "indexed": true,
          "internalType": "address",
          "name": "sender",
          "type": "address"
        },
        {
          "indexed": false,
          "internalType": "uint256",
          "name": "nonce",
          "type": "uint256"
        },
        {
          "indexed": false,
          "internalType": "bytes",
          "name": "revertReason",
          "type": "bytes"
        }
      ],
      "name": "UserOperationRevertReason",
      "type": "event"
    },
    {
      "anonymous": false,
      "inputs": [
        {
          "indexed": true,
          "internalType": "address",
          "name": "account",
          "type": "address"
        },
        {
          "indexed": false,
          "internalType": "address",
          "name": "withdrawAddress",
          "type": "address"
        },
        {
          "indexed": false,
          "internalType": "uint256",
          "name": "amount",
          "type": "uint256"
        }
      ],
      "name": "Withdrawn",
      "type": "event"
    },
    {
      "inputs": [],
      "name": "SIG_VALIDATION_FAILED",
      "outputs": [
        {
          "internalType": "uint256",
          "name": "",
          "type": "uint256"
        }
      ],
      "stateMutability": "view",
      "type": "function"
    },
    {
      "inputs": [
        {
          "internalType": "bytes",
          "name": "initCode",
          "type": "bytes"
        },
        {
          "internalType": "address",
          "name": "sender",
          "type": "address"
        },
        {
          "internalType": "bytes",
          "name": "paymasterAndData",
          "type": "bytes"
        }
      ],
      "name": "_validateSenderAndPaymaster",
      "outputs": [],
      "stateMutability": "view",
      "type": "function"
    },
    {
      "inputs": [
        {
          "internalType": "uint32",
          "name": "unstakeDelaySec",
          "type": "uint32"
        }
      ],
      "name": "addStake",
      "outputs": [],
      "stateMutability": "payable",
      "type": "function"
    },
    {
      "inputs": [
        {
          "internalType": "address",
          "name": "account",
          "type": "address"
        }
      ],
      "name": "balanceOf",
      "outputs": [
        {
          "internalType": "uint256",
          "name": "",
          "type": "uint256"
        }
      ],
      "stateMutability": "view",
      "type": "function"
    },
    {
      "inputs": [
        {
          "internalType": "address",
          "name": "account",
          "type": "address"
        }
      ],
      "name": "depositTo",
      "outputs": [],
      "stateMutability": "payable",
      "type": "function"
    },
    {
      "inputs": [
        {
          "internalType": "address",
          "name": "",
          "type": "address"
        }
      ],
      "name": "deposits",
      "outputs": [
        {
          "internalType": "uint112",
          "name": "deposit",
          "type": "uint112"
        },
        {
          "internalType": "bool",
          "name": "staked",
          "type": "bool"
        },
        {
          "internalType": "uint112",
          "name": "stake",
          "type": "uint112"
        },
        {
          "internalType": "uint32",
          "name": "unstakeDelaySec",
          "type": "uint32"
        },
        {
          "internalType": "uint48",
          "name": "withdrawTime",
          "type": "uint48"
        }
      ],
      "stateMutability": "view",
      "type": "function"
    },
    {
      "inputs": [
        {
          "internalType": "address",
          "name": "account",
          "type": "address"
        }
      ],
      "name": "getDepositInfo",
      "outputs": [
        {
          "components": [
            {
              "internalType": "uint112",
              "name": "deposit",
              "type": "uint112"
            },
            {
              "internalType": "bool",
              "name": "staked",
              "type": "bool"
            },
            {
              "internalType": "uint112",
              "name": "stake",
              "type": "uint112"
            },
            {
              "internalType": "uint32",
              "name": "unstakeDelaySec",
              "type": "uint32"
            },
            {
              "internalType": "uint48",
              "name": "withdrawTime",
              "type": "uint48"
            }
          ],
          "internalType": "struct IStakeManager.DepositInfo",
          "name": "info",
          "type": "tuple"
        }
      ],
      "stateMutability": "view",
      "type": "function"
    },
    {
      "inputs": [
        {
          "components": [
            {
              "internalType": "address",
              "name": "sender",
              "type": "address"
            },
            {
              "internalType": "uint256",
              "name": "nonce",
              "type": "uint256"
            },
            {
              "internalType": "bytes",
              "name": "initCode",
              "type": "bytes"
            },
            {
              "internalType": "bytes",
              "name": "callData",
              "type": "bytes"
            },
            {
              "internalType": "uint256",
              "name": "callGasLimit",
              "type": "uint256"
            },
            {
              "internalType": "uint256",
              "name": "verificationGasLimit",
              "type": "uint256"
            },
            {
              "internalType": "uint256",
              "name": "preVerificationGas",
              "type": "uint256"
            },
            {
              "internalType": "uint256",
              "name": "maxFeePerGas",
              "type": "uint256"
            },
            {
              "internalType": "uint256",
              "name": "maxPriorityFeePerGas",
              "type": "uint256"
            },
            {
              "internalType": "bytes",
              "name": "paymasterAndData",
              "type": "bytes"
            },
            {
              "internalType": "bytes",
              "name": "signature",
              "type": "bytes"
            }
          ],
          "internalType": "struct UserOperation",
          "name": "userOp",
          "type": "tuple"
        }
      ],
      "name": "getUserOpHash",
      "outputs": [
        {
          "internalType": "bytes32",
          "name": "",
          "type": "bytes32"
        }
      ],
      "stateMutability": "view",
      "type": "function"
    },
    {
      "inputs": [
        {
          "components": [
            {
              "components": [
                {
                  "internalType": "address",
                  "name": "sender",
                  "type": "address"
                },
                {
                  "internalType": "uint256",
                  "name": "nonce",
                  "type": "uint256"
                },
                {
                  "internalType": "bytes",
                  "name": "initCode",
                  "type": "bytes"
                },
                {
                  "internalType": "bytes",
                  "name": "callData",
                  "type": "bytes"
                },
                {
                  "internalType": "uint256",
                  "name": "callGasLimit",
                  "type": "uint256"
                },
                {
                  "internalType": "uint256",
                  "name": "verificationGasLimit",
                  "type": "uint256"
                },
                {
                  "internalType": "uint256",
                  "name": "preVerificationGas",
                  "type": "uint256"
                },
                {
                  "internalType": "uint256",
                  "name": "maxFeePerGas",
                  "type": "uint256"
                },
                {
                  "internalType": "uint256",
                  "name": "maxPriorityFeePerGas",
                  "type": "uint256"
                },
                {
                  "internalType": "bytes",
                  "name": "paymasterAndData",
                  "type": "bytes"
                },
                {
                  "internalType": "bytes",
                  "name": "signature",
                  "type": "bytes"
                }
              ],
              "internalType": "struct UserOperation[]",
              "name": "userOps",
              "type": "tuple[]"
            },
            {
              "internalType": "contract IAggregator",
              "name": "aggregator",
              "type": "address"
            },
            {
              "internalType": "bytes",
              "name": "signature",
              "type": "bytes"
            }
          ],
          "internalType": "struct IEntryPoint.UserOpsPerAggregator[]",
          "name": "opsPerAggregator",
          "type": "tuple[]"
        },
        {
          "internalType": "address payable",
          "name": "beneficiary",
          "type": "address"
        }
      ],
      "name": "handleAggregatedOps",
      "outputs": [],
      "stateMutability": "nonpayable",
      "type": "function"
    },
    {
      "inputs": [
        {
          "components": [
            {
              "internalType": "address",
              "name": "sender",
              "type": "address"
            },
            {
              "internalType": "uint256",
              "name": "nonce",
              "type": "uint256"
            },
            {
              "internalType": "bytes",
              "name": "initCode",
              "type": "bytes"
            },
            {
              "internalType": "bytes",
              "name": "callData",
              "type": "bytes"
            },
            {
              "internalType": "uint256",
              "name": "callGasLimit",
              "type": "uint256"
            },
            {
              "internalType": "uint256",
              "name": "verificationGasLimit",
              "type": "uint256"
            },
            {
              "internalType": "uint256",
              "name": "preVerificationGas",
              "type": "uint256"
            },
            {
              "internalType": "uint256",
              "name": "maxFeePerGas",
              "type": "uint256"
            },
            {
              "internalType": "uint256",
              "name": "maxPriorityFeePerGas",
              "type": "uint256"
            },
            {
              "internalType": "bytes",
              "name": "paymasterAndData",
              "type": "bytes"
            },
            {
              "internalType": "bytes",
              "name": "signature",
              "type": "bytes"
            }
          ],
          "internalType": "struct UserOperation[]",
          "name": "ops",
          "type": "tuple[]"
        },
        {
          "internalType": "address payable",
          "name": "beneficiary",
          "type": "address"
        }
      ],
      "name": "handleOps",
      "outputs": [],
      "stateMutability": "nonpayable",
      "type": "function"
    },
    {
      "inputs": [
        {
          "internalType": "bytes",
          "name": "callData",
          "type": "bytes"
        },
        {
          "components": [
            {
              "components": [
                {
                  "internalType": "address",
                  "name": "sender",
                  "type": "address"
                },
                {
                  "internalType": "uint256",
                  "name": "nonce",
                  "type": "uint256"
                },
                {
                  "internalType": "uint256",
                  "name": "callGasLimit",
                  "type": "uint256"
                },
                {
                  "internalType": "uint256",
                  "name": "verificationGasLimit",
                  "type": "uint256"
                },
                {
                  "internalType": "uint256",
                  "name": "preVerificationGas",
                  "type": "uint256"
                },
                {
                  "internalType": "address",
                  "name": "paymaster",
                  "type": "address"
                },
                {
                  "internalType": "uint256",
                  "name": "maxFeePerGas",
                  "type": "uint256"
                },
                {
                  "internalType": "uint256",
                  "name": "maxPriorityFeePerGas",
                  "type": "uint256"
                }
              ],
              "internalType": "struct EntryPoint.MemoryUserOp",
              "name": "mUserOp",
              "type": "tuple"
            },
            {
              "internalType": "bytes32",
              "name": "userOpHash",
              "type": "bytes32"
            },
            {
              "internalType": "uint256",
              "name": "prefund",
              "type": "uint256"
            },
            {
              "internalType": "uint256",
              "name": "contextOffset",
              "type": "uint256"
            },
            {
              "internalType": "uint256",
              "name": "preOpGas",
              "type": "uint256"
            }
          ],
          "internalType": "struct EntryPoint.UserOpInfo",
          "name": "opInfo",
          "type": "tuple"
        },
        {
          "internalType": "bytes",
          "name": "context",
          "type": "bytes"
        }
      ],
      "name": "innerHandleOp",
      "outputs": [
        {
          "internalType": "uint256",
          "name": "actualGasCost",
          "type": "uint256"
        }
      ],
      "stateMutability": "nonpayable",
      "type": "function"
    },
    {
      "inputs": [],
      "name": "senderCreator",
      "outputs": [
        {
          "internalType": "contract SenderCreator",
          "name": "",
          "type": "address"
        }
      ],
      "stateMutability": "view",
      "type": "function"
    },
    {
      "inputs": [
        {
          "components": [
            {
              "internalType": "address",
              "name": "sender",
              "type": "address"
            },
            {
              "internalType": "uint256",
              "name": "nonce",
              "type": "uint256"
            },
            {
              "internalType": "bytes",
              "name": "initCode",
              "type": "bytes"
            },
            {
              "internalType": "bytes",
              "name": "callData",
              "type": "bytes"
            },
            {
              "internalType": "uint256",
              "name": "callGasLimit",
              "type": "uint256"
            },
            {
              "internalType": "uint256",
              "name": "verificationGasLimit",
              "type": "uint256"
            },
            {
              "internalType": "uint256",
              "name": "preVerificationGas",
              "type": "uint256"
            },
            {
              "internalType": "uint256",
              "name": "maxFeePerGas",
              "type": "uint256"
            },
            {
              "internalType": "uint256",
              "name": "maxPriorityFeePerGas",
              "type": "uint256"
            },
            {
              "internalType": "bytes",
              "name": "paymasterAndData",
              "type": "bytes"
            },
            {
              "internalType": "bytes",
              "name": "signature",
              "type": "bytes"
            }
          ],
          "internalType": "struct UserOperation",
          "name": "op",
          "type": "tuple"
        },
        {
          "internalType": "address",
          "name": "target",
          "type": "address"
        },
        {
          "internalType": "bytes",
          "name": "targetCallData",
          "type": "bytes"
        }
      ],
      "name": "simulateHandleOp",
      "outputs": [],
      "stateMutability": "nonpayable",
      "type": "function"
    },
    {
      "inputs": [
        {
          "components": [
            {
              "internalType": "address",
              "name": "sender",
              "type": "address"
            },
            {
              "internalType": "uint256",
              "name": "nonce",
              "type": "uint256"
            },
            {
              "internalType": "bytes",
              "name": "initCode",
              "type": "bytes"
            },
            {
              "internalType": "bytes",
              "name": "callData",
              "type": "bytes"
            },
            {
              "internalType": "uint256",
              "name": "callGasLimit",
              "type": "uint256"
            },
            {
              "internalType": "uint256",
              "name": "verificationGasLimit",
              "type": "uint256"
            },
            {
              "internalType": "uint256",
              "name": "preVerificationGas",
              "type": "uint256"
            },
            {
              "internalType": "uint256",
              "name": "maxFeePerGas",
              "type": "uint256"
            },
            {
              "internalType": "uint256",
              "name": "maxPriorityFeePerGas",
              "type": "uint256"
            },
            {
              "internalType": "bytes",
              "name": "paymasterAndData",
              "type": "bytes"
            },
            {
              "internalType": "bytes",
              "name": "signature",
              "type": "bytes"
            }
          ],
          "internalType": "struct UserOperation",
          "name": "userOp",
          "type": "tuple"
        }
      ],
      "name": "simulateValidation",
      "outputs": [],
      "stateMutability": "nonpayable",
      "type": "function"
    },
    {
      "inputs": [],
      "name": "unlockStake",
      "outputs": [],
      "stateMutability": "nonpayable",
      "type": "function"
    },
    {
      "inputs": [
        {
          "internalType": "address payable",
          "name": "withdrawAddress",
          "type": "address"
        }
      ],
      "name": "withdrawStake",
      "outputs": [],
      "stateMutability": "nonpayable",
      "type": "function"
    },
    {
      "inputs": [
        {
          "internalType": "address payable",
          "name": "withdrawAddress",
          "type": "address"
        },
        {
          "internalType": "uint256",
          "name": "withdrawAmount",
          "type": "uint256"
        }
      ],
      "name": "withdrawTo",
      "outputs": [],
      "stateMutability": "nonpayable",
      "type": "function"
    },
    {
      "stateMutability": "payable",
      "type": "receive"
    }
  ],
  "transactionHash": "0x90117be9b9deb92a879d267e276575df748d1ceb60bc90ffcdb9687ecaa9383b",
  "args": [
    "0xCA25952469BBae82c63A7A75D8aBc7dBf9442e18"
  ],
  "numDeployments": 2,
  "solcInputHash": "e36723426982162f94f91f49468ecdec",
  "bytecode": "0x60806040523480156200001157600080fd5b5060405162003b9638038062003b9683398101604081905262000034916200005a565b600180546001600160a01b0319166001600160a01b03929092169190911790556200008c565b6000602082840312156200006d57600080fd5b81516001600160a01b03811681146200008557600080fd5b9392505050565b613afa806200009c6000396000f3fe6080604052600436106101025760003560e01c80638f41ec5a11610095578063bb9fe6bf11610064578063bb9fe6bf146103b9578063c23a5cea146103ce578063d6383f94146103ee578063ee2194231461040e578063fc7e286d1461042e57600080fd5b80638f41ec5a14610351578063957122ab14610366578063a619353114610386578063b760faf9146103a657600080fd5b8063205c2878116100d1578063205c2878146101b55780634b1d7cf5146101d55780635287ce12146101f557806370a082311461031257600080fd5b80630396cb601461011757806309ccb8801461012a5780631d732756146101675780631fad948c1461019557600080fd5b3661011257610110336104e3565b005b600080fd5b610110610125366004612ccc565b61054a565b34801561013657600080fd5b5060015461014a906001600160a01b031681565b6040516001600160a01b0390911681526020015b60405180910390f35b34801561017357600080fd5b50610187610182366004612edc565b6107d9565b60405190815260200161015e565b3480156101a157600080fd5b506101106101b0366004612fe5565b61094c565b3480156101c157600080fd5b506101106101d036600461303b565b610a8c565b3480156101e157600080fd5b506101106101f0366004612fe5565b610c08565b34801561020157600080fd5b506102ba610210366004613067565b6040805160a081018252600080825260208201819052918101829052606081018290526080810191909152506001600160a01b031660009081526020818152604091829020825160a08101845281546001600160701b038082168352600160701b820460ff16151594830194909452600160781b90049092169282019290925260019091015463ffffffff81166060830152640100000000900465ffffffffffff16608082015290565b6040805182516001600160701b03908116825260208085015115159083015283830151169181019190915260608083015163ffffffff169082015260809182015165ffffffffffff169181019190915260a00161015e565b34801561031e57600080fd5b5061018761032d366004613067565b6001600160a01b03166000908152602081905260409020546001600160701b031690565b34801561035d57600080fd5b50610187600181565b34801561037257600080fd5b50610110610381366004613084565b611014565b34801561039257600080fd5b506101876103a1366004613121565b611111565b6101106103b4366004613067565b6104e3565b3480156103c557600080fd5b50610110611153565b3480156103da57600080fd5b506101106103e9366004613067565b61127c565b3480156103fa57600080fd5b50610110610409366004613155565b6114b4565b34801561041a57600080fd5b50610110610429366004613121565b6115af565b34801561043a57600080fd5b5061049d610449366004613067565b600060208190529081526040902080546001909101546001600160701b0380831692600160701b810460ff1692600160781b9091049091169063ffffffff811690640100000000900465ffffffffffff1685565b604080516001600160701b0396871681529415156020860152929094169183019190915263ffffffff16606082015265ffffffffffff909116608082015260a00161015e565b6104ed813461178b565b6001600160a01b03811660008181526020818152604091829020805492516001600160701b03909316835292917f2da466a7b24304f47e87fa2e1e5a81b9831ce54fec19055ce277ca2f39ba42c491015b60405180910390a25050565b33600090815260208190526040902063ffffffff82166105b15760405162461bcd60e51b815260206004820152601a60248201527f6d757374207370656369667920756e7374616b652064656c617900000000000060448201526064015b60405180910390fd5b600181015463ffffffff908116908316101561060f5760405162461bcd60e51b815260206004820152601c60248201527f63616e6e6f7420646563726561736520756e7374616b652074696d650000000060448201526064016105a8565b805460009061062f903490600160781b90046001600160701b03166131cc565b9050600081116106765760405162461bcd60e51b81526020600482015260126024820152711b9bc81cdd185ad9481cdc1958da599a595960721b60448201526064016105a8565b6001600160701b038111156106be5760405162461bcd60e51b815260206004820152600e60248201526d7374616b65206f766572666c6f7760901b60448201526064016105a8565b6040805160a08101825283546001600160701b0390811682526001602080840182815286841685870190815263ffffffff808b16606088019081526000608089018181523380835296829052908a902098518954955194518916600160781b02600160781b600160e81b0319951515600160701b026effffffffffffffffffffffffffffff199097169190991617949094179290921695909517865551949092018054925165ffffffffffff166401000000000269ffffffffffffffffffff19909316949093169390931717905590517fa5ae833d0bb1dcd632d98a8b70973e8516812898e19bf27b70071ebc8dc52c01906107cc908490879091825263ffffffff16602082015260400190565b60405180910390a2505050565b6000805a905033301461082e5760405162461bcd60e51b815260206004820152601760248201527f4141393220696e7465726e616c2063616c6c206f6e6c7900000000000000000060448201526064016105a8565b8451604081015160608201518101611388015a10156108585763deaddead60e01b60005260206000fd5b8751600090156108ec576000610875846000015160008c86611827565b9050806108ea57600061088961080061183f565b8051909150156108e45784600001516001600160a01b03168a602001517f1c4fada7374c0a9ee8841fc38afe82932dc0f8e69012e927f061a8bae611a2018760200151846040516108db92919061322f565b60405180910390a35b60019250505b505b600088608001515a860301905061093e6000838b8b8b8080601f01602080910402602001604051908101604052809392919081815260200183838082843760009201919091525088925061186b915050565b9a9950505050505050505050565b816000816001600160401b0381111561096757610967612cf2565b6040519080825280602002602001820160405280156109a057816020015b61098d612c42565b8152602001906001900390816109855790505b50905060005b82811015610a195760008282815181106109c2576109c2613248565b602002602001015190506000806109fd848a8a878181106109e5576109e5613248565b90506020028101906109f7919061325e565b85611b62565b91509150610a0e8483836000611ce4565b5050506001016109a6565b506000805b83811015610a7957610a6d81888884818110610a3c57610a3c613248565b9050602002810190610a4e919061325e565b858481518110610a6057610a60613248565b6020026020010151611e80565b90910190600101610a1e565b50610a848482611fa7565b505050505050565b33600090815260208190526040902080546001600160701b0316821115610af55760405162461bcd60e51b815260206004820152601960248201527f576974686472617720616d6f756e7420746f6f206c617267650000000000000060448201526064016105a8565b8054610b0b9083906001600160701b031661327f565b81546001600160701b0319166001600160701b0391909116178155604080516001600160a01b03851681526020810184905233917fd1c19fbcd4551a5edfb66d43d2e337c04837afda3482b42bdf569a8fccdae5fb910160405180910390a26000836001600160a01b03168360405160006040518083038185875af1925050503d8060008114610bb7576040519150601f19603f3d011682016040523d82523d6000602084013e610bbc565b606091505b5050905080610c025760405162461bcd60e51b81526020600482015260126024820152716661696c656420746f20776974686472617760701b60448201526064016105a8565b50505050565b816000805b82811015610d7c5736868683818110610c2857610c28613248565b9050602002810190610c3a9190613292565b9050366000610c4983806132a8565b90925090506000610c606040850160208601613067565b90506000196001600160a01b03821601610cbc5760405162461bcd60e51b815260206004820152601760248201527f4141393620696e76616c69642061676772656761746f7200000000000000000060448201526064016105a8565b6001600160a01b03811615610d59576001600160a01b03811663e3563a4f8484610ce960408901896132f1565b6040518563ffffffff1660e01b8152600401610d08949392919061349c565b60006040518083038186803b158015610d2057600080fd5b505afa925050508015610d31575060015b610d595760405163086a9f7560e41b81526001600160a01b03821660048201526024016105a8565b610d6382876131cc565b9550505050508080610d7490613519565b915050610c0d565b506000816001600160401b03811115610d9757610d97612cf2565b604051908082528060200260200182016040528015610dd057816020015b610dbd612c42565b815260200190600190039081610db55790505b5090506000805b84811015610ebb5736888883818110610df257610df2613248565b9050602002810190610e049190613292565b9050366000610e1383806132a8565b90925090506000610e2a6040850160208601613067565b90508160005b81811015610ea2576000898981518110610e4c57610e4c613248565b60200260200101519050600080610e6f8b8989878181106109e5576109e5613248565b91509150610e7f84838389611ce4565b8a610e8981613519565b9b50505050508080610e9a90613519565b915050610e30565b5050505050508080610eb390613519565b915050610dd7565b50600080915060005b85811015610fd45736898983818110610edf57610edf613248565b9050602002810190610ef19190613292565b9050610f036040820160208301613067565b6001600160a01b03167f575ff3acadd5ab348fe1855e217e0f3678f8d767d7494c9f9fefbee2e17cca4d60405160405180910390a2366000610f4583806132a8565b90925090508060005b81811015610fbc57610f9088858584818110610f6c57610f6c613248565b9050602002810190610f7e919061325e565b8b8b81518110610a6057610a60613248565b610f9a90886131cc565b965087610fa681613519565b9850508080610fb490613519565b915050610f4e565b50505050508080610fcc90613519565b915050610ec4565b506040516000907f575ff3acadd5ab348fe1855e217e0f3678f8d767d7494c9f9fefbee2e17cca4d908290a261100a8682611fa7565b5050505050505050565b8315801561102a57506001600160a01b0383163b155b156110775760405162461bcd60e51b815260206004820152601960248201527f41413230206163636f756e74206e6f74206465706c6f7965640000000000000060448201526064016105a8565b601481106110ef57600061108e6014828486613532565b6110979161355c565b60601c9050803b6000036110ed5760405162461bcd60e51b815260206004820152601b60248201527f41413330207061796d6173746572206e6f74206465706c6f796564000000000060448201526064016105a8565b505b60405162461bcd60e51b815260206004820152600060248201526044016105a8565b600061111c826120a5565b6040805160208101929092523090820152466060820152608001604051602081830303815290604052805190602001209050919050565b3360009081526020819052604081206001810154909163ffffffff90911690036111ac5760405162461bcd60e51b815260206004820152600a6024820152691b9bdd081cdd185ad95960b21b60448201526064016105a8565b8054600160701b900460ff166111f85760405162461bcd60e51b8152602060048201526011602482015270616c726561647920756e7374616b696e6760781b60448201526064016105a8565b60018101546000906112109063ffffffff1642613591565b60018301805469ffffffffffff00000000191664010000000065ffffffffffff841690810291909117909155835460ff60701b1916845560405190815290915033907ffa9b3c14cc825c412c9ed81b3ba365a5b459439403f18829e572ed53a4180f0a9060200161053e565b3360009081526020819052604090208054600160781b90046001600160701b0316806112e15760405162461bcd60e51b81526020600482015260146024820152734e6f207374616b6520746f20776974686472617760601b60448201526064016105a8565b6001820154640100000000900465ffffffffffff166113425760405162461bcd60e51b815260206004820152601d60248201527f6d7573742063616c6c20756e6c6f636b5374616b65282920666972737400000060448201526064016105a8565b60018201544264010000000090910465ffffffffffff1611156113a75760405162461bcd60e51b815260206004820152601b60248201527f5374616b65207769746864726177616c206973206e6f7420647565000000000060448201526064016105a8565b60018201805469ffffffffffffffffffff191690558154600160781b600160e81b0319168255604080516001600160a01b03851681526020810183905233917fb7c918e0e249f999e965cafeb6c664271b3f4317d296461500e71da39f0cbda3910160405180910390a26000836001600160a01b03168260405160006040518083038185875af1925050503d806000811461145e576040519150601f19603f3d011682016040523d82523d6000602084013e611463565b606091505b5050905080610c025760405162461bcd60e51b815260206004820152601860248201527f6661696c656420746f207769746864726177207374616b65000000000000000060448201526064016105a8565b6114bc612c42565b6114c5856120be565b6000806114d460008885611b62565b9150915060006114e48383612198565b90506114ef43600052565b60006114fd60008a87611e80565b905061150843600052565b600060606001600160a01b038a161561157e57896001600160a01b031689896040516115359291906135b7565b6000604051808303816000865af19150503d8060008114611572576040519150601f19603f3d011682016040523d82523d6000602084013e611577565b606091505b5090925090505b866080015183856020015186604001518585604051630116f59360e71b81526004016105a8969594939291906135c7565b6115b7612c42565b6115c0826120be565b6000806115cf60008585611b62565b9150915060006115e6846000015160a00151612265565b8451519091506000906115f890612265565b9050611617604051806040016040528060008152602001600081525090565b36600061162760408a018a6132f1565b90925090506000601482101561163e576000611659565b61164c601460008486613532565b6116559161355c565b60601c5b905061166481612265565b935050505060006116758686612198565b9050600081600001519050600060016001600160a01b0316826001600160a01b031614905060006040518060c001604052808b6080015181526020018b6040015181526020018315158152602001856020015165ffffffffffff168152602001856040015165ffffffffffff1681526020016116f28c6060015190565b905290506001600160a01b0383161580159061171857506001600160a01b038316600114155b1561176a5760006040518060400160405280856001600160a01b0316815260200161174286612265565b81525090508187878a84604051633ebb2d3960e21b81526004016105a8959493929190613669565b8086868960405163e0cff05f60e01b81526004016105a894939291906136e9565b6001600160a01b038216600090815260208190526040812080549091906117bc9084906001600160701b03166131cc565b90506001600160701b038111156118085760405162461bcd60e51b815260206004820152601060248201526f6465706f736974206f766572666c6f7760801b60448201526064016105a8565b81546001600160701b0319166001600160701b03919091161790555050565b6000806000845160208601878987f195945050505050565b60603d8281111561184d5750815b604051602082018101604052818152816000602083013e9392505050565b6000805a855190915060009081611881826122b4565b60a08301519091506001600160a01b0381166118a05782519350611a47565b809350600088511115611a4757868202955060028a60028111156118c6576118c6613740565b1461193857606083015160405163a9a2340960e01b81526001600160a01b0383169163a9a2340991611900908e908d908c90600401613756565b600060405180830381600088803b15801561191a57600080fd5b5087f115801561192e573d6000803e3d6000fd5b5050505050611a47565b606083015160405163a9a2340960e01b81526001600160a01b0383169163a9a234099161196d908e908d908c90600401613756565b600060405180830381600088803b15801561198757600080fd5b5087f193505050508015611999575060015b611a47576119a561379d565b806308c379a0036119fe57506119b96137b9565b806119c45750611a00565b8b816040516020016119d69190613842565b60408051601f1981840301815290829052631101335b60e11b82526105a8929160040161322f565b505b8a604051631101335b60e11b81526004016105a89181526040602082018190526012908201527110504d4c081c1bdcdd13dc081c995d995c9d60721b606082015260800190565b5a85038701965081870295508589604001511015611ab0578a604051631101335b60e11b81526004016105a891815260406020808301829052908201527f414135312070726566756e642062656c6f772061637475616c476173436f7374606082015260800190565b6040890151869003611ac2858261178b565b6000808c6002811115611ad757611ad7613740565b1490508460a001516001600160a01b031685600001516001600160a01b03168c602001517f49628fd1471006c1482da88028e9ce4dbb080b815c9b0344d39e5a8e6ec1419f8860200151858d8f604051611b4a949392919093845291151560208401526040830152606082015260800190565b60405180910390a45050505050505095945050505050565b60008060005a8451909150611b7786826122e4565b611b8086611111565b6020860152604081015160608201516080830151171760e087013517610100870135176effffffffffffffffffffffffffffff811115611c025760405162461bcd60e51b815260206004820152601860248201527f41413934206761732076616c756573206f766572666c6f77000000000000000060448201526064016105a8565b600080611c0e846123dd565b9050611c1c8a8a8a8461242a565b97509150611c2943600052565b60a08401516060906001600160a01b031615611c5157611c4c8b8b8b8587612662565b975090505b60005a87039050808b60a001351015611cb6578b604051631101335b60e11b81526004016105a8918152604060208201819052601e908201527f41413430206f76657220766572696669636174696f6e4761734c696d69740000606082015260800190565b60408a018390528160608b015260c08b01355a8803018a608001818152505050505050505050935093915050565b600080611cf085612885565b91509150816001600160a01b0316836001600160a01b031614611d565785604051631101335b60e11b81526004016105a89181526040602082018190526014908201527320a0991a1039b4b3b730ba3ab9329032b93937b960611b606082015260800190565b8015611dae5785604051631101335b60e11b81526004016105a89181526040602082018190526017908201527f414132322065787069726564206f72206e6f7420647565000000000000000000606082015260800190565b6000611db985612885565b925090506001600160a01b03811615611e155786604051631101335b60e11b81526004016105a89181526040602082018190526014908201527320a0999a1039b4b3b730ba3ab9329032b93937b960611b606082015260800190565b8115611e775786604051631101335b60e11b81526004016105a89181526040602082018190526021908201527f41413332207061796d61737465722065787069726564206f72206e6f742064756060820152606560f81b608082015260a00190565b50505050505050565b6000805a90506000611e93846060015190565b905030631d732756611ea860608801886132f1565b87856040518563ffffffff1660e01b8152600401611ec99493929190613880565b6020604051808303816000875af1925050508015611f04575060408051601f3d908101601f19168201909252611f0191810190613933565b60015b611f9b57600060206000803e50600051632152215360e01b8101611f665786604051631101335b60e11b81526004016105a8918152604060208201819052600f908201526e41413935206f7574206f662067617360881b606082015260800190565b600085608001515a611f78908661327f565b611f8291906131cc565b9050611f9288600288868561186b565b94505050611f9e565b92505b50509392505050565b6001600160a01b038216611ffd5760405162461bcd60e51b815260206004820152601860248201527f4141393020696e76616c69642062656e6566696369617279000000000000000060448201526064016105a8565b6000826001600160a01b03168260405160006040518083038185875af1925050503d806000811461204a576040519150601f19603f3d011682016040523d82523d6000602084013e61204f565b606091505b50509050806120a05760405162461bcd60e51b815260206004820152601f60248201527f41413931206661696c65642073656e6420746f2062656e65666963696172790060448201526064016105a8565b505050565b60006120b0826128d8565b805190602001209050919050565b3063957122ab6120d160408401846132f1565b6120de6020860186613067565b6120ec6101208701876132f1565b6040518663ffffffff1660e01b815260040161210c95949392919061394c565b60006040518083038186803b15801561212457600080fd5b505afa925050508015612135575060015b6121955761214161379d565b806308c379a00361218957506121556137b9565b80612160575061218b565b80511561218557600081604051631101335b60e11b81526004016105a892919061322f565b5050565b505b3d6000803e3d6000fd5b50565b60408051606081018252600080825260208201819052918101829052906121be84612917565b905060006121cb84612917565b82519091506001600160a01b0381166121e2575080515b602080840151604080860151928501519085015191929165ffffffffffff8083169085161015612210578193505b8065ffffffffffff168365ffffffffffff16111561222c578092505b5050604080516060810182526001600160a01b03909416845265ffffffffffff9283166020850152911690820152925050505b92915050565b604080518082018252600080825260208083018281526001600160a01b03959095168252819052919091208054600160781b90046001600160701b031682526001015463ffffffff1690915290565b60c081015160e0820151600091908082036122d0575092915050565b6122dc82488301612988565b949350505050565b6122f16020830183613067565b6001600160a01b0316815260208083013590820152608080830135604083015260a0830135606083015260c0808401359183019190915260e08084013591830191909152610100830135908201523660006123506101208501856132f1565b909250905080156123d05760148110156123ac5760405162461bcd60e51b815260206004820152601d60248201527f4141393320696e76616c6964207061796d6173746572416e644461746100000060448201526064016105a8565b6123ba601460008385613532565b6123c39161355c565b60601c60a0840152610c02565b600060a084015250505050565b60a081015160009081906001600160a01b03166123fb5760016123fe565b60035b60ff16905060008360800151828560600151028560400151010190508360c00151810292505050919050565b60008060005a855180519192509061244f898861244a60408c018c6132f1565b6129a0565b60a082015161245d43600052565b60006001600160a01b0382166124a5576001600160a01b0383166000908152602081905260409020546001600160701b031688811161249e578089036124a1565b60005b9150505b606084015160208a0151604051633a871cdd60e01b81526001600160a01b03861692633a871cdd9290916124df918f918790600401613982565b60206040518083038160008887f19350505050801561251b575060408051601f3d908101601f1916820190925261251891810190613933565b60015b6125a55761252761379d565b806308c379a003612558575061253b6137b9565b80612546575061255a565b8b816040516020016119d691906139a7565b505b8a604051631101335b60e11b81526004016105a8918152604060208201819052601690820152754141323320726576657274656420286f72204f4f472960501b606082015260800190565b95506001600160a01b03821661264f576001600160a01b038316600090815260208190526040902080546001600160701b0316808a1115612632578c604051631101335b60e11b81526004016105a89181526040602082018190526017908201527f41413231206469646e2774207061792070726566756e64000000000000000000606082015260800190565b81546001600160701b031916908a90036001600160701b03161790555b5a85039650505050505094509492505050565b825160608181015190916000918481116126be5760405162461bcd60e51b815260206004820152601f60248201527f4141343120746f6f206c6974746c6520766572696669636174696f6e4761730060448201526064016105a8565b60a08201516001600160a01b038116600090815260208190526040902080548784039291906001600160701b031689811015612746578c604051631101335b60e11b81526004016105a8918152604060208201819052601e908201527f41413331207061796d6173746572206465706f73697420746f6f206c6f770000606082015260800190565b8981038260000160006101000a8154816001600160701b0302191690836001600160701b03160217905550826001600160a01b031663f465c77e858e8e602001518e6040518563ffffffff1660e01b81526004016127a693929190613982565b60006040518083038160008887f1935050505080156127e757506040513d6000823e601f3d908101601f191682016040526127e491908101906139de565b60015b612871576127f361379d565b806308c379a00361282457506128076137b9565b806128125750612826565b8d816040516020016119d69190613a69565b505b8c604051631101335b60e11b81526004016105a8918152604060208201819052601690820152754141333320726576657274656420286f72204f4f472960501b606082015260800190565b909e909d509b505050505050505050505050565b6000808260000361289b57506000928392509050565b60006128a684612917565b9050806040015165ffffffffffff164211806128cd5750806020015165ffffffffffff1642105b905194909350915050565b60603660006128eb6101408501856132f1565b915091508360208184030360405194506020810185016040528085528082602087013750505050919050565b60408051606081018252600080825260208201819052918101919091528160a081901c65ffffffffffff8116600003612953575065ffffffffffff5b604080516060810182526001600160a01b03909316835260d09490941c602083015265ffffffffffff16928101929092525090565b60008183106129975781612999565b825b9392505050565b8015610c02578251516001600160a01b0381163b15612a0b5784604051631101335b60e11b81526004016105a8918152604060208201819052601f908201527f414131302073656e64657220616c726561647920636f6e737472756374656400606082015260800190565b600154845160600151604051632b870d1b60e11b81526000926001600160a01b03169163570e1a3691612a449088908890600401613a93565b60206040518083038160008887f1158015612a63573d6000803e3d6000fd5b50505050506040513d601f19601f82011682018060405250810190612a889190613aa7565b90506001600160a01b038116612aea5785604051631101335b60e11b81526004016105a8918152604060208201819052601b908201527f4141313320696e6974436f6465206661696c6564206f72204f4f470000000000606082015260800190565b816001600160a01b0316816001600160a01b031614612b545785604051631101335b60e11b81526004016105a891815260406020808301829052908201527f4141313420696e6974436f6465206d7573742072657475726e2073656e646572606082015260800190565b806001600160a01b03163b600003612bb75785604051631101335b60e11b81526004016105a891815260406020808301829052908201527f4141313520696e6974436f6465206d757374206372656174652073656e646572606082015260800190565b6000612bc66014828688613532565b612bcf9161355c565b60601c9050826001600160a01b031686602001517fd51a9c61267aa6196961883ecf5ff2da6619c37dac0fa92122513fb32c032d2d83896000015160a00151604051612c319291906001600160a01b0392831681529116602082015260400190565b60405180910390a350505050505050565b6040518060a00160405280612ca760405180610100016040528060006001600160a01b031681526020016000815260200160008152602001600081526020016000815260200160006001600160a01b0316815260200160008152602001600081525090565b8152602001600080191681526020016000815260200160008152602001600081525090565b600060208284031215612cde57600080fd5b813563ffffffff8116811461299957600080fd5b634e487b7160e01b600052604160045260246000fd5b60a081018181106001600160401b0382111715612d2757612d27612cf2565b60405250565b61010081018181106001600160401b0382111715612d2757612d27612cf2565b601f8201601f191681016001600160401b0381118282101715612d7257612d72612cf2565b6040525050565b60006001600160401b03821115612d9257612d92612cf2565b50601f01601f191660200190565b6001600160a01b038116811461219557600080fd5b8035612dc081612da0565b919050565b6000818303610180811215612dd957600080fd5b604051612de581612d08565b80925061010080831215612df857600080fd5b6040519250612e0683612d2d565b612e0f85612db5565b835260208501356020840152604085013560408401526060850135606084015260808501356080840152612e4560a08601612db5565b60a084015260c085013560c084015260e085013560e084015282825280850135602083015250610120840135604082015261014084013560608201526101608401356080820152505092915050565b60008083601f840112612ea657600080fd5b5081356001600160401b03811115612ebd57600080fd5b602083019150836020828501011115612ed557600080fd5b9250929050565b6000806000806101c08587031215612ef357600080fd5b84356001600160401b0380821115612f0a57600080fd5b818701915087601f830112612f1e57600080fd5b8135612f2981612d79565b604051612f368282612d4d565b8281528a6020848701011115612f4b57600080fd5b82602086016020830137600060208483010152809850505050612f718860208901612dc5565b94506101a0870135915080821115612f8857600080fd5b50612f9587828801612e94565b95989497509550505050565b60008083601f840112612fb357600080fd5b5081356001600160401b03811115612fca57600080fd5b6020830191508360208260051b8501011115612ed557600080fd5b600080600060408486031215612ffa57600080fd5b83356001600160401b0381111561301057600080fd5b61301c86828701612fa1565b909450925050602084013561303081612da0565b809150509250925092565b6000806040838503121561304e57600080fd5b823561305981612da0565b946020939093013593505050565b60006020828403121561307957600080fd5b813561299981612da0565b60008060008060006060868803121561309c57600080fd5b85356001600160401b03808211156130b357600080fd5b6130bf89838a01612e94565b9097509550602088013591506130d482612da0565b909350604087013590808211156130ea57600080fd5b506130f788828901612e94565b969995985093965092949392505050565b6000610160828403121561311b57600080fd5b50919050565b60006020828403121561313357600080fd5b81356001600160401b0381111561314957600080fd5b6122dc84828501613108565b6000806000806060858703121561316b57600080fd5b84356001600160401b038082111561318257600080fd5b61318e88838901613108565b9550602087013591506131a082612da0565b90935060408601359080821115612f8857600080fd5b634e487b7160e01b600052601160045260246000fd5b8082018082111561225f5761225f6131b6565b60005b838110156131fa5781810151838201526020016131e2565b50506000910152565b6000815180845261321b8160208601602086016131df565b601f01601f19169290920160200192915050565b8281526040602082015260006122dc6040830184613203565b634e487b7160e01b600052603260045260246000fd5b6000823561015e1983360301811261327557600080fd5b9190910192915050565b8181038181111561225f5761225f6131b6565b60008235605e1983360301811261327557600080fd5b6000808335601e198436030181126132bf57600080fd5b8301803591506001600160401b038211156132d957600080fd5b6020019150600581901b3603821315612ed557600080fd5b6000808335601e1984360301811261330857600080fd5b8301803591506001600160401b0382111561332257600080fd5b602001915036819003821315612ed557600080fd5b6000808335601e1984360301811261334e57600080fd5b83016020810192503590506001600160401b0381111561336d57600080fd5b803603821315612ed557600080fd5b81835281816020850137506000828201602090810191909152601f909101601f19169091010190565b60006101606133c4846133b785612db5565b6001600160a01b03169052565b602083013560208501526133db6040840184613337565b8260408701526133ee838701828461337c565b925050506133ff6060840184613337565b858303606087015261341283828461337c565b925050506080830135608085015260a083013560a085015260c083013560c085015260e083013560e085015261010080840135818601525061012061345981850185613337565b8684038388015261346b84828461337c565b935050505061014061347f81850185613337565b8684038388015261349184828461337c565b979650505050505050565b6040808252810184905260006060600586901b830181019083018783805b8981101561350257868503605f190184528235368c900361015e190181126134e0578283fd5b6134ec868d83016133a5565b95505060209384019392909201916001016134ba565b50505050828103602084015261349181858761337c565b60006001820161352b5761352b6131b6565b5060010190565b6000808585111561354257600080fd5b8386111561354f57600080fd5b5050820193919092039150565b6bffffffffffffffffffffffff1981358181169160148510156135895780818660140360031b1b83161692505b505092915050565b65ffffffffffff8181168382160190808211156135b0576135b06131b6565b5092915050565b8183823760009101908152919050565b868152856020820152600065ffffffffffff8087166040840152808616606084015250831515608083015260c060a083015261360660c0830184613203565b98975050505050505050565b80518252602081015160208301526040810151151560408301526000606082015165ffffffffffff8082166060860152806080850151166080860152505060a082015160c060a08501526122dc60c0850182613203565b600061014080835261367d81840189613612565b915050613697602083018780518252602090810151910152565b845160608301526020948501516080830152835160a08301529284015160c082015281516001600160a01b031660e0820152908301518051610100830152909201516101209092019190915292915050565b60e0815260006136fc60e0830187613612565b9050613715602083018680518252602090810151910152565b8351606083015260208401516080830152825160a0830152602083015160c083015295945050505050565b634e487b7160e01b600052602160045260246000fd5b60006003851061377657634e487b7160e01b600052602160045260246000fd5b8482526060602083015261378d6060830185613203565b9050826040830152949350505050565b600060033d11156137b65760046000803e5060005160e01c5b90565b600060443d10156137c75790565b6040516003193d81016004833e81513d6001600160401b0381602484011181841117156137f657505050505090565b828501915081518181111561380e5750505050505090565b843d87010160208285010111156138285750505050505090565b61383760208286010187612d4d565b509095945050505050565b75020a09a98103837b9ba27b8103932bb32b93a32b21d160551b8152600082516138738160168501602087016131df565b9190910160160192915050565b60006101c0808352613895818401878961337c565b9050845160018060a01b03808251166020860152602082015160408601526040820151606086015260608201516080860152608082015160a08601528060a08301511660c08601525060c081015160e085015260e08101516101008501525060208501516101208401526040850151610140840152606085015161016084015260808501516101808401528281036101a08401526134918185613203565b60006020828403121561394557600080fd5b5051919050565b60608152600061396060608301878961337c565b6001600160a01b0386166020840152828103604084015261360681858761337c565b60608152600061399560608301866133a5565b60208301949094525060400152919050565b6e020a09919903932bb32b93a32b21d1608d1b8152600082516139d181600f8501602087016131df565b91909101600f0192915050565b600080604083850312156139f157600080fd5b82516001600160401b03811115613a0757600080fd5b8301601f81018513613a1857600080fd5b8051613a2381612d79565b604051613a308282612d4d565b828152876020848601011115613a4557600080fd5b613a568360208301602087016131df565b6020969096015195979596505050505050565b6e020a09999903932bb32b93a32b21d1608d1b8152600082516139d181600f8501602087016131df565b6020815260006122dc60208301848661337c565b600060208284031215613ab957600080fd5b815161299981612da056fea2646970667358221220037db08541ecf10652278ff7a8ff47de4fb157649346752237d042836e4efd3064736f6c63430008110033",
  "devdoc": {
    "errors": {
      "FailedOp(uint256,string)": [
        {
          "params": {
            "opIndex": "- index into the array of ops to the failed one (in simulateValidation, this is always zero)",
            "reason": "- revert reason      The string starts with a unique code \"AAmn\", where \"m\" is \"1\" for factory, \"2\" for account and \"3\" for paymaster issues,      so a failure can be attributed to the correct entity.   Should be caught in off-chain handleOps simulation and not happen on-chain.   Useful for mitigating DoS attempts against batchers or for troubleshooting of factory/account/paymaster reverts."
          }
        }
      ],
      "ValidationResult((uint256,uint256,bool,uint48,uint48,bytes),(uint256,uint256),(uint256,uint256),(uint256,uint256))": [
        {
          "params": {
            "factoryInfo": "stake information about the factory (if any)",
            "paymasterInfo": "stake information about the paymaster (if any)",
            "returnInfo": "gas and time-range returned values",
            "senderInfo": "stake information about the sender"
          }
        }
      ],
      "ValidationResultWithAggregation((uint256,uint256,bool,uint48,uint48,bytes),(uint256,uint256),(uint256,uint256),(uint256,uint256),(address,(uint256,uint256)))": [
        {
          "params": {
            "aggregatorInfo": "signature aggregation info (if the account requires signature aggregator)      bundler MUST use it to verify the signature, or reject the UserOperation",
            "factoryInfo": "stake information about the factory (if any)",
            "paymasterInfo": "stake information about the paymaster (if any)",
            "returnInfo": "gas and time-range returned values",
            "senderInfo": "stake information about the sender"
          }
        }
      ]
    },
    "kind": "dev",
    "methods": {
      "addStake(uint32)": {
        "params": {
          "unstakeDelaySec": "the new lock duration before the deposit can be withdrawn."
        }
      },
      "getDepositInfo(address)": {
        "returns": {
          "info": "- full deposit information of given account"
        }
      },
      "handleAggregatedOps(((address,uint256,bytes,bytes,uint256,uint256,uint256,uint256,uint256,bytes,bytes)[],address,bytes)[],address)": {
        "params": {
          "beneficiary": "the address to receive the fees",
          "opsPerAggregator": "the operations to execute, grouped by aggregator (or address(0) for no-aggregator accounts)"
        }
      },
      "handleOps((address,uint256,bytes,bytes,uint256,uint256,uint256,uint256,uint256,bytes,bytes)[],address)": {
        "params": {
          "beneficiary": "the address to receive the fees",
          "ops": "the operations to execute"
        }
      },
      "simulateHandleOp((address,uint256,bytes,bytes,uint256,uint256,uint256,uint256,uint256,bytes,bytes),address,bytes)": {
        "params": {
          "op": "the UserOperation to simulate",
          "target": "if nonzero, a target address to call after userop simulation. If called, the targetSuccess and targetResult        are set to the return from that call.",
          "targetCallData": "callData to pass to target address"
        }
      },
      "simulateValidation((address,uint256,bytes,bytes,uint256,uint256,uint256,uint256,uint256,bytes,bytes))": {
        "details": "this method always revert. Successful result is ValidationResult error. other errors are failures.The node must also verify it doesn't use banned opcodes, and that it doesn't reference storage outside the account's data.",
        "params": {
          "userOp": "the user operation to validate."
        }
      },
      "withdrawStake(address)": {
        "params": {
          "withdrawAddress": "the address to send withdrawn value."
        }
      },
      "withdrawTo(address,uint256)": {
        "params": {
          "withdrawAddress": "the address to send withdrawn value.",
          "withdrawAmount": "the amount to withdraw."
        }
      }
    },
    "version": 1
  },
  "userdoc": {
    "errors": {
      "ExecutionResult(uint256,uint256,uint48,uint48,bool,bytes)": [
        {
          "notice": "return value of simulateHandleOp"
        }
      ],
      "FailedOp(uint256,string)": [
        {
          "notice": "a custom revert error of handleOps, to identify the offending op.  NOTE: if simulateValidation passes successfully, there should be no reason for handleOps to fail on it."
        }
      ],
      "SenderAddressResult(address)": [
        {
          "notice": "return value of getSenderAddress"
        }
      ],
      "SignatureValidationFailed(address)": [
        {
          "notice": "error case when a signature aggregator fails to verify the aggregated signature it had created."
        }
      ],
      "ValidationResult((uint256,uint256,bool,uint48,uint48,bytes),(uint256,uint256),(uint256,uint256),(uint256,uint256))": [
        {
          "notice": "Successful result from simulateValidation."
        }
      ],
      "ValidationResultWithAggregation((uint256,uint256,bool,uint48,uint48,bytes),(uint256,uint256),(uint256,uint256),(uint256,uint256),(address,(uint256,uint256)))": [
        {
          "notice": "Successful result from simulateValidation, if the account returns a signature aggregator"
        }
      ]
    },
    "events": {
      "AccountDeployed(bytes32,address,address,address)": {
        "notice": "account \"sender\" was deployed."
      },
      "SignatureAggregatorChanged(address)": {
        "notice": "signature aggregator used by the following UserOperationEvents within this bundle."
      },
      "StakeLocked(address,uint256,uint256)": {
        "notice": "Emitted when stake or unstake delay are modified"
      },
      "StakeUnlocked(address,uint256)": {
        "notice": "Emitted once a stake is scheduled for withdrawal"
      },
      "UserOperationRevertReason(bytes32,address,uint256,bytes)": {
        "notice": "An event emitted if the UserOperation \"callData\" reverted with non-zero length"
      }
    },
    "kind": "user",
    "methods": {
      "SIG_VALIDATION_FAILED()": {
        "notice": "for simulation purposes, validateUserOp (and validatePaymasterUserOp) must return this value in case of signature failure, instead of revert."
      },
      "_validateSenderAndPaymaster(bytes,address,bytes)": {
        "notice": "Called only during simulation. This function always reverts to prevent warm/cold storage differentiation in simulation vs execution."
      },
      "addStake(uint32)": {
        "notice": "add to the account's stake - amount and delay any pending unstake is first cancelled."
      },
      "balanceOf(address)": {
        "notice": "return the deposit (for gas payment) of the account"
      },
      "depositTo(address)": {
        "notice": "add to the deposit of the given account"
      },
      "deposits(address)": {
        "notice": "maps paymaster to their deposits and stakes"
      },
      "getUserOpHash((address,uint256,bytes,bytes,uint256,uint256,uint256,uint256,uint256,bytes,bytes))": {
        "notice": "generate a request Id - unique identifier for this request. the request ID is a hash over the content of the userOp (except the signature), the entrypoint and the chainid."
      },
      "handleAggregatedOps(((address,uint256,bytes,bytes,uint256,uint256,uint256,uint256,uint256,bytes,bytes)[],address,bytes)[],address)": {
        "notice": "Execute a batch of UserOperation with Aggregators"
      },
      "handleOps((address,uint256,bytes,bytes,uint256,uint256,uint256,uint256,uint256,bytes,bytes)[],address)": {
        "notice": "Execute a batch of UserOperations. no signature aggregator is used. if any account requires an aggregator (that is, it returned an aggregator when performing simulateValidation), then handleAggregatedOps() must be used instead."
      },
      "innerHandleOp(bytes,((address,uint256,uint256,uint256,uint256,address,uint256,uint256),bytes32,uint256,uint256,uint256),bytes)": {
        "notice": "inner function to handle a UserOperation. Must be declared \"external\" to open a call context, but it can only be called by handleOps."
      },
      "simulateHandleOp((address,uint256,bytes,bytes,uint256,uint256,uint256,uint256,uint256,bytes,bytes),address,bytes)": {
        "notice": "simulate full execution of a UserOperation (including both validation and target execution) this method will always revert with \"ExecutionResult\". it performs full validation of the UserOperation, but ignores signature error. an optional target address is called after the userop succeeds, and its value is returned (before the entire call is reverted) Note that in order to collect the the success/failure of the target call, it must be executed with trace enabled to track the emitted events."
      },
      "simulateValidation((address,uint256,bytes,bytes,uint256,uint256,uint256,uint256,uint256,bytes,bytes))": {
        "notice": "Simulate a call to account.validateUserOp and paymaster.validatePaymasterUserOp."
      },
      "unlockStake()": {
        "notice": "attempt to unlock the stake. the value can be withdrawn (using withdrawStake) after the unstake delay."
      },
      "withdrawStake(address)": {
        "notice": "withdraw from the (unlocked) stake. must first call unlockStake and wait for the unstakeDelay to pass"
      },
      "withdrawTo(address,uint256)": {
        "notice": "withdraw from the deposit."
      }
    },
    "version": 1
  },
  "storageLayout": {
    "storage": [
      {
        "astId": 17929,
        "contract": "contracts/eip4337/core/EntryPoint.sol:EntryPoint",
        "label": "deposits",
        "offset": 0,
        "slot": "0",
        "type": "t_mapping(t_address,t_struct(DepositInfo)18687_storage)"
      },
      {
        "astId": 15251,
        "contract": "contracts/eip4337/core/EntryPoint.sol:EntryPoint",
        "label": "senderCreator",
        "offset": 0,
        "slot": "1",
        "type": "t_contract(SenderCreator)17917"
      }
    ],
    "types": {
      "t_address": {
        "encoding": "inplace",
        "label": "address",
        "numberOfBytes": "20"
      },
      "t_bool": {
        "encoding": "inplace",
        "label": "bool",
        "numberOfBytes": "1"
      },
      "t_contract(SenderCreator)17917": {
        "encoding": "inplace",
        "label": "contract SenderCreator",
        "numberOfBytes": "20"
      },
      "t_mapping(t_address,t_struct(DepositInfo)18687_storage)": {
        "encoding": "mapping",
        "key": "t_address",
        "label": "mapping(address => struct IStakeManager.DepositInfo)",
        "numberOfBytes": "32",
        "value": "t_struct(DepositInfo)18687_storage"
      },
      "t_struct(DepositInfo)18687_storage": {
        "encoding": "inplace",
        "label": "struct IStakeManager.DepositInfo",
        "members": [
          {
            "astId": 18678,
            "contract": "contracts/eip4337/core/EntryPoint.sol:EntryPoint",
            "label": "deposit",
            "offset": 0,
            "slot": "0",
            "type": "t_uint112"
          },
          {
            "astId": 18680,
            "contract": "contracts/eip4337/core/EntryPoint.sol:EntryPoint",
            "label": "staked",
            "offset": 14,
            "slot": "0",
            "type": "t_bool"
          },
          {
            "astId": 18682,
            "contract": "contracts/eip4337/core/EntryPoint.sol:EntryPoint",
            "label": "stake",
            "offset": 15,
            "slot": "0",
            "type": "t_uint112"
          },
          {
            "astId": 18684,
            "contract": "contracts/eip4337/core/EntryPoint.sol:EntryPoint",
            "label": "unstakeDelaySec",
            "offset": 0,
            "slot": "1",
            "type": "t_uint32"
          },
          {
            "astId": 18686,
            "contract": "contracts/eip4337/core/EntryPoint.sol:EntryPoint",
            "label": "withdrawTime",
            "offset": 4,
            "slot": "1",
            "type": "t_uint48"
          }
        ],
        "numberOfBytes": "64"
      },
      "t_uint112": {
        "encoding": "inplace",
        "label": "uint112",
        "numberOfBytes": "14"
      },
      "t_uint32": {
        "encoding": "inplace",
        "label": "uint32",
        "numberOfBytes": "4"
      },
      "t_uint48": {
        "encoding": "inplace",
        "label": "uint48",
        "numberOfBytes": "6"
      }
    }
  }
}