{
  "address": "0x1E838b0cDf9613A77256c740bE114dAF4Ab32C92",
  "abi": [
    {
      "inputs": [
        {
          "internalType": "contract IEntryPoint",
          "name": "entryPoint_",
          "type": "address"
        }
      ],
      "stateMutability": "nonpayable",
      "type": "constructor"
    },
    {
      "anonymous": false,
      "inputs": [
        {
          "components": [
            {
              "internalType": "address",
              "name": "owner",
              "type": "address"
            },
            {
              "internalType": "bytes4",
              "name": "uniqueId",
              "type": "bytes4"
            },
            {
              "internalType": "uint64",
              "name": "expires",
              "type": "uint64"
            }
          ],
          "indexed": false,
          "internalType": "struct SessionManager.Session",
          "name": "session",
          "type": "tuple"
        },
        {
          "indexed": false,
          "internalType": "bytes4",
          "name": "storageKey",
          "type": "bytes4"
        }
      ],
      "name": "AddOrUpdateSession",
      "type": "event"
    },
    {
      "anonymous": false,
      "inputs": [
        {
          "indexed": false,
          "internalType": "address",
          "name": "handler",
          "type": "address"
        }
      ],
      "name": "ChangedFallbackHandler",
      "type": "event"
    },
    {
      "anonymous": false,
      "inputs": [
        {
          "indexed": false,
          "internalType": "address",
          "name": "sessionOwner",
          "type": "address"
        }
      ],
      "name": "ChangedSafeSession",
      "type": "event"
    },
    {
      "anonymous": false,
      "inputs": [
        {
          "indexed": false,
          "internalType": "address",
          "name": "module",
          "type": "address"
        }
      ],
      "name": "DisabledModule",
      "type": "event"
    },
    {
      "anonymous": false,
      "inputs": [
        {
          "indexed": false,
          "internalType": "address",
          "name": "module",
          "type": "address"
        }
      ],
      "name": "EnabledModule",
      "type": "event"
    },
    {
      "anonymous": false,
      "inputs": [
        {
          "indexed": true,
          "internalType": "address",
          "name": "module",
          "type": "address"
        }
      ],
      "name": "ExecutionFromModuleFailure",
      "type": "event"
    },
    {
      "anonymous": false,
      "inputs": [
        {
          "indexed": true,
          "internalType": "address",
          "name": "module",
          "type": "address"
        }
      ],
      "name": "ExecutionFromModuleSuccess",
      "type": "event"
    },
    {
      "anonymous": false,
      "inputs": [
        {
          "indexed": true,
          "internalType": "address",
          "name": "sender",
          "type": "address"
        },
        {
          "indexed": false,
          "internalType": "uint256",
          "name": "value",
          "type": "uint256"
        }
      ],
      "name": "NativeTokenReceived",
      "type": "event"
    },
    {
      "anonymous": false,
      "inputs": [
        {
          "indexed": false,
          "internalType": "bytes4",
          "name": "storageKey",
          "type": "bytes4"
        }
      ],
      "name": "RemovedSession",
      "type": "event"
    },
    {
      "stateMutability": "nonpayable",
      "type": "fallback"
    },
    {
      "inputs": [],
      "name": "VERSION",
      "outputs": [
        {
          "internalType": "string",
          "name": "",
          "type": "string"
        }
      ],
      "stateMutability": "view",
      "type": "function"
    },
    {
      "inputs": [],
      "name": "_ADD_SESSION_TYPEHASH",
      "outputs": [
        {
          "internalType": "bytes32",
          "name": "",
          "type": "bytes32"
        }
      ],
      "stateMutability": "view",
      "type": "function"
    },
    {
      "inputs": [],
      "name": "_RECOVER_TYPEHASH",
      "outputs": [
        {
          "internalType": "bytes32",
          "name": "",
          "type": "bytes32"
        }
      ],
      "stateMutability": "view",
      "type": "function"
    },
    {
      "inputs": [],
      "name": "_entryPoint",
      "outputs": [
        {
          "internalType": "address",
          "name": "",
          "type": "address"
        }
      ],
      "stateMutability": "view",
      "type": "function"
    },
    {
      "inputs": [
        {
          "components": [
            {
              "internalType": "address",
              "name": "owner",
              "type": "address"
            },
            {
              "internalType": "bytes4",
              "name": "uniqueId",
              "type": "bytes4"
            },
            {
              "internalType": "uint64",
              "name": "expires",
              "type": "uint64"
            }
          ],
          "internalType": "struct SessionManager.Session",
          "name": "session",
          "type": "tuple"
        }
      ],
      "name": "addOrUpdateSession",
      "outputs": [],
      "stateMutability": "nonpayable",
      "type": "function"
    },
    {
      "inputs": [
        {
          "internalType": "address",
          "name": "module",
          "type": "address"
        }
      ],
      "name": "disableModule",
      "outputs": [],
      "stateMutability": "nonpayable",
      "type": "function"
    },
    {
      "inputs": [],
      "name": "domainSeparator",
      "outputs": [
        {
          "internalType": "bytes32",
          "name": "",
          "type": "bytes32"
        }
      ],
      "stateMutability": "view",
      "type": "function"
    },
    {
      "inputs": [
        {
          "internalType": "address",
          "name": "module",
          "type": "address"
        }
      ],
      "name": "enableModule",
      "outputs": [],
      "stateMutability": "nonpayable",
      "type": "function"
    },
    {
      "inputs": [],
      "name": "entryPoint",
      "outputs": [
        {
          "internalType": "contract IEntryPoint",
          "name": "",
          "type": "address"
        }
      ],
      "stateMutability": "view",
      "type": "function"
    },
    {
      "inputs": [
        {
          "internalType": "address",
          "name": "to",
          "type": "address"
        },
        {
          "internalType": "uint256",
          "name": "value",
          "type": "uint256"
        },
        {
          "internalType": "bytes",
          "name": "data",
          "type": "bytes"
        },
        {
          "internalType": "enum Enum.Operation",
          "name": "operation",
          "type": "uint8"
        }
      ],
      "name": "execTransactionFromModule",
      "outputs": [
        {
          "internalType": "bool",
          "name": "success",
          "type": "bool"
        }
      ],
      "stateMutability": "nonpayable",
      "type": "function"
    },
    {
      "inputs": [
        {
          "internalType": "address",
          "name": "to",
          "type": "address"
        },
        {
          "internalType": "uint256",
          "name": "value",
          "type": "uint256"
        },
        {
          "internalType": "bytes",
          "name": "data",
          "type": "bytes"
        },
        {
          "internalType": "enum Enum.Operation",
          "name": "operation",
          "type": "uint8"
        }
      ],
      "name": "execTransactionFromModuleReturnData",
      "outputs": [
        {
          "internalType": "bool",
          "name": "success",
          "type": "bool"
        },
        {
          "internalType": "bytes",
          "name": "returnData",
          "type": "bytes"
        }
      ],
      "stateMutability": "nonpayable",
      "type": "function"
    },
    {
      "inputs": [
        {
          "components": [
            {
              "internalType": "enum Enum.Operation",
              "name": "op",
              "type": "uint8"
            },
            {
              "internalType": "bool",
              "name": "revertOnError",
              "type": "bool"
            },
            {
              "internalType": "uint256",
              "name": "gasLimit",
              "type": "uint256"
            },
            {
              "internalType": "address",
              "name": "target",
              "type": "address"
            },
            {
              "internalType": "uint256",
              "name": "value",
              "type": "uint256"
            },
            {
              "internalType": "bytes",
              "name": "data",
              "type": "bytes"
            }
          ],
          "internalType": "struct Transaction[]",
          "name": "_txs",
          "type": "tuple[]"
        }
      ],
      "name": "execute",
      "outputs": [],
      "stateMutability": "nonpayable",
      "type": "function"
    },
    {
      "inputs": [
        {
          "internalType": "address",
          "name": "_module",
          "type": "address"
        },
        {
          "internalType": "uint256",
          "name": "_value",
          "type": "uint256"
        },
        {
          "internalType": "bytes",
          "name": "_data",
          "type": "bytes"
        }
      ],
      "name": "executeWithModule",
      "outputs": [],
      "stateMutability": "nonpayable",
      "type": "function"
    },
    {
      "inputs": [
        {
          "components": [
            {
              "internalType": "address",
              "name": "safeSessionKey",
              "type": "address"
            },
            {
              "internalType": "uint256",
              "name": "recoverNonce",
              "type": "uint256"
            }
          ],
          "internalType": "struct SecurityManager.Recover",
          "name": "_recover",
          "type": "tuple"
        },
        {
          "internalType": "bytes",
          "name": "_authProof",
          "type": "bytes"
        },
        {
          "components": [
            {
              "internalType": "enum Enum.Operation",
              "name": "op",
              "type": "uint8"
            },
            {
              "internalType": "bool",
              "name": "revertOnError",
              "type": "bool"
            },
            {
              "internalType": "uint256",
              "name": "gasLimit",
              "type": "uint256"
            },
            {
              "internalType": "address",
              "name": "target",
              "type": "address"
            },
            {
              "internalType": "uint256",
              "name": "value",
              "type": "uint256"
            },
            {
              "internalType": "bytes",
              "name": "data",
              "type": "bytes"
            }
          ],
          "internalType": "struct Transaction[]",
          "name": "_txs",
          "type": "tuple[]"
        }
      ],
      "name": "executeWithSodiumAuthRecover",
      "outputs": [],
      "stateMutability": "nonpayable",
      "type": "function"
    },
    {
      "inputs": [
        {
          "components": [
            {
              "internalType": "address",
              "name": "sessionKey",
              "type": "address"
            },
            {
              "internalType": "bytes4",
              "name": "sessionUniqueId",
              "type": "bytes4"
            },
            {
              "internalType": "uint64",
              "name": "sessionExpires",
              "type": "uint64"
            }
          ],
          "internalType": "struct SecurityManager.AddSession",
          "name": "_addSession",
          "type": "tuple"
        },
        {
          "internalType": "bytes",
          "name": "_authProof",
          "type": "bytes"
        },
        {
          "components": [
            {
              "internalType": "enum Enum.Operation",
              "name": "op",
              "type": "uint8"
            },
            {
              "internalType": "bool",
              "name": "revertOnError",
              "type": "bool"
            },
            {
              "internalType": "uint256",
              "name": "gasLimit",
              "type": "uint256"
            },
            {
              "internalType": "address",
              "name": "target",
              "type": "address"
            },
            {
              "internalType": "uint256",
              "name": "value",
              "type": "uint256"
            },
            {
              "internalType": "bytes",
              "name": "data",
              "type": "bytes"
            }
          ],
          "internalType": "struct Transaction[]",
          "name": "_txs",
          "type": "tuple[]"
        }
      ],
      "name": "executeWithSodiumAuthSession",
      "outputs": [],
      "stateMutability": "nonpayable",
      "type": "function"
    },
    {
      "inputs": [],
      "name": "getChainId",
      "outputs": [
        {
          "internalType": "uint256",
          "name": "",
          "type": "uint256"
        }
      ],
      "stateMutability": "view",
      "type": "function"
    },
    {
      "inputs": [],
      "name": "getNonce",
      "outputs": [
        {
          "internalType": "uint256",
          "name": "",
          "type": "uint256"
        }
      ],
      "stateMutability": "view",
      "type": "function"
    },
    {
      "inputs": [],
      "name": "getSingleton",
      "outputs": [
        {
          "internalType": "address",
          "name": "_imp",
          "type": "address"
        }
      ],
      "stateMutability": "view",
      "type": "function"
    },
    {
      "inputs": [
        {
          "internalType": "address",
          "name": "module",
          "type": "address"
        }
      ],
      "name": "isModuleEnabled",
      "outputs": [
        {
          "internalType": "bool",
          "name": "",
          "type": "bool"
        }
      ],
      "stateMutability": "view",
      "type": "function"
    },
    {
      "inputs": [
        {
          "internalType": "address",
          "name": "owner",
          "type": "address"
        }
      ],
      "name": "isSessionOwner",
      "outputs": [
        {
          "internalType": "bool",
          "name": "existing",
          "type": "bool"
        },
        {
          "internalType": "bool",
          "name": "isSafe",
          "type": "bool"
        }
      ],
      "stateMutability": "view",
      "type": "function"
    },
    {
      "inputs": [],
      "name": "isSodiumSingleton",
      "outputs": [
        {
          "internalType": "bool",
          "name": "",
          "type": "bool"
        }
      ],
      "stateMutability": "pure",
      "type": "function"
    },
    {
      "inputs": [
        {
          "internalType": "address",
          "name": "handler",
          "type": "address"
        }
      ],
      "name": "setFallbackHandler",
      "outputs": [],
      "stateMutability": "nonpayable",
      "type": "function"
    },
    {
      "inputs": [
        {
          "internalType": "contract ISodiumAuth",
          "name": "_auth",
          "type": "address"
        }
      ],
      "name": "setSodiumNetworkAuth",
      "outputs": [],
      "stateMutability": "nonpayable",
      "type": "function"
    },
    {
      "inputs": [
        {
          "internalType": "contract IUserOperationValidator",
          "name": "_validator",
          "type": "address"
        }
      ],
      "name": "setUserOperationValidator",
      "outputs": [],
      "stateMutability": "nonpayable",
      "type": "function"
    },
    {
      "inputs": [
        {
          "internalType": "contract ISodiumAuth",
          "name": "_sodiumAuth",
          "type": "address"
        },
        {
          "internalType": "address",
          "name": "_fallbackHandler",
          "type": "address"
        },
        {
          "internalType": "address",
          "name": "_opValidator",
          "type": "address"
        }
      ],
      "name": "setup",
      "outputs": [],
      "stateMutability": "nonpayable",
      "type": "function"
    },
    {
      "inputs": [
        {
          "internalType": "contract Sodium",
          "name": "newSingleton",
          "type": "address"
        }
      ],
      "name": "upgradeTo",
      "outputs": [],
      "stateMutability": "nonpayable",
      "type": "function"
    },
    {
      "inputs": [
        {
          "components": [
            {
              "internalType": "address",
              "name": "sessionKey",
              "type": "address"
            },
            {
              "internalType": "bytes4",
              "name": "sessionUniqueId",
              "type": "bytes4"
            },
            {
              "internalType": "uint64",
              "name": "sessionExpires",
              "type": "uint64"
            }
          ],
          "internalType": "struct SecurityManager.AddSession",
          "name": "_addSession",
          "type": "tuple"
        },
        {
          "internalType": "bytes",
          "name": "_authProof",
          "type": "bytes"
        }
      ],
      "name": "validateAddSessionProof",
      "outputs": [],
      "stateMutability": "view",
      "type": "function"
    },
    {
      "inputs": [
        {
          "components": [
            {
              "internalType": "address",
              "name": "safeSessionKey",
              "type": "address"
            },
            {
              "internalType": "uint256",
              "name": "recoverNonce",
              "type": "uint256"
            }
          ],
          "internalType": "struct SecurityManager.Recover",
          "name": "_recover",
          "type": "tuple"
        },
        {
          "internalType": "bytes",
          "name": "_authProof",
          "type": "bytes"
        }
      ],
      "name": "validateRecoverProof",
      "outputs": [],
      "stateMutability": "nonpayable",
      "type": "function"
    },
    {
      "inputs": [
        {
          "components": [
            {
              "internalType": "address",
              "name": "sender",
              "type": "address"
            },
            {
              "internalType": "uint256",
              "name": "nonce",
              "type": "uint256"
            },
            {
              "internalType": "bytes",
              "name": "initCode",
              "type": "bytes"
            },
            {
              "internalType": "bytes",
              "name": "callData",
              "type": "bytes"
            },
            {
              "internalType": "uint256",
              "name": "callGasLimit",
              "type": "uint256"
            },
            {
              "internalType": "uint256",
              "name": "verificationGasLimit",
              "type": "uint256"
            },
            {
              "internalType": "uint256",
              "name": "preVerificationGas",
              "type": "uint256"
            },
            {
              "internalType": "uint256",
              "name": "maxFeePerGas",
              "type": "uint256"
            },
            {
              "internalType": "uint256",
              "name": "maxPriorityFeePerGas",
              "type": "uint256"
            },
            {
              "internalType": "bytes",
              "name": "paymasterAndData",
              "type": "bytes"
            },
            {
              "internalType": "bytes",
              "name": "signature",
              "type": "bytes"
            }
          ],
          "internalType": "struct UserOperation",
          "name": "userOp",
          "type": "tuple"
        },
        {
          "internalType": "bytes32",
          "name": "userOpHash",
          "type": "bytes32"
        },
        {
          "internalType": "uint256",
          "name": "missingAccountFunds",
          "type": "uint256"
        }
      ],
      "name": "validateUserOp",
      "outputs": [
        {
          "internalType": "uint256",
          "name": "validationData",
          "type": "uint256"
        }
      ],
      "stateMutability": "nonpayable",
      "type": "function"
    },
    {
      "stateMutability": "payable",
      "type": "receive"
    }
  ],
  "transactionHash": "0x41d6651de2f4475ca386da1a57f484e8decdaf9a148476f7d153853272c94034",
  "args": [
    "0x5FF137D4b0FDCD49DcA30c7CF57E578a026d2789"
  ],
  "numDeployments": 1,
  "solcInputHash": "b8650b41104fa2bd5a4dd853eb4b356d",
  "bytecode": "0x60a06040523480156200001157600080fd5b5060405162002f2038038062002f20833981016040819052620000349162000046565b6001600160a01b031660805262000078565b6000602082840312156200005957600080fd5b81516001600160a01b03811681146200007157600080fd5b9392505050565b608051612e77620000a9600039600081816104d10152818161051b01528181610ebf01526112010152612e776000f3fe6080604052600436106101c65760003560e01c8063a71d052b116100f7578063cb103d7011610095578063f08a032311610064578063f08a03231461061a578063f3a961ca1461063a578063f698da251461065a578063ffa1ad741461066f57610202565b8063cb103d70146105b1578063d087d288146105c5578063d3874edf146105da578063eb761718146105fa57610202565b8063b3080c24116100d1578063b3080c2414610509578063b964f8781461053d578063bbc1c74f14610571578063c300981e1461059157610202565b8063a71d052b1461048e578063a95f5246146104a2578063b0d691fe146104c257610202565b8063468721a711610164578063610b59251161013e578063610b59251461040e57806377b8b1c71461042e578063861067261461044e57806391ca23d91461046e57610202565b8063468721a7146103895780634b574a02146103a95780635229073f146103e057610202565b80633408e470116101a05780633408e470146102f85780633659cfe614610315578063378cf804146103355780633a871cdd1461036957610202565b80630d192f8d1461026857806328f8aa4d1461028a5780632d9ad53d146102aa57610202565b366102025760405134815233907f9820dd13494dd7d9f03807aa0bb724fe8266855b5ac4db99848a199904f8074b9060200160405180910390a2005b34801561020e57600080fd5b507f6c9a6c4a39284e37ed1cf53d337577d14212a4870fb976a4366c693b939918d580548061023957005b36600080373360601b365260008060143601600080855af190503d6000803e80610262573d6000fd5b503d6000f35b34801561027457600080fd5b5061028861028336600461235e565b6106ad565b005b34801561029657600080fd5b506102886102a53660046123f1565b6106ee565b3480156102b657600080fd5b506102e36102c5366004612479565b6001600160a01b031660009081526001602052604090205460ff1690565b60405190151581526020015b60405180910390f35b34801561030457600080fd5b50465b6040519081526020016102ef565b34801561032157600080fd5b50610288610330366004612479565b610788565b34801561034157600080fd5b506103077fdb53bc3f8ea86d0def94644136fcf091e6d7df8e8b19de81f3850704cf35d46881565b34801561037557600080fd5b50610307610384366004612496565b610847565b34801561039557600080fd5b506102e36103a43660046125d5565b610876565b3480156103b557600080fd5b506103c96103c4366004612479565b610938565b6040805192151583529015156020830152016102ef565b3480156103ec57600080fd5b506104006103fb3660046125d5565b610a48565b6040516102ef92919061268e565b34801561041a57600080fd5b50610288610429366004612479565b610a7e565b34801561043a57600080fd5b506102886104493660046126a9565b610b35565b34801561045a57600080fd5b50610288610469366004612479565b610c20565b34801561047a57600080fd5b506102886104893660046126f4565b610c31565b34801561049a57600080fd5b5060016102e3565b3480156104ae57600080fd5b506102886104bd366004612479565b610d82565b3480156104ce57600080fd5b507f00000000000000000000000000000000000000000000000000000000000000005b6040516001600160a01b0390911681526020016102ef565b34801561051557600080fd5b506104f17f000000000000000000000000000000000000000000000000000000000000000081565b34801561054957600080fd5b506103077f31829d07c4d3c646006e946f988ff19ce6e7b36b244862de7ad825b17bd54d5281565b34801561057d57600080fd5b5061028861058c366004612776565b610e2d565b34801561059d57600080fd5b506102886105ac3660046127e3565b610e3e565b3480156105bd57600080fd5b5030546104f1565b3480156105d157600080fd5b50610307610ebb565b3480156105e657600080fd5b506102886105f536600461283b565b610f54565b34801561060657600080fd5b50610288610615366004612981565b611113565b34801561062657600080fd5b50610288610635366004612479565b611124565b34801561064657600080fd5b50610288610655366004612479565b61118d565b34801561066657600080fd5b5061030761119e565b34801561067b57600080fd5b506106a060405180604001604052806005815260200164302e302e3160d81b81525081565b6040516102ef91906129c9565b6106b56111f6565b6106c0858585610f54565b6106d56106d06020870187612479565b611270565b6106e76106e282846129dc565b6112f9565b5050505050565b6106f66111f6565b610701858585610c31565b60408051606081019091526000908061071d6020890189612479565b6001600160a01b0316815260200187602001602081019061073e91906129e9565b6001600160e01b031916815260200161075d6060890160408a01612a04565b6001600160401b031690529050610773816114d0565b6107806106e283856129dc565b505050505050565b610790611708565b806001600160a01b031663a71d052b6040518163ffffffff1660e01b8152600401602060405180830381865afa1580156107ce573d6000803e3d6000fd5b505050506040513d601f19601f820116820180604052508101906107f29190612a1f565b61083c5760405162461bcd60e51b81526020600482015260166024820152752737ba10309029b7b234bab69039b4b733b632ba37b760511b60448201526064015b60405180910390fd5b610844813055565b50565b60006108516111f6565b61085b848461173f565b905061086682611c11565b61086f84611c5e565b9392505050565b3360009081526001602052604081205460ff166108bf5760405162461bcd60e51b815260206004820152600760248201526614d113534c4c0d60ca1b6044820152606401610833565b6108cc858585855a611e54565b905080156109045760405133907f6895c13664aa4f67288b25d7a21d7aaa34916e355fb9b6fae0a139a9085becb890600090a2610930565b60405133907facd2c8702804128fdb0db2bb49f6d127dd0181c13fd45dbfe16de0930e2bd37590600090a25b949350505050565b6000806001600160a01b03831661095457506000928392509050565b6004546001600160a01b03908116801515918516036109795750600193849350915050565b6001600160a01b0384811660009081526003602090815260408083205460e090811b6001600160e01b03198181168652600285529483902083516060810185529054968716808252600160a01b880490931b90951693850193909352600160c01b9094046001600160401b031690830152916109fd57506000958695509350505050565b600081604001516001600160401b0316118015610a2657504281604001516001600160401b0316105b15610a3957506000958695509350505050565b50600195911594509092505050565b60006060610a5886868686610876565b915060405160203d0181016040523d81523d6000602083013e8091505094509492505050565b610a86611708565b6001600160a01b03811660009081526001602052604090205460ff1615610ad95760405162461bcd60e51b815260206004820152600760248201526653444d4d31303160c81b6044820152606401610833565b6001600160a01b038116600081815260016020818152604092839020805460ff191690921790915590519182527fecdf3a3effea5783a3c4c2140e677577666428d44ed9d474a0b3a4c9943f844091015b60405180910390a150565b60055460ff1615610b7e5760405162461bcd60e51b8152602060048201526013602482015272105b1c9958591e481a5b9a5d1a585b1a5e9959606a1b6044820152606401610833565b6001600160a01b038216610bd45760405162461bcd60e51b815260206004820152601960248201527f52657175697265642066616c6c6261636b2068616e646c6572000000000000006044820152606401610833565b6005805460ff19166001179055610c09827f6c9a6c4a39284e37ed1cf53d337577d14212a4870fb976a4366c693b939918d555565b610c1283611e9b565b610c1b81611f02565b505050565b610c28611708565b61084481611f02565b42610c426060850160408601612a04565b6001600160401b031611610c815760405162461bcd60e51b8152602060048201526006602482015265534d4153303560d01b6044820152606401610833565b60007f31829d07c4d3c646006e946f988ff19ce6e7b36b244862de7ad825b17bd54d5284604051602001610cb6929190612a3c565b6040516020818303038152906040528051906020012090506000610cd982611f65565b90506000610d057fe5230392f47deb1a37e1df3b9ee1d04b8a457138ebb1a61edeb61872e6c423225490565b6040516348203b0760e01b81529091506001600160a01b038216906348203b0790610d3890859089908990600401612ac5565b602060405180830381865afa158015610d55573d6000803e3d6000fd5b505050506040513d601f19601f82011682018060405250810190610d799190612a1f565b50505050505050565b610d8a611708565b6001600160a01b03811660009081526001602052604090205460ff16610ddc5760405162461bcd60e51b815260206004820152600760248201526653444d4d31303160c81b6044820152606401610833565b6001600160a01b038116600081815260016020908152604091829020805460ff1916905590519182527faab4fa2b463f581b2b32cb3b7e3b704b9ce37cc209b5fb4d77e593ace40542769101610b2a565b610e35611708565b610844816114d0565b610e466111f6565b60006060846001600160a01b0316845a9085604051610e659190612adf565b600060405180830381858888f193505050503d8060008114610ea3576040519150601f19603f3d011682016040523d82523d6000602084013e610ea8565b606091505b509092509050816106e757805160208201fd5b60007f0000000000000000000000000000000000000000000000000000000000000000604051631aab3f0d60e11b8152306004820152600060248201526001600160a01b0391909116906335567e1a90604401602060405180830381865afa158015610f2b573d6000803e3d6000fd5b505050506040513d601f19601f82011682018060405250810190610f4f9190612afb565b905090565b7febd64025eccab0d68ffd8dbdf22f162b40c6e98dc2bf27a2eabea8004135b99f5483602001351015610fb15760405162461bcd60e51b8152602060048201526005602482015264534d52303160d81b6044820152606401610833565b60007fdb53bc3f8ea86d0def94644136fcf091e6d7df8e8b19de81f3850704cf35d46884604051602001610fe6929190612b14565b604051602081830303815290604052805190602001209050600061100982611f65565b905060006110357fe5230392f47deb1a37e1df3b9ee1d04b8a457138ebb1a61edeb61872e6c423225490565b6040516348203b0760e01b81529091506001600160a01b038216906348203b079061106890859089908990600401612ac5565b602060405180830381865afa158015611085573d6000803e3d6000fd5b505050506040513d601f19601f820116820180604052508101906110a99190612a1f565b6110dd5760405162461bcd60e51b8152602060048201526005602482015264534d52303360d81b6044820152606401610833565b6107806110ef60208801356001612b5e565b7febd64025eccab0d68ffd8dbdf22f162b40c6e98dc2bf27a2eabea8004135b99f55565b61111b6111f6565b610844816112f9565b61112c611708565b611154817f6c9a6c4a39284e37ed1cf53d337577d14212a4870fb976a4366c693b939918d555565b6040516001600160a01b03821681527f5ac6c46c93c8d0e53714ba3b53db3e7c046da994313d7ed0d192028bc7c228b090602001610b2a565b611195611708565b61084481611e9b565b60007f47e79534a245952e8b16893a336b85a3d9ea9fa8c573f3d803afb92a79469218466040805160208101939093528201523060608201526080015b60405160208183030381529060405280519060200120905090565b336001600160a01b037f0000000000000000000000000000000000000000000000000000000000000000161461126e5760405162461bcd60e51b815260206004820152601c60248201527f6163636f756e743a206e6f742066726f6d20456e747279506f696e74000000006044820152606401610833565b565b604080516060810182526001600160a01b038316808252635cea321160e11b602080840191909152600083850152600480546001600160c01b0319168317635cea321160a11b176001600160c01b03169055925190815290917ffa12114790d31d64c8d58b8d82cc1ee4a33374f9722f0327d08db01f53658cf891015b60405180910390a15050565b60005b81518110156114cc57600082828151811061131957611319612b71565b602002602001015190506000606082604001515a10156113745760405162461bcd60e51b8152602060048201526016602482015275536f6469756d3a204e4f545f454e4f5547485f47415360501b6044820152606401610833565b60018351600181111561138957611389612b87565b036114125782606001516001600160a01b031683604001516000146113b25783604001516113b4565b5a5b8460a001516040516113c69190612adf565b6000604051808303818686f4925050503d8060008114611402576040519150601f19603f3d011682016040523d82523d6000602084013e611407565b606091505b50909250905061149a565b82606001516001600160a01b03168360800151846040015160001461143b57846040015161143d565b5a5b908560a001516040516114509190612adf565b600060405180830381858888f193505050503d806000811461148e576040519150601f19603f3d011682016040523d82523d6000602084013e611493565b606091505b5090925090505b811580156114a9575082602001515b156114b657805160208201fd5b50505080806114c490612b9d565b9150506112fc565b5050565b80516001600160a01b03166115335760405162461bcd60e51b8152602060048201526024808201527f73657373696f6e206f776e65722063616e6e6f74206265207a65726f206164646044820152637265737360e01b6064820152608401610833565b600081604001516001600160401b0316116115a25760405162461bcd60e51b815260206004820152602960248201527f73657373696f6e2065787069726573206d7573742062652067726561746572206044820152687468616e207a65726f60b81b6064820152608401610833565b6020818101516001600160e01b0319908116600090815260028352604090819020815160608101835290546001600160a01b038116808352600160a01b820460e01b90941694820194909452600160c01b9093046001600160401b0316908301521561162d5780516001600160a01b03166000908152600360205260409020805463ffffffff191690555b602082810180516001600160e01b03199081166000908152600284526040808220875181548651848b0180516001600160a01b039485166001600160c01b03199094168417600160a01b60e09490941c938402176001600160c01b0316600160c01b6001600160401b0392831602179095559186526003895294849020805463ffffffff1916909517909455855183518a51909216825295518516968101969096529151909116908401521660608201527f01e74df6c6bdc37dc1afe188087562a38bed53bd10947c71b129ee4004ce92e8906080016112ed565b33301461126e5760405162461bcd60e51b8152602060048201526005602482015264475330333160d81b6044820152606401610833565b60008061174f6060850185612bb6565b61175e91600491600091612bfc565b61176791612c26565b9050600061177484611fad565b905060006117c48261178a610140890189612bb6565b8080601f016020809104026020016040519081016040528093929190818152602001838380828437600092019190915250611fe892505050565b905063f2e6d07360e01b6001600160e01b0319841601611866576000806117ee6060890189612bb6565b6117fd91602491601091612bfc565b8080601f0160208091040260200160405190810160405280939291908181526020018383808284376000920191909152505050506014810151925090506001600160a01b0383811690831614611854576001611857565b60005b60ff1695505050505050611c0b565b63d70755b360e01b6001600160e01b03198416016119b15760008061188e6060890189612bb6565b61189d91602491601091612bfc565b8080601f016020809104026020016040519081016040528093929190818152602001838380828437600092018290525060148501516004549097509495506001600160a01b03909416159392506118f6915061200c9050565b90508161197457604051638393db0b60e01b81526002906001600160a01b03831690638393db0b9061192c908e90600401612d92565b602060405180830381865afa158015611949573d6000803e3d6000fd5b505050506040513d601f19601f8201168201806040525081019061196d9190612da5565b60ff161091505b846001600160a01b0316846001600160a01b03161480156119925750815b61199d5760016119a0565b60005b60ff16975050505050505050611c0b565b631e7fb3f160e11b6001600160e01b0319841601611ad8576000806119d96060890189612bb6565b6119e891602491601091612bfc565b8080601f016020809104026020016040519081016040528093929190818152602001838380828437600092019190915250505060148201519350909150611a499050826001600160a01b031660009081526001602052604090205460ff1690565b611a5b57600195505050505050611c0b565b604051631179c1f560e11b81526001600160a01b038316906322f383ea90611a89908b908b90600401612dc8565b6020604051808303816000875af1158015611aa8573d6000803e3d6000fd5b505050506040513d601f19601f82011682018060405250810190611acc9190612afb565b95505050505050611c0b565b6302913d1d60e31b6001600160e01b0319841601611bd057600080611afc83610938565b915091506000611b2a7f26af6f34783f6c05ad199b86190c89039b6a27ab2bac01a0ef363037be08c64e5490565b905081611ba857604051638393db0b60e01b81526002906001600160a01b03831690638393db0b90611b60908d90600401612d92565b602060405180830381865afa158015611b7d573d6000803e3d6000fd5b505050506040513d601f19601f82011682018060405250810190611ba19190612da5565b60ff161091505b828015611bb25750815b611bbd576001611bc0565b60005b60ff169650505050505050611c0b565b60405162461bcd60e51b815260206004820152601060248201526f1a5b9d985b1a59081b595d1a1bd9125960821b6044820152606401610833565b92915050565b801561084457604051600090339060001990849084818181858888f193505050503d80600081146106e7576040519150601f19603f3d011682016040523d82523d6000602084013e6106e7565b366000611c6f610120840184612bb6565b9092509050602c8114611c8157505050565b63095ea7b360e01b611c97601860148486612bfc565b611ca091612c26565b6001600160e01b03191603610c1b576000611cbe6014828486612bfc565b611cc791612dea565b60601c90506000611cdb8360188187612bfc565b611ce491612dea565b6040516382d2d97160e01b815260609190911c60048201819052915060009081906001600160a01b038516906382d2d971906024016040805180830381865afa158015611d35573d6000803e3d6000fd5b505050506040513d601f19601f82011682018060405250810190611d599190612e1d565b604051636eb1769f60e11b81523060048201526001600160a01b038781166024830152929450909250839185169063dd62ed3e90604401602060405180830381865afa158015611dad573d6000803e3d6000fd5b505050506040513d601f19601f82011682018060405250810190611dd19190612afb565b1015610d795760405163095ea7b360e01b81526001600160a01b0385811660048301526024820183905284169063095ea7b3906044016020604051808303816000875af1158015611e26573d6000803e3d6000fd5b505050506040513d601f19601f82011682018060405250810190611e4a9190612a1f565b5050505050505050565b60006001836001811115611e6a57611e6a612b87565b03611e82576000808551602087018986f49050611e92565b600080855160208701888a87f190505b95945050505050565b6001600160a01b038116611eda5760405162461bcd60e51b81526004016108339060208082526004908201526314d34c0d60e21b604082015260600190565b610844817fe5230392f47deb1a37e1df3b9ee1d04b8a457138ebb1a61edeb61872e6c4232255565b6001600160a01b038116611f415760405162461bcd60e51b8152602060048201526006602482015265534d4f50303160d01b6044820152606401610833565b7f26af6f34783f6c05ad199b86190c89039b6a27ab2bac01a0ef363037be08c64e55565b6000611f6f612031565b60405161190160f01b60208201526022810191909152604281018390526062015b604051602081830303815290604052805190602001209050919050565b6040517f19457468657265756d205369676e6564204d6573736167653a0a3332000000006020820152603c8101829052600090605c01611f90565b6000806000611ff7858561206e565b91509150612004816120b3565b509392505050565b7f26af6f34783f6c05ad199b86190c89039b6a27ab2bac01a0ef363037be08c64e5490565b604080517f035aff83d86937d35b32e04f0ddc6ff469290eef2f1b692d8a815c89404d4749602082015230918101919091526000906060016111db565b60008082516041036120a45760208301516040840151606085015160001a612098878285856121fd565b945094505050506120ac565b506000905060025b9250929050565b60008160048111156120c7576120c7612b87565b036120cf5750565b60018160048111156120e3576120e3612b87565b036121305760405162461bcd60e51b815260206004820152601860248201527f45434453413a20696e76616c6964207369676e617475726500000000000000006044820152606401610833565b600281600481111561214457612144612b87565b036121915760405162461bcd60e51b815260206004820152601f60248201527f45434453413a20696e76616c6964207369676e6174757265206c656e677468006044820152606401610833565b60038160048111156121a5576121a5612b87565b036108445760405162461bcd60e51b815260206004820152602260248201527f45434453413a20696e76616c6964207369676e6174757265202773272076616c604482015261756560f01b6064820152608401610833565b6000807f7fffffffffffffffffffffffffffffff5d576e7357a4501ddfe92f46681b20a083111561223457506000905060036122b8565b6040805160008082526020820180845289905260ff881692820192909252606081018690526080810185905260019060a0016020604051602081039080840390855afa158015612288573d6000803e3d6000fd5b5050604051601f1901519150506001600160a01b0381166122b1576000600192509250506122b8565b9150600090505b94509492505050565b6000604082840312156122d357600080fd5b50919050565b60008083601f8401126122eb57600080fd5b5081356001600160401b0381111561230257600080fd5b6020830191508360208285010111156120ac57600080fd5b60008083601f84011261232c57600080fd5b5081356001600160401b0381111561234357600080fd5b6020830191508360208260051b85010111156120ac57600080fd5b60008060008060006080868803121561237657600080fd5b61238087876122c1565b945060408601356001600160401b038082111561239c57600080fd5b6123a889838a016122d9565b909650945060608801359150808211156123c157600080fd5b506123ce8882890161231a565b969995985093965092949392505050565b6000606082840312156122d357600080fd5b600080600080600060a0868803121561240957600080fd5b61241387876123df565b945060608601356001600160401b038082111561242f57600080fd5b61243b89838a016122d9565b909650945060808801359150808211156123c157600080fd5b6001600160a01b038116811461084457600080fd5b803561247481612454565b919050565b60006020828403121561248b57600080fd5b813561086f81612454565b6000806000606084860312156124ab57600080fd5b83356001600160401b038111156124c157600080fd5b840161016081870312156124d457600080fd5b95602085013595506040909401359392505050565b634e487b7160e01b600052604160045260246000fd5b60405160c081016001600160401b0381118282101715612521576125216124e9565b60405290565b604051601f8201601f191681016001600160401b038111828210171561254f5761254f6124e9565b604052919050565b600082601f83011261256857600080fd5b81356001600160401b03811115612581576125816124e9565b612594601f8201601f1916602001612527565b8181528460208386010111156125a957600080fd5b816020850160208301376000918101602001919091529392505050565b80356002811061247457600080fd5b600080600080608085870312156125eb57600080fd5b84356125f681612454565b93506020850135925060408501356001600160401b0381111561261857600080fd5b61262487828801612557565b925050612633606086016125c6565b905092959194509250565b60005b83811015612659578181015183820152602001612641565b50506000910152565b6000815180845261267a81602086016020860161263e565b601f01601f19169290920160200192915050565b82151581526040602082015260006109306040830184612662565b6000806000606084860312156126be57600080fd5b83356126c981612454565b925060208401356126d981612454565b915060408401356126e981612454565b809150509250925092565b60008060006080848603121561270957600080fd5b61271385856123df565b925060608401356001600160401b0381111561272e57600080fd5b61273a868287016122d9565b9497909650939450505050565b80356001600160e01b03198116811461247457600080fd5b80356001600160401b038116811461247457600080fd5b60006060828403121561278857600080fd5b604051606081018181106001600160401b03821117156127aa576127aa6124e9565b60405282356127b881612454565b81526127c660208401612747565b60208201526127d76040840161275f565b60408201529392505050565b6000806000606084860312156127f857600080fd5b833561280381612454565b92506020840135915060408401356001600160401b0381111561282557600080fd5b61283186828701612557565b9150509250925092565b60008060006060848603121561285057600080fd5b61285a85856122c1565b925060408401356001600160401b0381111561272e57600080fd5b801515811461084457600080fd5b60006001600160401b038084111561289d5761289d6124e9565b8360051b60206128ae818301612527565b868152935090840190808401878311156128c757600080fd5b855b83811015612975578035858111156128e15760008081fd5b870160c0818b0312156128f45760008081fd5b6128fc6124ff565b612905826125c6565b81528482013561291481612875565b818601526040828101359082015260608083013561293181612454565b908201526080828101359082015260a080830135888111156129535760008081fd5b61295f8d828601612557565b91830191909152508352509082019082016128c9565b50505050509392505050565b60006020828403121561299357600080fd5b81356001600160401b038111156129a957600080fd5b8201601f810184136129ba57600080fd5b61093084823560208401612883565b60208152600061086f6020830184612662565b600061086f368484612883565b6000602082840312156129fb57600080fd5b61086f82612747565b600060208284031215612a1657600080fd5b61086f8261275f565b600060208284031215612a3157600080fd5b815161086f81612875565b828152608081018235612a4e81612454565b6001600160a01b03166020838101919091526001600160e01b031990612a75908501612747565b1660408301526001600160401b03612a8f6040850161275f565b1660608301529392505050565b81835281816020850137506000828201602090810191909152601f909101601f19169091010190565b838152604060208201526000611e92604083018486612a9c565b60008251612af181846020870161263e565b9190910192915050565b600060208284031215612b0d57600080fd5b5051919050565b828152606081018235612b2681612454565b6001600160a01b03166020838101919091529290920135604090910152919050565b634e487b7160e01b600052601160045260246000fd5b80820180821115611c0b57611c0b612b48565b634e487b7160e01b600052603260045260246000fd5b634e487b7160e01b600052602160045260246000fd5b600060018201612baf57612baf612b48565b5060010190565b6000808335601e19843603018112612bcd57600080fd5b8301803591506001600160401b03821115612be757600080fd5b6020019150368190038213156120ac57600080fd5b60008085851115612c0c57600080fd5b83861115612c1957600080fd5b5050820193919092039150565b6001600160e01b03198135818116916004851015612c4e5780818660040360031b1b83161692505b505092915050565b6000808335601e19843603018112612c6d57600080fd5b83016020810192503590506001600160401b03811115612c8c57600080fd5b8036038213156120ac57600080fd5b6000610160612cba84612cad85612469565b6001600160a01b03169052565b60208301356020850152612cd16040840184612c56565b826040870152612ce48387018284612a9c565b92505050612cf56060840184612c56565b8583036060870152612d08838284612a9c565b925050506080830135608085015260a083013560a085015260c083013560c085015260e083013560e0850152610100808401358186015250610120612d4f81850185612c56565b86840383880152612d61848284612a9c565b9350505050610140612d7581850185612c56565b86840383880152612d87848284612a9c565b979650505050505050565b60208152600061086f6020830184612c9b565b600060208284031215612db757600080fd5b815160ff8116811461086f57600080fd5b604081526000612ddb6040830185612c9b565b90508260208301529392505050565b6bffffffffffffffffffffffff198135818116916014851015612c4e5760149490940360031b84901b1690921692915050565b60008060408385031215612e3057600080fd5b50508051602090910151909290915056fea2646970667358221220bf806575d212572cbf18f748ae42fccae399cba2caf5101877dda5f7491f381764736f6c63430008110033",
  "devdoc": {
    "kind": "dev",
    "methods": {
      "disableModule(address)": {
        "details": "Allows to remove a module from the whitelist.      This can only be done via a Safe transaction.",
        "params": {
          "module": "Module to be removed."
        }
      },
      "enableModule(address)": {
        "details": "Allows to add a module to the whitelist.      This can only be done via a Safe transaction.",
        "params": {
          "module": "Module to be whitelisted."
        }
      },
      "execTransactionFromModule(address,uint256,bytes,uint8)": {
        "details": "Allows a Module to execute a Safe transaction without any further confirmations.",
        "params": {
          "data": "Data payload of module transaction.",
          "operation": "Operation type of module transaction.",
          "to": "Destination address of module transaction.",
          "value": "Ether value of module transaction."
        }
      },
      "execTransactionFromModuleReturnData(address,uint256,bytes,uint8)": {
        "details": "Allows a Module to execute a Safe transaction without any further confirmations and return data",
        "params": {
          "data": "Data payload of module transaction.",
          "operation": "Operation type of module transaction.",
          "to": "Destination address of module transaction.",
          "value": "Ether value of module transaction."
        }
      },
      "execute((uint8,bool,uint256,address,uint256,bytes)[])": {
        "details": "Relayers must ensure that the gasLimit specified for each transaction      is acceptable to them. A user could specify large enough that it could      consume all the gas available.",
        "params": {
          "_txs": "Transactions to process"
        }
      },
      "getChainId()": {
        "details": "Returns the chain id used by this contract."
      },
      "getSingleton()": {
        "returns": {
          "_imp": "The address of the current Wallet implementation"
        }
      },
      "isModuleEnabled(address)": {
        "details": "Returns if an module is enabled",
        "returns": {
          "_0": "True if the module is enabled"
        }
      },
      "setFallbackHandler(address)": {
        "details": "Allows to add a contract to handle fallback calls.      Only fallback calls without value and with data will be forwarded.      This can only be done via a Safe transaction.",
        "params": {
          "handler": "contract to handle fallbacks calls."
        }
      }
    },
    "version": 1
  },
  "userdoc": {
    "kind": "user",
    "methods": {
      "disableModule(address)": {
        "notice": "Disables the module `module` for the Safe."
      },
      "enableModule(address)": {
        "notice": "Enables the module `module` for the Safe."
      },
      "entryPoint()": {
        "notice": "return the entryPoint used by this account. subclass should return the current entryPoint used by this account."
      },
      "execute((uint8,bool,uint256,address,uint256,bytes)[])": {
        "notice": "Allow eip-4337 entryPoint or wallet self to execute an action"
      },
      "getNonce()": {
        "notice": "Return the account nonce. This method returns the next sequential nonce. For a nonce of a specific key, use `entrypoint.getNonce(account, key)`"
      },
      "getSingleton()": {
        "notice": "Returns the Wallet implementation"
      },
      "validateUserOp((address,uint256,bytes,bytes,uint256,uint256,uint256,uint256,uint256,bytes,bytes),bytes32,uint256)": {
        "notice": "Validate user's signature and nonce. subclass doesn't need to override this method. Instead, it should override the specific internal validation methods."
      }
    },
    "version": 1
  },
  "storageLayout": {
    "storage": [
      {
        "astId": 3172,
        "contract": "contracts/Sodium.sol:Sodium",
        "label": "_singleton",
        "offset": 0,
        "slot": "0",
        "type": "t_address"
      },
      {
        "astId": 2353,
        "contract": "contracts/Sodium.sol:Sodium",
        "label": "modules",
        "offset": 0,
        "slot": "1",
        "type": "t_mapping(t_address,t_bool)"
      },
      {
        "astId": 2877,
        "contract": "contracts/Sodium.sol:Sodium",
        "label": "_sessions",
        "offset": 0,
        "slot": "2",
        "type": "t_mapping(t_bytes4,t_struct(Session)2872_storage)"
      },
      {
        "astId": 2881,
        "contract": "contracts/Sodium.sol:Sodium",
        "label": "_ownerToUniqueId",
        "offset": 0,
        "slot": "3",
        "type": "t_mapping(t_address,t_bytes4)"
      },
      {
        "astId": 2884,
        "contract": "contracts/Sodium.sol:Sodium",
        "label": "_safeSession",
        "offset": 0,
        "slot": "4",
        "type": "t_struct(Session)2872_storage"
      },
      {
        "astId": 1547,
        "contract": "contracts/Sodium.sol:Sodium",
        "label": "initialized",
        "offset": 0,
        "slot": "5",
        "type": "t_bool"
      }
    ],
    "types": {
      "t_address": {
        "encoding": "inplace",
        "label": "address",
        "numberOfBytes": "20"
      },
      "t_bool": {
        "encoding": "inplace",
        "label": "bool",
        "numberOfBytes": "1"
      },
      "t_bytes4": {
        "encoding": "inplace",
        "label": "bytes4",
        "numberOfBytes": "4"
      },
      "t_mapping(t_address,t_bool)": {
        "encoding": "mapping",
        "key": "t_address",
        "label": "mapping(address => bool)",
        "numberOfBytes": "32",
        "value": "t_bool"
      },
      "t_mapping(t_address,t_bytes4)": {
        "encoding": "mapping",
        "key": "t_address",
        "label": "mapping(address => bytes4)",
        "numberOfBytes": "32",
        "value": "t_bytes4"
      },
      "t_mapping(t_bytes4,t_struct(Session)2872_storage)": {
        "encoding": "mapping",
        "key": "t_bytes4",
        "label": "mapping(bytes4 => struct SessionManager.Session)",
        "numberOfBytes": "32",
        "value": "t_struct(Session)2872_storage"
      },
      "t_struct(Session)2872_storage": {
        "encoding": "inplace",
        "label": "struct SessionManager.Session",
        "members": [
          {
            "astId": 2867,
            "contract": "contracts/Sodium.sol:Sodium",
            "label": "owner",
            "offset": 0,
            "slot": "0",
            "type": "t_address"
          },
          {
            "astId": 2869,
            "contract": "contracts/Sodium.sol:Sodium",
            "label": "uniqueId",
            "offset": 20,
            "slot": "0",
            "type": "t_bytes4"
          },
          {
            "astId": 2871,
            "contract": "contracts/Sodium.sol:Sodium",
            "label": "expires",
            "offset": 24,
            "slot": "0",
            "type": "t_uint64"
          }
        ],
        "numberOfBytes": "32"
      },
      "t_uint64": {
        "encoding": "inplace",
        "label": "uint64",
        "numberOfBytes": "8"
      }
    }
  }
}