{
  "address": "0x09f30e8aC8F1bb14858477b72643eDa238d24339",
  "abi": [
    {
      "inputs": [
        {
          "internalType": "contract IEntryPoint",
          "name": "_entryPoint",
          "type": "address"
        }
      ],
      "stateMutability": "nonpayable",
      "type": "constructor"
    },
    {
      "anonymous": false,
      "inputs": [
        {
          "indexed": false,
          "internalType": "address",
          "name": "owner",
          "type": "address"
        },
        {
          "indexed": false,
          "internalType": "bytes4",
          "name": "sessionKey",
          "type": "bytes4"
        }
      ],
      "name": "AddedSession",
      "type": "event"
    },
    {
      "anonymous": false,
      "inputs": [
        {
          "indexed": false,
          "internalType": "address",
          "name": "handler",
          "type": "address"
        }
      ],
      "name": "ChangedFallbackHandler",
      "type": "event"
    },
    {
      "anonymous": false,
      "inputs": [
        {
          "indexed": false,
          "internalType": "address",
          "name": "guard",
          "type": "address"
        }
      ],
      "name": "ChangedGuard",
      "type": "event"
    },
    {
      "anonymous": false,
      "inputs": [
        {
          "indexed": false,
          "internalType": "address",
          "name": "module",
          "type": "address"
        }
      ],
      "name": "DisabledModule",
      "type": "event"
    },
    {
      "anonymous": false,
      "inputs": [
        {
          "indexed": false,
          "internalType": "address",
          "name": "module",
          "type": "address"
        }
      ],
      "name": "EnabledModule",
      "type": "event"
    },
    {
      "anonymous": false,
      "inputs": [
        {
          "indexed": true,
          "internalType": "address",
          "name": "module",
          "type": "address"
        }
      ],
      "name": "ExecutionFromModuleFailure",
      "type": "event"
    },
    {
      "anonymous": false,
      "inputs": [
        {
          "indexed": true,
          "internalType": "address",
          "name": "module",
          "type": "address"
        }
      ],
      "name": "ExecutionFromModuleSuccess",
      "type": "event"
    },
    {
      "anonymous": false,
      "inputs": [
        {
          "indexed": true,
          "internalType": "address",
          "name": "sender",
          "type": "address"
        },
        {
          "indexed": false,
          "internalType": "uint256",
          "name": "value",
          "type": "uint256"
        }
      ],
      "name": "NativeTokenReceived",
      "type": "event"
    },
    {
      "anonymous": false,
      "inputs": [
        {
          "indexed": false,
          "internalType": "uint256",
          "name": "_space",
          "type": "uint256"
        },
        {
          "indexed": false,
          "internalType": "uint256",
          "name": "_newNonce",
          "type": "uint256"
        }
      ],
      "name": "NonceChange",
      "type": "event"
    },
    {
      "anonymous": false,
      "inputs": [
        {
          "indexed": false,
          "internalType": "address",
          "name": "owner",
          "type": "address"
        },
        {
          "indexed": false,
          "internalType": "bytes4",
          "name": "sessionKey",
          "type": "bytes4"
        }
      ],
      "name": "RemovedSession",
      "type": "event"
    },
    {
      "anonymous": false,
      "inputs": [
        {
          "indexed": true,
          "internalType": "address",
          "name": "sessionOwner",
          "type": "address"
        },
        {
          "indexed": false,
          "internalType": "bytes4",
          "name": "platform",
          "type": "bytes4"
        },
        {
          "indexed": false,
          "internalType": "address",
          "name": "fallbackHandler",
          "type": "address"
        }
      ],
      "name": "SodiumSetup",
      "type": "event"
    },
    {
      "anonymous": false,
      "inputs": [
        {
          "indexed": false,
          "internalType": "address",
          "name": "preSingleton",
          "type": "address"
        },
        {
          "indexed": false,
          "internalType": "address",
          "name": "newSingleton",
          "type": "address"
        }
      ],
      "name": "Upgrade",
      "type": "event"
    },
    {
      "stateMutability": "nonpayable",
      "type": "fallback"
    },
    {
      "inputs": [],
      "name": "VERSION",
      "outputs": [
        {
          "internalType": "string",
          "name": "",
          "type": "string"
        }
      ],
      "stateMutability": "view",
      "type": "function"
    },
    {
      "inputs": [
        {
          "internalType": "address",
          "name": "owner",
          "type": "address"
        },
        {
          "internalType": "bytes4",
          "name": "platform",
          "type": "bytes4"
        }
      ],
      "name": "addSession",
      "outputs": [],
      "stateMutability": "nonpayable",
      "type": "function"
    },
    {
      "inputs": [
        {
          "internalType": "address",
          "name": "prevModule",
          "type": "address"
        },
        {
          "internalType": "address",
          "name": "module",
          "type": "address"
        }
      ],
      "name": "disableModule",
      "outputs": [],
      "stateMutability": "nonpayable",
      "type": "function"
    },
    {
      "inputs": [],
      "name": "domainSeparator",
      "outputs": [
        {
          "internalType": "bytes32",
          "name": "",
          "type": "bytes32"
        }
      ],
      "stateMutability": "view",
      "type": "function"
    },
    {
      "inputs": [
        {
          "internalType": "address",
          "name": "module",
          "type": "address"
        }
      ],
      "name": "enableModule",
      "outputs": [],
      "stateMutability": "nonpayable",
      "type": "function"
    },
    {
      "inputs": [
        {
          "internalType": "address",
          "name": "to",
          "type": "address"
        },
        {
          "internalType": "uint256",
          "name": "value",
          "type": "uint256"
        },
        {
          "internalType": "bytes",
          "name": "data",
          "type": "bytes"
        },
        {
          "internalType": "enum Enum.Operation",
          "name": "operation",
          "type": "uint8"
        }
      ],
      "name": "execTransactionFromModule",
      "outputs": [
        {
          "internalType": "bool",
          "name": "success",
          "type": "bool"
        }
      ],
      "stateMutability": "nonpayable",
      "type": "function"
    },
    {
      "inputs": [
        {
          "internalType": "address",
          "name": "to",
          "type": "address"
        },
        {
          "internalType": "uint256",
          "name": "value",
          "type": "uint256"
        },
        {
          "internalType": "bytes",
          "name": "data",
          "type": "bytes"
        },
        {
          "internalType": "enum Enum.Operation",
          "name": "operation",
          "type": "uint8"
        }
      ],
      "name": "execTransactionFromModuleReturnData",
      "outputs": [
        {
          "internalType": "bool",
          "name": "success",
          "type": "bool"
        },
        {
          "internalType": "bytes",
          "name": "returnData",
          "type": "bytes"
        }
      ],
      "stateMutability": "nonpayable",
      "type": "function"
    },
    {
      "inputs": [
        {
          "components": [
            {
              "internalType": "enum Enum.Operation",
              "name": "op",
              "type": "uint8"
            },
            {
              "internalType": "bool",
              "name": "revertOnError",
              "type": "bool"
            },
            {
              "internalType": "uint256",
              "name": "gasLimit",
              "type": "uint256"
            },
            {
              "internalType": "address",
              "name": "target",
              "type": "address"
            },
            {
              "internalType": "uint256",
              "name": "value",
              "type": "uint256"
            },
            {
              "internalType": "bytes",
              "name": "data",
              "type": "bytes"
            }
          ],
          "internalType": "struct Transaction[]",
          "name": "_txs",
          "type": "tuple[]"
        }
      ],
      "name": "execute",
      "outputs": [],
      "stateMutability": "nonpayable",
      "type": "function"
    },
    {
      "inputs": [],
      "name": "getChainId",
      "outputs": [
        {
          "internalType": "uint256",
          "name": "",
          "type": "uint256"
        }
      ],
      "stateMutability": "view",
      "type": "function"
    },
    {
      "inputs": [
        {
          "internalType": "address",
          "name": "start",
          "type": "address"
        },
        {
          "internalType": "uint256",
          "name": "pageSize",
          "type": "uint256"
        }
      ],
      "name": "getModulesPaginated",
      "outputs": [
        {
          "internalType": "address[]",
          "name": "array",
          "type": "address[]"
        },
        {
          "internalType": "address",
          "name": "next",
          "type": "address"
        }
      ],
      "stateMutability": "view",
      "type": "function"
    },
    {
      "inputs": [],
      "name": "getSessionOwners",
      "outputs": [
        {
          "internalType": "address[]",
          "name": "",
          "type": "address[]"
        }
      ],
      "stateMutability": "view",
      "type": "function"
    },
    {
      "inputs": [
        {
          "internalType": "address",
          "name": "module",
          "type": "address"
        }
      ],
      "name": "isModuleEnabled",
      "outputs": [
        {
          "internalType": "bool",
          "name": "",
          "type": "bool"
        }
      ],
      "stateMutability": "view",
      "type": "function"
    },
    {
      "inputs": [
        {
          "internalType": "address",
          "name": "owner",
          "type": "address"
        }
      ],
      "name": "isSessionOwner",
      "outputs": [
        {
          "internalType": "bool",
          "name": "",
          "type": "bool"
        }
      ],
      "stateMutability": "view",
      "type": "function"
    },
    {
      "inputs": [],
      "name": "nonce",
      "outputs": [
        {
          "internalType": "uint256",
          "name": "",
          "type": "uint256"
        }
      ],
      "stateMutability": "view",
      "type": "function"
    },
    {
      "inputs": [
        {
          "internalType": "uint256",
          "name": "_space",
          "type": "uint256"
        }
      ],
      "name": "readNonce",
      "outputs": [
        {
          "internalType": "uint256",
          "name": "",
          "type": "uint256"
        }
      ],
      "stateMutability": "view",
      "type": "function"
    },
    {
      "inputs": [
        {
          "internalType": "address",
          "name": "owner",
          "type": "address"
        },
        {
          "internalType": "bytes4",
          "name": "platform",
          "type": "bytes4"
        }
      ],
      "name": "removeSession",
      "outputs": [],
      "stateMutability": "nonpayable",
      "type": "function"
    },
    {
      "inputs": [
        {
          "internalType": "address",
          "name": "handler",
          "type": "address"
        }
      ],
      "name": "setFallbackHandler",
      "outputs": [],
      "stateMutability": "nonpayable",
      "type": "function"
    },
    {
      "inputs": [
        {
          "internalType": "address",
          "name": "guard",
          "type": "address"
        }
      ],
      "name": "setGuard",
      "outputs": [],
      "stateMutability": "nonpayable",
      "type": "function"
    },
    {
      "inputs": [
        {
          "internalType": "address",
          "name": "_sessionOwner",
          "type": "address"
        },
        {
          "internalType": "bytes4",
          "name": "_platform",
          "type": "bytes4"
        },
        {
          "internalType": "address",
          "name": "_fallbackHandler",
          "type": "address"
        }
      ],
      "name": "setup",
      "outputs": [],
      "stateMutability": "nonpayable",
      "type": "function"
    },
    {
      "inputs": [],
      "name": "singleton",
      "outputs": [
        {
          "internalType": "address",
          "name": "",
          "type": "address"
        }
      ],
      "stateMutability": "view",
      "type": "function"
    },
    {
      "inputs": [
        {
          "internalType": "address",
          "name": "newSingleton",
          "type": "address"
        }
      ],
      "name": "upgradeTo",
      "outputs": [],
      "stateMutability": "nonpayable",
      "type": "function"
    },
    {
      "inputs": [
        {
          "components": [
            {
              "internalType": "address",
              "name": "sender",
              "type": "address"
            },
            {
              "internalType": "uint256",
              "name": "nonce",
              "type": "uint256"
            },
            {
              "internalType": "bytes",
              "name": "initCode",
              "type": "bytes"
            },
            {
              "internalType": "bytes",
              "name": "callData",
              "type": "bytes"
            },
            {
              "internalType": "uint256",
              "name": "callGasLimit",
              "type": "uint256"
            },
            {
              "internalType": "uint256",
              "name": "verificationGasLimit",
              "type": "uint256"
            },
            {
              "internalType": "uint256",
              "name": "preVerificationGas",
              "type": "uint256"
            },
            {
              "internalType": "uint256",
              "name": "maxFeePerGas",
              "type": "uint256"
            },
            {
              "internalType": "uint256",
              "name": "maxPriorityFeePerGas",
              "type": "uint256"
            },
            {
              "internalType": "bytes",
              "name": "paymasterAndData",
              "type": "bytes"
            },
            {
              "internalType": "bytes",
              "name": "signature",
              "type": "bytes"
            }
          ],
          "internalType": "struct UserOperation",
          "name": "userOp",
          "type": "tuple"
        },
        {
          "internalType": "bytes32",
          "name": "userOpHash",
          "type": "bytes32"
        },
        {
          "internalType": "address",
          "name": "",
          "type": "address"
        },
        {
          "internalType": "uint256",
          "name": "missingWalletFunds",
          "type": "uint256"
        }
      ],
      "name": "validateUserOp",
      "outputs": [
        {
          "internalType": "uint256",
          "name": "",
          "type": "uint256"
        }
      ],
      "stateMutability": "nonpayable",
      "type": "function"
    },
    {
      "stateMutability": "payable",
      "type": "receive"
    }
  ],
  "transactionHash": "0xe9b39205e41dd737061c22a37ab36920adcdb332c01f94d0ec90bfd9804901f0",
  "args": [
    "0x0aE1B76389397Dc81c16eB8e2dEb0C592D3C873c"
  ],
  "numDeployments": 1,
  "solcInputHash": "c597daaabc672b8423039a30fbf09f03",
  "bytecode": "0x60a060405234801561001057600080fd5b50604051611afb380380611afb83398101604081905261002f91610040565b6001600160a01b0316608052610070565b60006020828403121561005257600080fd5b81516001600160a01b038116811461006957600080fd5b9392505050565b608051611a7061008b60003960006110170152611a706000f3fe6080604052600436106101395760003560e01c80638c3f5563116100ab578063e009cfde1161006f578063e009cfde1461041e578063e19a9dd91461043e578063eb7617181461045e578063f08a03231461047e578063f698da251461049e578063ffa1ad741461050557610175565b80638c3f5563146103635780639a199a4f14610383578063affed0e0146103a3578063b62654fb146103b8578063cc2f8452146103f057610175565b80634b574a02116100fd5780634b574a02146102935780634b819ba4146102b35780635229073f146102d357806356cdfb6f14610301578063610b5925146103235780638aa26d4b1461034357610175565b80630825d1fc146101db5780632d9ad53d1461020e5780633408e4701461023e5780633659cfe614610251578063468721a71461027357610175565b366101755760405134815233907f9820dd13494dd7d9f03807aa0bb724fe8266855b5ac4db99848a199904f8074b9060200160405180910390a2005b34801561018157600080fd5b507f6c9a6c4a39284e37ed1cf53d337577d14212a4870fb976a4366c693b939918d58054806101ac57005b36600080373360601b365260008060143601600080855af190503d6000803e806101d5573d6000fd5b503d6000f35b3480156101e757600080fd5b506101fb6101f6366004611483565b610543565b6040519081526020015b60405180910390f35b34801561021a57600080fd5b5061022e6102293660046114e8565b6105bf565b6040519015158152602001610205565b34801561024a57600080fd5b50466101fb565b34801561025d57600080fd5b5061027161026c3660046114e8565b6105fa565b005b34801561027f57600080fd5b5061022e61028e3660046115f9565b610664565b34801561029f57600080fd5b5061022e6102ae3660046114e8565b610741565b3480156102bf57600080fd5b506102716102ce366004611679565b6107c9565b3480156102df57600080fd5b506102f36102ee3660046115f9565b6108ac565b60405161020592919061170c565b34801561030d57600080fd5b506103166108e2565b604051610205919061176b565b34801561032f57600080fd5b5061027161033e3660046114e8565b610a39565b34801561034f57600080fd5b5061027161035e36600461177e565b610b7f565b34801561036f57600080fd5b506101fb61037e3660046117b1565b610c54565b34801561038f57600080fd5b5061027161039e36600461177e565b610c80565b3480156103af57600080fd5b506101fb610ceb565b3480156103c457600080fd5b506000546103d8906001600160a01b031681565b6040516001600160a01b039091168152602001610205565b3480156103fc57600080fd5b5061041061040b3660046117ca565b610cfc565b6040516102059291906117f4565b34801561042a57600080fd5b5061027161043936600461181e565b610df6565b34801561044a57600080fd5b506102716104593660046114e8565b610f21565b34801561046a57600080fd5b50610271610479366004611848565b610f86565b34801561048a57600080fd5b506102716104993660046114e8565b610f9a565b3480156104aa57600080fd5b506101fb60007f47e79534a245952e8b16893a336b85a3d9ea9fa8c573f3d803afb92a794692184660408051602081019390935282015230606082015260800160405160208183030381529060405280519060200120905090565b34801561051157600080fd5b5061053660405180604001604052806005815260200164302e302e3160d81b81525081565b6040516102059190611995565b600061054d611003565b60006105a6856040517f19457468657265756d205369676e6564204d6573736167653a0a3332000000006020820152603c8101829052600090605c01604051602081830303815290604052805190602001209050919050565b90506105b183611087565b60009150505b949350505050565b600060016001600160a01b038316148015906105f457506001600160a01b038281166000908152600160205260409020541615155b92915050565b6106026110e0565b600080546001600160a01b038381166001600160a01b031983168117909355604080519190921680825260208201939093527fd23ce5645530506727523fe6d7939e72bb49102454460bc72f0f5baec60ac71891015b60405180910390a15050565b60003360011480159061068e5750336000908152600160205260409020546001600160a01b031615155b6106c95760405162461bcd60e51b815260206004820152600760248201526614d113534c4c0d60ca1b60448201526064015b60405180910390fd5b6106d6858585855a611117565b9050801561070e5760405133907f6895c13664aa4f67288b25d7a21d7aaa34916e355fb9b6fae0a139a9085becb890600090a26105b7565b60405133907facd2c8702804128fdb0db2bb49f6d127dd0181c13fd45dbfe16de0930e2bd37590600090a2949350505050565b60006001600160a01b03821661075957506000919050565b60006107636108e2565b905060005b81518110156107bf57818181518110610783576107836119a8565b60200260200101516001600160a01b0316846001600160a01b0316036107ad575060019392505050565b806107b7816119be565b915050610768565b5060009392505050565b60035460ff16156108125760405162461bcd60e51b8152602060048201526013602482015272105b1c9958591e481a5b9a5d1a585b1a5e9959606a1b60448201526064016106c0565b6001600160a01b0381166108685760405162461bcd60e51b815260206004820152601960248201527f52657175697265642066616c6c6261636b2068616e646c65720000000000000060448201526064016106c0565b6003805460ff1916600117905561089d817f6c9a6c4a39284e37ed1cf53d337577d14212a4870fb976a4366c693b939918d555565b6108a7838361115e565b505050565b600060606108bc86868686610664565b915060405160203d0181016040523d81523d6000602083013e8091505094509492505050565b6040805160038082526080820190925260609160009190602082018480368337505063eaf7652f60e01b600090815260026020527fcef516f59394dcea6f690864bc4b308ea8af47bff3ce7155948d621ccc0bd2795483519394506001600160a01b031692849250610956576109566119a8565b6001600160a01b039283166020918202929092018101919091526304701feb60e31b600052600290527f84adbd5779b53219abc08c6a0721310eceb23df12233a77fc0d8a950b6fba164548251911690829060019081106109b9576109b96119a8565b6001600160a01b039283166020918202929092018101919091526324108c8f60e21b6000526002908190527fe78882b8c3d591c252f166fa92ca2f5fe1ed6e04cf3f3e36bf49f4edcd2ab2b15483519216918391908110610a1c57610a1c6119a8565b6001600160a01b0390921660209283029190910190910152919050565b610a416110e0565b6001600160a01b03811615801590610a6357506001600160a01b038116600114155b610a995760405162461bcd60e51b815260206004820152600760248201526653444d4d31303160c81b60448201526064016106c0565b6001600160a01b038181166000908152600160205260409020541615610aeb5760405162461bcd60e51b815260206004820152600760248201526629a226a698981960c91b60448201526064016106c0565b600160208181527fcc69885fda6bcc1a4ace058b4a62bf5e179ea78fd58a1ccd71c22cc9b688792f80546001600160a01b03858116600081815260408082208054949095166001600160a01b031994851617909455959095528254168417909155519182527fecdf3a3effea5783a3c4c2140e677577666428d44ed9d474a0b3a4c9943f844091015b60405180910390a150565b610b876110e0565b6001600160e01b031981166000908152600260205260409020546001600160a01b03838116911614610bfb5760405162461bcd60e51b815260206004820152601860248201527f706c6174666f726d2073657373696f6e2065787069726564000000000000000060448201526064016106c0565b6001600160e01b031981166000908152600260205260409081902080546001600160a01b0319169055517f43853b1cc6094f8d7cd366a448173e51c7eeb87b51d3afe860100d38101f37659061065890849084906119e5565b60006105f47f1ec7ef52f8bbd89fae80c55c6884305d3fb5ef41070638221dac337a4377b7df836111cb565b610c886110e0565b6001600160e01b031981166000908152600260205260409020546001600160a01b031615610cdd576001600160e01b03198116600090815260026020526040902054610cdd906001600160a01b031682610b7f565b610ce7828261115e565b5050565b6000610cf76000610c54565b905090565b606060008267ffffffffffffffff811115610d1957610d1961150a565b604051908082528060200260200182016040528015610d42578160200160208202803683370190505b506001600160a01b0380861660009081526001602052604081205492945091165b6001600160a01b03811615801590610d8557506001600160a01b038116600114155b8015610d9057508482105b15610de85780848381518110610da857610da86119a8565b6001600160a01b03928316602091820292909201810191909152918116600090815260019092526040909120541681610de0816119be565b925050610d63565b908352919491935090915050565b610dfe6110e0565b6001600160a01b03811615801590610e2057506001600160a01b038116600114155b610e565760405162461bcd60e51b815260206004820152600760248201526653444d4d31303160c81b60448201526064016106c0565b6001600160a01b03828116600090815260016020526040902054811690821614610eac5760405162461bcd60e51b815260206004820152600760248201526653444d4d31303360c81b60448201526064016106c0565b6001600160a01b038181166000818152600160209081526040808320805488871685528285208054919097166001600160a01b03199182161790965592849052825490941690915591519081527faab4fa2b463f581b2b32cb3b7e3b704b9ce37cc209b5fb4d77e593ace40542769101610658565b610f296110e0565b7f4a204f620c8c5ccdca3fd54d003badd85ba500436a431f0cbda4f558c93c34c88181556040516001600160a01b03831681527f1151116914515bc0891ff9047a6cb32cf902546f83066499bcf8ba33d2353fa290602001610658565b610f8e611003565b610f978161120b565b50565b610fa26110e0565b610fca817f6c9a6c4a39284e37ed1cf53d337577d14212a4870fb976a4366c693b939918d555565b6040516001600160a01b03821681527f5ac6c46c93c8d0e53714ba3b53db3e7c046da994313d7ed0d192028bc7c228b090602001610b74565b333014806110395750336001600160a01b037f000000000000000000000000000000000000000000000000000000000000000016145b6110855760405162461bcd60e51b815260206004820152601e60248201527f6f6e6c7920656e747279506f696e74206f722077616c6c65742073656c66000060448201526064016106c0565b565b8015610f9757604051600090339060001990849084818181858888f193505050503d80600081146110d4576040519150601f19603f3d011682016040523d82523d6000602084013e6110d9565b606091505b5050505050565b3330146110855760405162461bcd60e51b8152602060048201526005602482015264475330333160d81b60448201526064016106c0565b6000600183600181111561112d5761112d611a08565b03611145576000808551602087018986f49050611155565b600080855160208701888a87f190505b95945050505050565b611167816113de565b6001600160e01b031981166000908152600260205260409081902080546001600160a01b0319166001600160a01b038516179055517f032ab7f5ec464dc9f1ac11837a6f0e506cdca8a7850aa5eb37510e221c1e0e3d9061065890849084906119e5565b60008083836040516020016111ea929190918252602082015260400190565b60408051601f19818403018152919052805160209091012054949350505050565b60005b8151811015610ce757600082828151811061122b5761122b6119a8565b602002602001015190506000606082604001515a10156112865760405162461bcd60e51b8152602060048201526016602482015275536f6469756d3a204e4f545f454e4f5547485f47415360501b60448201526064016106c0565b60018351600181111561129b5761129b611a08565b036113245782606001516001600160a01b031683604001516000146112c45783604001516112c6565b5a5b8460a001516040516112d89190611a1e565b6000604051808303818686f4925050503d8060008114611314576040519150601f19603f3d011682016040523d82523d6000602084013e611319565b606091505b5090925090506113ac565b82606001516001600160a01b03168360800151846040015160001461134d57846040015161134f565b5a5b908560a001516040516113629190611a1e565b600060405180830381858888f193505050503d80600081146113a0576040519150601f19603f3d011682016040523d82523d6000602084013e6113a5565b606091505b5090925090505b811580156113bb575082602001515b156113c857805160208201fd5b50505080806113d6906119be565b91505061120e565b6001600160e01b0319811663eaf7652f60e01b148061140d57506001600160e01b031981166304701feb60e31b145b8061142857506001600160e01b031981166324108c8f60e21b145b610f975760405162461bcd60e51b815260206004820152601060248201526f696e76616c696420706c6174666f726d60801b60448201526064016106c0565b80356001600160a01b038116811461147e57600080fd5b919050565b6000806000806080858703121561149957600080fd5b843567ffffffffffffffff8111156114b057600080fd5b850161016081880312156114c357600080fd5b9350602085013592506114d860408601611467565b9396929550929360600135925050565b6000602082840312156114fa57600080fd5b61150382611467565b9392505050565b634e487b7160e01b600052604160045260246000fd5b60405160c0810167ffffffffffffffff811182821017156115435761154361150a565b60405290565b604051601f8201601f1916810167ffffffffffffffff811182821017156115725761157261150a565b604052919050565b600082601f83011261158b57600080fd5b813567ffffffffffffffff8111156115a5576115a561150a565b6115b8601f8201601f1916602001611549565b8181528460208386010111156115cd57600080fd5b816020850160208301376000918101602001919091529392505050565b80356002811061147e57600080fd5b6000806000806080858703121561160f57600080fd5b61161885611467565b935060208501359250604085013567ffffffffffffffff81111561163b57600080fd5b6116478782880161157a565b925050611656606086016115ea565b905092959194509250565b80356001600160e01b03198116811461147e57600080fd5b60008060006060848603121561168e57600080fd5b61169784611467565b92506116a560208501611661565b91506116b360408501611467565b90509250925092565b60005b838110156116d75781810151838201526020016116bf565b50506000910152565b600081518084526116f88160208601602086016116bc565b601f01601f19169290920160200192915050565b82151581526040602082015260006105b760408301846116e0565b600081518084526020808501945080840160005b838110156117605781516001600160a01b03168752958201959082019060010161173b565b509495945050505050565b6020815260006115036020830184611727565b6000806040838503121561179157600080fd5b61179a83611467565b91506117a860208401611661565b90509250929050565b6000602082840312156117c357600080fd5b5035919050565b600080604083850312156117dd57600080fd5b6117e683611467565b946020939093013593505050565b6040815260006118076040830185611727565b905060018060a01b03831660208301529392505050565b6000806040838503121561183157600080fd5b61183a83611467565b91506117a860208401611467565b6000602080838503121561185b57600080fd5b823567ffffffffffffffff8082111561187357600080fd5b818501915085601f83011261188757600080fd5b8135818111156118995761189961150a565b8060051b6118a8858201611549565b91825283810185019185810190898411156118c257600080fd5b86860192505b83831015611988578235858111156118e05760008081fd5b860160c0818c03601f19018113156118f85760008081fd5b611900611520565b61190b8a84016115ea565b815260408084013580151581146119225760008081fd5b808c840152506060808501358284015260809150611941828601611467565b9083015260a0848101358284015292840135928984111561196457600091508182fd5b6119728f8d8688010161157a565b90830152508452505091860191908601906118c8565b9998505050505050505050565b60208152600061150360208301846116e0565b634e487b7160e01b600052603260045260246000fd5b6000600182016119de57634e487b7160e01b600052601160045260246000fd5b5060010190565b6001600160a01b039290921682526001600160e01b031916602082015260400190565b634e487b7160e01b600052602160045260246000fd5b60008251611a308184602087016116bc565b919091019291505056fea26469706673582212201fa34e610a847f5617e34c7cbbb6ab82e7b12e265f99dd7e0b0c4f23efb7f8ef64736f6c63430008110033",
  "devdoc": {
    "kind": "dev",
    "methods": {
      "disableModule(address,address)": {
        "details": "Allows to remove a module from the whitelist.      This can only be done via a Safe transaction.",
        "params": {
          "module": "Module to be removed.",
          "prevModule": "Module that pointed to the module to be removed in the linked list"
        }
      },
      "enableModule(address)": {
        "details": "Allows to add a module to the whitelist.      This can only be done via a Safe transaction.",
        "params": {
          "module": "Module to be whitelisted."
        }
      },
      "execTransactionFromModule(address,uint256,bytes,uint8)": {
        "details": "Allows a Module to execute a Safe transaction without any further confirmations.",
        "params": {
          "data": "Data payload of module transaction.",
          "operation": "Operation type of module transaction.",
          "to": "Destination address of module transaction.",
          "value": "Ether value of module transaction."
        }
      },
      "execTransactionFromModuleReturnData(address,uint256,bytes,uint8)": {
        "details": "Allows a Module to execute a Safe transaction without any further confirmations and return data",
        "params": {
          "data": "Data payload of module transaction.",
          "operation": "Operation type of module transaction.",
          "to": "Destination address of module transaction.",
          "value": "Ether value of module transaction."
        }
      },
      "execute((uint8,bool,uint256,address,uint256,bytes)[])": {
        "details": "Relayers must ensure that the gasLimit specified for each transaction      is acceptable to them. A user could specify large enough that it could      consume all the gas available.",
        "params": {
          "_txs": "Transactions to process"
        }
      },
      "getChainId()": {
        "details": "Returns the chain id used by this contract."
      },
      "getModulesPaginated(address,uint256)": {
        "details": "Returns array of modules.",
        "params": {
          "pageSize": "Maximum number of modules that should be returned.",
          "start": "Start of the page."
        },
        "returns": {
          "array": "Array of modules.",
          "next": "Start of the next page."
        }
      },
      "getSessionOwners()": {
        "details": "Returns array of owners.",
        "returns": {
          "_0": "Array of session owners."
        }
      },
      "isModuleEnabled(address)": {
        "details": "Returns if an module is enabled",
        "returns": {
          "_0": "True if the module is enabled"
        }
      },
      "nonce()": {
        "details": "The default nonce space is 0x00",
        "returns": {
          "_0": "The next nonce"
        }
      },
      "readNonce(uint256)": {
        "params": {
          "_space": "Nonce space, each space keeps an independent nonce count"
        },
        "returns": {
          "_0": "The next nonce"
        }
      },
      "setFallbackHandler(address)": {
        "details": "Allows to add a contract to handle fallback calls.      Only fallback calls without value and with data will be forwarded.      This can only be done via a Safe transaction.",
        "params": {
          "handler": "contract to handle fallbacks calls."
        }
      },
      "setGuard(address)": {
        "details": "Set a guard that checks transactions before execution",
        "params": {
          "guard": "The address of the guard to be used or the 0 address to disable the guard"
        }
      }
    },
    "version": 1
  },
  "userdoc": {
    "kind": "user",
    "methods": {
      "disableModule(address,address)": {
        "notice": "Disables the module `module` for the Safe."
      },
      "enableModule(address)": {
        "notice": "Enables the module `module` for the Safe."
      },
      "execute((uint8,bool,uint256,address,uint256,bytes)[])": {
        "notice": "Allow eip-4337 entryPoint or wallet self to execute an action"
      },
      "nonce()": {
        "notice": "Returns the next nonce of the default nonce space"
      },
      "readNonce(uint256)": {
        "notice": "Returns the next nonce of the given nonce space"
      }
    },
    "version": 1
  },
  "storageLayout": {
    "storage": [
      {
        "astId": 15473,
        "contract": "contracts/Sodium.sol:Sodium",
        "label": "singleton",
        "offset": 0,
        "slot": "0",
        "type": "t_address"
      },
      {
        "astId": 14673,
        "contract": "contracts/Sodium.sol:Sodium",
        "label": "modules",
        "offset": 0,
        "slot": "1",
        "type": "t_mapping(t_address,t_address)"
      },
      {
        "astId": 15207,
        "contract": "contracts/Sodium.sol:Sodium",
        "label": "sessionByPlatform",
        "offset": 0,
        "slot": "2",
        "type": "t_mapping(t_bytes4,t_address)"
      },
      {
        "astId": 14180,
        "contract": "contracts/Sodium.sol:Sodium",
        "label": "initialized",
        "offset": 0,
        "slot": "3",
        "type": "t_bool"
      }
    ],
    "types": {
      "t_address": {
        "encoding": "inplace",
        "label": "address",
        "numberOfBytes": "20"
      },
      "t_bool": {
        "encoding": "inplace",
        "label": "bool",
        "numberOfBytes": "1"
      },
      "t_bytes4": {
        "encoding": "inplace",
        "label": "bytes4",
        "numberOfBytes": "4"
      },
      "t_mapping(t_address,t_address)": {
        "encoding": "mapping",
        "key": "t_address",
        "label": "mapping(address => address)",
        "numberOfBytes": "32",
        "value": "t_address"
      },
      "t_mapping(t_bytes4,t_address)": {
        "encoding": "mapping",
        "key": "t_bytes4",
        "label": "mapping(bytes4 => address)",
        "numberOfBytes": "32",
        "value": "t_address"
      }
    }
  }
}