{
  "address": "0x7a55948FCF36613CBD699f299BEce89F42581C92",
  "abi": [
    {
      "inputs": [],
      "name": "getSingleton",
      "outputs": [
        {
          "internalType": "address",
          "name": "_imp",
          "type": "address"
        }
      ],
      "stateMutability": "view",
      "type": "function"
    },
    {
      "inputs": [],
      "name": "isSodiumSingleton",
      "outputs": [
        {
          "internalType": "bool",
          "name": "",
          "type": "bool"
        }
      ],
      "stateMutability": "pure",
      "type": "function"
    },
    {
      "inputs": [
        {
          "internalType": "address",
          "name": "_imp",
          "type": "address"
        }
      ],
      "name": "upgradeTo",
      "outputs": [],
      "stateMutability": "nonpayable",
      "type": "function"
    }
  ],
  "transactionHash": "0x8b1d1677e55ceea810aedacf8298beee41e3f5efd1b2a0a84949f6d9524893a6",
  "args": [],
  "numDeployments": 1,
  "solcInputHash": "83c51582ee67b079b63a960908c19d43",
  "bytecode": "0x608060405234801561001057600080fd5b5060e38061001f6000396000f3fe6080604052348015600f57600080fd5b5060043610603c5760003560e01c80633659cfe6146041578063a71d052b146052578063cb103d70146066575b600080fd5b6050604c366004607f565b3055565b005b604051600181526020015b60405180910390f35b30546040516001600160a01b039091168152602001605d565b600060208284031215609057600080fd5b81356001600160a01b038116811460a657600080fd5b939250505056fea2646970667358221220429403e4313fe68a3aae36b3f8da132cf577f410ff4280910dbd6668c0aff93c64736f6c63430008110033",
  "devdoc": {
    "kind": "dev",
    "methods": {
      "getSingleton()": {
        "returns": {
          "_imp": "The address of the current Wallet implementation"
        }
      },
      "upgradeTo(address)": {
        "details": "The wallet implementation is stored on the storage slot   defined by the address of the wallet itself   WARNING updating this value may break the wallet and users   must be confident that the new implementation is safe.",
        "params": {
          "_imp": "New implementation address"
        }
      }
    },
    "version": 1
  },
  "userdoc": {
    "kind": "user",
    "methods": {
      "getSingleton()": {
        "notice": "Returns the Wallet implementation"
      },
      "upgradeTo(address)": {
        "notice": "Updates the Wallet implementation"
      }
    },
    "version": 1
  },
  "storageLayout": {
    "storage": [],
    "types": null
  }
}