{
  "address": "0x2717299530a2a159807BC1fDA5E5f2A79645D0AC",
  "abi": [
    {
      "inputs": [],
      "name": "NAME",
      "outputs": [
        {
          "internalType": "string",
          "name": "",
          "type": "string"
        }
      ],
      "stateMutability": "view",
      "type": "function"
    },
    {
      "inputs": [],
      "name": "VERSION",
      "outputs": [
        {
          "internalType": "string",
          "name": "",
          "type": "string"
        }
      ],
      "stateMutability": "view",
      "type": "function"
    },
    {
      "inputs": [
        {
          "internalType": "bytes",
          "name": "message",
          "type": "bytes"
        }
      ],
      "name": "getMessageHash",
      "outputs": [
        {
          "internalType": "bytes32",
          "name": "",
          "type": "bytes32"
        }
      ],
      "stateMutability": "view",
      "type": "function"
    },
    {
      "inputs": [
        {
          "internalType": "contract Sodium",
          "name": "so",
          "type": "address"
        },
        {
          "internalType": "bytes",
          "name": "message",
          "type": "bytes"
        }
      ],
      "name": "getMessageHashForSodium",
      "outputs": [
        {
          "internalType": "bytes32",
          "name": "",
          "type": "bytes32"
        }
      ],
      "stateMutability": "view",
      "type": "function"
    },
    {
      "inputs": [
        {
          "internalType": "bytes32",
          "name": "_dataHash",
          "type": "bytes32"
        },
        {
          "internalType": "bytes",
          "name": "_signature",
          "type": "bytes"
        }
      ],
      "name": "isValidSignature",
      "outputs": [
        {
          "internalType": "bytes4",
          "name": "",
          "type": "bytes4"
        }
      ],
      "stateMutability": "view",
      "type": "function"
    },
    {
      "inputs": [
        {
          "internalType": "bytes",
          "name": "_data",
          "type": "bytes"
        },
        {
          "internalType": "bytes",
          "name": "_signature",
          "type": "bytes"
        }
      ],
      "name": "isValidSignature",
      "outputs": [
        {
          "internalType": "bytes4",
          "name": "",
          "type": "bytes4"
        }
      ],
      "stateMutability": "view",
      "type": "function"
    },
    {
      "inputs": [
        {
          "internalType": "address",
          "name": "",
          "type": "address"
        },
        {
          "internalType": "address",
          "name": "",
          "type": "address"
        },
        {
          "internalType": "uint256[]",
          "name": "",
          "type": "uint256[]"
        },
        {
          "internalType": "uint256[]",
          "name": "",
          "type": "uint256[]"
        },
        {
          "internalType": "bytes",
          "name": "",
          "type": "bytes"
        }
      ],
      "name": "onERC1155BatchReceived",
      "outputs": [
        {
          "internalType": "bytes4",
          "name": "",
          "type": "bytes4"
        }
      ],
      "stateMutability": "pure",
      "type": "function"
    },
    {
      "inputs": [
        {
          "internalType": "address",
          "name": "",
          "type": "address"
        },
        {
          "internalType": "address",
          "name": "",
          "type": "address"
        },
        {
          "internalType": "uint256",
          "name": "",
          "type": "uint256"
        },
        {
          "internalType": "uint256",
          "name": "",
          "type": "uint256"
        },
        {
          "internalType": "bytes",
          "name": "",
          "type": "bytes"
        }
      ],
      "name": "onERC1155Received",
      "outputs": [
        {
          "internalType": "bytes4",
          "name": "",
          "type": "bytes4"
        }
      ],
      "stateMutability": "pure",
      "type": "function"
    },
    {
      "inputs": [
        {
          "internalType": "address",
          "name": "",
          "type": "address"
        },
        {
          "internalType": "address",
          "name": "",
          "type": "address"
        },
        {
          "internalType": "uint256",
          "name": "",
          "type": "uint256"
        },
        {
          "internalType": "bytes",
          "name": "",
          "type": "bytes"
        }
      ],
      "name": "onERC721Received",
      "outputs": [
        {
          "internalType": "bytes4",
          "name": "",
          "type": "bytes4"
        }
      ],
      "stateMutability": "pure",
      "type": "function"
    },
    {
      "inputs": [
        {
          "internalType": "address",
          "name": "",
          "type": "address"
        },
        {
          "internalType": "address",
          "name": "",
          "type": "address"
        },
        {
          "internalType": "uint256",
          "name": "",
          "type": "uint256"
        },
        {
          "internalType": "bytes",
          "name": "",
          "type": "bytes"
        }
      ],
      "name": "onSEP20Received",
      "outputs": [
        {
          "internalType": "bytes4",
          "name": "",
          "type": "bytes4"
        }
      ],
      "stateMutability": "pure",
      "type": "function"
    },
    {
      "inputs": [
        {
          "internalType": "bytes4",
          "name": "interfaceId",
          "type": "bytes4"
        }
      ],
      "name": "supportsInterface",
      "outputs": [
        {
          "internalType": "bool",
          "name": "",
          "type": "bool"
        }
      ],
      "stateMutability": "view",
      "type": "function"
    },
    {
      "inputs": [
        {
          "internalType": "address",
          "name": "",
          "type": "address"
        },
        {
          "internalType": "address",
          "name": "",
          "type": "address"
        },
        {
          "internalType": "address",
          "name": "",
          "type": "address"
        },
        {
          "internalType": "uint256",
          "name": "",
          "type": "uint256"
        },
        {
          "internalType": "bytes",
          "name": "",
          "type": "bytes"
        },
        {
          "internalType": "bytes",
          "name": "",
          "type": "bytes"
        }
      ],
      "name": "tokensReceived",
      "outputs": [],
      "stateMutability": "pure",
      "type": "function"
    }
  ],
  "transactionHash": "0xa8b273b3d983912221c2fc0ce1f2560e64f67de77de80583e5e66302be3ec57e",
  "args": [],
  "numDeployments": 1,
  "solcInputHash": "b8650b41104fa2bd5a4dd853eb4b356d",
  "bytecode": "0x608060405234801561001057600080fd5b50610ecc806100206000396000f3fe608060405234801561001057600080fd5b50600436106100b35760003560e01c80639194ef01116100715780639194ef0114610179578063a3f4df7e14610198578063bc197c81146101e1578063f23a6e6114610203578063f653d43c14610223578063ffa1ad741461023657600080fd5b806223de29146100b857806301ffc9a7146100d25780630a1028c4146100fa578063150b7a021461011b5780631626ba7e1461015357806320c13b0b14610166575b600080fd5b6100d06100c63660046108be565b5050505050505050565b005b6100e56100e0366004610985565b61025a565b60405190151581526020015b60405180910390f35b61010d610108366004610a4c565b6102ac565b6040519081526020016100f1565b61013a610129366004610a89565b630a85bd0160e11b95945050505050565b6040516001600160e01b031990911681526020016100f1565b61013a610161366004610afc565b6102b8565b61013a610174366004610b48565b610374565b61013a610187366004610a89565b639194ef0160e01b95945050505050565b6101d46040518060400160405280601881526020017f44656661756c742043616c6c6261636b2048616e646c6572000000000000000081525081565b6040516100f19190610bfa565b61013a6101ef366004610c52565b63bc197c8160e01b98975050505050505050565b61013a610211366004610cf0565b63f23a6e6160e01b9695505050505050565b61010d610231366004610d6c565b6104d5565b6101d4604051806040016040528060058152602001640312e302e360dc1b81525081565b60006001600160e01b03198216630271189760e51b148061028b57506001600160e01b03198216630a85bd0160e11b145b806102a657506001600160e01b031982166301ffc9a760e01b145b92915050565b60006102a633836104d5565b60408051602080820186905282518083039091018152818301928390526320c13b0b60e01b9092526000913391839183916320c13b0b916102ff9189908990604401610dbc565b602060405180830381865afa15801561031c573d6000803e3d6000fd5b505050506040513d601f19601f820116820180604052508101906103409190610e02565b90506001600160e01b031981166320c13b0b60e01b1461036157600061036a565b630b135d3f60e11b5b9695505050505050565b60008033905060006103bc8288888080601f0160208091040260200160405190810160405280939291908181526020018383808284376000920191909152506104d592505050565b9050600080836001600160a01b0316634b574a0261041289898080601f01602080910402602001604051908101604052809392919081815260200183838082843760009201919091525089939250506105ed9050565b6040516001600160e01b031960e084901b1681526001600160a01b0390911660048201526024016040805180830381865afa158015610455573d6000803e3d6000fd5b505050506040513d601f19601f820116820180604052508101906104799190610e34565b915091508180156104875750805b6104c05760405162461bcd60e51b8152602060048201526005602482015264434648303160d81b60448201526064015b60405180910390fd5b506320c13b0b60e01b98975050505050505050565b6000807f60b3cbf8b4a223d68d641b3b6ddf9a298e7f33710cf3d3a9d1146b5a6150fbca60001b838051906020012060405160200161051e929190918252602082015260400190565b604051602081830303815290604052805190602001209050601960f81b600160f81b856001600160a01b031663f698da256040518163ffffffff1660e01b8152600401602060405180830381865afa15801561057e573d6000803e3d6000fd5b505050506040513d601f19601f820116820180604052508101906105a29190610e67565b6040516001600160f81b031993841660208201529290911660218301526022820152604281018290526062016040516020818303038152906040528051906020012091505092915050565b60008060006105fc8585610611565b9150915061060981610656565b509392505050565b60008082516041036106475760208301516040840151606085015160001a61063b878285856107a3565b9450945050505061064f565b506000905060025b9250929050565b600081600481111561066a5761066a610e80565b036106725750565b600181600481111561068657610686610e80565b036106d35760405162461bcd60e51b815260206004820152601860248201527f45434453413a20696e76616c6964207369676e6174757265000000000000000060448201526064016104b7565b60028160048111156106e7576106e7610e80565b036107345760405162461bcd60e51b815260206004820152601f60248201527f45434453413a20696e76616c6964207369676e6174757265206c656e6774680060448201526064016104b7565b600381600481111561074857610748610e80565b036107a05760405162461bcd60e51b815260206004820152602260248201527f45434453413a20696e76616c6964207369676e6174757265202773272076616c604482015261756560f01b60648201526084016104b7565b50565b6000807f7fffffffffffffffffffffffffffffff5d576e7357a4501ddfe92f46681b20a08311156107da575060009050600361085e565b6040805160008082526020820180845289905260ff881692820192909252606081018690526080810185905260019060a0016020604051602081039080840390855afa15801561082e573d6000803e3d6000fd5b5050604051601f1901519150506001600160a01b0381166108575760006001925092505061085e565b9150600090505b94509492505050565b6001600160a01b03811681146107a057600080fd5b60008083601f84011261088e57600080fd5b50813567ffffffffffffffff8111156108a657600080fd5b60208301915083602082850101111561064f57600080fd5b60008060008060008060008060c0898b0312156108da57600080fd5b88356108e581610867565b975060208901356108f581610867565b9650604089013561090581610867565b955060608901359450608089013567ffffffffffffffff8082111561092957600080fd5b6109358c838d0161087c565b909650945060a08b013591508082111561094e57600080fd5b5061095b8b828c0161087c565b999c989b5096995094979396929594505050565b6001600160e01b0319811681146107a057600080fd5b60006020828403121561099757600080fd5b81356109a28161096f565b9392505050565b634e487b7160e01b600052604160045260246000fd5b600082601f8301126109d057600080fd5b813567ffffffffffffffff808211156109eb576109eb6109a9565b604051601f8301601f19908116603f01168101908282118183101715610a1357610a136109a9565b81604052838152866020858801011115610a2c57600080fd5b836020870160208301376000602085830101528094505050505092915050565b600060208284031215610a5e57600080fd5b813567ffffffffffffffff811115610a7557600080fd5b610a81848285016109bf565b949350505050565b600080600080600060808688031215610aa157600080fd5b8535610aac81610867565b94506020860135610abc81610867565b935060408601359250606086013567ffffffffffffffff811115610adf57600080fd5b610aeb8882890161087c565b969995985093965092949392505050565b600080600060408486031215610b1157600080fd5b83359250602084013567ffffffffffffffff811115610b2f57600080fd5b610b3b8682870161087c565b9497909650939450505050565b60008060008060408587031215610b5e57600080fd5b843567ffffffffffffffff80821115610b7657600080fd5b610b828883890161087c565b90965094506020870135915080821115610b9b57600080fd5b50610ba88782880161087c565b95989497509550505050565b6000815180845260005b81811015610bda57602081850181015186830182015201610bbe565b506000602082860101526020601f19601f83011685010191505092915050565b6020815260006109a26020830184610bb4565b60008083601f840112610c1f57600080fd5b50813567ffffffffffffffff811115610c3757600080fd5b6020830191508360208260051b850101111561064f57600080fd5b60008060008060008060008060a0898b031215610c6e57600080fd5b8835610c7981610867565b97506020890135610c8981610867565b9650604089013567ffffffffffffffff80821115610ca657600080fd5b610cb28c838d01610c0d565b909850965060608b0135915080821115610ccb57600080fd5b610cd78c838d01610c0d565b909650945060808b013591508082111561094e57600080fd5b60008060008060008060a08789031215610d0957600080fd5b8635610d1481610867565b95506020870135610d2481610867565b94506040870135935060608701359250608087013567ffffffffffffffff811115610d4e57600080fd5b610d5a89828a0161087c565b979a9699509497509295939492505050565b60008060408385031215610d7f57600080fd5b8235610d8a81610867565b9150602083013567ffffffffffffffff811115610da657600080fd5b610db2858286016109bf565b9150509250929050565b604081526000610dcf6040830186610bb4565b8281036020840152838152838560208301376000602085830101526020601f19601f860116820101915050949350505050565b600060208284031215610e1457600080fd5b81516109a28161096f565b80518015158114610e2f57600080fd5b919050565b60008060408385031215610e4757600080fd5b610e5083610e1f565b9150610e5e60208401610e1f565b90509250929050565b600060208284031215610e7957600080fd5b5051919050565b634e487b7160e01b600052602160045260246000fdfea2646970667358221220744f8d99d766fbfed4d1a6c84b7344d84cd66f82857c17de5e0755776b6e9ac764736f6c63430008110033",
  "devdoc": {
    "kind": "dev",
    "methods": {
      "getMessageHash(bytes)": {
        "details": "Returns hash of a message that can be signed by owners.",
        "params": {
          "message": "Message that should be hashed"
        },
        "returns": {
          "_0": "Message hash."
        }
      },
      "getMessageHashForSodium(address,bytes)": {
        "details": "Returns hash of a message that can be signed by owners.",
        "params": {
          "message": "Message that should be hashed",
          "so": "Sodium to which the message is targeted"
        },
        "returns": {
          "_0": "Message hash."
        }
      },
      "isValidSignature(bytes,bytes)": {
        "details": "Should return whether the signature provided is valid for the provided data.",
        "params": {
          "_data": "Arbitrary length data signed on the behalf of address(msg.sender)",
          "_signature": "Signature byte array associated with _data"
        },
        "returns": {
          "_0": "a bool upon valid or invalid signature with corresponding _data"
        }
      },
      "isValidSignature(bytes32,bytes)": {
        "details": "Should return whether the signature provided is valid for the provided data.       The save does not implement the interface since `checkSignatures` is not a view method.       The method will not perform any state changes (see parameters of `checkSignatures`)",
        "params": {
          "_dataHash": "Hash of the data signed on the behalf of address(msg.sender)",
          "_signature": "Signature byte array associated with _dataHash"
        },
        "returns": {
          "_0": "a bool upon valid or invalid signature with corresponding _dataHash"
        }
      },
      "supportsInterface(bytes4)": {
        "details": "Returns true if this contract implements the interface defined by `interfaceId`. See the corresponding https://eips.ethereum.org/EIPS/eip-165#how-interfaces-are-identified[EIP section] to learn more about how these ids are created. This function call must use less than 30 000 gas."
      }
    },
    "version": 1
  },
  "userdoc": {
    "kind": "user",
    "methods": {
      "isValidSignature(bytes,bytes)": {
        "notice": "Implementation of ISignatureValidator (see `interfaces/ISignatureValidator.sol`)"
      },
      "isValidSignature(bytes32,bytes)": {
        "notice": "Implementation of updated EIP-1271See https://github.com/gnosis/util-contracts/blob/bb5fe5fb5df6d8400998094fb1b32a178a47c3a1/contracts/StorageAccessible.sol"
      }
    },
    "version": 1
  },
  "storageLayout": {
    "storage": [],
    "types": null
  }
}