{
  "address": "0x7af2021fE52013A83405d585E62a1dEf661217C4",
  "abi": [
    {
      "inputs": [
        {
          "internalType": "contract IEntryPoint",
          "name": "_entryPoint",
          "type": "address"
        }
      ],
      "stateMutability": "nonpayable",
      "type": "constructor"
    },
    {
      "anonymous": false,
      "inputs": [
        {
          "indexed": true,
          "internalType": "address",
          "name": "previousOwner",
          "type": "address"
        },
        {
          "indexed": true,
          "internalType": "address",
          "name": "newOwner",
          "type": "address"
        }
      ],
      "name": "OwnershipTransferred",
      "type": "event"
    },
    {
      "anonymous": false,
      "inputs": [
        {
          "indexed": false,
          "internalType": "uint256",
          "name": "newLatestCost",
          "type": "uint256"
        }
      ],
      "name": "UpdateLatestCost",
      "type": "event"
    },
    {
      "inputs": [],
      "name": "COST_OF_POST",
      "outputs": [
        {
          "internalType": "uint128",
          "name": "",
          "type": "uint128"
        }
      ],
      "stateMutability": "view",
      "type": "function"
    },
    {
      "inputs": [],
      "name": "PRECENT_DENOMINATOR",
      "outputs": [
        {
          "internalType": "uint128",
          "name": "",
          "type": "uint128"
        }
      ],
      "stateMutability": "view",
      "type": "function"
    },
    {
      "inputs": [
        {
          "internalType": "uint32",
          "name": "unstakeDelaySec",
          "type": "uint32"
        }
      ],
      "name": "addStake",
      "outputs": [],
      "stateMutability": "payable",
      "type": "function"
    },
    {
      "inputs": [
        {
          "internalType": "address",
          "name": "token",
          "type": "address"
        }
      ],
      "name": "addToken",
      "outputs": [],
      "stateMutability": "nonpayable",
      "type": "function"
    },
    {
      "inputs": [],
      "name": "deposit",
      "outputs": [],
      "stateMutability": "payable",
      "type": "function"
    },
    {
      "inputs": [
        {
          "internalType": "contract IERC20Metadata",
          "name": "token",
          "type": "address"
        }
      ],
      "name": "disableToken",
      "outputs": [],
      "stateMutability": "nonpayable",
      "type": "function"
    },
    {
      "inputs": [],
      "name": "entryPoint",
      "outputs": [
        {
          "internalType": "contract IEntryPoint",
          "name": "",
          "type": "address"
        }
      ],
      "stateMutability": "view",
      "type": "function"
    },
    {
      "inputs": [],
      "name": "fee",
      "outputs": [
        {
          "internalType": "uint256",
          "name": "",
          "type": "uint256"
        }
      ],
      "stateMutability": "view",
      "type": "function"
    },
    {
      "inputs": [],
      "name": "getDeposit",
      "outputs": [
        {
          "internalType": "uint256",
          "name": "",
          "type": "uint256"
        }
      ],
      "stateMutability": "view",
      "type": "function"
    },
    {
      "inputs": [
        {
          "internalType": "contract IERC20Metadata",
          "name": "token",
          "type": "address"
        }
      ],
      "name": "getTokenAllowanceCast",
      "outputs": [
        {
          "internalType": "uint256",
          "name": "miniAllowance",
          "type": "uint256"
        },
        {
          "internalType": "uint256",
          "name": "suggestApproveValue",
          "type": "uint256"
        }
      ],
      "stateMutability": "view",
      "type": "function"
    },
    {
      "inputs": [
        {
          "internalType": "contract IERC20Metadata",
          "name": "token",
          "type": "address"
        },
        {
          "internalType": "uint256",
          "name": "ethBought",
          "type": "uint256"
        }
      ],
      "name": "getTokenValueOfEth",
      "outputs": [
        {
          "internalType": "uint256",
          "name": "requiredTokens",
          "type": "uint256"
        }
      ],
      "stateMutability": "view",
      "type": "function"
    },
    {
      "inputs": [
        {
          "internalType": "contract IERC20Metadata",
          "name": "",
          "type": "address"
        }
      ],
      "name": "isTokenSupported",
      "outputs": [
        {
          "internalType": "bool",
          "name": "",
          "type": "bool"
        }
      ],
      "stateMutability": "view",
      "type": "function"
    },
    {
      "inputs": [],
      "name": "owner",
      "outputs": [
        {
          "internalType": "address",
          "name": "",
          "type": "address"
        }
      ],
      "stateMutability": "view",
      "type": "function"
    },
    {
      "inputs": [
        {
          "internalType": "enum IPaymaster.PostOpMode",
          "name": "mode",
          "type": "uint8"
        },
        {
          "internalType": "bytes",
          "name": "context",
          "type": "bytes"
        },
        {
          "internalType": "uint256",
          "name": "actualGasCost",
          "type": "uint256"
        }
      ],
      "name": "postOp",
      "outputs": [],
      "stateMutability": "nonpayable",
      "type": "function"
    },
    {
      "inputs": [],
      "name": "renounceOwnership",
      "outputs": [],
      "stateMutability": "nonpayable",
      "type": "function"
    },
    {
      "inputs": [
        {
          "internalType": "address",
          "name": "newOwner",
          "type": "address"
        }
      ],
      "name": "transferOwnership",
      "outputs": [],
      "stateMutability": "nonpayable",
      "type": "function"
    },
    {
      "inputs": [],
      "name": "unlockStake",
      "outputs": [],
      "stateMutability": "nonpayable",
      "type": "function"
    },
    {
      "inputs": [
        {
          "internalType": "uint256",
          "name": "_cost",
          "type": "uint256"
        }
      ],
      "name": "updateLatestCost",
      "outputs": [],
      "stateMutability": "nonpayable",
      "type": "function"
    },
    {
      "inputs": [
        {
          "components": [
            {
              "internalType": "address",
              "name": "sender",
              "type": "address"
            },
            {
              "internalType": "uint256",
              "name": "nonce",
              "type": "uint256"
            },
            {
              "internalType": "bytes",
              "name": "initCode",
              "type": "bytes"
            },
            {
              "internalType": "bytes",
              "name": "callData",
              "type": "bytes"
            },
            {
              "internalType": "uint256",
              "name": "callGasLimit",
              "type": "uint256"
            },
            {
              "internalType": "uint256",
              "name": "verificationGasLimit",
              "type": "uint256"
            },
            {
              "internalType": "uint256",
              "name": "preVerificationGas",
              "type": "uint256"
            },
            {
              "internalType": "uint256",
              "name": "maxFeePerGas",
              "type": "uint256"
            },
            {
              "internalType": "uint256",
              "name": "maxPriorityFeePerGas",
              "type": "uint256"
            },
            {
              "internalType": "bytes",
              "name": "paymasterAndData",
              "type": "bytes"
            },
            {
              "internalType": "bytes",
              "name": "signature",
              "type": "bytes"
            }
          ],
          "internalType": "struct UserOperation",
          "name": "userOp",
          "type": "tuple"
        },
        {
          "internalType": "bytes32",
          "name": "userOpHash",
          "type": "bytes32"
        },
        {
          "internalType": "uint256",
          "name": "maxCost",
          "type": "uint256"
        }
      ],
      "name": "validatePaymasterUserOp",
      "outputs": [
        {
          "internalType": "bytes",
          "name": "context",
          "type": "bytes"
        },
        {
          "internalType": "uint256",
          "name": "validationData",
          "type": "uint256"
        }
      ],
      "stateMutability": "nonpayable",
      "type": "function"
    },
    {
      "inputs": [
        {
          "internalType": "address payable",
          "name": "withdrawAddress",
          "type": "address"
        }
      ],
      "name": "withdrawStake",
      "outputs": [],
      "stateMutability": "nonpayable",
      "type": "function"
    },
    {
      "inputs": [
        {
          "internalType": "address payable",
          "name": "withdrawAddress",
          "type": "address"
        },
        {
          "internalType": "uint256",
          "name": "amount",
          "type": "uint256"
        }
      ],
      "name": "withdrawTo",
      "outputs": [],
      "stateMutability": "nonpayable",
      "type": "function"
    },
    {
      "inputs": [
        {
          "internalType": "contract IERC20Metadata",
          "name": "token",
          "type": "address"
        },
        {
          "internalType": "address",
          "name": "target",
          "type": "address"
        },
        {
          "internalType": "uint256",
          "name": "amount",
          "type": "uint256"
        }
      ],
      "name": "withdrawTokensTo",
      "outputs": [],
      "stateMutability": "nonpayable",
      "type": "function"
    }
  ],
  "transactionHash": "0xde7e856f4b5be8b142bfc8371a2fc198675f7b530d3481eee70e6589d5e2055f",
  "args": [
    "0x5FF137D4b0FDCD49DcA30c7CF57E578a026d2789"
  ],
  "numDeployments": 1,
  "solcInputHash": "09a59c7c673a10f149d124c86e476dd0",
  "bytecode": "0x60a06040526311e1a3006001553480156200001957600080fd5b5060405162001c9e38038062001c9e8339810160408190526200003c916200029b565b80806200004933620000e4565b6001600160a01b0316608052620000603262000134565b5062000080731dd6b5f9281c6b4f043c02a83a46c2772024636c620001b7565b6200009f73fd086bc7cd5c481dcc9c85ebe478a1c0b69fcbb9620001b7565b620000be73af88d065e77c8cc2239327c5edb3a432268e5831620001b7565b620000dd73ff970a61a04b1ca14834a43f5de4533ebddb5cc8620001b7565b50620002cd565b600080546001600160a01b038381166001600160a01b0319831681178455604051919092169283917f8be0079c531659141344cd1fd0a4f28419497f9722a3daafe3b4186f6b6457e09190a35050565b6200013e6200023d565b6001600160a01b038116620001a95760405162461bcd60e51b815260206004820152602660248201527f4f776e61626c653a206e6577206f776e657220697320746865207a65726f206160448201526564647265737360d01b60648201526084015b60405180910390fd5b620001b481620000e4565b50565b6001600160a01b038116600090815260026020526040902054819060ff1615620002185760405162461bcd60e51b8152602060048201526011602482015270151bdad95b88185b1c9958591e481cd95d607a1b6044820152606401620001a0565b6001600160a01b03166000908152600260205260409020805460ff1916600117905550565b6000546001600160a01b03163314620002995760405162461bcd60e51b815260206004820181905260248201527f4f776e61626c653a2063616c6c6572206973206e6f7420746865206f776e65726044820152606401620001a0565b565b600060208284031215620002ae57600080fd5b81516001600160a01b0381168114620002c657600080fd5b9392505050565b6080516119846200031a6000396000818161031701528181610451015281816104e801528181610836015281816108ca01528181610941015281816109ef0152610bfd01526119846000f3fe6080604052600436106101355760003560e01c8063a9a23409116100ab578063cc9c837c1161006f578063cc9c837c14610383578063d0e30db0146103a3578063d48bfca7146103ab578063ddca3f43146103cb578063f2fde38b146103e1578063f465c77e1461040157600080fd5b8063a9a23409146102e5578063b0d691fe14610305578063bb9fe6bf14610339578063c23a5cea1461034e578063c399ec881461036e57600080fd5b806375151b63116100fd57806375151b63146101c4578063796d43711461020957806382d2d971146102375780638da5cb5b1461026c5780639329c26a1461029e5780639cc182a4146102cc57600080fd5b80630396cb601461013a578063205c28781461014f57806323e27a641461016f57806337eebf8e1461018f578063715018a6146101af575b600080fd5b61014d61014836600461140f565b61042f565b005b34801561015b57600080fd5b5061014d61016a36600461144a565b6104ba565b34801561017b57600080fd5b5061014d61018a366004611476565b61052c565b34801561019b57600080fd5b5061014d6101aa366004611493565b6105b7565b3480156101bb57600080fd5b5061014d61060c565b3480156101d057600080fd5b506101f46101df366004611476565b60026020526000908152604090205460ff1681565b60405190151581526020015b60405180910390f35b34801561021557600080fd5b5061021f6188b881565b6040516001600160801b039091168152602001610200565b34801561024357600080fd5b50610257610252366004611476565b610620565b60408051928352602083019190915201610200565b34801561027857600080fd5b506000546001600160a01b03165b6040516001600160a01b039091168152602001610200565b3480156102aa57600080fd5b506102be6102b936600461144a565b610717565b604051908152602001610200565b3480156102d857600080fd5b5061021f6402540be40081565b3480156102f157600080fd5b5061014d6103003660046114ac565b610812565b34801561031157600080fd5b506102867f000000000000000000000000000000000000000000000000000000000000000081565b34801561034557600080fd5b5061014d61082c565b34801561035a57600080fd5b5061014d610369366004611476565b6108a3565b34801561037a57600080fd5b506102be610929565b34801561038f57600080fd5b5061014d61039e36600461153b565b6109b9565b61014d6109da565b3480156103b757600080fd5b5061014d6103c6366004611476565b610a3c565b3480156103d757600080fd5b506102be60015481565b3480156103ed57600080fd5b5061014d6103fc366004611476565b610a50565b34801561040d57600080fd5b5061042161041c36600461157c565b610ac6565b604051610200929190611620565b610437610ae9565b604051621cb65b60e51b815263ffffffff821660048201527f00000000000000000000000000000000000000000000000000000000000000006001600160a01b031690630396cb609034906024016000604051808303818588803b15801561049e57600080fd5b505af11580156104b2573d6000803e3d6000fd5b505050505050565b6104c2610ae9565b60405163040b850f60e31b81526001600160a01b038381166004830152602482018390527f0000000000000000000000000000000000000000000000000000000000000000169063205c287890604401600060405180830381600087803b15801561049e57600080fd5b610534610ae9565b6001600160a01b03811660009081526002602052604090205460ff16156105965760405162461bcd60e51b8152602060048201526011602482015270151bdad95b88185b1c9958591e481cd95d607a1b60448201526064015b60405180910390fd5b6001600160a01b03166000908152600260205260409020805460ff19169055565b6105bf610ae9565b6105d181670de0b6b3a7640000611658565b60038190556040519081527f6ed8c5102a889f41cfca6889b0cfd2ba7d7346b7f4e636cb402d3cc29eaed1d89060200160405180910390a150565b610614610ae9565b61061e6000610b43565b565b6001600160a01b038116600090815260026020526040812054819060ff1661067a5760405162461bcd60e51b815260206004820152600d60248201526c151bdad95b881b9bdd081cd95d609a1b604482015260640161058d565b6000836001600160a01b031663313ce5676040518163ffffffff1660e01b8152600401602060405180830381865afa1580156106ba573d6000803e3d6000fd5b505050506040513d601f19601f820116820180604052508101906106de919061166f565b90506106eb81600a611776565b6106f690600a611658565b925061070381600a611776565b61070f906103e8611658565b915050915091565b6001600160a01b03821660009081526002602052604081205460ff1661076f5760405162461bcd60e51b815260206004820152600d60248201526c151bdad95b881b9bdd081cd95d609a1b604482015260640161058d565b6000836001600160a01b031663313ce5676040518163ffffffff1660e01b8152600401602060405180830381865afa1580156107af573d6000803e3d6000fd5b505050506040513d601f19601f820116820180604052508101906107d3919061166f565b9050610808600354846107e69190611658565b6107f183600a611776565b6ec097ce7bc90715b34b9f10000000006001610b93565b9150505b92915050565b61081a610bf2565b61082684848484610c62565b50505050565b610834610ae9565b7f00000000000000000000000000000000000000000000000000000000000000006001600160a01b031663bb9fe6bf6040518163ffffffff1660e01b8152600401600060405180830381600087803b15801561088f57600080fd5b505af1158015610826573d6000803e3d6000fd5b6108ab610ae9565b60405163611d2e7560e11b81526001600160a01b0382811660048301527f0000000000000000000000000000000000000000000000000000000000000000169063c23a5cea90602401600060405180830381600087803b15801561090e57600080fd5b505af1158015610922573d6000803e3d6000fd5b5050505050565b6040516370a0823160e01b81523060048201526000907f00000000000000000000000000000000000000000000000000000000000000006001600160a01b0316906370a0823190602401602060405180830381865afa158015610990573d6000803e3d6000fd5b505050506040513d601f19601f820116820180604052508101906109b49190611785565b905090565b6109c1610ae9565b6109d56001600160a01b0384168383610cf9565b505050565b60405163b760faf960e01b81523060048201527f00000000000000000000000000000000000000000000000000000000000000006001600160a01b03169063b760faf99034906024016000604051808303818588803b15801561090e57600080fd5b610a44610ae9565b610a4d81610d5c565b50565b610a58610ae9565b6001600160a01b038116610abd5760405162461bcd60e51b815260206004820152602660248201527f4f776e61626c653a206e6577206f776e657220697320746865207a65726f206160448201526564647265737360d01b606482015260840161058d565b610a4d81610b43565b60606000610ad2610bf2565b610add858585610de0565b91509150935093915050565b6000546001600160a01b0316331461061e5760405162461bcd60e51b815260206004820181905260248201527f4f776e61626c653a2063616c6c6572206973206e6f7420746865206f776e6572604482015260640161058d565b600080546001600160a01b038381166001600160a01b0319831681178455604051919092169283917f8be0079c531659141344cd1fd0a4f28419497f9722a3daafe3b4186f6b6457e09190a35050565b600080610ba186868661108b565b90506001836002811115610bb757610bb761179e565b148015610bd4575060008480610bcf57610bcf6117b4565b868809115b15610be757610be46001826117ca565b90505b90505b949350505050565b336001600160a01b037f0000000000000000000000000000000000000000000000000000000000000000161461061e5760405162461bcd60e51b815260206004820152601560248201527414d95b99195c881b9bdd08115b9d1c9e541bda5b9d605a1b604482015260640161058d565b600080808080610c74878901896117dd565b945094509450945094506000610c9b876001546402540be4006001600160801b031661108b565b905060008284610cad876188b8611658565b610cb7858c6117ca565b610cc191906117ca565b610ccb9190611658565b610cd5919061182e565b9050610cec6001600160a01b038716883084611140565b5050505050505050505050565b6040516001600160a01b0383166024820152604481018290526109d590849063a9059cbb60e01b906064015b60408051601f198184030181529190526020810180516001600160e01b03166001600160e01b031990931692909217909152611178565b6001600160a01b038116600090815260026020526040902054819060ff1615610dbb5760405162461bcd60e51b8152602060048201526011602482015270151bdad95b88185b1c9958591e481cd95d607a1b604482015260640161058d565b6001600160a01b03166000908152600260205260409020805460ff1916600117905550565b606060006188b860a086013511610e485760405162461bcd60e51b815260206004820152602660248201527f45524332305061796d61737465723a2067617320746f6f206c6f7720666f72206044820152650706f73744f760d41b606482015260840161058d565b366000610e59610120880188611850565b9092509050602c8114610eca5760405162461bcd60e51b815260206004820152603360248201527f45524332305061796d61737465723a207061796d6173746572416e64446174616044820152721036bab9ba1039b832b1b4b33c903a37b5b2b760691b606482015260840161058d565b6000610ed9826018818661189e565b610ee2916118c8565b60601c905087356000610ef58389610717565b90506000610f028b61124a565b604051636eb1769f60e11b81526001600160a01b038581166004830152306024830152919250839186169063dd62ed3e90604401602060405180830381865afa158015610f53573d6000803e3d6000fd5b505050506040513d601f19601f82011682018060405250810190610f779190611785565b1015610fc55760405162461bcd60e51b815260206004820152601f60248201527f45524332305061796d61737465723a206465706f73697420746f6f206c6f7700604482015260640161058d565b6040516370a0823160e01b81526001600160a01b0384811660048301528391908616906370a0823190602401602060405180830381865afa15801561100e573d6000803e3d6000fd5b505050506040513d601f19601f820116820180604052508101906110329190611785565b101561103d57600080fd5b604080516001600160a01b03948516602082015294909316848401526060840152608083015260a0808301979097528051808303909701875260c09091019052509295600095509350505050565b60008080600019858709858702925082811083820303915050806000036110c5578382816110bb576110bb6117b4565b0492505050611139565b8084116110d157600080fd5b600084868809851960019081018716968790049682860381900495909211909303600082900391909104909201919091029190911760038402600290811880860282030280860282030280860282030280860282030280860282030280860290910302029150505b9392505050565b6040516001600160a01b03808516602483015283166044820152606481018290526108269085906323b872dd60e01b90608401610d25565b60006111cd826040518060400160405280602081526020017f5361666545524332303a206c6f772d6c6576656c2063616c6c206661696c6564815250856001600160a01b03166112719092919063ffffffff16565b8051909150156109d557808060200190518101906111eb91906118fd565b6109d55760405162461bcd60e51b815260206004820152602a60248201527f5361666545524332303a204552433230206f7065726174696f6e20646964206e6044820152691bdd081cdd58d8d9595960b21b606482015260840161058d565b600060e0820135610100830135808203611265575092915050565b610bea82488301611280565b6060610bea8484600085611296565b600081831061128f5781611139565b5090919050565b6060824710156112f75760405162461bcd60e51b815260206004820152602660248201527f416464726573733a20696e73756666696369656e742062616c616e636520666f6044820152651c8818d85b1b60d21b606482015260840161058d565b600080866001600160a01b03168587604051611313919061191f565b60006040518083038185875af1925050503d8060008114611350576040519150601f19603f3d011682016040523d82523d6000602084013e611355565b606091505b509150915061136687838387611371565b979650505050505050565b606083156113e05782516000036113d9576001600160a01b0385163b6113d95760405162461bcd60e51b815260206004820152601d60248201527f416464726573733a2063616c6c20746f206e6f6e2d636f6e7472616374000000604482015260640161058d565b5081610bea565b610bea83838151156113f55781518083602001fd5b8060405162461bcd60e51b815260040161058d919061193b565b60006020828403121561142157600080fd5b813563ffffffff8116811461113957600080fd5b6001600160a01b0381168114610a4d57600080fd5b6000806040838503121561145d57600080fd5b823561146881611435565b946020939093013593505050565b60006020828403121561148857600080fd5b813561113981611435565b6000602082840312156114a557600080fd5b5035919050565b600080600080606085870312156114c257600080fd5b8435600381106114d157600080fd5b9350602085013567ffffffffffffffff808211156114ee57600080fd5b818701915087601f83011261150257600080fd5b81358181111561151157600080fd5b88602082850101111561152357600080fd5b95986020929092019750949560400135945092505050565b60008060006060848603121561155057600080fd5b833561155b81611435565b9250602084013561156b81611435565b929592945050506040919091013590565b60008060006060848603121561159157600080fd5b833567ffffffffffffffff8111156115a857600080fd5b840161016081870312156115bb57600080fd5b95602085013595506040909401359392505050565b60005b838110156115eb5781810151838201526020016115d3565b50506000910152565b6000815180845261160c8160208601602086016115d0565b601f01601f19169290920160200192915050565b60408152600061163360408301856115f4565b90508260208301529392505050565b634e487b7160e01b600052601160045260246000fd5b808202811582820484141761080c5761080c611642565b60006020828403121561168157600080fd5b815160ff8116811461113957600080fd5b600181815b808511156116cd5781600019048211156116b3576116b3611642565b808516156116c057918102915b93841c9390800290611697565b509250929050565b6000826116e45750600161080c565b816116f15750600061080c565b816001811461170757600281146117115761172d565b600191505061080c565b60ff84111561172257611722611642565b50506001821b61080c565b5060208310610133831016604e8410600b8410161715611750575081810a61080c565b61175a8383611692565b806000190482111561176e5761176e611642565b029392505050565b600061113960ff8416836116d5565b60006020828403121561179757600080fd5b5051919050565b634e487b7160e01b600052602160045260246000fd5b634e487b7160e01b600052601260045260246000fd5b8082018082111561080c5761080c611642565b600080600080600060a086880312156117f557600080fd5b853561180081611435565b9450602086013561181081611435565b94979496505050506040830135926060810135926080909101359150565b60008261184b57634e487b7160e01b600052601260045260246000fd5b500490565b6000808335601e1984360301811261186757600080fd5b83018035915067ffffffffffffffff82111561188257600080fd5b60200191503681900382131561189757600080fd5b9250929050565b600080858511156118ae57600080fd5b838611156118bb57600080fd5b5050820193919092039150565b6bffffffffffffffffffffffff1981358181169160148510156118f55780818660140360031b1b83161692505b505092915050565b60006020828403121561190f57600080fd5b8151801515811461113957600080fd5b600082516119318184602087016115d0565b9190910192915050565b60208152600061113960208301846115f456fea2646970667358221220dad558127161d59aba6d9cbe410b9345b83eddef0f8f635c8b44e838fa985f9c64736f6c63430008110033",
  "devdoc": {
    "kind": "dev",
    "methods": {
      "addStake(uint32)": {
        "params": {
          "unstakeDelaySec": "- the unstake delay for this paymaster. Can only be increased."
        }
      },
      "getTokenValueOfEth(address,uint256)": {
        "params": {
          "ethBought": "the required eth value we want to \"buy\"",
          "token": "the token to use"
        },
        "returns": {
          "requiredTokens": "the amount of tokens required to get this amount of eth"
        }
      },
      "owner()": {
        "details": "Returns the address of the current owner."
      },
      "postOp(uint8,bytes,uint256)": {
        "params": {
          "actualGasCost": "- actual gas used so far (without this postOp call).",
          "context": "- the context value returned by validatePaymasterUserOp",
          "mode": "enum with the following options:      opSucceeded - user operation succeeded.      opReverted  - user op reverted. still has to pay for gas.      postOpReverted - user op succeeded, but caused postOp (in mode=opSucceeded) to revert.                       Now this is the 2nd call, after user's op was deliberately reverted."
        }
      },
      "renounceOwnership()": {
        "details": "Leaves the contract without owner. It will not be possible to call `onlyOwner` functions anymore. Can only be called by the current owner. NOTE: Renouncing ownership will leave the contract without an owner, thereby removing any functionality that is only available to the owner."
      },
      "transferOwnership(address)": {
        "details": "Transfers ownership of the contract to a new account (`newOwner`). Can only be called by the current owner."
      },
      "validatePaymasterUserOp((address,uint256,bytes,bytes,uint256,uint256,uint256,uint256,uint256,bytes,bytes),bytes32,uint256)": {
        "params": {
          "maxCost": "the maximum cost of this transaction (based on maximum gas and gas price from userOp)",
          "userOp": "the user operation",
          "userOpHash": "hash of the user's request data."
        },
        "returns": {
          "context": "value to send to a postOp      zero length to signify postOp is not required.",
          "validationData": "signature and time-range of this operation, encoded the same as the return value of validateUserOperation      <20-byte> sigAuthorizer - 0 for valid signature, 1 to mark signature failure,         otherwise, an address of an \"authorizer\" contract.      <6-byte> validUntil - last timestamp this operation is valid. 0 for \"indefinite\"      <6-byte> validAfter - first timestamp this operation is valid      Note that the validation code cannot use block.timestamp (or block.number) directly."
        }
      },
      "withdrawStake(address)": {
        "params": {
          "withdrawAddress": "the address to send withdrawn value."
        }
      },
      "withdrawTo(address,uint256)": {
        "params": {
          "amount": "to withdraw",
          "withdrawAddress": "target to send to"
        }
      },
      "withdrawTokensTo(address,address,uint256)": {
        "params": {
          "amount": "amount to withdraw",
          "target": "address to send to",
          "token": "the token deposit to withdraw"
        }
      }
    },
    "version": 1
  },
  "userdoc": {
    "kind": "user",
    "methods": {
      "addStake(uint32)": {
        "notice": "add stake for this paymaster. This method can also carry eth value to add to the current stake."
      },
      "addToken(address)": {
        "notice": "owner of the paymaster should add supported tokens"
      },
      "deposit()": {
        "notice": "add a deposit for this paymaster, used for paying for transaction fees"
      },
      "disableToken(address)": {
        "notice": "owner of the paymaster should update supported tokens"
      },
      "getDeposit()": {
        "notice": "return current paymaster's deposit on the entryPoint."
      },
      "getTokenAllowanceCast(address)": {
        "notice": "return amount of tokens"
      },
      "getTokenValueOfEth(address,uint256)": {
        "notice": "translate the given eth value to token amount"
      },
      "postOp(uint8,bytes,uint256)": {
        "notice": "post-operation handler. Must verify sender is the entryPoint"
      },
      "unlockStake()": {
        "notice": "unlock the stake, in order to withdraw it. The paymaster can't serve requests once unlocked, until it calls addStake again"
      },
      "validatePaymasterUserOp((address,uint256,bytes,bytes,uint256,uint256,uint256,uint256,uint256,bytes,bytes),bytes32,uint256)": {
        "notice": "payment validation: check if paymaster agrees to pay. Must verify sender is the entryPoint. Revert to reject this request. Note that bundlers will reject this method if it changes the state, unless the paymaster is trusted (whitelisted) The paymaster pre-pays using its deposit, and receive back a refund after the postOp method returns."
      },
      "withdrawStake(address)": {
        "notice": "withdraw the entire paymaster's stake. stake must be unlocked first (and then wait for the unstakeDelay to be over)"
      },
      "withdrawTo(address,uint256)": {
        "notice": "withdraw value from the deposit"
      },
      "withdrawTokensTo(address,address,uint256)": {
        "notice": "withdraw tokens. can only be called after unlock() is called in a previous block."
      }
    },
    "version": 1
  },
  "storageLayout": {
    "storage": [
      {
        "astId": 1219,
        "contract": "contracts/paymasters/AribStableCoinPaymaster.sol:AribStablePaymaster",
        "label": "_owner",
        "offset": 0,
        "slot": "0",
        "type": "t_address"
      },
      {
        "astId": 13624,
        "contract": "contracts/paymasters/AribStableCoinPaymaster.sol:AribStablePaymaster",
        "label": "fee",
        "offset": 0,
        "slot": "1",
        "type": "t_uint256"
      },
      {
        "astId": 13638,
        "contract": "contracts/paymasters/AribStableCoinPaymaster.sol:AribStablePaymaster",
        "label": "isTokenSupported",
        "offset": 0,
        "slot": "2",
        "type": "t_mapping(t_contract(IERC20Metadata)2515,t_bool)"
      },
      {
        "astId": 13640,
        "contract": "contracts/paymasters/AribStableCoinPaymaster.sol:AribStablePaymaster",
        "label": "latestCost",
        "offset": 0,
        "slot": "3",
        "type": "t_uint256"
      }
    ],
    "types": {
      "t_address": {
        "encoding": "inplace",
        "label": "address",
        "numberOfBytes": "20"
      },
      "t_bool": {
        "encoding": "inplace",
        "label": "bool",
        "numberOfBytes": "1"
      },
      "t_contract(IERC20Metadata)2515": {
        "encoding": "inplace",
        "label": "contract IERC20Metadata",
        "numberOfBytes": "20"
      },
      "t_mapping(t_contract(IERC20Metadata)2515,t_bool)": {
        "encoding": "mapping",
        "key": "t_contract(IERC20Metadata)2515",
        "label": "mapping(contract IERC20Metadata => bool)",
        "numberOfBytes": "32",
        "value": "t_bool"
      },
      "t_uint256": {
        "encoding": "inplace",
        "label": "uint256",
        "numberOfBytes": "32"
      }
    }
  }
}