{
  "address": "0xCf7Ed3AccA5a467e9e704C703E8D87F634fB0Fc9",
  "abi": [
    {
      "inputs": [
        {
          "internalType": "uint256",
          "name": "preOpGas",
          "type": "uint256"
        },
        {
          "internalType": "uint256",
          "name": "paid",
          "type": "uint256"
        },
        {
          "internalType": "uint64",
          "name": "validAfter",
          "type": "uint64"
        },
        {
          "internalType": "uint64",
          "name": "validBefore",
          "type": "uint64"
        }
      ],
      "name": "ExecutionResult",
      "type": "error"
    },
    {
      "inputs": [
        {
          "internalType": "uint256",
          "name": "opIndex",
          "type": "uint256"
        },
        {
          "internalType": "address",
          "name": "paymaster",
          "type": "address"
        },
        {
          "internalType": "string",
          "name": "reason",
          "type": "string"
        }
      ],
      "name": "FailedOp",
      "type": "error"
    },
    {
      "inputs": [
        {
          "internalType": "address",
          "name": "sender",
          "type": "address"
        }
      ],
      "name": "SenderAddressResult",
      "type": "error"
    },
    {
      "inputs": [
        {
          "internalType": "address",
          "name": "aggregator",
          "type": "address"
        }
      ],
      "name": "SignatureValidationFailed",
      "type": "error"
    },
    {
      "inputs": [
        {
          "components": [
            {
              "internalType": "uint256",
              "name": "preOpGas",
              "type": "uint256"
            },
            {
              "internalType": "uint256",
              "name": "prefund",
              "type": "uint256"
            },
            {
              "internalType": "bool",
              "name": "sigFailed",
              "type": "bool"
            },
            {
              "internalType": "uint64",
              "name": "validAfter",
              "type": "uint64"
            },
            {
              "internalType": "uint64",
              "name": "validUntil",
              "type": "uint64"
            },
            {
              "internalType": "bytes",
              "name": "paymasterContext",
              "type": "bytes"
            }
          ],
          "internalType": "struct IEntryPoint.ReturnInfo",
          "name": "returnInfo",
          "type": "tuple"
        },
        {
          "components": [
            {
              "internalType": "uint256",
              "name": "stake",
              "type": "uint256"
            },
            {
              "internalType": "uint256",
              "name": "unstakeDelaySec",
              "type": "uint256"
            }
          ],
          "internalType": "struct IStakeManager.StakeInfo",
          "name": "senderInfo",
          "type": "tuple"
        },
        {
          "components": [
            {
              "internalType": "uint256",
              "name": "stake",
              "type": "uint256"
            },
            {
              "internalType": "uint256",
              "name": "unstakeDelaySec",
              "type": "uint256"
            }
          ],
          "internalType": "struct IStakeManager.StakeInfo",
          "name": "factoryInfo",
          "type": "tuple"
        },
        {
          "components": [
            {
              "internalType": "uint256",
              "name": "stake",
              "type": "uint256"
            },
            {
              "internalType": "uint256",
              "name": "unstakeDelaySec",
              "type": "uint256"
            }
          ],
          "internalType": "struct IStakeManager.StakeInfo",
          "name": "paymasterInfo",
          "type": "tuple"
        }
      ],
      "name": "ValidationResult",
      "type": "error"
    },
    {
      "inputs": [
        {
          "components": [
            {
              "internalType": "uint256",
              "name": "preOpGas",
              "type": "uint256"
            },
            {
              "internalType": "uint256",
              "name": "prefund",
              "type": "uint256"
            },
            {
              "internalType": "bool",
              "name": "sigFailed",
              "type": "bool"
            },
            {
              "internalType": "uint64",
              "name": "validAfter",
              "type": "uint64"
            },
            {
              "internalType": "uint64",
              "name": "validUntil",
              "type": "uint64"
            },
            {
              "internalType": "bytes",
              "name": "paymasterContext",
              "type": "bytes"
            }
          ],
          "internalType": "struct IEntryPoint.ReturnInfo",
          "name": "returnInfo",
          "type": "tuple"
        },
        {
          "components": [
            {
              "internalType": "uint256",
              "name": "stake",
              "type": "uint256"
            },
            {
              "internalType": "uint256",
              "name": "unstakeDelaySec",
              "type": "uint256"
            }
          ],
          "internalType": "struct IStakeManager.StakeInfo",
          "name": "senderInfo",
          "type": "tuple"
        },
        {
          "components": [
            {
              "internalType": "uint256",
              "name": "stake",
              "type": "uint256"
            },
            {
              "internalType": "uint256",
              "name": "unstakeDelaySec",
              "type": "uint256"
            }
          ],
          "internalType": "struct IStakeManager.StakeInfo",
          "name": "factoryInfo",
          "type": "tuple"
        },
        {
          "components": [
            {
              "internalType": "uint256",
              "name": "stake",
              "type": "uint256"
            },
            {
              "internalType": "uint256",
              "name": "unstakeDelaySec",
              "type": "uint256"
            }
          ],
          "internalType": "struct IStakeManager.StakeInfo",
          "name": "paymasterInfo",
          "type": "tuple"
        },
        {
          "components": [
            {
              "internalType": "address",
              "name": "actualAggregator",
              "type": "address"
            },
            {
              "components": [
                {
                  "internalType": "uint256",
                  "name": "stake",
                  "type": "uint256"
                },
                {
                  "internalType": "uint256",
                  "name": "unstakeDelaySec",
                  "type": "uint256"
                }
              ],
              "internalType": "struct IStakeManager.StakeInfo",
              "name": "stakeInfo",
              "type": "tuple"
            }
          ],
          "internalType": "struct IEntryPoint.AggregatorStakeInfo",
          "name": "aggregatorInfo",
          "type": "tuple"
        }
      ],
      "name": "ValidationResultWithAggregation",
      "type": "error"
    },
    {
      "anonymous": false,
      "inputs": [
        {
          "indexed": true,
          "internalType": "bytes32",
          "name": "userOpHash",
          "type": "bytes32"
        },
        {
          "indexed": true,
          "internalType": "address",
          "name": "sender",
          "type": "address"
        },
        {
          "indexed": false,
          "internalType": "address",
          "name": "factory",
          "type": "address"
        },
        {
          "indexed": false,
          "internalType": "address",
          "name": "paymaster",
          "type": "address"
        }
      ],
      "name": "AccountDeployed",
      "type": "event"
    },
    {
      "anonymous": false,
      "inputs": [
        {
          "indexed": false,
          "internalType": "address",
          "name": "previousAdmin",
          "type": "address"
        },
        {
          "indexed": false,
          "internalType": "address",
          "name": "newAdmin",
          "type": "address"
        }
      ],
      "name": "AdminChanged",
      "type": "event"
    },
    {
      "anonymous": false,
      "inputs": [
        {
          "indexed": true,
          "internalType": "address",
          "name": "beacon",
          "type": "address"
        }
      ],
      "name": "BeaconUpgraded",
      "type": "event"
    },
    {
      "anonymous": false,
      "inputs": [
        {
          "indexed": true,
          "internalType": "address",
          "name": "account",
          "type": "address"
        },
        {
          "indexed": false,
          "internalType": "uint256",
          "name": "totalDeposit",
          "type": "uint256"
        }
      ],
      "name": "Deposited",
      "type": "event"
    },
    {
      "anonymous": false,
      "inputs": [
        {
          "indexed": false,
          "internalType": "uint8",
          "name": "version",
          "type": "uint8"
        }
      ],
      "name": "Initialized",
      "type": "event"
    },
    {
      "anonymous": false,
      "inputs": [
        {
          "indexed": false,
          "internalType": "address",
          "name": "aggregator",
          "type": "address"
        }
      ],
      "name": "SignatureAggregatorChanged",
      "type": "event"
    },
    {
      "anonymous": false,
      "inputs": [
        {
          "indexed": true,
          "internalType": "address",
          "name": "account",
          "type": "address"
        },
        {
          "indexed": false,
          "internalType": "uint256",
          "name": "totalStaked",
          "type": "uint256"
        },
        {
          "indexed": false,
          "internalType": "uint256",
          "name": "withdrawTime",
          "type": "uint256"
        }
      ],
      "name": "StakeLocked",
      "type": "event"
    },
    {
      "anonymous": false,
      "inputs": [
        {
          "indexed": true,
          "internalType": "address",
          "name": "account",
          "type": "address"
        },
        {
          "indexed": false,
          "internalType": "uint256",
          "name": "withdrawTime",
          "type": "uint256"
        }
      ],
      "name": "StakeUnlocked",
      "type": "event"
    },
    {
      "anonymous": false,
      "inputs": [
        {
          "indexed": true,
          "internalType": "address",
          "name": "account",
          "type": "address"
        },
        {
          "indexed": false,
          "internalType": "address",
          "name": "withdrawAddress",
          "type": "address"
        },
        {
          "indexed": false,
          "internalType": "uint256",
          "name": "amount",
          "type": "uint256"
        }
      ],
      "name": "StakeWithdrawn",
      "type": "event"
    },
    {
      "anonymous": false,
      "inputs": [
        {
          "indexed": true,
          "internalType": "address",
          "name": "implementation",
          "type": "address"
        }
      ],
      "name": "Upgraded",
      "type": "event"
    },
    {
      "anonymous": false,
      "inputs": [
        {
          "indexed": true,
          "internalType": "bytes32",
          "name": "userOpHash",
          "type": "bytes32"
        },
        {
          "indexed": true,
          "internalType": "address",
          "name": "sender",
          "type": "address"
        },
        {
          "indexed": true,
          "internalType": "address",
          "name": "paymaster",
          "type": "address"
        },
        {
          "indexed": false,
          "internalType": "uint256",
          "name": "nonce",
          "type": "uint256"
        },
        {
          "indexed": false,
          "internalType": "bool",
          "name": "success",
          "type": "bool"
        },
        {
          "indexed": false,
          "internalType": "uint256",
          "name": "actualGasCost",
          "type": "uint256"
        },
        {
          "indexed": false,
          "internalType": "uint256",
          "name": "actualGasUsed",
          "type": "uint256"
        }
      ],
      "name": "UserOperationEvent",
      "type": "event"
    },
    {
      "anonymous": false,
      "inputs": [
        {
          "indexed": true,
          "internalType": "bytes32",
          "name": "userOpHash",
          "type": "bytes32"
        },
        {
          "indexed": true,
          "internalType": "address",
          "name": "sender",
          "type": "address"
        },
        {
          "indexed": false,
          "internalType": "uint256",
          "name": "nonce",
          "type": "uint256"
        },
        {
          "indexed": false,
          "internalType": "bytes",
          "name": "revertReason",
          "type": "bytes"
        }
      ],
      "name": "UserOperationRevertReason",
      "type": "event"
    },
    {
      "anonymous": false,
      "inputs": [
        {
          "indexed": true,
          "internalType": "address",
          "name": "account",
          "type": "address"
        },
        {
          "indexed": false,
          "internalType": "address",
          "name": "withdrawAddress",
          "type": "address"
        },
        {
          "indexed": false,
          "internalType": "uint256",
          "name": "amount",
          "type": "uint256"
        }
      ],
      "name": "Withdrawn",
      "type": "event"
    },
    {
      "inputs": [],
      "name": "SIG_VALIDATION_FAILED",
      "outputs": [
        {
          "internalType": "uint256",
          "name": "",
          "type": "uint256"
        }
      ],
      "stateMutability": "view",
      "type": "function"
    },
    {
      "inputs": [
        {
          "internalType": "uint32",
          "name": "_unstakeDelaySec",
          "type": "uint32"
        }
      ],
      "name": "addStake",
      "outputs": [],
      "stateMutability": "payable",
      "type": "function"
    },
    {
      "inputs": [
        {
          "internalType": "address",
          "name": "account",
          "type": "address"
        }
      ],
      "name": "balanceOf",
      "outputs": [
        {
          "internalType": "uint256",
          "name": "",
          "type": "uint256"
        }
      ],
      "stateMutability": "view",
      "type": "function"
    },
    {
      "inputs": [
        {
          "internalType": "address",
          "name": "account",
          "type": "address"
        }
      ],
      "name": "depositTo",
      "outputs": [],
      "stateMutability": "payable",
      "type": "function"
    },
    {
      "inputs": [
        {
          "internalType": "address",
          "name": "",
          "type": "address"
        }
      ],
      "name": "deposits",
      "outputs": [
        {
          "internalType": "uint112",
          "name": "deposit",
          "type": "uint112"
        },
        {
          "internalType": "bool",
          "name": "staked",
          "type": "bool"
        },
        {
          "internalType": "uint112",
          "name": "stake",
          "type": "uint112"
        },
        {
          "internalType": "uint32",
          "name": "unstakeDelaySec",
          "type": "uint32"
        },
        {
          "internalType": "uint64",
          "name": "withdrawTime",
          "type": "uint64"
        }
      ],
      "stateMutability": "view",
      "type": "function"
    },
    {
      "inputs": [
        {
          "internalType": "address",
          "name": "account",
          "type": "address"
        }
      ],
      "name": "getDepositInfo",
      "outputs": [
        {
          "components": [
            {
              "internalType": "uint112",
              "name": "deposit",
              "type": "uint112"
            },
            {
              "internalType": "bool",
              "name": "staked",
              "type": "bool"
            },
            {
              "internalType": "uint112",
              "name": "stake",
              "type": "uint112"
            },
            {
              "internalType": "uint32",
              "name": "unstakeDelaySec",
              "type": "uint32"
            },
            {
              "internalType": "uint64",
              "name": "withdrawTime",
              "type": "uint64"
            }
          ],
          "internalType": "struct IStakeManager.DepositInfo",
          "name": "info",
          "type": "tuple"
        }
      ],
      "stateMutability": "view",
      "type": "function"
    },
    {
      "inputs": [
        {
          "components": [
            {
              "internalType": "address",
              "name": "sender",
              "type": "address"
            },
            {
              "internalType": "uint256",
              "name": "nonce",
              "type": "uint256"
            },
            {
              "internalType": "bytes",
              "name": "initCode",
              "type": "bytes"
            },
            {
              "internalType": "bytes",
              "name": "callData",
              "type": "bytes"
            },
            {
              "internalType": "uint256",
              "name": "callGasLimit",
              "type": "uint256"
            },
            {
              "internalType": "uint256",
              "name": "verificationGasLimit",
              "type": "uint256"
            },
            {
              "internalType": "uint256",
              "name": "preVerificationGas",
              "type": "uint256"
            },
            {
              "internalType": "uint256",
              "name": "maxFeePerGas",
              "type": "uint256"
            },
            {
              "internalType": "uint256",
              "name": "maxPriorityFeePerGas",
              "type": "uint256"
            },
            {
              "internalType": "bytes",
              "name": "paymasterAndData",
              "type": "bytes"
            },
            {
              "internalType": "bytes",
              "name": "signature",
              "type": "bytes"
            }
          ],
          "internalType": "struct UserOperation",
          "name": "userOp",
          "type": "tuple"
        }
      ],
      "name": "getUserOpHash",
      "outputs": [
        {
          "internalType": "bytes32",
          "name": "",
          "type": "bytes32"
        }
      ],
      "stateMutability": "view",
      "type": "function"
    },
    {
      "inputs": [
        {
          "components": [
            {
              "components": [
                {
                  "internalType": "address",
                  "name": "sender",
                  "type": "address"
                },
                {
                  "internalType": "uint256",
                  "name": "nonce",
                  "type": "uint256"
                },
                {
                  "internalType": "bytes",
                  "name": "initCode",
                  "type": "bytes"
                },
                {
                  "internalType": "bytes",
                  "name": "callData",
                  "type": "bytes"
                },
                {
                  "internalType": "uint256",
                  "name": "callGasLimit",
                  "type": "uint256"
                },
                {
                  "internalType": "uint256",
                  "name": "verificationGasLimit",
                  "type": "uint256"
                },
                {
                  "internalType": "uint256",
                  "name": "preVerificationGas",
                  "type": "uint256"
                },
                {
                  "internalType": "uint256",
                  "name": "maxFeePerGas",
                  "type": "uint256"
                },
                {
                  "internalType": "uint256",
                  "name": "maxPriorityFeePerGas",
                  "type": "uint256"
                },
                {
                  "internalType": "bytes",
                  "name": "paymasterAndData",
                  "type": "bytes"
                },
                {
                  "internalType": "bytes",
                  "name": "signature",
                  "type": "bytes"
                }
              ],
              "internalType": "struct UserOperation[]",
              "name": "userOps",
              "type": "tuple[]"
            },
            {
              "internalType": "contract IAggregator",
              "name": "aggregator",
              "type": "address"
            },
            {
              "internalType": "bytes",
              "name": "signature",
              "type": "bytes"
            }
          ],
          "internalType": "struct IEntryPoint.UserOpsPerAggregator[]",
          "name": "opsPerAggregator",
          "type": "tuple[]"
        },
        {
          "internalType": "address payable",
          "name": "beneficiary",
          "type": "address"
        }
      ],
      "name": "handleAggregatedOps",
      "outputs": [],
      "stateMutability": "nonpayable",
      "type": "function"
    },
    {
      "inputs": [
        {
          "components": [
            {
              "internalType": "address",
              "name": "sender",
              "type": "address"
            },
            {
              "internalType": "uint256",
              "name": "nonce",
              "type": "uint256"
            },
            {
              "internalType": "bytes",
              "name": "initCode",
              "type": "bytes"
            },
            {
              "internalType": "bytes",
              "name": "callData",
              "type": "bytes"
            },
            {
              "internalType": "uint256",
              "name": "callGasLimit",
              "type": "uint256"
            },
            {
              "internalType": "uint256",
              "name": "verificationGasLimit",
              "type": "uint256"
            },
            {
              "internalType": "uint256",
              "name": "preVerificationGas",
              "type": "uint256"
            },
            {
              "internalType": "uint256",
              "name": "maxFeePerGas",
              "type": "uint256"
            },
            {
              "internalType": "uint256",
              "name": "maxPriorityFeePerGas",
              "type": "uint256"
            },
            {
              "internalType": "bytes",
              "name": "paymasterAndData",
              "type": "bytes"
            },
            {
              "internalType": "bytes",
              "name": "signature",
              "type": "bytes"
            }
          ],
          "internalType": "struct UserOperation[]",
          "name": "ops",
          "type": "tuple[]"
        },
        {
          "internalType": "address payable",
          "name": "beneficiary",
          "type": "address"
        }
      ],
      "name": "handleOps",
      "outputs": [],
      "stateMutability": "nonpayable",
      "type": "function"
    },
    {
      "inputs": [
        {
          "internalType": "contract SenderCreator",
          "name": "_senderCreator",
          "type": "address"
        }
      ],
      "name": "initialize",
      "outputs": [],
      "stateMutability": "nonpayable",
      "type": "function"
    },
    {
      "inputs": [
        {
          "internalType": "bytes",
          "name": "callData",
          "type": "bytes"
        },
        {
          "components": [
            {
              "components": [
                {
                  "internalType": "address",
                  "name": "sender",
                  "type": "address"
                },
                {
                  "internalType": "uint256",
                  "name": "nonce",
                  "type": "uint256"
                },
                {
                  "internalType": "uint256",
                  "name": "callGasLimit",
                  "type": "uint256"
                },
                {
                  "internalType": "uint256",
                  "name": "verificationGasLimit",
                  "type": "uint256"
                },
                {
                  "internalType": "uint256",
                  "name": "preVerificationGas",
                  "type": "uint256"
                },
                {
                  "internalType": "address",
                  "name": "paymaster",
                  "type": "address"
                },
                {
                  "internalType": "uint256",
                  "name": "maxFeePerGas",
                  "type": "uint256"
                },
                {
                  "internalType": "uint256",
                  "name": "maxPriorityFeePerGas",
                  "type": "uint256"
                }
              ],
              "internalType": "struct EntryPoint.MemoryUserOp",
              "name": "mUserOp",
              "type": "tuple"
            },
            {
              "internalType": "bytes32",
              "name": "userOpHash",
              "type": "bytes32"
            },
            {
              "internalType": "uint256",
              "name": "prefund",
              "type": "uint256"
            },
            {
              "internalType": "uint256",
              "name": "contextOffset",
              "type": "uint256"
            },
            {
              "internalType": "uint256",
              "name": "preOpGas",
              "type": "uint256"
            }
          ],
          "internalType": "struct EntryPoint.UserOpInfo",
          "name": "opInfo",
          "type": "tuple"
        },
        {
          "internalType": "bytes",
          "name": "context",
          "type": "bytes"
        }
      ],
      "name": "innerHandleOp",
      "outputs": [
        {
          "internalType": "uint256",
          "name": "actualGasCost",
          "type": "uint256"
        }
      ],
      "stateMutability": "nonpayable",
      "type": "function"
    },
    {
      "inputs": [],
      "name": "proxiableUUID",
      "outputs": [
        {
          "internalType": "bytes32",
          "name": "",
          "type": "bytes32"
        }
      ],
      "stateMutability": "view",
      "type": "function"
    },
    {
      "inputs": [],
      "name": "senderCreator",
      "outputs": [
        {
          "internalType": "contract SenderCreator",
          "name": "",
          "type": "address"
        }
      ],
      "stateMutability": "view",
      "type": "function"
    },
    {
      "inputs": [
        {
          "components": [
            {
              "internalType": "address",
              "name": "sender",
              "type": "address"
            },
            {
              "internalType": "uint256",
              "name": "nonce",
              "type": "uint256"
            },
            {
              "internalType": "bytes",
              "name": "initCode",
              "type": "bytes"
            },
            {
              "internalType": "bytes",
              "name": "callData",
              "type": "bytes"
            },
            {
              "internalType": "uint256",
              "name": "callGasLimit",
              "type": "uint256"
            },
            {
              "internalType": "uint256",
              "name": "verificationGasLimit",
              "type": "uint256"
            },
            {
              "internalType": "uint256",
              "name": "preVerificationGas",
              "type": "uint256"
            },
            {
              "internalType": "uint256",
              "name": "maxFeePerGas",
              "type": "uint256"
            },
            {
              "internalType": "uint256",
              "name": "maxPriorityFeePerGas",
              "type": "uint256"
            },
            {
              "internalType": "bytes",
              "name": "paymasterAndData",
              "type": "bytes"
            },
            {
              "internalType": "bytes",
              "name": "signature",
              "type": "bytes"
            }
          ],
          "internalType": "struct UserOperation",
          "name": "op",
          "type": "tuple"
        }
      ],
      "name": "simulateHandleOp",
      "outputs": [],
      "stateMutability": "nonpayable",
      "type": "function"
    },
    {
      "inputs": [
        {
          "components": [
            {
              "internalType": "address",
              "name": "sender",
              "type": "address"
            },
            {
              "internalType": "uint256",
              "name": "nonce",
              "type": "uint256"
            },
            {
              "internalType": "bytes",
              "name": "initCode",
              "type": "bytes"
            },
            {
              "internalType": "bytes",
              "name": "callData",
              "type": "bytes"
            },
            {
              "internalType": "uint256",
              "name": "callGasLimit",
              "type": "uint256"
            },
            {
              "internalType": "uint256",
              "name": "verificationGasLimit",
              "type": "uint256"
            },
            {
              "internalType": "uint256",
              "name": "preVerificationGas",
              "type": "uint256"
            },
            {
              "internalType": "uint256",
              "name": "maxFeePerGas",
              "type": "uint256"
            },
            {
              "internalType": "uint256",
              "name": "maxPriorityFeePerGas",
              "type": "uint256"
            },
            {
              "internalType": "bytes",
              "name": "paymasterAndData",
              "type": "bytes"
            },
            {
              "internalType": "bytes",
              "name": "signature",
              "type": "bytes"
            }
          ],
          "internalType": "struct UserOperation",
          "name": "userOp",
          "type": "tuple"
        }
      ],
      "name": "simulateValidation",
      "outputs": [],
      "stateMutability": "nonpayable",
      "type": "function"
    },
    {
      "inputs": [],
      "name": "unlockStake",
      "outputs": [],
      "stateMutability": "nonpayable",
      "type": "function"
    },
    {
      "inputs": [
        {
          "internalType": "address",
          "name": "newImplementation",
          "type": "address"
        }
      ],
      "name": "upgradeTo",
      "outputs": [],
      "stateMutability": "nonpayable",
      "type": "function"
    },
    {
      "inputs": [
        {
          "internalType": "address",
          "name": "newImplementation",
          "type": "address"
        },
        {
          "internalType": "bytes",
          "name": "data",
          "type": "bytes"
        }
      ],
      "name": "upgradeToAndCall",
      "outputs": [],
      "stateMutability": "payable",
      "type": "function"
    },
    {
      "inputs": [
        {
          "internalType": "address payable",
          "name": "withdrawAddress",
          "type": "address"
        }
      ],
      "name": "withdrawStake",
      "outputs": [],
      "stateMutability": "nonpayable",
      "type": "function"
    },
    {
      "inputs": [
        {
          "internalType": "address payable",
          "name": "withdrawAddress",
          "type": "address"
        },
        {
          "internalType": "uint256",
          "name": "withdrawAmount",
          "type": "uint256"
        }
      ],
      "name": "withdrawTo",
      "outputs": [],
      "stateMutability": "nonpayable",
      "type": "function"
    },
    {
      "stateMutability": "payable",
      "type": "receive"
    }
  ],
  "transactionHash": "0xe55b9a152cf73f75808bc5fe1ac32fe1b08989ac75c7e5617938b6a7d04cbbb6",
  "args": [],
  "numDeployments": 1,
  "solcInputHash": "c597daaabc672b8423039a30fbf09f03",
  "bytecode": "0x60a06040523060805234801561001457600080fd5b5060805161411961004c60003960008181610cc401528181610d040152818161115301528181611193015261121d01526141196000f3fe6080604052600436106101235760003560e01c806370a08231116100a0578063c207711611610064578063c207711614610419578063c23a5cea14610439578063c4d66de814610459578063ee21942314610479578063fc7e286d1461049957600080fd5b806370a082311461037d5780638f41ec5a146103bc578063a6193531146103d1578063b760faf9146103f1578063bb9fe6bf1461040457600080fd5b80633659cfe6116100e75780633659cfe6146101f65780634b1d7cf5146102165780634f1ef286146102365780635287ce121461024957806352d1902d1461036857600080fd5b80630396cb601461013857806309ccb8801461014b5780631d732756146101885780631fad948c146101b6578063205c2878146101d657600080fd5b366101335761013133610550565b005b600080fd5b61013161014636600461333d565b6105b7565b34801561015757600080fd5b5060665461016b906001600160a01b031681565b6040516001600160a01b0390911681526020015b60405180910390f35b34801561019457600080fd5b506101a86101a3366004613457565b610843565b60405190815260200161017f565b3480156101c257600080fd5b506101316101d13660046135de565b6109fc565b3480156101e257600080fd5b506101316101f1366004613634565b610b3e565b34801561020257600080fd5b50610131610211366004613660565b610cba565b34801561022257600080fd5b506101316102313660046135de565b610d90565b6101316102443660046136a4565b611149565b34801561025557600080fd5b5061030f610264366004613660565b6040805160a081018252600080825260208201819052918101829052606081018290526080810191909152506001600160a01b031660009081526020818152604091829020825160a08101845281546001600160701b038082168352600160701b820460ff16151594830194909452600160781b90049092169282019290925260019091015463ffffffff8116606083015264010000000090046001600160401b0316608082015290565b6040805182516001600160701b03908116825260208085015115159083015283830151169181019190915260608083015163ffffffff16908201526080918201516001600160401b03169181019190915260a00161017f565b34801561037457600080fd5b506101a8611210565b34801561038957600080fd5b506101a8610398366004613660565b6001600160a01b03166000908152602081905260409020546001600160701b031690565b3480156103c857600080fd5b506101a8600181565b3480156103dd57600080fd5b506101a86103ec36600461373c565b6112c4565b6101316103ff366004613660565b610550565b34801561041057600080fd5b50610131611306565b34801561042557600080fd5b5061013161043436600461373c565b611432565b34801561044557600080fd5b50610131610454366004613660565b6114bc565b34801561046557600080fd5b50610131610474366004613660565b6116f3565b34801561048557600080fd5b5061013161049436600461373c565b611819565b3480156104a557600080fd5b506105096104b4366004613660565b600060208190529081526040902080546001909101546001600160701b0380831692600160701b810460ff1692600160781b9091049091169063ffffffff81169064010000000090046001600160401b031685565b604080516001600160701b0396871681529415156020860152929094169183019190915263ffffffff1660608201526001600160401b03909116608082015260a00161017f565b61055a81346119b8565b6001600160a01b03811660008181526020818152604091829020805492516001600160701b03909316835292917f2da466a7b24304f47e87fa2e1e5a81b9831ce54fec19055ce277ca2f39ba42c491015b60405180910390a25050565b33600090815260208190526040902063ffffffff821661061e5760405162461bcd60e51b815260206004820152601a60248201527f6d757374207370656369667920756e7374616b652064656c617900000000000060448201526064015b60405180910390fd5b600181015463ffffffff908116908316101561067c5760405162461bcd60e51b815260206004820152601c60248201527f63616e6e6f7420646563726561736520756e7374616b652074696d65000000006044820152606401610615565b805460009061069c903490600160781b90046001600160701b031661378d565b9050600081116106e35760405162461bcd60e51b81526020600482015260126024820152711b9bc81cdd185ad9481cdc1958da599a595960721b6044820152606401610615565b6001600160701b03811061072a5760405162461bcd60e51b815260206004820152600e60248201526d7374616b65206f766572666c6f7760901b6044820152606401610615565b6040805160a08101825283546001600160701b0390811682526001602080840182815286841685870190815263ffffffff808b16606088019081526000608089018181523380835296829052908a902098518954955194518916600160781b02600160781b600160e81b0319951515600160701b026effffffffffffffffffffffffffffff19909716919099161794909417929092169590951786555194909201805492516001600160401b0316640100000000026001600160601b0319909316949093169390931717905590517fa5ae833d0bb1dcd632d98a8b70973e8516812898e19bf27b70071ebc8dc52c0190610836908490879091825263ffffffff16602082015260400190565b60405180910390a2505050565b6000805a90503330146108985760405162461bcd60e51b815260206004820152601760248201527f4141393220696e7465726e616c2063616c6c206f6e6c790000000000000000006044820152606401610615565b8451604081015160608201518101611388015a10156108c25763deaddead60e01b60005260206000fd5b600088156109995760008084600001516001600160a01b0316848d8d6040516108ec9291906137a0565b60006040518083038160008787f1925050503d806000811461092a576040519150601f19603f3d011682016040523d82523d6000602084013e61092f565b606091505b509150915081610996578051156109915784600001516001600160a01b03168a602001517f1c4fada7374c0a9ee8841fc38afe82932dc0f8e69012e927f061a8bae611a201876020015184604051610988929190613800565b60405180910390a35b600192505b50505b600088608001515a86030190506109eb6000838b8b8b8080601f016020809104026020016040519081016040528093929190818152602001838380828437600092019190915250889250611a54915050565b955050505050505b95945050505050565b816000816001600160401b03811115610a1757610a176133ab565b604051908082528060200260200182016040528015610a5057816020015b610a3d6132b3565b815260200190600190039081610a355790505b50905060005b82811015610acb576000828281518110610a7257610a72613819565b60200260200101519050600080610aaf848a8a87818110610a9557610a95613819565b9050602002810190610aa7919061382f565b856000611d47565b5091509150610ac084848484611ee4565b505050600101610a56565b506000805b83811015610b2b57610b1f81888884818110610aee57610aee613819565b9050602002810190610b00919061382f565b858481518110610b1257610b12613819565b6020026020010151612088565b90910190600101610ad0565b50610b3684826121c2565b505050505050565b33600090815260208190526040902080546001600160701b0316821115610ba75760405162461bcd60e51b815260206004820152601960248201527f576974686472617720616d6f756e7420746f6f206c61726765000000000000006044820152606401610615565b8054610bbd9083906001600160701b0316613850565b81546001600160701b0319166001600160701b0391909116178155604080516001600160a01b03851681526020810184905233917fd1c19fbcd4551a5edfb66d43d2e337c04837afda3482b42bdf569a8fccdae5fb910160405180910390a26000836001600160a01b03168360405160006040518083038185875af1925050503d8060008114610c69576040519150601f19603f3d011682016040523d82523d6000602084013e610c6e565b606091505b5050905080610cb45760405162461bcd60e51b81526020600482015260126024820152716661696c656420746f20776974686472617760701b6044820152606401610615565b50505050565b6001600160a01b037f0000000000000000000000000000000000000000000000000000000000000000163003610d025760405162461bcd60e51b815260040161061590613863565b7f00000000000000000000000000000000000000000000000000000000000000006001600160a01b0316610d4b60008051602061409d833981519152546001600160a01b031690565b6001600160a01b031614610d715760405162461bcd60e51b8152600401610615906138af565b60408051600080825260208201909252610d8d918391906122c0565b50565b816000805b82811015610dea57858582818110610daf57610daf613819565b9050602002810190610dc191906138fb565b610dcb9080613911565b610dd691508361378d565b915080610de28161395a565b915050610d95565b506000816001600160401b03811115610e0557610e056133ab565b604051908082528060200260200182016040528015610e3e57816020015b610e2b6132b3565b815260200190600190039081610e235790505b5090506000805b84811015610fe05736888883818110610e6057610e60613819565b9050602002810190610e7291906138fb565b9050366000610e818380613911565b90925090506000610e986040850160208601613660565b90508160005b81811015610f2a576000898981518110610eba57610eba613819565b60200260200101519050600080610ef68b898987818110610edd57610edd613819565b9050602002810190610eef919061382f565b8589611d47565b5091509150610f0784848484611ee4565b8a610f118161395a565b9b50505050508080610f229061395a565b915050610e9e565b506001600160a01b03821615610fc8576001600160a01b03821663e3563a4f8585610f5860408a018a613973565b6040518563ffffffff1660e01b8152600401610f779493929190613b1e565b60006040518083038186803b158015610f8f57600080fd5b505afa925050508015610fa0575060015b610fc85760405163086a9f7560e41b81526001600160a01b0383166004820152602401610615565b50505050508080610fd89061395a565b915050610e45565b50600080915060005b85811015611100573689898381811061100457611004613819565b905060200281019061101691906138fb565b90507f575ff3acadd5ab348fe1855e217e0f3678f8d767d7494c9f9fefbee2e17cca4d6110496040830160208401613660565b6040516001600160a01b03909116815260200160405180910390a13660006110718380613911565b90925090508060005b818110156110e8576110bc8885858481811061109857611098613819565b90506020028101906110aa919061382f565b8b8b81518110610b1257610b12613819565b6110c6908861378d565b9650876110d28161395a565b98505080806110e09061395a565b91505061107a565b505050505080806110f89061395a565b915050610fe9565b50604051600081527f575ff3acadd5ab348fe1855e217e0f3678f8d767d7494c9f9fefbee2e17cca4d9060200160405180910390a161113f86826121c2565b5050505050505050565b6001600160a01b037f00000000000000000000000000000000000000000000000000000000000000001630036111915760405162461bcd60e51b815260040161061590613863565b7f00000000000000000000000000000000000000000000000000000000000000006001600160a01b03166111da60008051602061409d833981519152546001600160a01b031690565b6001600160a01b0316146112005760405162461bcd60e51b8152600401610615906138af565b61120c828260016122c0565b5050565b6000306001600160a01b037f000000000000000000000000000000000000000000000000000000000000000016146112b05760405162461bcd60e51b815260206004820152603860248201527f555550535570677261646561626c653a206d757374206e6f742062652063616c60448201527f6c6564207468726f7567682064656c656761746563616c6c00000000000000006064820152608401610615565b5060008051602061409d8339815191525b90565b60006112cf8261242b565b6040805160208101929092523090820152466060820152608001604051602081830303815290604052805190602001209050919050565b3360009081526020819052604081206001810154909163ffffffff909116900361135f5760405162461bcd60e51b815260206004820152600a6024820152691b9bdd081cdd185ad95960b21b6044820152606401610615565b8054600160701b900460ff166113ab5760405162461bcd60e51b8152602060048201526011602482015270616c726561647920756e7374616b696e6760781b6044820152606401610615565b60018101546000906113c39063ffffffff1642613b9b565b6001830180546bffffffffffffffff0000000019166401000000006001600160401b03841690810291909117909155835460ff60701b1916845560405190815290915033907ffa9b3c14cc825c412c9ed81b3ba365a5b459439403f18829e572ed53a4180f0a906020016105ab565b61143a6132b3565b60008061144b600085856001611d47565b509150915060008061145d8484612444565b925092505061146b43600052565b600061147960008888612088565b60808701516040516366c5612360e11b81526004810191909152602481018290526001600160401b03808616604483015284166064820152909150608401610615565b3360009081526020819052604090208054600160781b90046001600160701b0316806115215760405162461bcd60e51b81526020600482015260146024820152734e6f207374616b6520746f20776974686472617760601b6044820152606401610615565b600182015464010000000090046001600160401b03166115835760405162461bcd60e51b815260206004820152601d60248201527f6d7573742063616c6c20756e6c6f636b5374616b6528292066697273740000006044820152606401610615565b6001820154426401000000009091046001600160401b031611156115e95760405162461bcd60e51b815260206004820152601b60248201527f5374616b65207769746864726177616c206973206e6f742064756500000000006044820152606401610615565b6001820180546001600160601b03191690558154600160781b600160e81b0319168255604080516001600160a01b03851681526020810183905233917fb7c918e0e249f999e965cafeb6c664271b3f4317d296461500e71da39f0cbda3910160405180910390a26000836001600160a01b03168260405160006040518083038185875af1925050503d806000811461169d576040519150601f19603f3d011682016040523d82523d6000602084013e6116a2565b606091505b5050905080610cb45760405162461bcd60e51b815260206004820152601860248201527f6661696c656420746f207769746864726177207374616b6500000000000000006044820152606401610615565b600154610100900460ff161580801561171057506001805460ff16105b806117295750303b15801561172957506001805460ff16145b61178c5760405162461bcd60e51b815260206004820152602e60248201527f496e697469616c697a61626c653a20636f6e747261637420697320616c72656160448201526d191e481a5b9a5d1a585b1a5e995960921b6064820152608401610615565b6001805460ff19168117905580156117ae576001805461ff0019166101001790555b6117b66124bd565b606680546001600160a01b0319166001600160a01b038416179055801561120c576001805461ff00191681556040519081527f7f26b83ff96e1f2b6a682f133852f6798a09c465da95921460cefb38474024989060200160405180910390a15050565b6118216132b3565b6000806000611834600086866001611d47565b925092509250600061184d856000015160a0015161252a565b85515190915060009061185f9061252a565b905061187e604051806040016040528060008152602001600081525090565b36600061188e60408b018b613973565b9092509050600060148210156118a55760006118c0565b6118b3601460008486613bc2565b6118bc91613bec565b60601c5b90506118cb8161252a565b935050505060008060006118df8989612444565b92509250925060006040518060c001604052808c6080015181526020018c6040015181526020018515158152602001846001600160401b03168152602001836001600160401b031681526020016119378d6060015190565b905290506001600160a01b0388161561199757600060405180604001604052808a6001600160a01b0316815260200161196f8b61252a565b81525090508187878a8460405163356877a360e01b8152600401610615959493929190613c74565b8086868960405163f04297e960e01b81526004016106159493929190613cf4565b6001600160a01b038216600090815260208190526040812080549091906119e99084906001600160701b031661378d565b90506001600160701b03811115611a355760405162461bcd60e51b815260206004820152601060248201526f6465706f736974206f766572666c6f7760801b6044820152606401610615565b81546001600160701b0319166001600160701b03919091161790555050565b6000805a855190915060009081611a6a82612579565b60a08301519091506001600160a01b038116611a895782519350611c1f565b809350600088511115611c1f57868202955060028a6002811115611aaf57611aaf613d47565b14611b2157606083015160405163a9a2340960e01b81526001600160a01b0383169163a9a2340991611ae9908e908d908c90600401613d5d565b600060405180830381600088803b158015611b0357600080fd5b5087f1158015611b17573d6000803e3d6000fd5b5050505050611c1f565b606083015160405163a9a2340960e01b81526001600160a01b0383169163a9a2340991611b56908e908d908c90600401613d5d565b600060405180830381600088803b158015611b7057600080fd5b5087f193505050508015611b82575060015b611c1f57611b8e613da4565b806308c379a003611bcb5750611ba2613dbf565b80611bad5750611bcd565b8b828260405162fa072b60e01b815260040161061593929190613e48565b505b60405162fa072b60e01b8152600481018c90526001600160a01b0382166024820152606060448201526011606482015270104d4c081c1bdcdd13dc081c995d995c9d607a1b608482015260a401610615565b5a85038701965081870295508589604001511015611c955760405162fa072b60e01b8152600481018c90526001600160a01b038216602482015260606044820152601f60648201527f4135312070726566756e642062656c6f772061637475616c476173436f737400608482015260a401610615565b6040890151869003611ca785826119b8565b6000808c6002811115611cbc57611cbc613d47565b1490508460a001516001600160a01b031685600001516001600160a01b03168c602001517f49628fd1471006c1482da88028e9ce4dbb080b815c9b0344d39e5a8e6ec1419f8860200151858d8f604051611d2f949392919093845291151560208401526040830152606082015260800190565b60405180910390a45050505050505095945050505050565b6000806000805a8651909150611d5d88826125a9565b611d66886112c4565b6020880152604081015160608201516080830151171760e089013517610100890135176effffffffffffffffffffffffffffff811115611de85760405162461bcd60e51b815260206004820152601860248201527f41413934206761732076616c756573206f766572666c6f7700000000000000006044820152606401610615565b600080611df4846126a2565b9050611e038c8c8c8c856126f0565b995096509150611e1243600052565b60a08401516060906001600160a01b031615611e3a57611e358d8d8d8587612abd565b985090505b60005a87039050808d60a001351015611eb4578d8660a0015160405162fa072b60e01b81526004016106159291909182526001600160a01b03166020820152606060408201819052601e908201527f41413430206f76657220766572696669636174696f6e4761734c696d69740000608082015260a00190565b60408c018390528160608d015260c08d01355a8803018c6080018181525050505050505050509450945094915050565b600080611ef084612d04565b915091508115611f475760405162fa072b60e01b8152600481018790526000602482015260606044820152601460648201527320a0991a1039b4b3b730ba3ab9329032b93937b960611b608482015260a401610615565b8015611fa35760405162fa072b60e01b8152600481018790526000602482015260606044820152601760648201527f414132322065787069726564206f72206e6f7420647565000000000000000000608482015260a401610615565b611fac83612d04565b9092509050811561201357845160a0015160405162fa072b60e01b8152600481018890526001600160a01b03909116602482015260606044820152601460648201527320a0999a1039b4b3b730ba3ab9329032b93937b960611b608482015260a401610615565b8015610b3657845160a0015160405162fa072b60e01b8152600481018890526001600160a01b03909116602482015260606044820152602160648201527f41413332207061796d61737465722065787069726564206f72206e6f742064756084820152606560f81b60a482015260c401610615565b6000805a9050600061209b846060015190565b905030631d7327566120b06060880188613973565b87856040518563ffffffff1660e01b81526004016120d19493929190613e72565b6020604051808303816000875af192505050801561210c575060408051601f3d908101601f1916820190925261210991810190613f25565b60015b6121b657600060206000803e50600051632152215360e01b810161218157845160a0015160405162fa072b60e01b8152600481018990526001600160a01b03909116602482015260606044820152600f60648201526e41413935206f7574206f662067617360881b608482015260a401610615565b600085608001515a6121939086613850565b61219d919061378d565b90506121ad886002888685611a54565b945050506121b9565b92505b50509392505050565b6001600160a01b0382166122185760405162461bcd60e51b815260206004820152601860248201527f4141393020696e76616c69642062656e656669636961727900000000000000006044820152606401610615565b6000826001600160a01b03168260405160006040518083038185875af1925050503d8060008114612265576040519150601f19603f3d011682016040523d82523d6000602084013e61226a565b606091505b50509050806122bb5760405162461bcd60e51b815260206004820152601f60248201527f41413931206661696c65642073656e6420746f2062656e6566696369617279006044820152606401610615565b505050565b7f4910fdfa16fed3260ed0e7147f7cc6da11a60208b5b9406d12a635614ffd91435460ff16156122f3576122bb83612d4f565b826001600160a01b03166352d1902d6040518163ffffffff1660e01b8152600401602060405180830381865afa92505050801561234d575060408051601f3d908101601f1916820190925261234a91810190613f25565b60015b6123b05760405162461bcd60e51b815260206004820152602e60248201527f45524331393637557067726164653a206e657720696d706c656d656e7461746960448201526d6f6e206973206e6f74205555505360901b6064820152608401610615565b60008051602061409d833981519152811461241f5760405162461bcd60e51b815260206004820152602960248201527f45524331393637557067726164653a20756e737570706f727465642070726f786044820152681a58589b195555525160ba1b6064820152608401610615565b506122bb838383612deb565b600061243682612e10565b805190602001209050919050565b600080600061245285612e4f565b919450925090506000808061246687612e4f565b92509250925085806124755750825b9550816001600160401b0316856001600160401b03161015612495578194505b806001600160401b0316846001600160401b031611156124b3578093505b5050509250925092565b600154610100900460ff166125285760405162461bcd60e51b815260206004820152602b60248201527f496e697469616c697a61626c653a20636f6e7472616374206973206e6f74206960448201526a6e697469616c697a696e6760a81b6064820152608401610615565b565b604080518082018252600080825260208083018281526001600160a01b03959095168252819052919091208054600160781b90046001600160701b031682526001015463ffffffff1690915290565b60c081015160e082015160009190808203612595575092915050565b6125a182488301612e75565b949350505050565b6125b66020830183613660565b6001600160a01b0316815260208083013590820152608080830135604083015260a0830135606083015260c0808401359183019190915260e0808401359183019190915261010083013590820152366000612615610120850185613973565b909250905080156126955760148110156126715760405162461bcd60e51b815260206004820152601d60248201527f4141393320696e76616c6964207061796d6173746572416e64446174610000006044820152606401610615565b61267f601460008385613bc2565b61268891613bec565b60601c60a0840152610cb4565b600060a084015250505050565b60a081015160009081906001600160a01b03166126c05760016126c3565b60035b60ff16905060008360800151828560600151028560400151010190506126e884612579565b029392505050565b6000806000805a87518051919250906127168b8a61271160408e018e613973565b612e8f565b6000196001600160a01b0389160161288c5761273143600052565b806001600160a01b03163b6000036127995760405162fa072b60e01b8152600060048201819052602482015260606044820152601960648201527f41413230206163636f756e74206e6f74206465706c6f79656400000000000000608482015260a401610615565b60a08201516001600160a01b0316158015906127c1575060a08201516001600160a01b03163b155b1561281c5760405162fa072b60e01b8152600060048201819052602482015260606044820152601b60648201527f41413330207061796d6173746572206e6f74206465706c6f7965640000000000608482015260a401610615565b806001600160a01b0316633ad59dbc6040518163ffffffff1660e01b8152600401602060405180830381865afa925050508015612876575060408051601f3d908101601f1916820190925261287391810190613f3e565b60015b612886576000945084975061288c565b97508794505b60a08201516000906001600160a01b0381166128da576001600160a01b0383166000908152602081905260409020546001600160701b03168981116128d357808a036128d6565b60005b9250505b826001600160a01b0316630825d1fc85606001518e8e602001518e876040518663ffffffff1660e01b81526004016129159493929190613f5b565b60206040518083038160008887f193505050508015612951575060408051601f3d908101601f1916820190925261294e91810190613f25565b60015b6129ec5761295d613da4565b806308c379a00361299b5750612971613dbf565b8061297c575061299d565b8d60008260405162fa072b60e01b815260040161061593929190613e48565b505b60405162fa072b60e01b8152600481018e9052600060248201526060604482015260166064820152754141323320726576657274656420286f72204f4f472960501b608482015260a401610615565b95506001600160a01b038116612aa8576001600160a01b038316600090815260208190526040902080546001600160701b0316808b1115612a8b578e600060405162fa072b60e01b81526004016106159291909182526001600160a01b031660208201526060604082018190526017908201527f41413231206469646e2774207061792070726566756e64000000000000000000608082015260a00190565b81546001600160701b031916908b90036001600160701b03161790555b5a850397505050505050955095509592505050565b82516060818101519091600091848111612b195760405162461bcd60e51b815260206004820152601f60248201527f4141343120746f6f206c6974746c6520766572696669636174696f6e476173006044820152606401610615565b60a08201516001600160a01b038116600090815260208190526040902080548784039291906001600160701b031689811015612bad5760405162fa072b60e01b8152600481018e90526001600160a01b038416602482015260606044820152601e60648201527f41413331207061796d6173746572206465706f73697420746f6f206c6f770000608482015260a401610615565b8981038260000160006101000a8154816001600160701b0302191690836001600160701b03160217905550826001600160a01b031663f465c77e858e8e602001518e6040518563ffffffff1660e01b8152600401612c0d93929190613f93565b60006040518083038160008887f193505050508015612c4e57506040513d6000823e601f3d908101601f19168201604052612c4b9190810190613fb8565b60015b612cf057612c5a613da4565b806308c379a003612c975750612c6e613dbf565b80612c795750612c99565b8d848260405162fa072b60e01b815260040161061593929190613e48565b505b60405162fa072b60e01b8152600481018e90526001600160a01b03841660248201526060604482015260166064820152754141333320726576657274656420286f72204f4f472960501b608482015260a401610615565b909e909d509b505050505050505050505050565b60008082600003612d1a57506000928392509050565b600080612d2685612e4f565b9195506001600160401b03908116935016905042811080612d4657508142105b92505050915091565b6001600160a01b0381163b612dbc5760405162461bcd60e51b815260206004820152602d60248201527f455243313936373a206e657720696d706c656d656e746174696f6e206973206e60448201526c1bdd08184818dbdb9d1c9858dd609a1b6064820152608401610615565b60008051602061409d83398151915280546001600160a01b0319166001600160a01b0392909216919091179055565b612df483613143565b600082511180612e015750805b156122bb57610cb48383613183565b6060366000612e23610140850185613973565b915091508360208184030360405194506020810185016040528085528082602087013750505050919050565b60ff81161515600080612e676001600886901c614043565b929460489490941c93915050565b6000818310612e845781612e86565b825b90505b92915050565b8015610cb4578251516001600160a01b0381163b15612efe5760405162fa072b60e01b8152600481018690526000602482015260606044820152601f60648201527f414131302073656e64657220616c726561647920636f6e737472756374656400608482015260a401610615565b606654845160600151604051632b870d1b60e11b81526000926001600160a01b03169163570e1a3691612f379088908890600401614063565b60206040518083038160008887f1158015612f56573d6000803e3d6000fd5b50505050506040513d601f19601f82011682018060405250810190612f7b9190613f3e565b90506001600160a01b038116612fe15760405162fa072b60e01b8152600481018790526000602482015260606044820152601b60648201527f4141313320696e6974436f6465206661696c6564206f72204f4f470000000000608482015260a401610615565b816001600160a01b0316816001600160a01b0316146130505760405162fa072b60e01b8152600481018790526000602482015260606044820152602060648201527f4141313420696e6974436f6465206d7573742072657475726e2073656e646572608482015260a401610615565b806001600160a01b03163b6000036130b85760405162fa072b60e01b8152600481018790526000602482015260606044820152602060648201527f4141313520696e6974436f6465206d757374206372656174652073656e646572608482015260a401610615565b60006130c76014828688613bc2565b6130d091613bec565b60601c9050826001600160a01b031686602001517fd51a9c61267aa6196961883ecf5ff2da6619c37dac0fa92122513fb32c032d2d83896000015160a001516040516131329291906001600160a01b0392831681529116602082015260400190565b60405180910390a350505050505050565b61314c81612d4f565b6040516001600160a01b038216907fbc7cd75a20ee27fd9adebab32041f755214dbc6bffa90cc0225b39da2e5c2d3b90600090a250565b60606001600160a01b0383163b6131eb5760405162461bcd60e51b815260206004820152602660248201527f416464726573733a2064656c65676174652063616c6c20746f206e6f6e2d636f6044820152651b9d1c9858dd60d21b6064820152608401610615565b600080846001600160a01b0316846040516132069190614077565b600060405180830381855af49150503d8060008114613241576040519150601f19603f3d011682016040523d82523d6000602084013e613246565b606091505b50915091506109f382826040518060600160405280602781526020016140bd6027913960608315613278575081613282565b6132828383613289565b9392505050565b8151156132995781518083602001fd5b8060405162461bcd60e51b81526004016106159190614089565b6040518060a0016040528061331860405180610100016040528060006001600160a01b031681526020016000815260200160008152602001600081526020016000815260200160006001600160a01b0316815260200160008152602001600081525090565b8152602001600080191681526020016000815260200160008152602001600081525090565b60006020828403121561334f57600080fd5b813563ffffffff8116811461328257600080fd5b60008083601f84011261337557600080fd5b5081356001600160401b0381111561338c57600080fd5b6020830191508360208285010111156133a457600080fd5b9250929050565b634e487b7160e01b600052604160045260246000fd5b60a081018181106001600160401b03821117156133e0576133e06133ab565b60405250565b61010081018181106001600160401b03821117156133e0576133e06133ab565b601f8201601f191681016001600160401b038111828210171561342b5761342b6133ab565b6040525050565b6001600160a01b0381168114610d8d57600080fd5b803561345281613432565b919050565b60008060008060008587036101c081121561347157600080fd5b86356001600160401b038082111561348857600080fd5b6134948a838b01613363565b9098509650601f1992909201916101809150818312156134b357600080fd5b6040516134bf816133c1565b610100808512156134cf57600080fd5b60405194506134dd856133e6565b6134e960208c01613447565b855260408b0135602086015260608b0135604086015260808b0135606086015260a08b0135608086015261351f60c08c01613447565b60a086015260e08b81013560c0870152908b0135908501529283526101208901356020840152610140890135604084015261016089013560608401528189013560808401529194506101a0880135918083111561357b57600080fd5b505061358988828901613363565b969995985093965092949392505050565b60008083601f8401126135ac57600080fd5b5081356001600160401b038111156135c357600080fd5b6020830191508360208260051b85010111156133a457600080fd5b6000806000604084860312156135f357600080fd5b83356001600160401b0381111561360957600080fd5b6136158682870161359a565b909450925050602084013561362981613432565b809150509250925092565b6000806040838503121561364757600080fd5b823561365281613432565b946020939093013593505050565b60006020828403121561367257600080fd5b813561328281613432565b60006001600160401b03821115613696576136966133ab565b50601f01601f191660200190565b600080604083850312156136b757600080fd5b82356136c281613432565b915060208301356001600160401b038111156136dd57600080fd5b8301601f810185136136ee57600080fd5b80356136f98161367d565b6040516137068282613406565b82815287602084860101111561371b57600080fd5b82602085016020830137600060208483010152809450505050509250929050565b60006020828403121561374e57600080fd5b81356001600160401b0381111561376457600080fd5b8201610160818503121561328257600080fd5b634e487b7160e01b600052601160045260246000fd5b80820180821115612e8957612e89613777565b8183823760009101908152919050565b60005b838110156137cb5781810151838201526020016137b3565b50506000910152565b600081518084526137ec8160208601602086016137b0565b601f01601f19169290920160200192915050565b8281526040602082015260006125a160408301846137d4565b634e487b7160e01b600052603260045260246000fd5b6000823561015e1983360301811261384657600080fd5b9190910192915050565b81810381811115612e8957612e89613777565b6020808252602c908201527f46756e6374696f6e206d7573742062652063616c6c6564207468726f7567682060408201526b19195b1959d85d1958d85b1b60a21b606082015260800190565b6020808252602c908201527f46756e6374696f6e206d7573742062652063616c6c6564207468726f7567682060408201526b6163746976652070726f787960a01b606082015260800190565b60008235605e1983360301811261384657600080fd5b6000808335601e1984360301811261392857600080fd5b8301803591506001600160401b0382111561394257600080fd5b6020019150600581901b36038213156133a457600080fd5b60006001820161396c5761396c613777565b5060010190565b6000808335601e1984360301811261398a57600080fd5b8301803591506001600160401b038211156139a457600080fd5b6020019150368190038213156133a457600080fd5b6000808335601e198436030181126139d057600080fd5b83016020810192503590506001600160401b038111156139ef57600080fd5b8036038213156133a457600080fd5b81835281816020850137506000828201602090810191909152601f909101601f19169091010190565b6000610160613a4684613a3985613447565b6001600160a01b03169052565b60208301356020850152613a5d60408401846139b9565b826040870152613a7083870182846139fe565b92505050613a8160608401846139b9565b8583036060870152613a948382846139fe565b925050506080830135608085015260a083013560a085015260c083013560c085015260e083013560e0850152610100808401358186015250610120613adb818501856139b9565b86840383880152613aed8482846139fe565b9350505050610140613b01818501856139b9565b86840383880152613b138482846139fe565b979650505050505050565b6040808252810184905260006060600586901b830181019083018783805b89811015613b8457868503605f190184528235368c900361015e19018112613b62578283fd5b613b6e868d8301613a27565b9550506020938401939290920191600101613b3c565b505050508281036020840152613b138185876139fe565b6001600160401b03818116838216019080821115613bbb57613bbb613777565b5092915050565b60008085851115613bd257600080fd5b83861115613bdf57600080fd5b5050820193919092039150565b6001600160601b03198135818116916014851015613c145780818660140360031b1b83161692505b505092915050565b8051825260208101516020830152604081015115156040830152600060608201516001600160401b038082166060860152806080850151166080860152505060a082015160c060a08501526125a160c08501826137d4565b6000610140808352613c8881840189613c1c565b915050613ca2602083018780518252602090810151910152565b845160608301526020948501516080830152835160a08301529284015160c082015281516001600160a01b031660e0820152908301518051610100830152909201516101209092019190915292915050565b60e081526000613d0760e0830187613c1c565b9050613d20602083018680518252602090810151910152565b8351606083015260208401516080830152825160a0830152602083015160c08301526109f3565b634e487b7160e01b600052602160045260246000fd5b600060038510613d7d57634e487b7160e01b600052602160045260246000fd5b84825260606020830152613d9460608301856137d4565b9050826040830152949350505050565b600060033d11156112c15760046000803e5060005160e01c90565b600060443d1015613dcd5790565b6040516003193d81016004833e81513d6001600160401b038160248401118184111715613dfc57505050505090565b8285019150815181811115613e145750505050505090565b843d8701016020828501011115613e2e5750505050505090565b613e3d60208286010187613406565b509095945050505050565b8381526001600160a01b03831660208201526060604082018190526000906109f3908301846137d4565b60006101c0808352613e8781840187896139fe565b9050845160018060a01b03808251166020860152602082015160408601526040820151606086015260608201516080860152608082015160a08601528060a08301511660c08601525060c081015160e085015260e08101516101008501525060208501516101208401526040850151610140840152606085015161016084015260808501516101808401528281036101a0840152613b1381856137d4565b600060208284031215613f3757600080fd5b5051919050565b600060208284031215613f5057600080fd5b815161328281613432565b608081526000613f6e6080830187613a27565b6020830195909552506001600160a01b03929092166040830152606090910152919050565b606081526000613fa66060830186613a27565b60208301949094525060400152919050565b60008060408385031215613fcb57600080fd5b82516001600160401b03811115613fe157600080fd5b8301601f81018513613ff257600080fd5b8051613ffd8161367d565b60405161400a8282613406565b82815287602084860101111561401f57600080fd5b6140308360208301602087016137b0565b6020969096015195979596505050505050565b8181036000831280158383131683831282161715613bbb57613bbb613777565b6020815260006125a16020830184866139fe565b600082516138468184602087016137b0565b602081526000612e8660208301846137d456fe360894a13ba1a3210667c828492db98dca3e2076cc3735a920a3ca505d382bbc416464726573733a206c6f772d6c6576656c2064656c65676174652063616c6c206661696c6564a2646970667358221220b90a7b5527b1cbe367d8e3b0b289ff52303e2c7d084d85bfae305f8309f6db5664736f6c63430008110033",
  "devdoc": {
    "errors": {
      "FailedOp(uint256,address,string)": [
        {
          "params": {
            "opIndex": "- index into the array of ops to the failed one (in simulateValidation, this is always zero)",
            "paymaster": "- if paymaster.validatePaymasterUserOp fails, this will be the paymaster's address. if validateUserOp failed,       this value will be zero (since it failed before accessing the paymaster)",
            "reason": "- revert reason   Should be caught in off-chain handleOps simulation and not happen on-chain.   Useful for mitigating DoS attempts against batchers or for troubleshooting of account/paymaster reverts."
          }
        }
      ],
      "ValidationResult((uint256,uint256,bool,uint64,uint64,bytes),(uint256,uint256),(uint256,uint256),(uint256,uint256))": [
        {
          "params": {
            "factoryInfo": "stake information about the factor (if any)",
            "paymasterInfo": "stake information about the paymaster (if any)",
            "returnInfo": "gas and time-range returned values",
            "senderInfo": "stake information about the sender"
          }
        }
      ],
      "ValidationResultWithAggregation((uint256,uint256,bool,uint64,uint64,bytes),(uint256,uint256),(uint256,uint256),(uint256,uint256),(address,(uint256,uint256)))": [
        {
          "params": {
            "aggregatorInfo": "signature aggregation info (if the account requires signature aggregator)      bundler MUST use it to verify the signature, or reject the UserOperation",
            "factoryInfo": "stake information about the factor (if any)",
            "paymasterInfo": "stake information about the paymaster (if any)",
            "returnInfo": "gas and time-range returned values",
            "senderInfo": "stake information about the sender"
          }
        }
      ]
    },
    "kind": "dev",
    "methods": {
      "addStake(uint32)": {
        "params": {
          "_unstakeDelaySec": "the new lock duration before the deposit can be withdrawn."
        }
      },
      "handleAggregatedOps(((address,uint256,bytes,bytes,uint256,uint256,uint256,uint256,uint256,bytes,bytes)[],address,bytes)[],address)": {
        "params": {
          "beneficiary": "the address to receive the fees",
          "opsPerAggregator": "the operations to execute, grouped by aggregator (or address(0) for no-aggregator accounts)"
        }
      },
      "handleOps((address,uint256,bytes,bytes,uint256,uint256,uint256,uint256,uint256,bytes,bytes)[],address)": {
        "params": {
          "beneficiary": "the address to receive the fees",
          "ops": "the operations to execute"
        }
      },
      "proxiableUUID()": {
        "details": "Implementation of the ERC1822 {proxiableUUID} function. This returns the storage slot used by the implementation. It is used to validate the implementation's compatibility when performing an upgrade. IMPORTANT: A proxy pointing at a proxiable contract should not be considered proxiable itself, because this risks bricking a proxy that upgrades to it, by delegating to itself until out of gas. Thus it is critical that this function revert if invoked through a proxy. This is guaranteed by the `notDelegated` modifier."
      },
      "simulateValidation((address,uint256,bytes,bytes,uint256,uint256,uint256,uint256,uint256,bytes,bytes))": {
        "details": "this method always revert. Successful result is ValidationResult error. other errors are failures.The node must also verify it doesn't use banned opcodes, and that it doesn't reference storage outside the account's data.",
        "params": {
          "userOp": "the user operation to validate."
        }
      },
      "upgradeTo(address)": {
        "details": "Upgrade the implementation of the proxy to `newImplementation`. Calls {_authorizeUpgrade}. Emits an {Upgraded} event."
      },
      "upgradeToAndCall(address,bytes)": {
        "details": "Upgrade the implementation of the proxy to `newImplementation`, and subsequently execute the function call encoded in `data`. Calls {_authorizeUpgrade}. Emits an {Upgraded} event."
      },
      "withdrawStake(address)": {
        "params": {
          "withdrawAddress": "the address to send withdrawn value."
        }
      },
      "withdrawTo(address,uint256)": {
        "params": {
          "withdrawAddress": "the address to send withdrawn value.",
          "withdrawAmount": "the amount to withdraw."
        }
      }
    },
    "version": 1
  },
  "userdoc": {
    "errors": {
      "FailedOp(uint256,address,string)": [
        {
          "notice": "a custom revert error of handleOps, to identify the offending op.  NOTE: if simulateValidation passes successfully, there should be no reason for handleOps to fail on it."
        }
      ],
      "SenderAddressResult(address)": [
        {
          "notice": "return value of getSenderAddress"
        }
      ],
      "SignatureValidationFailed(address)": [
        {
          "notice": "error case when a signature aggregator fails to verify the aggregated signature it had created."
        }
      ],
      "ValidationResult((uint256,uint256,bool,uint64,uint64,bytes),(uint256,uint256),(uint256,uint256),(uint256,uint256))": [
        {
          "notice": "Successful result from simulateValidation."
        }
      ],
      "ValidationResultWithAggregation((uint256,uint256,bool,uint64,uint64,bytes),(uint256,uint256),(uint256,uint256),(uint256,uint256),(address,(uint256,uint256)))": [
        {
          "notice": "Successful result from simulateValidation, if the account returns a signature aggregator"
        }
      ]
    },
    "events": {
      "AccountDeployed(bytes32,address,address,address)": {
        "notice": "account \"sender\" was deployed."
      },
      "SignatureAggregatorChanged(address)": {
        "notice": "signature aggregator used by the following UserOperationEvents within this bundle."
      },
      "StakeLocked(address,uint256,uint256)": {
        "notice": "Emitted once a stake is scheduled for withdrawal"
      },
      "StakeUnlocked(address,uint256)": {
        "notice": "Emitted once a stake is scheduled for withdrawal"
      },
      "UserOperationRevertReason(bytes32,address,uint256,bytes)": {
        "notice": "An event emitted if the UserOperation \"callData\" reverted with non-zero length"
      }
    },
    "kind": "user",
    "methods": {
      "SIG_VALIDATION_FAILED()": {
        "notice": "for simulation purposes, validateUserOp (and validatePaymasterUserOp) must return this value in case of signature failure, instead of revert."
      },
      "addStake(uint32)": {
        "notice": "add to the account's stake - amount and delay any pending unstake is first cancelled."
      },
      "balanceOf(address)": {
        "notice": "return the deposit (for gas payment) of the account"
      },
      "depositTo(address)": {
        "notice": "add to the deposit of the given account"
      },
      "deposits(address)": {
        "notice": "maps paymaster to their deposits and stakes"
      },
      "getUserOpHash((address,uint256,bytes,bytes,uint256,uint256,uint256,uint256,uint256,bytes,bytes))": {
        "notice": "generate a request Id - unique identifier for this request. the request ID is a hash over the content of the userOp (except the signature), the entrypoint and the chainid."
      },
      "handleAggregatedOps(((address,uint256,bytes,bytes,uint256,uint256,uint256,uint256,uint256,bytes,bytes)[],address,bytes)[],address)": {
        "notice": "Execute a batch of UserOperation with Aggregators"
      },
      "handleOps((address,uint256,bytes,bytes,uint256,uint256,uint256,uint256,uint256,bytes,bytes)[],address)": {
        "notice": "Execute a batch of UserOperation. no signature aggregator is used. if any account requires an aggregator (that is, it returned an \"actualAggregator\" when performing simulateValidation), then handleAggregatedOps() must be used instead."
      },
      "innerHandleOp(bytes,((address,uint256,uint256,uint256,uint256,address,uint256,uint256),bytes32,uint256,uint256,uint256),bytes)": {
        "notice": "inner function to handle a UserOperation. Must be declared \"external\" to open a call context, but it can only be called by handleOps."
      },
      "simulateHandleOp((address,uint256,bytes,bytes,uint256,uint256,uint256,uint256,uint256,bytes,bytes))": {
        "notice": "simulate full execution of a UserOperation (including both validation and target execution) this method will always revert with \"ExecutionResult\". it performs full validation of the UserOperation, but ignores signature error. Note that in order to collect the the success/failure of the target call, it must be executed with trace enabled to track the emitted events."
      },
      "simulateValidation((address,uint256,bytes,bytes,uint256,uint256,uint256,uint256,uint256,bytes,bytes))": {
        "notice": "Simulate a call to account.validateUserOp and paymaster.validatePaymasterUserOp."
      },
      "unlockStake()": {
        "notice": "attempt to unlock the stake. the value can be withdrawn (using withdrawStake) after the unstake delay."
      },
      "withdrawStake(address)": {
        "notice": "withdraw from the (unlocked) stake. must first call unlockStake and wait for the unstakeDelay to pass"
      },
      "withdrawTo(address,uint256)": {
        "notice": "withdraw from the deposit."
      }
    },
    "version": 1
  },
  "storageLayout": {
    "storage": [
      {
        "astId": 18405,
        "contract": "contracts/eip4337/core/EntryPoint.sol:EntryPoint",
        "label": "deposits",
        "offset": 0,
        "slot": "0",
        "type": "t_mapping(t_address,t_struct(DepositInfo)19157_storage)"
      },
      {
        "astId": 4812,
        "contract": "contracts/eip4337/core/EntryPoint.sol:EntryPoint",
        "label": "_initialized",
        "offset": 0,
        "slot": "1",
        "type": "t_uint8"
      },
      {
        "astId": 4815,
        "contract": "contracts/eip4337/core/EntryPoint.sol:EntryPoint",
        "label": "_initializing",
        "offset": 1,
        "slot": "1",
        "type": "t_bool"
      },
      {
        "astId": 4794,
        "contract": "contracts/eip4337/core/EntryPoint.sol:EntryPoint",
        "label": "__gap",
        "offset": 0,
        "slot": "2",
        "type": "t_array(t_uint256)50_storage"
      },
      {
        "astId": 5109,
        "contract": "contracts/eip4337/core/EntryPoint.sol:EntryPoint",
        "label": "__gap",
        "offset": 0,
        "slot": "52",
        "type": "t_array(t_uint256)50_storage"
      },
      {
        "astId": 16008,
        "contract": "contracts/eip4337/core/EntryPoint.sol:EntryPoint",
        "label": "senderCreator",
        "offset": 0,
        "slot": "102",
        "type": "t_contract(SenderCreator)18393"
      }
    ],
    "types": {
      "t_address": {
        "encoding": "inplace",
        "label": "address",
        "numberOfBytes": "20"
      },
      "t_array(t_uint256)50_storage": {
        "base": "t_uint256",
        "encoding": "inplace",
        "label": "uint256[50]",
        "numberOfBytes": "1600"
      },
      "t_bool": {
        "encoding": "inplace",
        "label": "bool",
        "numberOfBytes": "1"
      },
      "t_contract(SenderCreator)18393": {
        "encoding": "inplace",
        "label": "contract SenderCreator",
        "numberOfBytes": "20"
      },
      "t_mapping(t_address,t_struct(DepositInfo)19157_storage)": {
        "encoding": "mapping",
        "key": "t_address",
        "label": "mapping(address => struct IStakeManager.DepositInfo)",
        "numberOfBytes": "32",
        "value": "t_struct(DepositInfo)19157_storage"
      },
      "t_struct(DepositInfo)19157_storage": {
        "encoding": "inplace",
        "label": "struct IStakeManager.DepositInfo",
        "members": [
          {
            "astId": 19148,
            "contract": "contracts/eip4337/core/EntryPoint.sol:EntryPoint",
            "label": "deposit",
            "offset": 0,
            "slot": "0",
            "type": "t_uint112"
          },
          {
            "astId": 19150,
            "contract": "contracts/eip4337/core/EntryPoint.sol:EntryPoint",
            "label": "staked",
            "offset": 14,
            "slot": "0",
            "type": "t_bool"
          },
          {
            "astId": 19152,
            "contract": "contracts/eip4337/core/EntryPoint.sol:EntryPoint",
            "label": "stake",
            "offset": 15,
            "slot": "0",
            "type": "t_uint112"
          },
          {
            "astId": 19154,
            "contract": "contracts/eip4337/core/EntryPoint.sol:EntryPoint",
            "label": "unstakeDelaySec",
            "offset": 0,
            "slot": "1",
            "type": "t_uint32"
          },
          {
            "astId": 19156,
            "contract": "contracts/eip4337/core/EntryPoint.sol:EntryPoint",
            "label": "withdrawTime",
            "offset": 4,
            "slot": "1",
            "type": "t_uint64"
          }
        ],
        "numberOfBytes": "64"
      },
      "t_uint112": {
        "encoding": "inplace",
        "label": "uint112",
        "numberOfBytes": "14"
      },
      "t_uint256": {
        "encoding": "inplace",
        "label": "uint256",
        "numberOfBytes": "32"
      },
      "t_uint32": {
        "encoding": "inplace",
        "label": "uint32",
        "numberOfBytes": "4"
      },
      "t_uint64": {
        "encoding": "inplace",
        "label": "uint64",
        "numberOfBytes": "8"
      },
      "t_uint8": {
        "encoding": "inplace",
        "label": "uint8",
        "numberOfBytes": "1"
      }
    }
  }
}