{
  "address": "0x67db13d7f40eFa5FFC6c6ba0217ACe7FD7df444F",
  "abi": [
    {
      "inputs": [
        {
          "internalType": "address",
          "name": "_to",
          "type": "address"
        },
        {
          "internalType": "bytes",
          "name": "_data",
          "type": "bytes"
        }
      ],
      "name": "estimate",
      "outputs": [
        {
          "internalType": "bool",
          "name": "success",
          "type": "bool"
        },
        {
          "internalType": "bytes",
          "name": "result",
          "type": "bytes"
        },
        {
          "internalType": "uint256",
          "name": "gas",
          "type": "uint256"
        }
      ],
      "stateMutability": "nonpayable",
      "type": "function"
    }
  ],
  "transactionHash": "0x33d0ed18de712ba854ab7fcbde22401bd1884638b1fa95eb815879d690e628f3",
  "args": [],
  "numDeployments": 1,
  "solcInputHash": "e36723426982162f94f91f49468ecdec",
  "bytecode": "0x608060405234801561001057600080fd5b5061023b806100206000396000f3fe608060405234801561001057600080fd5b506004361061002b5760003560e01c80630eb34cd314610030575b600080fd5b61004361003e3660046100de565b61005b565b6040516100529392919061016f565b60405180910390f35b600060606000805a9050866001600160a01b0316868660405161007f9291906101ce565b6000604051808303816000865af19150503d80600081146100bc576040519150601f19603f3d011682016040523d82523d6000602084013e6100c1565b606091505b5090945092505a6100d290826101de565b91505093509350939050565b6000806000604084860312156100f357600080fd5b83356001600160a01b038116811461010a57600080fd5b9250602084013567ffffffffffffffff8082111561012757600080fd5b818601915086601f83011261013b57600080fd5b81358181111561014a57600080fd5b87602082850101111561015c57600080fd5b6020830194508093505050509250925092565b831515815260006020606081840152845180606085015260005b818110156101a557868101830151858201608001528201610189565b506000608082860101526080601f19601f83011685010192505050826040830152949350505050565b8183823760009101908152919050565b818103818111156101ff57634e487b7160e01b600052601160045260246000fd5b9291505056fea26469706673582212208ae8057224d53cc11bfd236df4a14470d5d723fbf0c65dda52e98f5d2cffda2764736f6c63430008110033",
  "devdoc": {
    "kind": "dev",
    "methods": {},
    "version": 1
  },
  "userdoc": {
    "kind": "user",
    "methods": {},
    "version": 1
  },
  "storageLayout": {
    "storage": [],
    "types": null
  }
}