{
  "address": "0xb5BC46dF04dEe31D219E7664122e29EEd9506b8b",
  "abi": [
    {
      "inputs": [
        {
          "internalType": "contract IEntryPoint",
          "name": "entryPoint_",
          "type": "address"
        }
      ],
      "stateMutability": "nonpayable",
      "type": "constructor"
    },
    {
      "anonymous": false,
      "inputs": [
        {
          "components": [
            {
              "internalType": "address",
              "name": "owner",
              "type": "address"
            },
            {
              "internalType": "bytes4",
              "name": "uniqueId",
              "type": "bytes4"
            },
            {
              "internalType": "uint64",
              "name": "expires",
              "type": "uint64"
            }
          ],
          "indexed": false,
          "internalType": "struct SessionManager.Session",
          "name": "session",
          "type": "tuple"
        },
        {
          "indexed": false,
          "internalType": "bytes4",
          "name": "storageKey",
          "type": "bytes4"
        }
      ],
      "name": "AddOrUpdateSession",
      "type": "event"
    },
    {
      "anonymous": false,
      "inputs": [
        {
          "indexed": false,
          "internalType": "address",
          "name": "handler",
          "type": "address"
        }
      ],
      "name": "ChangedFallbackHandler",
      "type": "event"
    },
    {
      "anonymous": false,
      "inputs": [
        {
          "indexed": false,
          "internalType": "address",
          "name": "sessionOwner",
          "type": "address"
        }
      ],
      "name": "ChangedSafeSession",
      "type": "event"
    },
    {
      "anonymous": false,
      "inputs": [
        {
          "indexed": false,
          "internalType": "address",
          "name": "module",
          "type": "address"
        }
      ],
      "name": "DisabledModule",
      "type": "event"
    },
    {
      "anonymous": false,
      "inputs": [
        {
          "indexed": false,
          "internalType": "address",
          "name": "module",
          "type": "address"
        }
      ],
      "name": "EnabledModule",
      "type": "event"
    },
    {
      "anonymous": false,
      "inputs": [
        {
          "indexed": true,
          "internalType": "address",
          "name": "module",
          "type": "address"
        }
      ],
      "name": "ExecutionFromModuleFailure",
      "type": "event"
    },
    {
      "anonymous": false,
      "inputs": [
        {
          "indexed": true,
          "internalType": "address",
          "name": "module",
          "type": "address"
        }
      ],
      "name": "ExecutionFromModuleSuccess",
      "type": "event"
    },
    {
      "anonymous": false,
      "inputs": [
        {
          "indexed": true,
          "internalType": "address",
          "name": "sender",
          "type": "address"
        },
        {
          "indexed": false,
          "internalType": "uint256",
          "name": "value",
          "type": "uint256"
        }
      ],
      "name": "NativeTokenReceived",
      "type": "event"
    },
    {
      "anonymous": false,
      "inputs": [
        {
          "indexed": false,
          "internalType": "bytes4",
          "name": "storageKey",
          "type": "bytes4"
        }
      ],
      "name": "RemovedSession",
      "type": "event"
    },
    {
      "stateMutability": "nonpayable",
      "type": "fallback"
    },
    {
      "inputs": [],
      "name": "VERSION",
      "outputs": [
        {
          "internalType": "string",
          "name": "",
          "type": "string"
        }
      ],
      "stateMutability": "view",
      "type": "function"
    },
    {
      "inputs": [],
      "name": "_ADD_SESSION_TYPEHASH",
      "outputs": [
        {
          "internalType": "bytes32",
          "name": "",
          "type": "bytes32"
        }
      ],
      "stateMutability": "view",
      "type": "function"
    },
    {
      "inputs": [],
      "name": "_DELEGATE_AURH_TYPEHASH",
      "outputs": [
        {
          "internalType": "bytes32",
          "name": "",
          "type": "bytes32"
        }
      ],
      "stateMutability": "view",
      "type": "function"
    },
    {
      "inputs": [],
      "name": "_RECOVER_TYPEHASH",
      "outputs": [
        {
          "internalType": "bytes32",
          "name": "",
          "type": "bytes32"
        }
      ],
      "stateMutability": "view",
      "type": "function"
    },
    {
      "inputs": [],
      "name": "_entryPoint",
      "outputs": [
        {
          "internalType": "address",
          "name": "",
          "type": "address"
        }
      ],
      "stateMutability": "view",
      "type": "function"
    },
    {
      "inputs": [
        {
          "internalType": "bytes32",
          "name": "_hash",
          "type": "bytes32"
        },
        {
          "internalType": "bytes",
          "name": "_signature",
          "type": "bytes"
        }
      ],
      "name": "checkValidSodiumSignature",
      "outputs": [
        {
          "internalType": "bool",
          "name": "valid",
          "type": "bool"
        },
        {
          "internalType": "address",
          "name": "signer",
          "type": "address"
        },
        {
          "internalType": "address",
          "name": "trustee",
          "type": "address"
        }
      ],
      "stateMutability": "view",
      "type": "function"
    },
    {
      "inputs": [
        {
          "internalType": "address",
          "name": "module",
          "type": "address"
        }
      ],
      "name": "disableModule",
      "outputs": [],
      "stateMutability": "nonpayable",
      "type": "function"
    },
    {
      "inputs": [],
      "name": "domainSeparator",
      "outputs": [
        {
          "internalType": "bytes32",
          "name": "",
          "type": "bytes32"
        }
      ],
      "stateMutability": "view",
      "type": "function"
    },
    {
      "inputs": [
        {
          "internalType": "address",
          "name": "module",
          "type": "address"
        }
      ],
      "name": "enableModule",
      "outputs": [],
      "stateMutability": "nonpayable",
      "type": "function"
    },
    {
      "inputs": [],
      "name": "entryPoint",
      "outputs": [
        {
          "internalType": "contract IEntryPoint",
          "name": "",
          "type": "address"
        }
      ],
      "stateMutability": "view",
      "type": "function"
    },
    {
      "inputs": [
        {
          "internalType": "address",
          "name": "to",
          "type": "address"
        },
        {
          "internalType": "uint256",
          "name": "value",
          "type": "uint256"
        },
        {
          "internalType": "bytes",
          "name": "data",
          "type": "bytes"
        },
        {
          "internalType": "enum Enum.Operation",
          "name": "operation",
          "type": "uint8"
        }
      ],
      "name": "execTransactionFromModule",
      "outputs": [
        {
          "internalType": "bool",
          "name": "success",
          "type": "bool"
        }
      ],
      "stateMutability": "nonpayable",
      "type": "function"
    },
    {
      "inputs": [
        {
          "internalType": "address",
          "name": "to",
          "type": "address"
        },
        {
          "internalType": "uint256",
          "name": "value",
          "type": "uint256"
        },
        {
          "internalType": "bytes",
          "name": "data",
          "type": "bytes"
        },
        {
          "internalType": "enum Enum.Operation",
          "name": "operation",
          "type": "uint8"
        }
      ],
      "name": "execTransactionFromModuleReturnData",
      "outputs": [
        {
          "internalType": "bool",
          "name": "success",
          "type": "bool"
        },
        {
          "internalType": "bytes",
          "name": "returnData",
          "type": "bytes"
        }
      ],
      "stateMutability": "nonpayable",
      "type": "function"
    },
    {
      "inputs": [
        {
          "components": [
            {
              "internalType": "enum Enum.Operation",
              "name": "op",
              "type": "uint8"
            },
            {
              "internalType": "bool",
              "name": "revertOnError",
              "type": "bool"
            },
            {
              "internalType": "uint256",
              "name": "gasLimit",
              "type": "uint256"
            },
            {
              "internalType": "address",
              "name": "target",
              "type": "address"
            },
            {
              "internalType": "uint256",
              "name": "value",
              "type": "uint256"
            },
            {
              "internalType": "bytes",
              "name": "data",
              "type": "bytes"
            }
          ],
          "internalType": "struct Transaction[]",
          "name": "_txs",
          "type": "tuple[]"
        }
      ],
      "name": "execute",
      "outputs": [],
      "stateMutability": "nonpayable",
      "type": "function"
    },
    {
      "inputs": [
        {
          "internalType": "address",
          "name": "_module",
          "type": "address"
        },
        {
          "internalType": "uint256",
          "name": "_value",
          "type": "uint256"
        },
        {
          "internalType": "bytes",
          "name": "_data",
          "type": "bytes"
        }
      ],
      "name": "executeWithModule",
      "outputs": [],
      "stateMutability": "nonpayable",
      "type": "function"
    },
    {
      "inputs": [
        {
          "components": [
            {
              "internalType": "address",
              "name": "safeSessionKey",
              "type": "address"
            },
            {
              "internalType": "uint256",
              "name": "recoverNonce",
              "type": "uint256"
            }
          ],
          "internalType": "struct SecurityManager.Recover",
          "name": "_recover",
          "type": "tuple"
        },
        {
          "internalType": "bytes",
          "name": "_authProof",
          "type": "bytes"
        },
        {
          "components": [
            {
              "internalType": "enum Enum.Operation",
              "name": "op",
              "type": "uint8"
            },
            {
              "internalType": "bool",
              "name": "revertOnError",
              "type": "bool"
            },
            {
              "internalType": "uint256",
              "name": "gasLimit",
              "type": "uint256"
            },
            {
              "internalType": "address",
              "name": "target",
              "type": "address"
            },
            {
              "internalType": "uint256",
              "name": "value",
              "type": "uint256"
            },
            {
              "internalType": "bytes",
              "name": "data",
              "type": "bytes"
            }
          ],
          "internalType": "struct Transaction[]",
          "name": "_txs",
          "type": "tuple[]"
        }
      ],
      "name": "executeWithSodiumAuthRecover",
      "outputs": [],
      "stateMutability": "nonpayable",
      "type": "function"
    },
    {
      "inputs": [
        {
          "components": [
            {
              "internalType": "address",
              "name": "sessionKey",
              "type": "address"
            },
            {
              "internalType": "bytes4",
              "name": "sessionUniqueId",
              "type": "bytes4"
            },
            {
              "internalType": "uint64",
              "name": "sessionExpires",
              "type": "uint64"
            }
          ],
          "internalType": "struct SecurityManager.AddSession",
          "name": "_addSession",
          "type": "tuple"
        },
        {
          "internalType": "bytes",
          "name": "_authProof",
          "type": "bytes"
        },
        {
          "components": [
            {
              "internalType": "enum Enum.Operation",
              "name": "op",
              "type": "uint8"
            },
            {
              "internalType": "bool",
              "name": "revertOnError",
              "type": "bool"
            },
            {
              "internalType": "uint256",
              "name": "gasLimit",
              "type": "uint256"
            },
            {
              "internalType": "address",
              "name": "target",
              "type": "address"
            },
            {
              "internalType": "uint256",
              "name": "value",
              "type": "uint256"
            },
            {
              "internalType": "bytes",
              "name": "data",
              "type": "bytes"
            }
          ],
          "internalType": "struct Transaction[]",
          "name": "_txs",
          "type": "tuple[]"
        }
      ],
      "name": "executeWithSodiumAuthSession",
      "outputs": [],
      "stateMutability": "nonpayable",
      "type": "function"
    },
    {
      "inputs": [],
      "name": "getChainId",
      "outputs": [
        {
          "internalType": "uint256",
          "name": "",
          "type": "uint256"
        }
      ],
      "stateMutability": "view",
      "type": "function"
    },
    {
      "inputs": [],
      "name": "getNonce",
      "outputs": [
        {
          "internalType": "uint256",
          "name": "",
          "type": "uint256"
        }
      ],
      "stateMutability": "view",
      "type": "function"
    },
    {
      "inputs": [],
      "name": "getSingleton",
      "outputs": [
        {
          "internalType": "address",
          "name": "_imp",
          "type": "address"
        }
      ],
      "stateMutability": "view",
      "type": "function"
    },
    {
      "inputs": [
        {
          "internalType": "address",
          "name": "module",
          "type": "address"
        }
      ],
      "name": "isModuleEnabled",
      "outputs": [
        {
          "internalType": "bool",
          "name": "",
          "type": "bool"
        }
      ],
      "stateMutability": "view",
      "type": "function"
    },
    {
      "inputs": [
        {
          "internalType": "address",
          "name": "owner",
          "type": "address"
        }
      ],
      "name": "isSessionOwner",
      "outputs": [
        {
          "internalType": "bool",
          "name": "existing",
          "type": "bool"
        },
        {
          "internalType": "bool",
          "name": "isSafe",
          "type": "bool"
        }
      ],
      "stateMutability": "view",
      "type": "function"
    },
    {
      "inputs": [],
      "name": "isSodiumSingleton",
      "outputs": [
        {
          "internalType": "bool",
          "name": "",
          "type": "bool"
        }
      ],
      "stateMutability": "pure",
      "type": "function"
    },
    {
      "inputs": [],
      "name": "salt",
      "outputs": [
        {
          "internalType": "bytes32",
          "name": "",
          "type": "bytes32"
        }
      ],
      "stateMutability": "view",
      "type": "function"
    },
    {
      "inputs": [
        {
          "internalType": "address",
          "name": "handler",
          "type": "address"
        }
      ],
      "name": "setFallbackHandler",
      "outputs": [],
      "stateMutability": "nonpayable",
      "type": "function"
    },
    {
      "inputs": [
        {
          "internalType": "contract ISodiumAuth",
          "name": "_auth",
          "type": "address"
        }
      ],
      "name": "setSodiumNetworkAuth",
      "outputs": [],
      "stateMutability": "nonpayable",
      "type": "function"
    },
    {
      "inputs": [
        {
          "internalType": "contract IUserOperationValidator",
          "name": "_validator",
          "type": "address"
        }
      ],
      "name": "setUserOperationValidator",
      "outputs": [],
      "stateMutability": "nonpayable",
      "type": "function"
    },
    {
      "inputs": [
        {
          "internalType": "contract ISodiumAuth",
          "name": "_sodiumAuth",
          "type": "address"
        },
        {
          "internalType": "address",
          "name": "_fallbackHandler",
          "type": "address"
        },
        {
          "internalType": "address",
          "name": "_opValidator",
          "type": "address"
        },
        {
          "internalType": "bytes32",
          "name": "_salt",
          "type": "bytes32"
        }
      ],
      "name": "setup",
      "outputs": [],
      "stateMutability": "nonpayable",
      "type": "function"
    },
    {
      "inputs": [
        {
          "internalType": "contract Sodium",
          "name": "newSingleton",
          "type": "address"
        }
      ],
      "name": "upgradeTo",
      "outputs": [],
      "stateMutability": "nonpayable",
      "type": "function"
    },
    {
      "inputs": [
        {
          "components": [
            {
              "internalType": "address",
              "name": "sessionKey",
              "type": "address"
            },
            {
              "internalType": "bytes4",
              "name": "sessionUniqueId",
              "type": "bytes4"
            },
            {
              "internalType": "uint64",
              "name": "sessionExpires",
              "type": "uint64"
            }
          ],
          "internalType": "struct SecurityManager.AddSession",
          "name": "_addSession",
          "type": "tuple"
        },
        {
          "internalType": "bytes",
          "name": "_authProof",
          "type": "bytes"
        }
      ],
      "name": "validateAddSessionProof",
      "outputs": [],
      "stateMutability": "view",
      "type": "function"
    },
    {
      "inputs": [
        {
          "components": [
            {
              "internalType": "address",
              "name": "safeSessionKey",
              "type": "address"
            },
            {
              "internalType": "uint256",
              "name": "recoverNonce",
              "type": "uint256"
            }
          ],
          "internalType": "struct SecurityManager.Recover",
          "name": "_recover",
          "type": "tuple"
        },
        {
          "internalType": "bytes",
          "name": "_authProof",
          "type": "bytes"
        }
      ],
      "name": "validateRecoverProof",
      "outputs": [],
      "stateMutability": "nonpayable",
      "type": "function"
    },
    {
      "inputs": [
        {
          "components": [
            {
              "internalType": "address",
              "name": "sender",
              "type": "address"
            },
            {
              "internalType": "uint256",
              "name": "nonce",
              "type": "uint256"
            },
            {
              "internalType": "bytes",
              "name": "initCode",
              "type": "bytes"
            },
            {
              "internalType": "bytes",
              "name": "callData",
              "type": "bytes"
            },
            {
              "internalType": "uint256",
              "name": "callGasLimit",
              "type": "uint256"
            },
            {
              "internalType": "uint256",
              "name": "verificationGasLimit",
              "type": "uint256"
            },
            {
              "internalType": "uint256",
              "name": "preVerificationGas",
              "type": "uint256"
            },
            {
              "internalType": "uint256",
              "name": "maxFeePerGas",
              "type": "uint256"
            },
            {
              "internalType": "uint256",
              "name": "maxPriorityFeePerGas",
              "type": "uint256"
            },
            {
              "internalType": "bytes",
              "name": "paymasterAndData",
              "type": "bytes"
            },
            {
              "internalType": "bytes",
              "name": "signature",
              "type": "bytes"
            }
          ],
          "internalType": "struct UserOperation",
          "name": "userOp",
          "type": "tuple"
        },
        {
          "internalType": "bytes32",
          "name": "userOpHash",
          "type": "bytes32"
        },
        {
          "internalType": "uint256",
          "name": "missingAccountFunds",
          "type": "uint256"
        }
      ],
      "name": "validateUserOp",
      "outputs": [
        {
          "internalType": "uint256",
          "name": "validationData",
          "type": "uint256"
        }
      ],
      "stateMutability": "nonpayable",
      "type": "function"
    },
    {
      "stateMutability": "payable",
      "type": "receive"
    }
  ],
  "transactionHash": "0xdd91540928394d844eb964830139fff552728277314a801558d066336715d014",
  "args": [
    "0x5FF137D4b0FDCD49DcA30c7CF57E578a026d2789"
  ],
  "numDeployments": 1,
  "solcInputHash": "09a59c7c673a10f149d124c86e476dd0",
  "bytecode": "0x60a06040523480156200001157600080fd5b506040516200326a3803806200326a833981016040819052620000349162000046565b6001600160a01b031660805262000078565b6000602082840312156200005957600080fd5b81516001600160a01b03811681146200007157600080fd5b9392505050565b6080516131c1620000a96000396000818161051b015281816105650152818161116e01526114b001526131c16000f3fe6080604052600436106101dc5760003560e01c8063a95f524611610102578063cb103d7011610095578063f08a032311610064578063f08a0323146106a1578063f3a961ca146106c1578063f698da25146106e1578063ffa1ad74146106f657610218565b8063cb103d7014610638578063d087d2881461064c578063d3874edf14610661578063eb7617181461068157610218565b8063b6d5a063116100d1578063b6d5a06314610587578063b964f878146105ce578063bfa0b13314610602578063c300981e1461061857610218565b8063a95f5246146104b8578063adde2646146104d8578063b0d691fe1461050c578063b3080c241461055357610218565b80633a871cdd1161017a578063610b592511610149578063610b592514610444578063861067261461046457806391ca23d914610484578063a71d052b146104a457610218565b80633a871cdd1461039f578063468721a7146103bf5780634b574a02146103df5780635229073f1461041657610218565b80632d9ad53d116101b65780632d9ad53d146102e05780633408e4701461032e5780633659cfe61461034b578063378cf8041461036b57610218565b80630d192f8d1461027e57806328f8aa4d146102a05780632906737d146102c057610218565b366102185760405134815233907f9820dd13494dd7d9f03807aa0bb724fe8266855b5ac4db99848a199904f8074b9060200160405180910390a2005b34801561022457600080fd5b507f6c9a6c4a39284e37ed1cf53d337577d14212a4870fb976a4366c693b939918d580548061024f57005b36600080373360601b365260008060143601600080855af190503d6000803e80610278573d6000fd5b503d6000f35b34801561028a57600080fd5b5061029e6102993660046125fd565b610734565b005b3480156102ac57600080fd5b5061029e6102bb366004612690565b610775565b3480156102cc57600080fd5b5061029e6102db366004612718565b61080f565b3480156102ec57600080fd5b506103196102fb366004612769565b6001600160a01b031660009081526001602052604090205460ff1690565b60405190151581526020015b60405180910390f35b34801561033a57600080fd5b50465b604051908152602001610325565b34801561035757600080fd5b5061029e610366366004612769565b610902565b34801561037757600080fd5b5061033d7fdb53bc3f8ea86d0def94644136fcf091e6d7df8e8b19de81f3850704cf35d46881565b3480156103ab57600080fd5b5061033d6103ba366004612786565b6109bc565b3480156103cb57600080fd5b506103196103da3660046128c5565b6109eb565b3480156103eb57600080fd5b506103ff6103fa366004612769565b610aad565b604080519215158352901515602083015201610325565b34801561042257600080fd5b506104366104313660046128c5565b610c05565b60405161032592919061297e565b34801561045057600080fd5b5061029e61045f366004612769565b610c3b565b34801561047057600080fd5b5061029e61047f366004612769565b610cf2565b34801561049057600080fd5b5061029e61049f366004612999565b610d03565b3480156104b057600080fd5b506001610319565b3480156104c457600080fd5b5061029e6104d3366004612769565b610e54565b3480156104e457600080fd5b5061033d7fcaea1390f2df063d26d4762d71a4fa8603a564f3815d495b3df6135019f49be281565b34801561051857600080fd5b507f00000000000000000000000000000000000000000000000000000000000000005b6040516001600160a01b039091168152602001610325565b34801561055f57600080fd5b5061053b7f000000000000000000000000000000000000000000000000000000000000000081565b34801561059357600080fd5b506105a76105a23660046129ec565b610eff565b6040805193151584526001600160a01b039283166020850152911690820152606001610325565b3480156105da57600080fd5b5061033d7f31829d07c4d3c646006e946f988ff19ce6e7b36b244862de7ad825b17bd54d5281565b34801561060e57600080fd5b5061033d60055481565b34801561062457600080fd5b5061029e610633366004612a1e565b6110ed565b34801561064457600080fd5b50305461053b565b34801561065857600080fd5b5061033d61116a565b34801561066d57600080fd5b5061029e61067c366004612a76565b611203565b34801561068d57600080fd5b5061029e61069c366004612bbc565b6113c2565b3480156106ad57600080fd5b5061029e6106bc366004612769565b6113d3565b3480156106cd57600080fd5b5061029e6106dc366004612769565b61143c565b3480156106ed57600080fd5b5061033d61144d565b34801561070257600080fd5b5061072760405180604001604052806005815260200164302e302e3160d81b81525081565b6040516103259190612c04565b61073c6114a5565b610747858585611203565b61075c6107576020870187612769565b61151f565b61076e6107698284612c17565b6115a8565b5050505050565b61077d6114a5565b610788858585610d03565b6040805160608101909152600090806107a46020890189612769565b6001600160a01b031681526020018760200160208101906107c59190612c3c565b6001600160e01b03191681526020016107e46060890160408a01612c6e565b6001600160401b0316905290506107fa8161177f565b6108076107698385612c17565b505050505050565b60065460ff161561085d5760405162461bcd60e51b8152602060048201526013602482015272105b1c9958591e481a5b9a5d1a585b1a5e9959606a1b60448201526064015b60405180910390fd5b6001600160a01b0383166108b35760405162461bcd60e51b815260206004820152601960248201527f52657175697265642066616c6c6261636b2068616e646c6572000000000000006044820152606401610854565b6006805460ff191660011790556108e8837f6c9a6c4a39284e37ed1cf53d337577d14212a4870fb976a4366c693b939918d555565b6108f1846119b7565b6108fa82611a1e565b600555505050565b61090a611a81565b806001600160a01b031663a71d052b6040518163ffffffff1660e01b8152600401602060405180830381865afa158015610948573d6000803e3d6000fd5b505050506040513d601f19601f8201168201806040525081019061096c9190612c89565b6109b15760405162461bcd60e51b81526020600482015260166024820152752737ba10309029b7b234bab69039b4b733b632ba37b760511b6044820152606401610854565b6109b9813055565b50565b60006109c66114a5565b6109d08484611ab8565b90506109db82611fa5565b6109e484611ff2565b9392505050565b3360009081526001602052604081205460ff16610a345760405162461bcd60e51b815260206004820152600760248201526614d113534c4c0d60ca1b6044820152606401610854565b610a41858585855a6121e9565b90508015610a795760405133907f6895c13664aa4f67288b25d7a21d7aaa34916e355fb9b6fae0a139a9085becb890600090a2610aa5565b60405133907facd2c8702804128fdb0db2bb49f6d127dd0181c13fd45dbfe16de0930e2bd37590600090a25b949350505050565b6000806001600160a01b038316610ac957506000928392509050565b6005546040516bffffffffffffffffffffffff19606086901b1660208201526034016040516020818303038152906040528051906020012003610b1157506001928392509050565b6004546001600160a01b0390811680151591851603610b365750600193849350915050565b6001600160a01b0384811660009081526003602090815260408083205460e090811b6001600160e01b03198181168652600285529483902083516060810185529054968716808252600160a01b880490931b90951693850193909352600160c01b9094046001600160401b03169083015291610bba57506000958695509350505050565b600081604001516001600160401b0316118015610be357504281604001516001600160401b0316105b15610bf657506000958695509350505050565b50600195911594509092505050565b60006060610c15868686866109eb565b915060405160203d0181016040523d81523d6000602083013e8091505094509492505050565b610c43611a81565b6001600160a01b03811660009081526001602052604090205460ff1615610c965760405162461bcd60e51b815260206004820152600760248201526653444d4d31303160c81b6044820152606401610854565b6001600160a01b038116600081815260016020818152604092839020805460ff191690921790915590519182527fecdf3a3effea5783a3c4c2140e677577666428d44ed9d474a0b3a4c9943f844091015b60405180910390a150565b610cfa611a81565b6109b981611a1e565b42610d146060850160408601612c6e565b6001600160401b031611610d535760405162461bcd60e51b8152602060048201526006602482015265534d4153303560d01b6044820152606401610854565b60007f31829d07c4d3c646006e946f988ff19ce6e7b36b244862de7ad825b17bd54d5284604051602001610d88929190612ca6565b6040516020818303038152906040528051906020012090506000610dab82612230565b90506000610dd77fe5230392f47deb1a37e1df3b9ee1d04b8a457138ebb1a61edeb61872e6c423225490565b6040516348203b0760e01b81529091506001600160a01b038216906348203b0790610e0a90859089908990600401612d2f565b602060405180830381865afa158015610e27573d6000803e3d6000fd5b505050506040513d601f19601f82011682018060405250810190610e4b9190612c89565b50505050505050565b610e5c611a81565b6001600160a01b03811660009081526001602052604090205460ff16610eae5760405162461bcd60e51b815260206004820152600760248201526653444d4d31303160c81b6044820152606401610854565b6001600160a01b038116600081815260016020908152604091829020805460ff1916905590519182527faab4fa2b463f581b2b32cb3b7e3b704b9ce37cc209b5fb4d77e593ace40542769101610ce7565b6000808080610f116001828789612d49565b610f1a91612d73565b90506001600160f81b03198116600160f81b03610fd8576000610f4160156001888a612d49565b8080601f0160208091040260200160405190810160405280939291908181526020018383808284376000920182905250939450610f87925089915060159050818b612d49565b8080601f016020809104026020016040519081016040528093929190818152602001838380828437600092019190915250505050601483015195509050610fcf858a83612278565b955050506110e2565b6001600160f81b03198116600160f91b036110dd576000606080610fff886001818c612d49565b81019061100c9190612da3565b92995092975094509092509050426001600160401b03841610156110375760009650505050506110e4565b604080517fcaea1390f2df063d26d4762d71a4fa8603a564f3815d495b3df6135019f49be260208201526001600160a01b038716918101919091526001600160401b03841660608201526000906110a69060800160405160208183030381529060405280519060200120612230565b905060006110b5888385612278565b905060006110c4888e87612278565b90508180156110d05750805b99505050505050506110e2565b600093505b505b93509350939050565b6110f56114a5565b60006060846001600160a01b0316845a90856040516111149190612e3c565b600060405180830381858888f193505050503d8060008114611152576040519150601f19603f3d011682016040523d82523d6000602084013e611157565b606091505b5090925090508161076e57805160208201fd5b60007f0000000000000000000000000000000000000000000000000000000000000000604051631aab3f0d60e11b8152306004820152600060248201526001600160a01b0391909116906335567e1a90604401602060405180830381865afa1580156111da573d6000803e3d6000fd5b505050506040513d601f19601f820116820180604052508101906111fe9190612e58565b905090565b7febd64025eccab0d68ffd8dbdf22f162b40c6e98dc2bf27a2eabea8004135b99f54836020013510156112605760405162461bcd60e51b8152602060048201526005602482015264534d52303160d81b6044820152606401610854565b60007fdb53bc3f8ea86d0def94644136fcf091e6d7df8e8b19de81f3850704cf35d46884604051602001611295929190612e71565b60405160208183030381529060405280519060200120905060006112b882612230565b905060006112e47fe5230392f47deb1a37e1df3b9ee1d04b8a457138ebb1a61edeb61872e6c423225490565b6040516348203b0760e01b81529091506001600160a01b038216906348203b079061131790859089908990600401612d2f565b602060405180830381865afa158015611334573d6000803e3d6000fd5b505050506040513d601f19601f820116820180604052508101906113589190612c89565b61138c5760405162461bcd60e51b8152602060048201526005602482015264534d52303360d81b6044820152606401610854565b61080761139e60208801356001612ebb565b7febd64025eccab0d68ffd8dbdf22f162b40c6e98dc2bf27a2eabea8004135b99f55565b6113ca6114a5565b6109b9816115a8565b6113db611a81565b611403817f6c9a6c4a39284e37ed1cf53d337577d14212a4870fb976a4366c693b939918d555565b6040516001600160a01b03821681527f5ac6c46c93c8d0e53714ba3b53db3e7c046da994313d7ed0d192028bc7c228b090602001610ce7565b611444611a81565b6109b9816119b7565b60007f47e79534a245952e8b16893a336b85a3d9ea9fa8c573f3d803afb92a79469218466040805160208101939093528201523060608201526080015b60405160208183030381529060405280519060200120905090565b336001600160a01b037f0000000000000000000000000000000000000000000000000000000000000000161461151d5760405162461bcd60e51b815260206004820152601c60248201527f6163636f756e743a206e6f742066726f6d20456e747279506f696e74000000006044820152606401610854565b565b604080516060810182526001600160a01b038316808252635cea321160e11b602080840191909152600083850152600480546001600160c01b0319168317635cea321160a11b176001600160c01b03169055925190815290917ffa12114790d31d64c8d58b8d82cc1ee4a33374f9722f0327d08db01f53658cf891015b60405180910390a15050565b60005b815181101561177b5760008282815181106115c8576115c8612ece565b602002602001015190506000606082604001515a10156116235760405162461bcd60e51b8152602060048201526016602482015275536f6469756d3a204e4f545f454e4f5547485f47415360501b6044820152606401610854565b60018351600181111561163857611638612ee4565b036116c15782606001516001600160a01b03168360400151600014611661578360400151611663565b5a5b8460a001516040516116759190612e3c565b6000604051808303818686f4925050503d80600081146116b1576040519150601f19603f3d011682016040523d82523d6000602084013e6116b6565b606091505b509092509050611749565b82606001516001600160a01b0316836080015184604001516000146116ea5784604001516116ec565b5a5b908560a001516040516116ff9190612e3c565b600060405180830381858888f193505050503d806000811461173d576040519150601f19603f3d011682016040523d82523d6000602084013e611742565b606091505b5090925090505b81158015611758575082602001515b1561176557805160208201fd5b505050808061177390612efa565b9150506115ab565b5050565b80516001600160a01b03166117e25760405162461bcd60e51b8152602060048201526024808201527f73657373696f6e206f776e65722063616e6e6f74206265207a65726f206164646044820152637265737360e01b6064820152608401610854565b600081604001516001600160401b0316116118515760405162461bcd60e51b815260206004820152602960248201527f73657373696f6e2065787069726573206d7573742062652067726561746572206044820152687468616e207a65726f60b81b6064820152608401610854565b6020818101516001600160e01b0319908116600090815260028352604090819020815160608101835290546001600160a01b038116808352600160a01b820460e01b90941694820194909452600160c01b9093046001600160401b031690830152156118dc5780516001600160a01b03166000908152600360205260409020805463ffffffff191690555b602082810180516001600160e01b03199081166000908152600284526040808220875181548651848b0180516001600160a01b039485166001600160c01b03199094168417600160a01b60e09490941c938402176001600160c01b0316600160c01b6001600160401b0392831602179095559186526003895294849020805463ffffffff1916909517909455855183518a51909216825295518516968101969096529151909116908401521660608201527f01e74df6c6bdc37dc1afe188087562a38bed53bd10947c71b129ee4004ce92e89060800161159c565b6001600160a01b0381166119f65760405162461bcd60e51b81526004016108549060208082526004908201526314d34c0d60e21b604082015260600190565b6109b9817fe5230392f47deb1a37e1df3b9ee1d04b8a457138ebb1a61edeb61872e6c4232255565b6001600160a01b038116611a5d5760405162461bcd60e51b8152602060048201526006602482015265534d4f50303160d01b6044820152606401610854565b7f26af6f34783f6c05ad199b86190c89039b6a27ab2bac01a0ef363037be08c64e55565b33301461151d5760405162461bcd60e51b8152602060048201526005602482015264475330333160d81b6044820152606401610854565b60006004611ac96060850185612f13565b90501080611ae657506016611ae2610140850185612f13565b9050105b15611af357506001611f9f565b6000611b026060850185612f13565b611b1191600491600091612d49565b611b1a91612f59565b90506000611b27846123ba565b9050600080611b3e836105a26101408a018a612f13565b509250905080611b55576001945050505050611f9f565b63f2e6d07360e01b6001600160e01b0319851601611bf657600080611b7d60608a018a612f13565b611b8c91602491601091612d49565b8080601f0160208091040260200160405190810160405280939291908181526020018383808284376000920191909152505050506014810151925090506001600160a01b0384811690831614611be3576001611be6565b60005b60ff169650505050505050611f9f565b63d70755b360e01b6001600160e01b0319851601611d4257600080611c1e60608a018a612f13565b611c2d91602491601091612d49565b8080601f016020809104026020016040519081016040528093929190818152602001838380828437600092018290525060148501516004549097509495506001600160a01b0390941615939250611c8691506123f59050565b905081611d0457604051638393db0b60e01b81526002906001600160a01b03831690638393db0b90611cbc908f906004016130c3565b602060405180830381865afa158015611cd9573d6000803e3d6000fd5b505050506040513d601f19601f82011682018060405250810190611cfd91906130d6565b60ff161091505b856001600160a01b0316846001600160a01b0316148015611d225750815b611d2d576001611d30565b60005b60ff1698505050505050505050611f9f565b631e7fb3f160e11b6001600160e01b0319851601611e6b57600080611d6a60608a018a612f13565b611d7991602491601091612d49565b8080601f016020809104026020016040519081016040528093929190818152602001838380828437600092019190915250505060148201519350909150611dda9050826001600160a01b031660009081526001602052604090205460ff1690565b611ded5760019650505050505050611f9f565b604051631179c1f560e11b81526001600160a01b038316906322f383ea90611e1b908c908c906004016130f9565b6020604051808303816000875af1158015611e3a573d6000803e3d6000fd5b505050506040513d601f19601f82011682018060405250810190611e5e9190612e58565b9650505050505050611f9f565b6302913d1d60e31b6001600160e01b0319851601611f6457600080611e8f84610aad565b915091506000611ebd7f26af6f34783f6c05ad199b86190c89039b6a27ab2bac01a0ef363037be08c64e5490565b905081611f3b57604051638393db0b60e01b81526002906001600160a01b03831690638393db0b90611ef3908e906004016130c3565b602060405180830381865afa158015611f10573d6000803e3d6000fd5b505050506040513d601f19601f82011682018060405250810190611f3491906130d6565b60ff161091505b828015611f455750815b611f50576001611f53565b60005b60ff16975050505050505050611f9f565b60405162461bcd60e51b815260206004820152601060248201526f1a5b9d985b1a59081b595d1a1bd9125960821b6044820152606401610854565b92915050565b80156109b957604051600090339060001990849084818181858888f193505050503d806000811461076e576040519150601f19603f3d011682016040523d82523d6000602084013e61076e565b366000612003610120840184612f13565b9092509050602c811461201557505050565b63095ea7b360e01b61202b601860148486612d49565b61203491612f59565b6001600160e01b031916036121e45760006120526014828486612d49565b61205b9161311b565b60601c9050600061206f8360188187612d49565b6120789161311b565b6040516382d2d97160e01b815260609190911c60048201819052915060009081906001600160a01b038516906382d2d971906024016040805180830381865afa1580156120c9573d6000803e3d6000fd5b505050506040513d601f19601f820116820180604052508101906120ed919061314e565b604051636eb1769f60e11b81523060048201526001600160a01b038781166024830152929450909250839185169063dd62ed3e90604401602060405180830381865afa158015612141573d6000803e3d6000fd5b505050506040513d601f19601f820116820180604052508101906121659190612e58565b1015610e4b5760405163095ea7b360e01b81526001600160a01b0385811660048301526024820183905284169063095ea7b3906044016020604051808303816000875af11580156121ba573d6000803e3d6000fd5b505050506040513d601f19601f820116820180604052508101906121de9190612c89565b50505050505b505050565b600060018360018111156121ff576121ff612ee4565b03612217576000808551602087018986f49050612227565b600080855160208701888a87f190505b95945050505050565b600061223a61241a565b60405161190160f01b60208201526022810191909152604281018390526062015b604051602081830303815290604052805190602001209050919050565b60008060006122878585612457565b909250905060008160048111156122a0576122a0612ee4565b1480156122be5750856001600160a01b0316826001600160a01b0316145b156122ce576001925050506109e4565b600080876001600160a01b0316631626ba7e60e01b88886040516024016122f6929190613172565b60408051601f198184030181529181526020820180516001600160e01b03166001600160e01b03199094169390931790925290516123349190612e3c565b600060405180830381855afa9150503d806000811461236f576040519150601f19603f3d011682016040523d82523d6000602084013e612374565b606091505b5091509150818015612387575080516020145b80156123ae57508051630b135d3f60e11b906123ac9083016020908101908401612e58565b145b98975050505050505050565b6040517f19457468657265756d205369676e6564204d6573736167653a0a3332000000006020820152603c8101829052600090605c0161225b565b7f26af6f34783f6c05ad199b86190c89039b6a27ab2bac01a0ef363037be08c64e5490565b604080517f035aff83d86937d35b32e04f0ddc6ff469290eef2f1b692d8a815c89404d47496020820152309181019190915260009060600161148a565b600080825160410361248d5760208301516040840151606085015160001a6124818782858561249c565b94509450505050612495565b506000905060025b9250929050565b6000807f7fffffffffffffffffffffffffffffff5d576e7357a4501ddfe92f46681b20a08311156124d35750600090506003612557565b6040805160008082526020820180845289905260ff881692820192909252606081018690526080810185905260019060a0016020604051602081039080840390855afa158015612527573d6000803e3d6000fd5b5050604051601f1901519150506001600160a01b03811661255057600060019250925050612557565b9150600090505b94509492505050565b60006040828403121561257257600080fd5b50919050565b60008083601f84011261258a57600080fd5b5081356001600160401b038111156125a157600080fd5b60208301915083602082850101111561249557600080fd5b60008083601f8401126125cb57600080fd5b5081356001600160401b038111156125e257600080fd5b6020830191508360208260051b850101111561249557600080fd5b60008060008060006080868803121561261557600080fd5b61261f8787612560565b945060408601356001600160401b038082111561263b57600080fd5b61264789838a01612578565b9096509450606088013591508082111561266057600080fd5b5061266d888289016125b9565b969995985093965092949392505050565b60006060828403121561257257600080fd5b600080600080600060a086880312156126a857600080fd5b6126b2878761267e565b945060608601356001600160401b03808211156126ce57600080fd5b6126da89838a01612578565b9096509450608088013591508082111561266057600080fd5b6001600160a01b03811681146109b957600080fd5b8035612713816126f3565b919050565b6000806000806080858703121561272e57600080fd5b8435612739816126f3565b93506020850135612749816126f3565b92506040850135612759816126f3565b9396929550929360600135925050565b60006020828403121561277b57600080fd5b81356109e4816126f3565b60008060006060848603121561279b57600080fd5b83356001600160401b038111156127b157600080fd5b840161016081870312156127c457600080fd5b95602085013595506040909401359392505050565b634e487b7160e01b600052604160045260246000fd5b60405160c081016001600160401b0381118282101715612811576128116127d9565b60405290565b604051601f8201601f191681016001600160401b038111828210171561283f5761283f6127d9565b604052919050565b600082601f83011261285857600080fd5b81356001600160401b03811115612871576128716127d9565b612884601f8201601f1916602001612817565b81815284602083860101111561289957600080fd5b816020850160208301376000918101602001919091529392505050565b80356002811061271357600080fd5b600080600080608085870312156128db57600080fd5b84356128e6816126f3565b93506020850135925060408501356001600160401b0381111561290857600080fd5b61291487828801612847565b925050612923606086016128b6565b905092959194509250565b60005b83811015612949578181015183820152602001612931565b50506000910152565b6000815180845261296a81602086016020860161292e565b601f01601f19169290920160200192915050565b8215158152604060208201526000610aa56040830184612952565b6000806000608084860312156129ae57600080fd5b6129b8858561267e565b925060608401356001600160401b038111156129d357600080fd5b6129df86828701612578565b9497909650939450505050565b600080600060408486031215612a0157600080fd5b8335925060208401356001600160401b038111156129d357600080fd5b600080600060608486031215612a3357600080fd5b8335612a3e816126f3565b92506020840135915060408401356001600160401b03811115612a6057600080fd5b612a6c86828701612847565b9150509250925092565b600080600060608486031215612a8b57600080fd5b612a958585612560565b925060408401356001600160401b038111156129d357600080fd5b80151581146109b957600080fd5b60006001600160401b0380841115612ad857612ad86127d9565b8360051b6020612ae9818301612817565b86815293509084019080840187831115612b0257600080fd5b855b83811015612bb057803585811115612b1c5760008081fd5b870160c0818b031215612b2f5760008081fd5b612b376127ef565b612b40826128b6565b815284820135612b4f81612ab0565b8186015260408281013590820152606080830135612b6c816126f3565b908201526080828101359082015260a08083013588811115612b8e5760008081fd5b612b9a8d828601612847565b9183019190915250835250908201908201612b04565b50505050509392505050565b600060208284031215612bce57600080fd5b81356001600160401b03811115612be457600080fd5b8201601f81018413612bf557600080fd5b610aa584823560208401612abe565b6020815260006109e46020830184612952565b60006109e4368484612abe565b80356001600160e01b03198116811461271357600080fd5b600060208284031215612c4e57600080fd5b6109e482612c24565b80356001600160401b038116811461271357600080fd5b600060208284031215612c8057600080fd5b6109e482612c57565b600060208284031215612c9b57600080fd5b81516109e481612ab0565b828152608081018235612cb8816126f3565b6001600160a01b03166020838101919091526001600160e01b031990612cdf908501612c24565b1660408301526001600160401b03612cf960408501612c57565b1660608301529392505050565b81835281816020850137506000828201602090810191909152601f909101601f19169091010190565b838152604060208201526000612227604083018486612d06565b60008085851115612d5957600080fd5b83861115612d6657600080fd5b5050820193919092039150565b6001600160f81b03198135818116916001851015612d9b5780818660010360031b1b83161692505b505092915050565b600080600080600060a08688031215612dbb57600080fd5b8535612dc6816126f3565b94506020860135612dd6816126f3565b9350612de460408701612c57565b925060608601356001600160401b0380821115612e0057600080fd5b612e0c89838a01612847565b93506080880135915080821115612e2257600080fd5b50612e2f88828901612847565b9150509295509295909350565b60008251612e4e81846020870161292e565b9190910192915050565b600060208284031215612e6a57600080fd5b5051919050565b828152606081018235612e83816126f3565b6001600160a01b03166020838101919091529290920135604090910152919050565b634e487b7160e01b600052601160045260246000fd5b80820180821115611f9f57611f9f612ea5565b634e487b7160e01b600052603260045260246000fd5b634e487b7160e01b600052602160045260246000fd5b600060018201612f0c57612f0c612ea5565b5060010190565b6000808335601e19843603018112612f2a57600080fd5b8301803591506001600160401b03821115612f4457600080fd5b60200191503681900382131561249557600080fd5b6001600160e01b03198135818116916004851015612d9b5760049490940360031b84901b1690921692915050565b6000808335601e19843603018112612f9e57600080fd5b83016020810192503590506001600160401b03811115612fbd57600080fd5b80360382131561249557600080fd5b6000610160612feb84612fde85612708565b6001600160a01b03169052565b602083013560208501526130026040840184612f87565b8260408701526130158387018284612d06565b925050506130266060840184612f87565b8583036060870152613039838284612d06565b925050506080830135608085015260a083013560a085015260c083013560c085015260e083013560e085015261010080840135818601525061012061308081850185612f87565b86840383880152613092848284612d06565b93505050506101406130a681850185612f87565b868403838801526130b8848284612d06565b979650505050505050565b6020815260006109e46020830184612fcc565b6000602082840312156130e857600080fd5b815160ff811681146109e457600080fd5b60408152600061310c6040830185612fcc565b90508260208301529392505050565b6bffffffffffffffffffffffff198135818116916014851015612d9b5760149490940360031b84901b1690921692915050565b6000806040838503121561316157600080fd5b505080516020909101519092909150565b828152604060208201526000610aa5604083018461295256fea2646970667358221220df53babbbed3e165cd8897f4a0db8dd473bf73d96f545726f320786c043fb5a564736f6c63430008110033",
  "devdoc": {
    "kind": "dev",
    "methods": {
      "disableModule(address)": {
        "details": "Allows to remove a module from the whitelist.      This can only be done via a Safe transaction.",
        "params": {
          "module": "Module to be removed."
        }
      },
      "enableModule(address)": {
        "details": "Allows to add a module to the whitelist.      This can only be done via a Safe transaction.",
        "params": {
          "module": "Module to be whitelisted."
        }
      },
      "execTransactionFromModule(address,uint256,bytes,uint8)": {
        "details": "Allows a Module to execute a Safe transaction without any further confirmations.",
        "params": {
          "data": "Data payload of module transaction.",
          "operation": "Operation type of module transaction.",
          "to": "Destination address of module transaction.",
          "value": "Ether value of module transaction."
        }
      },
      "execTransactionFromModuleReturnData(address,uint256,bytes,uint8)": {
        "details": "Allows a Module to execute a Safe transaction without any further confirmations and return data",
        "params": {
          "data": "Data payload of module transaction.",
          "operation": "Operation type of module transaction.",
          "to": "Destination address of module transaction.",
          "value": "Ether value of module transaction."
        }
      },
      "execute((uint8,bool,uint256,address,uint256,bytes)[])": {
        "details": "Relayers must ensure that the gasLimit specified for each transaction      is acceptable to them. A user could specify large enough that it could      consume all the gas available.",
        "params": {
          "_txs": "Transactions to process"
        }
      },
      "getChainId()": {
        "details": "Returns the chain id used by this contract."
      },
      "getSingleton()": {
        "returns": {
          "_imp": "The address of the current Wallet implementation"
        }
      },
      "isModuleEnabled(address)": {
        "details": "Returns if an module is enabled",
        "returns": {
          "_0": "True if the module is enabled"
        }
      },
      "setFallbackHandler(address)": {
        "details": "Allows to add a contract to handle fallback calls.      Only fallback calls without value and with data will be forwarded.      This can only be done via a Safe transaction.",
        "params": {
          "handler": "contract to handle fallbacks calls."
        }
      }
    },
    "version": 1
  },
  "userdoc": {
    "kind": "user",
    "methods": {
      "disableModule(address)": {
        "notice": "Disables the module `module` for the Safe."
      },
      "enableModule(address)": {
        "notice": "Enables the module `module` for the Safe."
      },
      "entryPoint()": {
        "notice": "return the entryPoint used by this account. subclass should return the current entryPoint used by this account."
      },
      "execute((uint8,bool,uint256,address,uint256,bytes)[])": {
        "notice": "Allow eip-4337 entryPoint or wallet self to execute an action"
      },
      "getNonce()": {
        "notice": "Return the account nonce. This method returns the next sequential nonce. For a nonce of a specific key, use `entrypoint.getNonce(account, key)`"
      },
      "getSingleton()": {
        "notice": "Returns the Wallet implementation"
      },
      "validateUserOp((address,uint256,bytes,bytes,uint256,uint256,uint256,uint256,uint256,bytes,bytes),bytes32,uint256)": {
        "notice": "Validate user's signature and nonce. subclass doesn't need to override this method. Instead, it should override the specific internal validation methods."
      }
    },
    "version": 1
  },
  "storageLayout": {
    "storage": [
      {
        "astId": 8131,
        "contract": "contracts/Sodium.sol:Sodium",
        "label": "_singleton",
        "offset": 0,
        "slot": "0",
        "type": "t_address"
      },
      {
        "astId": 5973,
        "contract": "contracts/Sodium.sol:Sodium",
        "label": "modules",
        "offset": 0,
        "slot": "1",
        "type": "t_mapping(t_address,t_bool)"
      },
      {
        "astId": 6497,
        "contract": "contracts/Sodium.sol:Sodium",
        "label": "_sessions",
        "offset": 0,
        "slot": "2",
        "type": "t_mapping(t_bytes4,t_struct(Session)6492_storage)"
      },
      {
        "astId": 6501,
        "contract": "contracts/Sodium.sol:Sodium",
        "label": "_ownerToUniqueId",
        "offset": 0,
        "slot": "3",
        "type": "t_mapping(t_address,t_bytes4)"
      },
      {
        "astId": 6504,
        "contract": "contracts/Sodium.sol:Sodium",
        "label": "_safeSession",
        "offset": 0,
        "slot": "4",
        "type": "t_struct(Session)6492_storage"
      },
      {
        "astId": 6506,
        "contract": "contracts/Sodium.sol:Sodium",
        "label": "salt",
        "offset": 0,
        "slot": "5",
        "type": "t_bytes32"
      },
      {
        "astId": 4980,
        "contract": "contracts/Sodium.sol:Sodium",
        "label": "initialized",
        "offset": 0,
        "slot": "6",
        "type": "t_bool"
      }
    ],
    "types": {
      "t_address": {
        "encoding": "inplace",
        "label": "address",
        "numberOfBytes": "20"
      },
      "t_bool": {
        "encoding": "inplace",
        "label": "bool",
        "numberOfBytes": "1"
      },
      "t_bytes32": {
        "encoding": "inplace",
        "label": "bytes32",
        "numberOfBytes": "32"
      },
      "t_bytes4": {
        "encoding": "inplace",
        "label": "bytes4",
        "numberOfBytes": "4"
      },
      "t_mapping(t_address,t_bool)": {
        "encoding": "mapping",
        "key": "t_address",
        "label": "mapping(address => bool)",
        "numberOfBytes": "32",
        "value": "t_bool"
      },
      "t_mapping(t_address,t_bytes4)": {
        "encoding": "mapping",
        "key": "t_address",
        "label": "mapping(address => bytes4)",
        "numberOfBytes": "32",
        "value": "t_bytes4"
      },
      "t_mapping(t_bytes4,t_struct(Session)6492_storage)": {
        "encoding": "mapping",
        "key": "t_bytes4",
        "label": "mapping(bytes4 => struct SessionManager.Session)",
        "numberOfBytes": "32",
        "value": "t_struct(Session)6492_storage"
      },
      "t_struct(Session)6492_storage": {
        "encoding": "inplace",
        "label": "struct SessionManager.Session",
        "members": [
          {
            "astId": 6487,
            "contract": "contracts/Sodium.sol:Sodium",
            "label": "owner",
            "offset": 0,
            "slot": "0",
            "type": "t_address"
          },
          {
            "astId": 6489,
            "contract": "contracts/Sodium.sol:Sodium",
            "label": "uniqueId",
            "offset": 20,
            "slot": "0",
            "type": "t_bytes4"
          },
          {
            "astId": 6491,
            "contract": "contracts/Sodium.sol:Sodium",
            "label": "expires",
            "offset": 24,
            "slot": "0",
            "type": "t_uint64"
          }
        ],
        "numberOfBytes": "32"
      },
      "t_uint64": {
        "encoding": "inplace",
        "label": "uint64",
        "numberOfBytes": "8"
      }
    }
  }
}