{
  "address": "0x0eF0cd67F14013D372DE7053cb21bf072AE12302",
  "abi": [
    {
      "inputs": [
        {
          "internalType": "contract IEntryPoint",
          "name": "entryPoint",
          "type": "address"
        }
      ],
      "stateMutability": "nonpayable",
      "type": "constructor"
    },
    {
      "anonymous": false,
      "inputs": [
        {
          "indexed": false,
          "internalType": "address",
          "name": "owner",
          "type": "address"
        },
        {
          "indexed": false,
          "internalType": "bytes4",
          "name": "sessionKey",
          "type": "bytes4"
        }
      ],
      "name": "AddedSession",
      "type": "event"
    },
    {
      "anonymous": false,
      "inputs": [
        {
          "indexed": false,
          "internalType": "address",
          "name": "handler",
          "type": "address"
        }
      ],
      "name": "ChangedFallbackHandler",
      "type": "event"
    },
    {
      "anonymous": false,
      "inputs": [
        {
          "indexed": false,
          "internalType": "address",
          "name": "guard",
          "type": "address"
        }
      ],
      "name": "ChangedGuard",
      "type": "event"
    },
    {
      "anonymous": false,
      "inputs": [
        {
          "indexed": false,
          "internalType": "address",
          "name": "module",
          "type": "address"
        }
      ],
      "name": "DisabledModule",
      "type": "event"
    },
    {
      "anonymous": false,
      "inputs": [
        {
          "indexed": false,
          "internalType": "address",
          "name": "module",
          "type": "address"
        }
      ],
      "name": "EnabledModule",
      "type": "event"
    },
    {
      "anonymous": false,
      "inputs": [
        {
          "indexed": true,
          "internalType": "address",
          "name": "module",
          "type": "address"
        }
      ],
      "name": "ExecutionFromModuleFailure",
      "type": "event"
    },
    {
      "anonymous": false,
      "inputs": [
        {
          "indexed": true,
          "internalType": "address",
          "name": "module",
          "type": "address"
        }
      ],
      "name": "ExecutionFromModuleSuccess",
      "type": "event"
    },
    {
      "anonymous": false,
      "inputs": [
        {
          "indexed": true,
          "internalType": "address",
          "name": "sender",
          "type": "address"
        },
        {
          "indexed": false,
          "internalType": "uint256",
          "name": "value",
          "type": "uint256"
        }
      ],
      "name": "NativeTokenReceived",
      "type": "event"
    },
    {
      "anonymous": false,
      "inputs": [
        {
          "indexed": false,
          "internalType": "uint256",
          "name": "_space",
          "type": "uint256"
        },
        {
          "indexed": false,
          "internalType": "uint256",
          "name": "_newNonce",
          "type": "uint256"
        }
      ],
      "name": "NonceChange",
      "type": "event"
    },
    {
      "anonymous": false,
      "inputs": [
        {
          "indexed": false,
          "internalType": "address",
          "name": "owner",
          "type": "address"
        },
        {
          "indexed": false,
          "internalType": "bytes4",
          "name": "sessionKey",
          "type": "bytes4"
        }
      ],
      "name": "RemovedSession",
      "type": "event"
    },
    {
      "anonymous": false,
      "inputs": [
        {
          "indexed": true,
          "internalType": "address",
          "name": "sessionOwner",
          "type": "address"
        },
        {
          "indexed": false,
          "internalType": "bytes4",
          "name": "platform",
          "type": "bytes4"
        },
        {
          "indexed": false,
          "internalType": "address",
          "name": "fallbackHandler",
          "type": "address"
        }
      ],
      "name": "SodiumSetup",
      "type": "event"
    },
    {
      "stateMutability": "nonpayable",
      "type": "fallback"
    },
    {
      "inputs": [],
      "name": "VERSION",
      "outputs": [
        {
          "internalType": "string",
          "name": "",
          "type": "string"
        }
      ],
      "stateMutability": "view",
      "type": "function"
    },
    {
      "inputs": [],
      "name": "_entryPoint",
      "outputs": [
        {
          "internalType": "address",
          "name": "",
          "type": "address"
        }
      ],
      "stateMutability": "view",
      "type": "function"
    },
    {
      "inputs": [
        {
          "internalType": "address",
          "name": "owner",
          "type": "address"
        },
        {
          "internalType": "bytes4",
          "name": "platform",
          "type": "bytes4"
        }
      ],
      "name": "addSession",
      "outputs": [],
      "stateMutability": "nonpayable",
      "type": "function"
    },
    {
      "inputs": [
        {
          "internalType": "address",
          "name": "prevModule",
          "type": "address"
        },
        {
          "internalType": "address",
          "name": "module",
          "type": "address"
        }
      ],
      "name": "disableModule",
      "outputs": [],
      "stateMutability": "nonpayable",
      "type": "function"
    },
    {
      "inputs": [],
      "name": "domainSeparator",
      "outputs": [
        {
          "internalType": "bytes32",
          "name": "",
          "type": "bytes32"
        }
      ],
      "stateMutability": "view",
      "type": "function"
    },
    {
      "inputs": [
        {
          "internalType": "address",
          "name": "module",
          "type": "address"
        }
      ],
      "name": "enableModule",
      "outputs": [],
      "stateMutability": "nonpayable",
      "type": "function"
    },
    {
      "inputs": [],
      "name": "entryPoint",
      "outputs": [
        {
          "internalType": "contract IEntryPoint",
          "name": "",
          "type": "address"
        }
      ],
      "stateMutability": "view",
      "type": "function"
    },
    {
      "inputs": [
        {
          "internalType": "address",
          "name": "to",
          "type": "address"
        },
        {
          "internalType": "uint256",
          "name": "value",
          "type": "uint256"
        },
        {
          "internalType": "bytes",
          "name": "data",
          "type": "bytes"
        },
        {
          "internalType": "enum Enum.Operation",
          "name": "operation",
          "type": "uint8"
        }
      ],
      "name": "execTransactionFromModule",
      "outputs": [
        {
          "internalType": "bool",
          "name": "success",
          "type": "bool"
        }
      ],
      "stateMutability": "nonpayable",
      "type": "function"
    },
    {
      "inputs": [
        {
          "internalType": "address",
          "name": "to",
          "type": "address"
        },
        {
          "internalType": "uint256",
          "name": "value",
          "type": "uint256"
        },
        {
          "internalType": "bytes",
          "name": "data",
          "type": "bytes"
        },
        {
          "internalType": "enum Enum.Operation",
          "name": "operation",
          "type": "uint8"
        }
      ],
      "name": "execTransactionFromModuleReturnData",
      "outputs": [
        {
          "internalType": "bool",
          "name": "success",
          "type": "bool"
        },
        {
          "internalType": "bytes",
          "name": "returnData",
          "type": "bytes"
        }
      ],
      "stateMutability": "nonpayable",
      "type": "function"
    },
    {
      "inputs": [
        {
          "components": [
            {
              "internalType": "enum Enum.Operation",
              "name": "op",
              "type": "uint8"
            },
            {
              "internalType": "bool",
              "name": "revertOnError",
              "type": "bool"
            },
            {
              "internalType": "uint256",
              "name": "gasLimit",
              "type": "uint256"
            },
            {
              "internalType": "address",
              "name": "target",
              "type": "address"
            },
            {
              "internalType": "uint256",
              "name": "value",
              "type": "uint256"
            },
            {
              "internalType": "bytes",
              "name": "data",
              "type": "bytes"
            }
          ],
          "internalType": "struct Transaction[]",
          "name": "_txs",
          "type": "tuple[]"
        }
      ],
      "name": "execute",
      "outputs": [],
      "stateMutability": "nonpayable",
      "type": "function"
    },
    {
      "inputs": [],
      "name": "getChainId",
      "outputs": [
        {
          "internalType": "uint256",
          "name": "",
          "type": "uint256"
        }
      ],
      "stateMutability": "view",
      "type": "function"
    },
    {
      "inputs": [],
      "name": "getSessionOwners",
      "outputs": [
        {
          "internalType": "address[]",
          "name": "",
          "type": "address[]"
        }
      ],
      "stateMutability": "view",
      "type": "function"
    },
    {
      "inputs": [],
      "name": "getSingleton",
      "outputs": [
        {
          "internalType": "address",
          "name": "_imp",
          "type": "address"
        }
      ],
      "stateMutability": "view",
      "type": "function"
    },
    {
      "inputs": [
        {
          "internalType": "address",
          "name": "module",
          "type": "address"
        }
      ],
      "name": "isModuleEnabled",
      "outputs": [
        {
          "internalType": "bool",
          "name": "",
          "type": "bool"
        }
      ],
      "stateMutability": "view",
      "type": "function"
    },
    {
      "inputs": [
        {
          "internalType": "address",
          "name": "owner",
          "type": "address"
        }
      ],
      "name": "isSessionOwner",
      "outputs": [
        {
          "internalType": "bool",
          "name": "",
          "type": "bool"
        }
      ],
      "stateMutability": "view",
      "type": "function"
    },
    {
      "inputs": [],
      "name": "isSodiumSingleton",
      "outputs": [
        {
          "internalType": "bool",
          "name": "",
          "type": "bool"
        }
      ],
      "stateMutability": "pure",
      "type": "function"
    },
    {
      "inputs": [],
      "name": "nonce",
      "outputs": [
        {
          "internalType": "uint256",
          "name": "",
          "type": "uint256"
        }
      ],
      "stateMutability": "view",
      "type": "function"
    },
    {
      "inputs": [
        {
          "internalType": "uint256",
          "name": "_space",
          "type": "uint256"
        }
      ],
      "name": "readNonce",
      "outputs": [
        {
          "internalType": "uint256",
          "name": "",
          "type": "uint256"
        }
      ],
      "stateMutability": "view",
      "type": "function"
    },
    {
      "inputs": [
        {
          "internalType": "address",
          "name": "owner",
          "type": "address"
        },
        {
          "internalType": "bytes4",
          "name": "platform",
          "type": "bytes4"
        }
      ],
      "name": "removeSession",
      "outputs": [],
      "stateMutability": "nonpayable",
      "type": "function"
    },
    {
      "inputs": [
        {
          "internalType": "address",
          "name": "handler",
          "type": "address"
        }
      ],
      "name": "setFallbackHandler",
      "outputs": [],
      "stateMutability": "nonpayable",
      "type": "function"
    },
    {
      "inputs": [
        {
          "internalType": "address",
          "name": "guard",
          "type": "address"
        }
      ],
      "name": "setGuard",
      "outputs": [],
      "stateMutability": "nonpayable",
      "type": "function"
    },
    {
      "inputs": [
        {
          "internalType": "address",
          "name": "_sessionOwner",
          "type": "address"
        },
        {
          "internalType": "bytes4",
          "name": "_platform",
          "type": "bytes4"
        },
        {
          "internalType": "address",
          "name": "_fallbackHandler",
          "type": "address"
        }
      ],
      "name": "setup",
      "outputs": [],
      "stateMutability": "nonpayable",
      "type": "function"
    },
    {
      "inputs": [],
      "name": "setupModules",
      "outputs": [],
      "stateMutability": "nonpayable",
      "type": "function"
    },
    {
      "inputs": [
        {
          "internalType": "contract Sodium",
          "name": "newSingleton",
          "type": "address"
        }
      ],
      "name": "upgradeTo",
      "outputs": [],
      "stateMutability": "nonpayable",
      "type": "function"
    },
    {
      "inputs": [
        {
          "components": [
            {
              "internalType": "address",
              "name": "sender",
              "type": "address"
            },
            {
              "internalType": "uint256",
              "name": "nonce",
              "type": "uint256"
            },
            {
              "internalType": "bytes",
              "name": "initCode",
              "type": "bytes"
            },
            {
              "internalType": "bytes",
              "name": "callData",
              "type": "bytes"
            },
            {
              "internalType": "uint256",
              "name": "callGasLimit",
              "type": "uint256"
            },
            {
              "internalType": "uint256",
              "name": "verificationGasLimit",
              "type": "uint256"
            },
            {
              "internalType": "uint256",
              "name": "preVerificationGas",
              "type": "uint256"
            },
            {
              "internalType": "uint256",
              "name": "maxFeePerGas",
              "type": "uint256"
            },
            {
              "internalType": "uint256",
              "name": "maxPriorityFeePerGas",
              "type": "uint256"
            },
            {
              "internalType": "bytes",
              "name": "paymasterAndData",
              "type": "bytes"
            },
            {
              "internalType": "bytes",
              "name": "signature",
              "type": "bytes"
            }
          ],
          "internalType": "struct UserOperation",
          "name": "userOp",
          "type": "tuple"
        },
        {
          "internalType": "bytes32",
          "name": "userOpHash",
          "type": "bytes32"
        },
        {
          "internalType": "uint256",
          "name": "missingAccountFunds",
          "type": "uint256"
        }
      ],
      "name": "validateUserOp",
      "outputs": [
        {
          "internalType": "uint256",
          "name": "validationData",
          "type": "uint256"
        }
      ],
      "stateMutability": "nonpayable",
      "type": "function"
    },
    {
      "stateMutability": "payable",
      "type": "receive"
    }
  ],
  "transactionHash": "0xbce94d568368835190a9f358e75258466bf114cfb6c71a7e52ca5326e3d59d0e",
  "args": [
    "0xfeE35E475D04062eB515feb679a5a12611D6B3A4"
  ],
  "numDeployments": 1,
  "solcInputHash": "e36723426982162f94f91f49468ecdec",
  "bytecode": "0x60a060405234801561001057600080fd5b50604051611be3380380611be383398101604081905261002f91610040565b6001600160a01b0316608052610070565b60006020828403121561005257600080fd5b81516001600160a01b038116811461006957600080fd5b9392505050565b608051611b436100a060003960008181610408015281816104520152818161108a01526112580152611b436000f3fe60806040526004361061016a5760003560e01c80639a199a4f116100d1578063cb103d701161008a578063eb76171811610064578063eb761718146104dd578063f08a0323146104fd578063f698da251461051d578063ffa1ad7414610584576101a6565b8063cb103d7014610489578063e009cfde1461049d578063e19a9dd9146104bd576101a6565b80639a199a4f146103b0578063a71d052b146103d0578063affed0e0146103e4578063b0d691fe146103f9578063b3080c2414610440578063b9b33cb714610474576101a6565b80634b819ba4116101235780634b819ba4146102e05780635229073f1461030057806356cdfb6f1461032e578063610b5925146103505780638aa26d4b146103705780638c3f556314610390576101a6565b80632d9ad53d1461020c5780633408e470146102415780633659cfe61461025e5780633a871cdd14610280578063468721a7146102a05780634b574a02146102c0576101a6565b366101a65760405134815233907f9820dd13494dd7d9f03807aa0bb724fe8266855b5ac4db99848a199904f8074b9060200160405180910390a2005b3480156101b257600080fd5b507f6c9a6c4a39284e37ed1cf53d337577d14212a4870fb976a4366c693b939918d58054806101dd57005b36600080373360601b365260008060143601600080855af190503d6000803e80610206573d6000fd5b503d6000f35b34801561021857600080fd5b5061022c610227366004611537565b6105c2565b60405190151581526020015b60405180910390f35b34801561024d57600080fd5b50465b604051908152602001610238565b34801561026a57600080fd5b5061027e610279366004611537565b6105fd565b005b34801561028c57600080fd5b5061025061029b366004611554565b6106bc565b3480156102ac57600080fd5b5061022c6102bb36600461169c565b6106e8565b3480156102cc57600080fd5b5061022c6102db366004611537565b6107c1565b3480156102ec57600080fd5b5061027e6102fb36600461171e565b610849565b34801561030c57600080fd5b5061032061031b36600461169c565b61092c565b6040516102389291906117b7565b34801561033a57600080fd5b50610343610962565b60405161023891906117d2565b34801561035c57600080fd5b5061027e61036b366004611537565b610ab9565b34801561037c57600080fd5b5061027e61038b36600461181f565b610bff565b34801561039c57600080fd5b506102506103ab366004611854565b610ce0565b3480156103bc57600080fd5b5061027e6103cb36600461181f565b610d0c565b3480156103dc57600080fd5b50600161022c565b3480156103f057600080fd5b50610250610d77565b34801561040557600080fd5b507f00000000000000000000000000000000000000000000000000000000000000005b6040516001600160a01b039091168152602001610238565b34801561044c57600080fd5b506104287f000000000000000000000000000000000000000000000000000000000000000081565b34801561048057600080fd5b5061027e610d88565b34801561049557600080fd5b503054610428565b3480156104a957600080fd5b5061027e6104b836600461186d565b610e3c565b3480156104c957600080fd5b5061027e6104d8366004611537565b610f67565b3480156104e957600080fd5b5061027e6104f83660046118b4565b610fcc565b34801561050957600080fd5b5061027e610518366004611537565b610fdd565b34801561052957600080fd5b5061025060007f47e79534a245952e8b16893a336b85a3d9ea9fa8c573f3d803afb92a794692184660408051602081019390935282015230606082015260800160405160208183030381529060405280519060200120905090565b34801561059057600080fd5b506105b560405180604001604052806005815260200164302e302e3160d81b81525081565b60405161023891906119fd565b600060016001600160a01b038316148015906105f757506001600160a01b038281166000908152600160205260409020541615155b92915050565b610605611046565b806001600160a01b031663a71d052b6040518163ffffffff1660e01b8152600401602060405180830381865afa158015610643573d6000803e3d6000fd5b505050506040513d601f19601f820116820180604052508101906106679190611a10565b6106b15760405162461bcd60e51b81526020600482015260166024820152752737ba10309029b7b234bab69039b4b733b632ba37b760511b60448201526064015b60405180910390fd5b6106b9813055565b50565b60006106c661107f565b5060006106d66040850185611a2d565b50506106e1826110f7565b9392505050565b6000336001148015906107125750336000908152600160205260409020546001600160a01b031615155b6107485760405162461bcd60e51b815260206004820152600760248201526614d113534c4c0d60ca1b60448201526064016106a8565b610755858585855a611150565b9050801561078d5760405133907f6895c13664aa4f67288b25d7a21d7aaa34916e355fb9b6fae0a139a9085becb890600090a26107b9565b60405133907facd2c8702804128fdb0db2bb49f6d127dd0181c13fd45dbfe16de0930e2bd37590600090a25b949350505050565b60006001600160a01b0382166107d957506000919050565b60006107e3610962565b905060005b815181101561083f5781818151811061080357610803611a7b565b60200260200101516001600160a01b0316846001600160a01b03160361082d575060019392505050565b8061083781611a91565b9150506107e8565b5060009392505050565b60035460ff16156108925760405162461bcd60e51b8152602060048201526013602482015272105b1c9958591e481a5b9a5d1a585b1a5e9959606a1b60448201526064016106a8565b6001600160a01b0381166108e85760405162461bcd60e51b815260206004820152601960248201527f52657175697265642066616c6c6261636b2068616e646c65720000000000000060448201526064016106a8565b6003805460ff1916600117905561091d817f6c9a6c4a39284e37ed1cf53d337577d14212a4870fb976a4366c693b939918d555565b6109278383611197565b505050565b6000606061093c868686866106e8565b915060405160203d0181016040523d81523d6000602083013e8091505094509492505050565b6040805160038082526080820190925260609160009190602082018480368337505063eaf7652f60e01b600090815260026020527fcef516f59394dcea6f690864bc4b308ea8af47bff3ce7155948d621ccc0bd2795483519394506001600160a01b0316928492506109d6576109d6611a7b565b6001600160a01b039283166020918202929092018101919091526304701feb60e31b600052600290527f84adbd5779b53219abc08c6a0721310eceb23df12233a77fc0d8a950b6fba16454825191169082906001908110610a3957610a39611a7b565b6001600160a01b039283166020918202929092018101919091526324108c8f60e21b6000526002908190527fe78882b8c3d591c252f166fa92ca2f5fe1ed6e04cf3f3e36bf49f4edcd2ab2b15483519216918391908110610a9c57610a9c611a7b565b6001600160a01b0390921660209283029190910190910152919050565b610ac1611046565b6001600160a01b03811615801590610ae357506001600160a01b038116600114155b610b195760405162461bcd60e51b815260206004820152600760248201526653444d4d31303160c81b60448201526064016106a8565b6001600160a01b038181166000908152600160205260409020541615610b6b5760405162461bcd60e51b815260206004820152600760248201526629a226a698981960c91b60448201526064016106a8565b600160208181527fcc69885fda6bcc1a4ace058b4a62bf5e179ea78fd58a1ccd71c22cc9b688792f80546001600160a01b03858116600081815260408082208054949095166001600160a01b031994851617909455959095528254168417909155519182527fecdf3a3effea5783a3c4c2140e677577666428d44ed9d474a0b3a4c9943f844091015b60405180910390a150565b610c07611046565b6001600160e01b031981166000908152600260205260409020546001600160a01b03838116911614610c7b5760405162461bcd60e51b815260206004820152601860248201527f706c6174666f726d2073657373696f6e2065787069726564000000000000000060448201526064016106a8565b6001600160e01b031981166000908152600260205260409081902080546001600160a01b0319169055517f43853b1cc6094f8d7cd366a448173e51c7eeb87b51d3afe860100d38101f376590610cd49084908490611ab8565b60405180910390a15050565b60006105f77f1ec7ef52f8bbd89fae80c55c6884305d3fb5ef41070638221dac337a4377b7df83611204565b610d14611046565b6001600160e01b031981166000908152600260205260409020546001600160a01b031615610d69576001600160e01b03198116600090815260026020526040902054610d69906001600160a01b031682610bff565b610d738282611197565b5050565b6000610d836000610ce0565b905090565b610d90611046565b600160008190526020527fcc69885fda6bcc1a4ace058b4a62bf5e179ea78fd58a1ccd71c22cc9b688792f546001600160a01b031615610dfc5760405162461bcd60e51b8152602060048201526007602482015266053444d4d3130360cc1b60448201526064016106a8565b6001600081905260208190527fcc69885fda6bcc1a4ace058b4a62bf5e179ea78fd58a1ccd71c22cc9b688792f80546001600160a01b0319169091179055565b610e44611046565b6001600160a01b03811615801590610e6657506001600160a01b038116600114155b610e9c5760405162461bcd60e51b815260206004820152600760248201526653444d4d31303160c81b60448201526064016106a8565b6001600160a01b03828116600090815260016020526040902054811690821614610ef25760405162461bcd60e51b815260206004820152600760248201526653444d4d31303360c81b60448201526064016106a8565b6001600160a01b038181166000818152600160209081526040808320805488871685528285208054919097166001600160a01b03199182161790965592849052825490941690915591519081527faab4fa2b463f581b2b32cb3b7e3b704b9ce37cc209b5fb4d77e593ace40542769101610cd4565b610f6f611046565b7f4a204f620c8c5ccdca3fd54d003badd85ba500436a431f0cbda4f558c93c34c88181556040516001600160a01b03831681527f1151116914515bc0891ff9047a6cb32cf902546f83066499bcf8ba33d2353fa290602001610cd4565b610fd4611244565b6106b9816112c6565b610fe5611046565b61100d817f6c9a6c4a39284e37ed1cf53d337577d14212a4870fb976a4366c693b939918d555565b6040516001600160a01b03821681527f5ac6c46c93c8d0e53714ba3b53db3e7c046da994313d7ed0d192028bc7c228b090602001610bf4565b33301461107d5760405162461bcd60e51b8152602060048201526005602482015264475330333160d81b60448201526064016106a8565b565b336001600160a01b037f0000000000000000000000000000000000000000000000000000000000000000161461107d5760405162461bcd60e51b815260206004820152601c60248201527f6163636f756e743a206e6f742066726f6d20456e747279506f696e740000000060448201526064016106a8565b80156106b957604051600090339060001990849084818181858888f193505050503d8060008114611144576040519150601f19603f3d011682016040523d82523d6000602084013e611149565b606091505b5050505050565b6000600183600181111561116657611166611adb565b0361117e576000808551602087018986f4905061118e565b600080855160208701888a87f190505b95945050505050565b6111a081611499565b6001600160e01b031981166000908152600260205260409081902080546001600160a01b0319166001600160a01b038516179055517f032ab7f5ec464dc9f1ac11837a6f0e506cdca8a7850aa5eb37510e221c1e0e3d90610cd49084908490611ab8565b6000808383604051602001611223929190918252602082015260400190565b60408051601f19818403018152919052805160209091012054949350505050565b3330148061127a5750336001600160a01b037f000000000000000000000000000000000000000000000000000000000000000016145b61107d5760405162461bcd60e51b815260206004820152601e60248201527f6f6e6c7920656e747279506f696e74206f722077616c6c65742073656c66000060448201526064016106a8565b60005b8151811015610d735760008282815181106112e6576112e6611a7b565b602002602001015190506000606082604001515a10156113415760405162461bcd60e51b8152602060048201526016602482015275536f6469756d3a204e4f545f454e4f5547485f47415360501b60448201526064016106a8565b60018351600181111561135657611356611adb565b036113df5782606001516001600160a01b0316836040015160001461137f578360400151611381565b5a5b8460a001516040516113939190611af1565b6000604051808303818686f4925050503d80600081146113cf576040519150601f19603f3d011682016040523d82523d6000602084013e6113d4565b606091505b509092509050611467565b82606001516001600160a01b03168360800151846040015160001461140857846040015161140a565b5a5b908560a0015160405161141d9190611af1565b600060405180830381858888f193505050503d806000811461145b576040519150601f19603f3d011682016040523d82523d6000602084013e611460565b606091505b5090925090505b81158015611476575082602001515b1561148357805160208201fd5b505050808061149190611a91565b9150506112c9565b6001600160e01b0319811663eaf7652f60e01b14806114c857506001600160e01b031981166304701feb60e31b145b806114e357506001600160e01b031981166324108c8f60e21b145b6106b95760405162461bcd60e51b815260206004820152601060248201526f696e76616c696420706c6174666f726d60801b60448201526064016106a8565b6001600160a01b03811681146106b957600080fd5b60006020828403121561154957600080fd5b81356106e181611522565b60008060006060848603121561156957600080fd5b833567ffffffffffffffff81111561158057600080fd5b8401610160818703121561159357600080fd5b95602085013595506040909401359392505050565b634e487b7160e01b600052604160045260246000fd5b60405160c0810167ffffffffffffffff811182821017156115e1576115e16115a8565b60405290565b604051601f8201601f1916810167ffffffffffffffff81118282101715611610576116106115a8565b604052919050565b600082601f83011261162957600080fd5b813567ffffffffffffffff811115611643576116436115a8565b611656601f8201601f19166020016115e7565b81815284602083860101111561166b57600080fd5b816020850160208301376000918101602001919091529392505050565b80356002811061169757600080fd5b919050565b600080600080608085870312156116b257600080fd5b84356116bd81611522565b935060208501359250604085013567ffffffffffffffff8111156116e057600080fd5b6116ec87828801611618565b9250506116fb60608601611688565b905092959194509250565b80356001600160e01b03198116811461169757600080fd5b60008060006060848603121561173357600080fd5b833561173e81611522565b925061174c60208501611706565b9150604084013561175c81611522565b809150509250925092565b60005b8381101561178257818101518382015260200161176a565b50506000910152565b600081518084526117a3816020860160208601611767565b601f01601f19169290920160200192915050565b82151581526040602082015260006107b9604083018461178b565b6020808252825182820181905260009190848201906040850190845b818110156118135783516001600160a01b0316835292840192918401916001016117ee565b50909695505050505050565b6000806040838503121561183257600080fd5b823561183d81611522565b915061184b60208401611706565b90509250929050565b60006020828403121561186657600080fd5b5035919050565b6000806040838503121561188057600080fd5b823561188b81611522565b9150602083013561189b81611522565b809150509250929050565b80151581146106b957600080fd5b600060208083850312156118c757600080fd5b823567ffffffffffffffff808211156118df57600080fd5b818501915085601f8301126118f357600080fd5b813581811115611905576119056115a8565b8060051b6119148582016115e7565b918252838101850191858101908984111561192e57600080fd5b86860192505b838310156119f05782358581111561194c5760008081fd5b860160c0818c03601f19018113156119645760008081fd5b61196c6115be565b6119778a8401611688565b8152604080840135611988816118a6565b808c840152506060808501358284015260809150818501356119a981611522565b9083015260a084810135828401529284013592898411156119cc57600091508182fd5b6119da8f8d86880101611618565b9083015250845250509186019190860190611934565b9998505050505050505050565b6020815260006106e1602083018461178b565b600060208284031215611a2257600080fd5b81516106e1816118a6565b6000808335601e19843603018112611a4457600080fd5b83018035915067ffffffffffffffff821115611a5f57600080fd5b602001915036819003821315611a7457600080fd5b9250929050565b634e487b7160e01b600052603260045260246000fd5b600060018201611ab157634e487b7160e01b600052601160045260246000fd5b5060010190565b6001600160a01b039290921682526001600160e01b031916602082015260400190565b634e487b7160e01b600052602160045260246000fd5b60008251611b03818460208701611767565b919091019291505056fea2646970667358221220f5ae9f02f221d1fd0e07bb6bf8982b66ed75cecc1f9f9f11d84edabf61bfde1a64736f6c63430008110033",
  "devdoc": {
    "kind": "dev",
    "methods": {
      "disableModule(address,address)": {
        "details": "Allows to remove a module from the whitelist.      This can only be done via a Safe transaction.",
        "params": {
          "module": "Module to be removed.",
          "prevModule": "Module that pointed to the module to be removed in the linked list"
        }
      },
      "enableModule(address)": {
        "details": "Allows to add a module to the whitelist.      This can only be done via a Safe transaction.",
        "params": {
          "module": "Module to be whitelisted."
        }
      },
      "execTransactionFromModule(address,uint256,bytes,uint8)": {
        "details": "Allows a Module to execute a Safe transaction without any further confirmations.",
        "params": {
          "data": "Data payload of module transaction.",
          "operation": "Operation type of module transaction.",
          "to": "Destination address of module transaction.",
          "value": "Ether value of module transaction."
        }
      },
      "execTransactionFromModuleReturnData(address,uint256,bytes,uint8)": {
        "details": "Allows a Module to execute a Safe transaction without any further confirmations and return data",
        "params": {
          "data": "Data payload of module transaction.",
          "operation": "Operation type of module transaction.",
          "to": "Destination address of module transaction.",
          "value": "Ether value of module transaction."
        }
      },
      "execute((uint8,bool,uint256,address,uint256,bytes)[])": {
        "details": "Relayers must ensure that the gasLimit specified for each transaction      is acceptable to them. A user could specify large enough that it could      consume all the gas available.",
        "params": {
          "_txs": "Transactions to process"
        }
      },
      "getChainId()": {
        "details": "Returns the chain id used by this contract."
      },
      "getSessionOwners()": {
        "details": "Returns array of owners.",
        "returns": {
          "_0": "Array of session owners."
        }
      },
      "getSingleton()": {
        "returns": {
          "_imp": "The address of the current Wallet implementation"
        }
      },
      "isModuleEnabled(address)": {
        "details": "Returns if an module is enabled",
        "returns": {
          "_0": "True if the module is enabled"
        }
      },
      "nonce()": {
        "details": "The default nonce space is 0x00",
        "returns": {
          "_0": "The next nonce"
        }
      },
      "readNonce(uint256)": {
        "params": {
          "_space": "Nonce space, each space keeps an independent nonce count"
        },
        "returns": {
          "_0": "The next nonce"
        }
      },
      "setFallbackHandler(address)": {
        "details": "Allows to add a contract to handle fallback calls.      Only fallback calls without value and with data will be forwarded.      This can only be done via a Safe transaction.",
        "params": {
          "handler": "contract to handle fallbacks calls."
        }
      },
      "setGuard(address)": {
        "details": "Set a guard that checks transactions before execution",
        "params": {
          "guard": "The address of the guard to be used or the 0 address to disable the guard"
        }
      }
    },
    "version": 1
  },
  "userdoc": {
    "kind": "user",
    "methods": {
      "disableModule(address,address)": {
        "notice": "Disables the module `module` for the Safe."
      },
      "enableModule(address)": {
        "notice": "Enables the module `module` for the Safe."
      },
      "entryPoint()": {
        "notice": "return the entryPoint used by this account. subclass should return the current entryPoint used by this account."
      },
      "execute((uint8,bool,uint256,address,uint256,bytes)[])": {
        "notice": "Allow eip-4337 entryPoint or wallet self to execute an action"
      },
      "getSingleton()": {
        "notice": "Returns the Wallet implementation"
      },
      "nonce()": {
        "notice": "Returns the next nonce of the default nonce space"
      },
      "readNonce(uint256)": {
        "notice": "Returns the next nonce of the given nonce space"
      },
      "validateUserOp((address,uint256,bytes,bytes,uint256,uint256,uint256,uint256,uint256,bytes,bytes),bytes32,uint256)": {
        "notice": "Validate user's signature and nonce. subclass doesn't need to override this method. Instead, it should override the specific internal validation methods."
      }
    },
    "version": 1
  },
  "storageLayout": {
    "storage": [
      {
        "astId": 14764,
        "contract": "contracts/Sodium.sol:Sodium",
        "label": "_singleton",
        "offset": 0,
        "slot": "0",
        "type": "t_address"
      },
      {
        "astId": 14066,
        "contract": "contracts/Sodium.sol:Sodium",
        "label": "modules",
        "offset": 0,
        "slot": "1",
        "type": "t_mapping(t_address,t_address)"
      },
      {
        "astId": 14498,
        "contract": "contracts/Sodium.sol:Sodium",
        "label": "sessionByPlatform",
        "offset": 0,
        "slot": "2",
        "type": "t_mapping(t_bytes4,t_address)"
      },
      {
        "astId": 13566,
        "contract": "contracts/Sodium.sol:Sodium",
        "label": "initialized",
        "offset": 0,
        "slot": "3",
        "type": "t_bool"
      }
    ],
    "types": {
      "t_address": {
        "encoding": "inplace",
        "label": "address",
        "numberOfBytes": "20"
      },
      "t_bool": {
        "encoding": "inplace",
        "label": "bool",
        "numberOfBytes": "1"
      },
      "t_bytes4": {
        "encoding": "inplace",
        "label": "bytes4",
        "numberOfBytes": "4"
      },
      "t_mapping(t_address,t_address)": {
        "encoding": "mapping",
        "key": "t_address",
        "label": "mapping(address => address)",
        "numberOfBytes": "32",
        "value": "t_address"
      },
      "t_mapping(t_bytes4,t_address)": {
        "encoding": "mapping",
        "key": "t_bytes4",
        "label": "mapping(bytes4 => address)",
        "numberOfBytes": "32",
        "value": "t_address"
      }
    }
  }
}