{
  "address": "0x10672E5954092c08E20917d959A7735781d221C8",
  "abi": [
    {
      "inputs": [
        {
          "internalType": "contract IEntryPoint",
          "name": "entryPoint_",
          "type": "address"
        }
      ],
      "stateMutability": "nonpayable",
      "type": "constructor"
    },
    {
      "anonymous": false,
      "inputs": [
        {
          "components": [
            {
              "internalType": "address",
              "name": "owner",
              "type": "address"
            },
            {
              "internalType": "bytes4",
              "name": "uniqueId",
              "type": "bytes4"
            },
            {
              "internalType": "uint64",
              "name": "expires",
              "type": "uint64"
            }
          ],
          "indexed": false,
          "internalType": "struct SessionManager.Session",
          "name": "session",
          "type": "tuple"
        },
        {
          "indexed": false,
          "internalType": "bytes4",
          "name": "storageKey",
          "type": "bytes4"
        }
      ],
      "name": "AddOrUpdateSession",
      "type": "event"
    },
    {
      "anonymous": false,
      "inputs": [
        {
          "indexed": false,
          "internalType": "address",
          "name": "handler",
          "type": "address"
        }
      ],
      "name": "ChangedFallbackHandler",
      "type": "event"
    },
    {
      "anonymous": false,
      "inputs": [
        {
          "indexed": false,
          "internalType": "address",
          "name": "sessionOwner",
          "type": "address"
        }
      ],
      "name": "ChangedSafeSession",
      "type": "event"
    },
    {
      "anonymous": false,
      "inputs": [
        {
          "indexed": false,
          "internalType": "address",
          "name": "module",
          "type": "address"
        }
      ],
      "name": "DisabledModule",
      "type": "event"
    },
    {
      "anonymous": false,
      "inputs": [
        {
          "indexed": false,
          "internalType": "address",
          "name": "module",
          "type": "address"
        }
      ],
      "name": "EnabledModule",
      "type": "event"
    },
    {
      "anonymous": false,
      "inputs": [
        {
          "indexed": true,
          "internalType": "address",
          "name": "module",
          "type": "address"
        }
      ],
      "name": "ExecutionFromModuleFailure",
      "type": "event"
    },
    {
      "anonymous": false,
      "inputs": [
        {
          "indexed": true,
          "internalType": "address",
          "name": "module",
          "type": "address"
        }
      ],
      "name": "ExecutionFromModuleSuccess",
      "type": "event"
    },
    {
      "anonymous": false,
      "inputs": [
        {
          "indexed": true,
          "internalType": "address",
          "name": "sender",
          "type": "address"
        },
        {
          "indexed": false,
          "internalType": "uint256",
          "name": "value",
          "type": "uint256"
        }
      ],
      "name": "NativeTokenReceived",
      "type": "event"
    },
    {
      "anonymous": false,
      "inputs": [
        {
          "indexed": false,
          "internalType": "bytes4",
          "name": "storageKey",
          "type": "bytes4"
        }
      ],
      "name": "RemovedSession",
      "type": "event"
    },
    {
      "stateMutability": "nonpayable",
      "type": "fallback"
    },
    {
      "inputs": [],
      "name": "VERSION",
      "outputs": [
        {
          "internalType": "string",
          "name": "",
          "type": "string"
        }
      ],
      "stateMutability": "view",
      "type": "function"
    },
    {
      "inputs": [],
      "name": "_ADD_SESSION_TYPEHASH",
      "outputs": [
        {
          "internalType": "bytes32",
          "name": "",
          "type": "bytes32"
        }
      ],
      "stateMutability": "view",
      "type": "function"
    },
    {
      "inputs": [],
      "name": "_RECOVER_TYPEHASH",
      "outputs": [
        {
          "internalType": "bytes32",
          "name": "",
          "type": "bytes32"
        }
      ],
      "stateMutability": "view",
      "type": "function"
    },
    {
      "inputs": [],
      "name": "_entryPoint",
      "outputs": [
        {
          "internalType": "address",
          "name": "",
          "type": "address"
        }
      ],
      "stateMutability": "view",
      "type": "function"
    },
    {
      "inputs": [
        {
          "components": [
            {
              "internalType": "address",
              "name": "owner",
              "type": "address"
            },
            {
              "internalType": "bytes4",
              "name": "uniqueId",
              "type": "bytes4"
            },
            {
              "internalType": "uint64",
              "name": "expires",
              "type": "uint64"
            }
          ],
          "internalType": "struct SessionManager.Session",
          "name": "session",
          "type": "tuple"
        }
      ],
      "name": "addOrUpdateSession",
      "outputs": [],
      "stateMutability": "nonpayable",
      "type": "function"
    },
    {
      "inputs": [
        {
          "internalType": "address",
          "name": "module",
          "type": "address"
        }
      ],
      "name": "disableModule",
      "outputs": [],
      "stateMutability": "nonpayable",
      "type": "function"
    },
    {
      "inputs": [],
      "name": "domainSeparator",
      "outputs": [
        {
          "internalType": "bytes32",
          "name": "",
          "type": "bytes32"
        }
      ],
      "stateMutability": "view",
      "type": "function"
    },
    {
      "inputs": [
        {
          "internalType": "address",
          "name": "module",
          "type": "address"
        }
      ],
      "name": "enableModule",
      "outputs": [],
      "stateMutability": "nonpayable",
      "type": "function"
    },
    {
      "inputs": [],
      "name": "entryPoint",
      "outputs": [
        {
          "internalType": "contract IEntryPoint",
          "name": "",
          "type": "address"
        }
      ],
      "stateMutability": "view",
      "type": "function"
    },
    {
      "inputs": [
        {
          "internalType": "address",
          "name": "to",
          "type": "address"
        },
        {
          "internalType": "uint256",
          "name": "value",
          "type": "uint256"
        },
        {
          "internalType": "bytes",
          "name": "data",
          "type": "bytes"
        },
        {
          "internalType": "enum Enum.Operation",
          "name": "operation",
          "type": "uint8"
        }
      ],
      "name": "execTransactionFromModule",
      "outputs": [
        {
          "internalType": "bool",
          "name": "success",
          "type": "bool"
        }
      ],
      "stateMutability": "nonpayable",
      "type": "function"
    },
    {
      "inputs": [
        {
          "internalType": "address",
          "name": "to",
          "type": "address"
        },
        {
          "internalType": "uint256",
          "name": "value",
          "type": "uint256"
        },
        {
          "internalType": "bytes",
          "name": "data",
          "type": "bytes"
        },
        {
          "internalType": "enum Enum.Operation",
          "name": "operation",
          "type": "uint8"
        }
      ],
      "name": "execTransactionFromModuleReturnData",
      "outputs": [
        {
          "internalType": "bool",
          "name": "success",
          "type": "bool"
        },
        {
          "internalType": "bytes",
          "name": "returnData",
          "type": "bytes"
        }
      ],
      "stateMutability": "nonpayable",
      "type": "function"
    },
    {
      "inputs": [
        {
          "components": [
            {
              "internalType": "enum Enum.Operation",
              "name": "op",
              "type": "uint8"
            },
            {
              "internalType": "bool",
              "name": "revertOnError",
              "type": "bool"
            },
            {
              "internalType": "uint256",
              "name": "gasLimit",
              "type": "uint256"
            },
            {
              "internalType": "address",
              "name": "target",
              "type": "address"
            },
            {
              "internalType": "uint256",
              "name": "value",
              "type": "uint256"
            },
            {
              "internalType": "bytes",
              "name": "data",
              "type": "bytes"
            }
          ],
          "internalType": "struct Transaction[]",
          "name": "_txs",
          "type": "tuple[]"
        }
      ],
      "name": "execute",
      "outputs": [],
      "stateMutability": "nonpayable",
      "type": "function"
    },
    {
      "inputs": [
        {
          "internalType": "address",
          "name": "_module",
          "type": "address"
        },
        {
          "internalType": "uint256",
          "name": "_value",
          "type": "uint256"
        },
        {
          "internalType": "bytes",
          "name": "_data",
          "type": "bytes"
        }
      ],
      "name": "executeWithModule",
      "outputs": [],
      "stateMutability": "nonpayable",
      "type": "function"
    },
    {
      "inputs": [
        {
          "components": [
            {
              "internalType": "address",
              "name": "safeSessionKey",
              "type": "address"
            },
            {
              "internalType": "uint256",
              "name": "recoverNonce",
              "type": "uint256"
            }
          ],
          "internalType": "struct SecurityManager.Recover",
          "name": "_recover",
          "type": "tuple"
        },
        {
          "internalType": "bytes",
          "name": "_authProof",
          "type": "bytes"
        },
        {
          "components": [
            {
              "internalType": "enum Enum.Operation",
              "name": "op",
              "type": "uint8"
            },
            {
              "internalType": "bool",
              "name": "revertOnError",
              "type": "bool"
            },
            {
              "internalType": "uint256",
              "name": "gasLimit",
              "type": "uint256"
            },
            {
              "internalType": "address",
              "name": "target",
              "type": "address"
            },
            {
              "internalType": "uint256",
              "name": "value",
              "type": "uint256"
            },
            {
              "internalType": "bytes",
              "name": "data",
              "type": "bytes"
            }
          ],
          "internalType": "struct Transaction[]",
          "name": "_txs",
          "type": "tuple[]"
        }
      ],
      "name": "executeWithSodiumAuthRecover",
      "outputs": [],
      "stateMutability": "nonpayable",
      "type": "function"
    },
    {
      "inputs": [
        {
          "components": [
            {
              "internalType": "address",
              "name": "sessionKey",
              "type": "address"
            },
            {
              "internalType": "bytes4",
              "name": "sessionUniqueId",
              "type": "bytes4"
            },
            {
              "internalType": "uint64",
              "name": "sessionExpires",
              "type": "uint64"
            }
          ],
          "internalType": "struct SecurityManager.AddSession",
          "name": "_addSession",
          "type": "tuple"
        },
        {
          "internalType": "bytes",
          "name": "_authProof",
          "type": "bytes"
        },
        {
          "components": [
            {
              "internalType": "enum Enum.Operation",
              "name": "op",
              "type": "uint8"
            },
            {
              "internalType": "bool",
              "name": "revertOnError",
              "type": "bool"
            },
            {
              "internalType": "uint256",
              "name": "gasLimit",
              "type": "uint256"
            },
            {
              "internalType": "address",
              "name": "target",
              "type": "address"
            },
            {
              "internalType": "uint256",
              "name": "value",
              "type": "uint256"
            },
            {
              "internalType": "bytes",
              "name": "data",
              "type": "bytes"
            }
          ],
          "internalType": "struct Transaction[]",
          "name": "_txs",
          "type": "tuple[]"
        }
      ],
      "name": "executeWithSodiumAuthSession",
      "outputs": [],
      "stateMutability": "nonpayable",
      "type": "function"
    },
    {
      "inputs": [],
      "name": "getChainId",
      "outputs": [
        {
          "internalType": "uint256",
          "name": "",
          "type": "uint256"
        }
      ],
      "stateMutability": "view",
      "type": "function"
    },
    {
      "inputs": [],
      "name": "getNonce",
      "outputs": [
        {
          "internalType": "uint256",
          "name": "",
          "type": "uint256"
        }
      ],
      "stateMutability": "view",
      "type": "function"
    },
    {
      "inputs": [],
      "name": "getSingleton",
      "outputs": [
        {
          "internalType": "address",
          "name": "_imp",
          "type": "address"
        }
      ],
      "stateMutability": "view",
      "type": "function"
    },
    {
      "inputs": [
        {
          "internalType": "address",
          "name": "module",
          "type": "address"
        }
      ],
      "name": "isModuleEnabled",
      "outputs": [
        {
          "internalType": "bool",
          "name": "",
          "type": "bool"
        }
      ],
      "stateMutability": "view",
      "type": "function"
    },
    {
      "inputs": [
        {
          "internalType": "address",
          "name": "owner",
          "type": "address"
        }
      ],
      "name": "isSessionOwner",
      "outputs": [
        {
          "internalType": "bool",
          "name": "existing",
          "type": "bool"
        },
        {
          "internalType": "bool",
          "name": "isSafe",
          "type": "bool"
        }
      ],
      "stateMutability": "view",
      "type": "function"
    },
    {
      "inputs": [],
      "name": "isSodiumSingleton",
      "outputs": [
        {
          "internalType": "bool",
          "name": "",
          "type": "bool"
        }
      ],
      "stateMutability": "pure",
      "type": "function"
    },
    {
      "inputs": [],
      "name": "salt",
      "outputs": [
        {
          "internalType": "bytes32",
          "name": "",
          "type": "bytes32"
        }
      ],
      "stateMutability": "view",
      "type": "function"
    },
    {
      "inputs": [
        {
          "internalType": "address",
          "name": "handler",
          "type": "address"
        }
      ],
      "name": "setFallbackHandler",
      "outputs": [],
      "stateMutability": "nonpayable",
      "type": "function"
    },
    {
      "inputs": [
        {
          "internalType": "contract ISodiumAuth",
          "name": "_auth",
          "type": "address"
        }
      ],
      "name": "setSodiumNetworkAuth",
      "outputs": [],
      "stateMutability": "nonpayable",
      "type": "function"
    },
    {
      "inputs": [
        {
          "internalType": "contract IUserOperationValidator",
          "name": "_validator",
          "type": "address"
        }
      ],
      "name": "setUserOperationValidator",
      "outputs": [],
      "stateMutability": "nonpayable",
      "type": "function"
    },
    {
      "inputs": [
        {
          "internalType": "contract ISodiumAuth",
          "name": "_sodiumAuth",
          "type": "address"
        },
        {
          "internalType": "address",
          "name": "_fallbackHandler",
          "type": "address"
        },
        {
          "internalType": "address",
          "name": "_opValidator",
          "type": "address"
        },
        {
          "internalType": "bytes32",
          "name": "_salt",
          "type": "bytes32"
        }
      ],
      "name": "setup",
      "outputs": [],
      "stateMutability": "nonpayable",
      "type": "function"
    },
    {
      "inputs": [
        {
          "internalType": "contract Sodium",
          "name": "newSingleton",
          "type": "address"
        }
      ],
      "name": "upgradeTo",
      "outputs": [],
      "stateMutability": "nonpayable",
      "type": "function"
    },
    {
      "inputs": [
        {
          "components": [
            {
              "internalType": "address",
              "name": "sessionKey",
              "type": "address"
            },
            {
              "internalType": "bytes4",
              "name": "sessionUniqueId",
              "type": "bytes4"
            },
            {
              "internalType": "uint64",
              "name": "sessionExpires",
              "type": "uint64"
            }
          ],
          "internalType": "struct SecurityManager.AddSession",
          "name": "_addSession",
          "type": "tuple"
        },
        {
          "internalType": "bytes",
          "name": "_authProof",
          "type": "bytes"
        }
      ],
      "name": "validateAddSessionProof",
      "outputs": [],
      "stateMutability": "view",
      "type": "function"
    },
    {
      "inputs": [
        {
          "components": [
            {
              "internalType": "address",
              "name": "safeSessionKey",
              "type": "address"
            },
            {
              "internalType": "uint256",
              "name": "recoverNonce",
              "type": "uint256"
            }
          ],
          "internalType": "struct SecurityManager.Recover",
          "name": "_recover",
          "type": "tuple"
        },
        {
          "internalType": "bytes",
          "name": "_authProof",
          "type": "bytes"
        }
      ],
      "name": "validateRecoverProof",
      "outputs": [],
      "stateMutability": "nonpayable",
      "type": "function"
    },
    {
      "inputs": [
        {
          "components": [
            {
              "internalType": "address",
              "name": "sender",
              "type": "address"
            },
            {
              "internalType": "uint256",
              "name": "nonce",
              "type": "uint256"
            },
            {
              "internalType": "bytes",
              "name": "initCode",
              "type": "bytes"
            },
            {
              "internalType": "bytes",
              "name": "callData",
              "type": "bytes"
            },
            {
              "internalType": "uint256",
              "name": "callGasLimit",
              "type": "uint256"
            },
            {
              "internalType": "uint256",
              "name": "verificationGasLimit",
              "type": "uint256"
            },
            {
              "internalType": "uint256",
              "name": "preVerificationGas",
              "type": "uint256"
            },
            {
              "internalType": "uint256",
              "name": "maxFeePerGas",
              "type": "uint256"
            },
            {
              "internalType": "uint256",
              "name": "maxPriorityFeePerGas",
              "type": "uint256"
            },
            {
              "internalType": "bytes",
              "name": "paymasterAndData",
              "type": "bytes"
            },
            {
              "internalType": "bytes",
              "name": "signature",
              "type": "bytes"
            }
          ],
          "internalType": "struct UserOperation",
          "name": "userOp",
          "type": "tuple"
        },
        {
          "internalType": "bytes32",
          "name": "userOpHash",
          "type": "bytes32"
        },
        {
          "internalType": "uint256",
          "name": "missingAccountFunds",
          "type": "uint256"
        }
      ],
      "name": "validateUserOp",
      "outputs": [
        {
          "internalType": "uint256",
          "name": "validationData",
          "type": "uint256"
        }
      ],
      "stateMutability": "nonpayable",
      "type": "function"
    },
    {
      "stateMutability": "payable",
      "type": "receive"
    }
  ],
  "transactionHash": "0x284f22b03192ed1763cd6b82d3afe71797e92961ee40989145bc0f331e3f3fc2",
  "args": [
    "0x5FF137D4b0FDCD49DcA30c7CF57E578a026d2789"
  ],
  "numDeployments": 1,
  "solcInputHash": "40d31fc5624b52257932c2d168439003",
  "bytecode": "0x60a06040523480156200001157600080fd5b5060405162002fb838038062002fb8833981016040819052620000349162000046565b6001600160a01b031660805262000078565b6000602082840312156200005957600080fd5b81516001600160a01b03811681146200007157600080fd5b9392505050565b608051612f0f620000a9600039600081816104dc0152818161052601528181610ee301526112250152612f0f6000f3fe6080604052600436106101d15760003560e01c8063a95f5246116100f7578063cb103d7011610095578063f08a032311610064578063f08a03231461063b578063f3a961ca1461065b578063f698da251461067b578063ffa1ad74146106905761020d565b8063cb103d70146105d2578063d087d288146105e6578063d3874edf146105fb578063eb7617181461061b5761020d565b8063b964f878116100d1578063b964f87814610548578063bbc1c74f1461057c578063bfa0b1331461059c578063c300981e146105b25761020d565b8063a95f5246146104ad578063b0d691fe146104cd578063b3080c24146105145761020d565b80633a871cdd1161016f578063610b59251161013e578063610b592514610439578063861067261461045957806391ca23d914610479578063a71d052b146104995761020d565b80633a871cdd14610394578063468721a7146103b45780634b574a02146103d45780635229073f1461040b5761020d565b80632d9ad53d116101ab5780632d9ad53d146102d55780633408e470146103235780633659cfe614610340578063378cf804146103605761020d565b80630d192f8d1461027357806328f8aa4d146102955780632906737d146102b55761020d565b3661020d5760405134815233907f9820dd13494dd7d9f03807aa0bb724fe8266855b5ac4db99848a199904f8074b9060200160405180910390a2005b34801561021957600080fd5b507f6c9a6c4a39284e37ed1cf53d337577d14212a4870fb976a4366c693b939918d580548061024457005b36600080373360601b365260008060143601600080855af190503d6000803e8061026d573d6000fd5b503d6000f35b34801561027f57600080fd5b5061029361028e3660046123f0565b6106ce565b005b3480156102a157600080fd5b506102936102b0366004612483565b61070f565b3480156102c157600080fd5b506102936102d036600461250b565b6107a9565b3480156102e157600080fd5b5061030e6102f036600461255c565b6001600160a01b031660009081526001602052604090205460ff1690565b60405190151581526020015b60405180910390f35b34801561032f57600080fd5b50465b60405190815260200161031a565b34801561034c57600080fd5b5061029361035b36600461255c565b61089c565b34801561036c57600080fd5b506103327fdb53bc3f8ea86d0def94644136fcf091e6d7df8e8b19de81f3850704cf35d46881565b3480156103a057600080fd5b506103326103af366004612579565b610956565b3480156103c057600080fd5b5061030e6103cf3660046126b8565b610985565b3480156103e057600080fd5b506103f46103ef36600461255c565b610a47565b60408051921515835290151560208301520161031a565b34801561041757600080fd5b5061042b6104263660046126b8565b610b57565b60405161031a929190612771565b34801561044557600080fd5b5061029361045436600461255c565b610b8d565b34801561046557600080fd5b5061029361047436600461255c565b610c44565b34801561048557600080fd5b5061029361049436600461278c565b610c55565b3480156104a557600080fd5b50600161030e565b3480156104b957600080fd5b506102936104c836600461255c565b610da6565b3480156104d957600080fd5b507f00000000000000000000000000000000000000000000000000000000000000005b6040516001600160a01b03909116815260200161031a565b34801561052057600080fd5b506104fc7f000000000000000000000000000000000000000000000000000000000000000081565b34801561055457600080fd5b506103327f31829d07c4d3c646006e946f988ff19ce6e7b36b244862de7ad825b17bd54d5281565b34801561058857600080fd5b5061029361059736600461280e565b610e51565b3480156105a857600080fd5b5061033260065481565b3480156105be57600080fd5b506102936105cd36600461287b565b610e62565b3480156105de57600080fd5b5030546104fc565b3480156105f257600080fd5b50610332610edf565b34801561060757600080fd5b506102936106163660046128d3565b610f78565b34801561062757600080fd5b50610293610636366004612a19565b611137565b34801561064757600080fd5b5061029361065636600461255c565b611148565b34801561066757600080fd5b5061029361067636600461255c565b6111b1565b34801561068757600080fd5b506103326111c2565b34801561069c57600080fd5b506106c160405180604001604052806005815260200164302e302e3160d81b81525081565b60405161031a9190612a61565b6106d661121a565b6106e1858585610f78565b6106f66106f1602087018761255c565b611294565b6107086107038284612a74565b61131d565b5050505050565b61071761121a565b610722858585610c55565b60408051606081019091526000908061073e602089018961255c565b6001600160a01b0316815260200187602001602081019061075f9190612a81565b6001600160e01b031916815260200161077e6060890160408a01612a9c565b6001600160401b031690529050610794816114f4565b6107a16107038385612a74565b505050505050565b60055460ff16156107f75760405162461bcd60e51b8152602060048201526013602482015272105b1c9958591e481a5b9a5d1a585b1a5e9959606a1b60448201526064015b60405180910390fd5b6001600160a01b03831661084d5760405162461bcd60e51b815260206004820152601960248201527f52657175697265642066616c6c6261636b2068616e646c65720000000000000060448201526064016107ee565b6005805460ff19166001179055610882837f6c9a6c4a39284e37ed1cf53d337577d14212a4870fb976a4366c693b939918d555565b61088b8461172c565b61089482611793565b600655505050565b6108a46117f6565b806001600160a01b031663a71d052b6040518163ffffffff1660e01b8152600401602060405180830381865afa1580156108e2573d6000803e3d6000fd5b505050506040513d601f19601f820116820180604052508101906109069190612ab7565b61094b5760405162461bcd60e51b81526020600482015260166024820152752737ba10309029b7b234bab69039b4b733b632ba37b760511b60448201526064016107ee565b610953813055565b50565b600061096061121a565b61096a848461182d565b905061097582611d6c565b61097e84611db9565b9392505050565b3360009081526001602052604081205460ff166109ce5760405162461bcd60e51b815260206004820152600760248201526614d113534c4c0d60ca1b60448201526064016107ee565b6109db858585855a611fb0565b90508015610a135760405133907f6895c13664aa4f67288b25d7a21d7aaa34916e355fb9b6fae0a139a9085becb890600090a2610a3f565b60405133907facd2c8702804128fdb0db2bb49f6d127dd0181c13fd45dbfe16de0930e2bd37590600090a25b949350505050565b6000806001600160a01b038316610a6357506000928392509050565b6004546001600160a01b0390811680151591851603610a885750600193849350915050565b6001600160a01b0384811660009081526003602090815260408083205460e090811b6001600160e01b03198181168652600285529483902083516060810185529054968716808252600160a01b880490931b90951693850193909352600160c01b9094046001600160401b03169083015291610b0c57506000958695509350505050565b600081604001516001600160401b0316118015610b3557504281604001516001600160401b0316105b15610b4857506000958695509350505050565b50600195911594509092505050565b60006060610b6786868686610985565b915060405160203d0181016040523d81523d6000602083013e8091505094509492505050565b610b956117f6565b6001600160a01b03811660009081526001602052604090205460ff1615610be85760405162461bcd60e51b815260206004820152600760248201526653444d4d31303160c81b60448201526064016107ee565b6001600160a01b038116600081815260016020818152604092839020805460ff191690921790915590519182527fecdf3a3effea5783a3c4c2140e677577666428d44ed9d474a0b3a4c9943f844091015b60405180910390a150565b610c4c6117f6565b61095381611793565b42610c666060850160408601612a9c565b6001600160401b031611610ca55760405162461bcd60e51b8152602060048201526006602482015265534d4153303560d01b60448201526064016107ee565b60007f31829d07c4d3c646006e946f988ff19ce6e7b36b244862de7ad825b17bd54d5284604051602001610cda929190612ad4565b6040516020818303038152906040528051906020012090506000610cfd82611ff7565b90506000610d297fe5230392f47deb1a37e1df3b9ee1d04b8a457138ebb1a61edeb61872e6c423225490565b6040516348203b0760e01b81529091506001600160a01b038216906348203b0790610d5c90859089908990600401612b5d565b602060405180830381865afa158015610d79573d6000803e3d6000fd5b505050506040513d601f19601f82011682018060405250810190610d9d9190612ab7565b50505050505050565b610dae6117f6565b6001600160a01b03811660009081526001602052604090205460ff16610e005760405162461bcd60e51b815260206004820152600760248201526653444d4d31303160c81b60448201526064016107ee565b6001600160a01b038116600081815260016020908152604091829020805460ff1916905590519182527faab4fa2b463f581b2b32cb3b7e3b704b9ce37cc209b5fb4d77e593ace40542769101610c39565b610e596117f6565b610953816114f4565b610e6a61121a565b60006060846001600160a01b0316845a9085604051610e899190612b77565b600060405180830381858888f193505050503d8060008114610ec7576040519150601f19603f3d011682016040523d82523d6000602084013e610ecc565b606091505b5090925090508161070857805160208201fd5b60007f0000000000000000000000000000000000000000000000000000000000000000604051631aab3f0d60e11b8152306004820152600060248201526001600160a01b0391909116906335567e1a90604401602060405180830381865afa158015610f4f573d6000803e3d6000fd5b505050506040513d601f19601f82011682018060405250810190610f739190612b93565b905090565b7febd64025eccab0d68ffd8dbdf22f162b40c6e98dc2bf27a2eabea8004135b99f5483602001351015610fd55760405162461bcd60e51b8152602060048201526005602482015264534d52303160d81b60448201526064016107ee565b60007fdb53bc3f8ea86d0def94644136fcf091e6d7df8e8b19de81f3850704cf35d4688460405160200161100a929190612bac565b604051602081830303815290604052805190602001209050600061102d82611ff7565b905060006110597fe5230392f47deb1a37e1df3b9ee1d04b8a457138ebb1a61edeb61872e6c423225490565b6040516348203b0760e01b81529091506001600160a01b038216906348203b079061108c90859089908990600401612b5d565b602060405180830381865afa1580156110a9573d6000803e3d6000fd5b505050506040513d601f19601f820116820180604052508101906110cd9190612ab7565b6111015760405162461bcd60e51b8152602060048201526005602482015264534d52303360d81b60448201526064016107ee565b6107a161111360208801356001612bf6565b7febd64025eccab0d68ffd8dbdf22f162b40c6e98dc2bf27a2eabea8004135b99f55565b61113f61121a565b6109538161131d565b6111506117f6565b611178817f6c9a6c4a39284e37ed1cf53d337577d14212a4870fb976a4366c693b939918d555565b6040516001600160a01b03821681527f5ac6c46c93c8d0e53714ba3b53db3e7c046da994313d7ed0d192028bc7c228b090602001610c39565b6111b96117f6565b6109538161172c565b60007f47e79534a245952e8b16893a336b85a3d9ea9fa8c573f3d803afb92a79469218466040805160208101939093528201523060608201526080015b60405160208183030381529060405280519060200120905090565b336001600160a01b037f000000000000000000000000000000000000000000000000000000000000000016146112925760405162461bcd60e51b815260206004820152601c60248201527f6163636f756e743a206e6f742066726f6d20456e747279506f696e740000000060448201526064016107ee565b565b604080516060810182526001600160a01b038316808252635cea321160e11b602080840191909152600083850152600480546001600160c01b0319168317635cea321160a11b176001600160c01b03169055925190815290917ffa12114790d31d64c8d58b8d82cc1ee4a33374f9722f0327d08db01f53658cf891015b60405180910390a15050565b60005b81518110156114f057600082828151811061133d5761133d612c09565b602002602001015190506000606082604001515a10156113985760405162461bcd60e51b8152602060048201526016602482015275536f6469756d3a204e4f545f454e4f5547485f47415360501b60448201526064016107ee565b6001835160018111156113ad576113ad612c1f565b036114365782606001516001600160a01b031683604001516000146113d65783604001516113d8565b5a5b8460a001516040516113ea9190612b77565b6000604051808303818686f4925050503d8060008114611426576040519150601f19603f3d011682016040523d82523d6000602084013e61142b565b606091505b5090925090506114be565b82606001516001600160a01b03168360800151846040015160001461145f578460400151611461565b5a5b908560a001516040516114749190612b77565b600060405180830381858888f193505050503d80600081146114b2576040519150601f19603f3d011682016040523d82523d6000602084013e6114b7565b606091505b5090925090505b811580156114cd575082602001515b156114da57805160208201fd5b50505080806114e890612c35565b915050611320565b5050565b80516001600160a01b03166115575760405162461bcd60e51b8152602060048201526024808201527f73657373696f6e206f776e65722063616e6e6f74206265207a65726f206164646044820152637265737360e01b60648201526084016107ee565b600081604001516001600160401b0316116115c65760405162461bcd60e51b815260206004820152602960248201527f73657373696f6e2065787069726573206d7573742062652067726561746572206044820152687468616e207a65726f60b81b60648201526084016107ee565b6020818101516001600160e01b0319908116600090815260028352604090819020815160608101835290546001600160a01b038116808352600160a01b820460e01b90941694820194909452600160c01b9093046001600160401b031690830152156116515780516001600160a01b03166000908152600360205260409020805463ffffffff191690555b602082810180516001600160e01b03199081166000908152600284526040808220875181548651848b0180516001600160a01b039485166001600160c01b03199094168417600160a01b60e09490941c938402176001600160c01b0316600160c01b6001600160401b0392831602179095559186526003895294849020805463ffffffff1916909517909455855183518a51909216825295518516968101969096529151909116908401521660608201527f01e74df6c6bdc37dc1afe188087562a38bed53bd10947c71b129ee4004ce92e890608001611311565b6001600160a01b03811661176b5760405162461bcd60e51b81526004016107ee9060208082526004908201526314d34c0d60e21b604082015260600190565b610953817fe5230392f47deb1a37e1df3b9ee1d04b8a457138ebb1a61edeb61872e6c4232255565b6001600160a01b0381166117d25760405162461bcd60e51b8152602060048201526006602482015265534d4f50303160d01b60448201526064016107ee565b7f26af6f34783f6c05ad199b86190c89039b6a27ab2bac01a0ef363037be08c64e55565b3330146112925760405162461bcd60e51b8152602060048201526005602482015264475330333160d81b60448201526064016107ee565b60008061183d6060850185612c4e565b61184c91600491600091612c94565b61185591612cbe565b905060006118628461203f565b9050611872610140860186612c4e565b905060000361188657600192505050611d66565b60006118d48261189a610140890189612c4e565b8080601f01602080910402602001604051908101604052809392919081815260200183838082843760009201919091525061207a92505050565b6006546040516bffffffffffffffffffffffff19606084901b1660208201529192509060340160405160208183030381529060405280519060200120036119215760009350505050611d66565b63f2e6d07360e01b6001600160e01b03198416016119c1576000806119496060890189612c4e565b61195891602491601091612c94565b8080601f0160208091040260200160405190810160405280939291908181526020018383808284376000920191909152505050506014810151925090506001600160a01b03838116908316146119af5760016119b2565b60005b60ff1695505050505050611d66565b63d70755b360e01b6001600160e01b0319841601611b0c576000806119e96060890189612c4e565b6119f891602491601091612c94565b8080601f016020809104026020016040519081016040528093929190818152602001838380828437600092018290525060148501516004549097509495506001600160a01b0390941615939250611a51915061209e9050565b905081611acf57604051638393db0b60e01b81526002906001600160a01b03831690638393db0b90611a87908e90600401612e2a565b602060405180830381865afa158015611aa4573d6000803e3d6000fd5b505050506040513d601f19601f82011682018060405250810190611ac89190612e3d565b60ff161091505b846001600160a01b0316846001600160a01b0316148015611aed5750815b611af8576001611afb565b60005b60ff16975050505050505050611d66565b631e7fb3f160e11b6001600160e01b0319841601611c3357600080611b346060890189612c4e565b611b4391602491601091612c94565b8080601f016020809104026020016040519081016040528093929190818152602001838380828437600092019190915250505060148201519350909150611ba49050826001600160a01b031660009081526001602052604090205460ff1690565b611bb657600195505050505050611d66565b604051631179c1f560e11b81526001600160a01b038316906322f383ea90611be4908b908b90600401612e60565b6020604051808303816000875af1158015611c03573d6000803e3d6000fd5b505050506040513d601f19601f82011682018060405250810190611c279190612b93565b95505050505050611d66565b6302913d1d60e31b6001600160e01b0319841601611d2b57600080611c5783610a47565b915091506000611c857f26af6f34783f6c05ad199b86190c89039b6a27ab2bac01a0ef363037be08c64e5490565b905081611d0357604051638393db0b60e01b81526002906001600160a01b03831690638393db0b90611cbb908d90600401612e2a565b602060405180830381865afa158015611cd8573d6000803e3d6000fd5b505050506040513d601f19601f82011682018060405250810190611cfc9190612e3d565b60ff161091505b828015611d0d5750815b611d18576001611d1b565b60005b60ff169650505050505050611d66565b60405162461bcd60e51b815260206004820152601060248201526f1a5b9d985b1a59081b595d1a1bd9125960821b60448201526064016107ee565b92915050565b801561095357604051600090339060001990849084818181858888f193505050503d8060008114610708576040519150601f19603f3d011682016040523d82523d6000602084013e610708565b366000611dca610120840184612c4e565b9092509050602c8114611ddc57505050565b63095ea7b360e01b611df2601860148486612c94565b611dfb91612cbe565b6001600160e01b03191603611fab576000611e196014828486612c94565b611e2291612e82565b60601c90506000611e368360188187612c94565b611e3f91612e82565b6040516382d2d97160e01b815260609190911c60048201819052915060009081906001600160a01b038516906382d2d971906024016040805180830381865afa158015611e90573d6000803e3d6000fd5b505050506040513d601f19601f82011682018060405250810190611eb49190612eb5565b604051636eb1769f60e11b81523060048201526001600160a01b038781166024830152929450909250839185169063dd62ed3e90604401602060405180830381865afa158015611f08573d6000803e3d6000fd5b505050506040513d601f19601f82011682018060405250810190611f2c9190612b93565b1015610d9d5760405163095ea7b360e01b81526001600160a01b0385811660048301526024820183905284169063095ea7b3906044016020604051808303816000875af1158015611f81573d6000803e3d6000fd5b505050506040513d601f19601f82011682018060405250810190611fa59190612ab7565b50505050505b505050565b60006001836001811115611fc657611fc6612c1f565b03611fde576000808551602087018986f49050611fee565b600080855160208701888a87f190505b95945050505050565b60006120016120c3565b60405161190160f01b60208201526022810191909152604281018390526062015b604051602081830303815290604052805190602001209050919050565b6040517f19457468657265756d205369676e6564204d6573736167653a0a3332000000006020820152603c8101829052600090605c01612022565b60008060006120898585612100565b9150915061209681612145565b509392505050565b7f26af6f34783f6c05ad199b86190c89039b6a27ab2bac01a0ef363037be08c64e5490565b604080517f035aff83d86937d35b32e04f0ddc6ff469290eef2f1b692d8a815c89404d4749602082015230918101919091526000906060016111ff565b60008082516041036121365760208301516040840151606085015160001a61212a8782858561228f565b9450945050505061213e565b506000905060025b9250929050565b600081600481111561215957612159612c1f565b036121615750565b600181600481111561217557612175612c1f565b036121c25760405162461bcd60e51b815260206004820152601860248201527f45434453413a20696e76616c6964207369676e6174757265000000000000000060448201526064016107ee565b60028160048111156121d6576121d6612c1f565b036122235760405162461bcd60e51b815260206004820152601f60248201527f45434453413a20696e76616c6964207369676e6174757265206c656e6774680060448201526064016107ee565b600381600481111561223757612237612c1f565b036109535760405162461bcd60e51b815260206004820152602260248201527f45434453413a20696e76616c6964207369676e6174757265202773272076616c604482015261756560f01b60648201526084016107ee565b6000807f7fffffffffffffffffffffffffffffff5d576e7357a4501ddfe92f46681b20a08311156122c6575060009050600361234a565b6040805160008082526020820180845289905260ff881692820192909252606081018690526080810185905260019060a0016020604051602081039080840390855afa15801561231a573d6000803e3d6000fd5b5050604051601f1901519150506001600160a01b0381166123435760006001925092505061234a565b9150600090505b94509492505050565b60006040828403121561236557600080fd5b50919050565b60008083601f84011261237d57600080fd5b5081356001600160401b0381111561239457600080fd5b60208301915083602082850101111561213e57600080fd5b60008083601f8401126123be57600080fd5b5081356001600160401b038111156123d557600080fd5b6020830191508360208260051b850101111561213e57600080fd5b60008060008060006080868803121561240857600080fd5b6124128787612353565b945060408601356001600160401b038082111561242e57600080fd5b61243a89838a0161236b565b9096509450606088013591508082111561245357600080fd5b50612460888289016123ac565b969995985093965092949392505050565b60006060828403121561236557600080fd5b600080600080600060a0868803121561249b57600080fd5b6124a58787612471565b945060608601356001600160401b03808211156124c157600080fd5b6124cd89838a0161236b565b9096509450608088013591508082111561245357600080fd5b6001600160a01b038116811461095357600080fd5b8035612506816124e6565b919050565b6000806000806080858703121561252157600080fd5b843561252c816124e6565b9350602085013561253c816124e6565b9250604085013561254c816124e6565b9396929550929360600135925050565b60006020828403121561256e57600080fd5b813561097e816124e6565b60008060006060848603121561258e57600080fd5b83356001600160401b038111156125a457600080fd5b840161016081870312156125b757600080fd5b95602085013595506040909401359392505050565b634e487b7160e01b600052604160045260246000fd5b60405160c081016001600160401b0381118282101715612604576126046125cc565b60405290565b604051601f8201601f191681016001600160401b0381118282101715612632576126326125cc565b604052919050565b600082601f83011261264b57600080fd5b81356001600160401b03811115612664576126646125cc565b612677601f8201601f191660200161260a565b81815284602083860101111561268c57600080fd5b816020850160208301376000918101602001919091529392505050565b80356002811061250657600080fd5b600080600080608085870312156126ce57600080fd5b84356126d9816124e6565b93506020850135925060408501356001600160401b038111156126fb57600080fd5b6127078782880161263a565b925050612716606086016126a9565b905092959194509250565b60005b8381101561273c578181015183820152602001612724565b50506000910152565b6000815180845261275d816020860160208601612721565b601f01601f19169290920160200192915050565b8215158152604060208201526000610a3f6040830184612745565b6000806000608084860312156127a157600080fd5b6127ab8585612471565b925060608401356001600160401b038111156127c657600080fd5b6127d28682870161236b565b9497909650939450505050565b80356001600160e01b03198116811461250657600080fd5b80356001600160401b038116811461250657600080fd5b60006060828403121561282057600080fd5b604051606081018181106001600160401b0382111715612842576128426125cc565b6040528235612850816124e6565b815261285e602084016127df565b602082015261286f604084016127f7565b60408201529392505050565b60008060006060848603121561289057600080fd5b833561289b816124e6565b92506020840135915060408401356001600160401b038111156128bd57600080fd5b6128c98682870161263a565b9150509250925092565b6000806000606084860312156128e857600080fd5b6128f28585612353565b925060408401356001600160401b038111156127c657600080fd5b801515811461095357600080fd5b60006001600160401b0380841115612935576129356125cc565b8360051b602061294681830161260a565b8681529350908401908084018783111561295f57600080fd5b855b83811015612a0d578035858111156129795760008081fd5b870160c0818b03121561298c5760008081fd5b6129946125e2565b61299d826126a9565b8152848201356129ac8161290d565b81860152604082810135908201526060808301356129c9816124e6565b908201526080828101359082015260a080830135888111156129eb5760008081fd5b6129f78d82860161263a565b9183019190915250835250908201908201612961565b50505050509392505050565b600060208284031215612a2b57600080fd5b81356001600160401b03811115612a4157600080fd5b8201601f81018413612a5257600080fd5b610a3f8482356020840161291b565b60208152600061097e6020830184612745565b600061097e36848461291b565b600060208284031215612a9357600080fd5b61097e826127df565b600060208284031215612aae57600080fd5b61097e826127f7565b600060208284031215612ac957600080fd5b815161097e8161290d565b828152608081018235612ae6816124e6565b6001600160a01b03166020838101919091526001600160e01b031990612b0d9085016127df565b1660408301526001600160401b03612b27604085016127f7565b1660608301529392505050565b81835281816020850137506000828201602090810191909152601f909101601f19169091010190565b838152604060208201526000611fee604083018486612b34565b60008251612b89818460208701612721565b9190910192915050565b600060208284031215612ba557600080fd5b5051919050565b828152606081018235612bbe816124e6565b6001600160a01b03166020838101919091529290920135604090910152919050565b634e487b7160e01b600052601160045260246000fd5b80820180821115611d6657611d66612be0565b634e487b7160e01b600052603260045260246000fd5b634e487b7160e01b600052602160045260246000fd5b600060018201612c4757612c47612be0565b5060010190565b6000808335601e19843603018112612c6557600080fd5b8301803591506001600160401b03821115612c7f57600080fd5b60200191503681900382131561213e57600080fd5b60008085851115612ca457600080fd5b83861115612cb157600080fd5b5050820193919092039150565b6001600160e01b03198135818116916004851015612ce65780818660040360031b1b83161692505b505092915050565b6000808335601e19843603018112612d0557600080fd5b83016020810192503590506001600160401b03811115612d2457600080fd5b80360382131561213e57600080fd5b6000610160612d5284612d45856124fb565b6001600160a01b03169052565b60208301356020850152612d696040840184612cee565b826040870152612d7c8387018284612b34565b92505050612d8d6060840184612cee565b8583036060870152612da0838284612b34565b925050506080830135608085015260a083013560a085015260c083013560c085015260e083013560e0850152610100808401358186015250610120612de781850185612cee565b86840383880152612df9848284612b34565b9350505050610140612e0d81850185612cee565b86840383880152612e1f848284612b34565b979650505050505050565b60208152600061097e6020830184612d33565b600060208284031215612e4f57600080fd5b815160ff8116811461097e57600080fd5b604081526000612e736040830185612d33565b90508260208301529392505050565b6bffffffffffffffffffffffff198135818116916014851015612ce65760149490940360031b84901b1690921692915050565b60008060408385031215612ec857600080fd5b50508051602090910151909290915056fea264697066735822122061436a6359c0d02d7f227b957ef90b5092051e61140693f5d8ae5ec5607cd53364736f6c63430008110033",
  "devdoc": {
    "kind": "dev",
    "methods": {
      "disableModule(address)": {
        "details": "Allows to remove a module from the whitelist.      This can only be done via a Safe transaction.",
        "params": {
          "module": "Module to be removed."
        }
      },
      "enableModule(address)": {
        "details": "Allows to add a module to the whitelist.      This can only be done via a Safe transaction.",
        "params": {
          "module": "Module to be whitelisted."
        }
      },
      "execTransactionFromModule(address,uint256,bytes,uint8)": {
        "details": "Allows a Module to execute a Safe transaction without any further confirmations.",
        "params": {
          "data": "Data payload of module transaction.",
          "operation": "Operation type of module transaction.",
          "to": "Destination address of module transaction.",
          "value": "Ether value of module transaction."
        }
      },
      "execTransactionFromModuleReturnData(address,uint256,bytes,uint8)": {
        "details": "Allows a Module to execute a Safe transaction without any further confirmations and return data",
        "params": {
          "data": "Data payload of module transaction.",
          "operation": "Operation type of module transaction.",
          "to": "Destination address of module transaction.",
          "value": "Ether value of module transaction."
        }
      },
      "execute((uint8,bool,uint256,address,uint256,bytes)[])": {
        "details": "Relayers must ensure that the gasLimit specified for each transaction      is acceptable to them. A user could specify large enough that it could      consume all the gas available.",
        "params": {
          "_txs": "Transactions to process"
        }
      },
      "getChainId()": {
        "details": "Returns the chain id used by this contract."
      },
      "getSingleton()": {
        "returns": {
          "_imp": "The address of the current Wallet implementation"
        }
      },
      "isModuleEnabled(address)": {
        "details": "Returns if an module is enabled",
        "returns": {
          "_0": "True if the module is enabled"
        }
      },
      "setFallbackHandler(address)": {
        "details": "Allows to add a contract to handle fallback calls.      Only fallback calls without value and with data will be forwarded.      This can only be done via a Safe transaction.",
        "params": {
          "handler": "contract to handle fallbacks calls."
        }
      }
    },
    "version": 1
  },
  "userdoc": {
    "kind": "user",
    "methods": {
      "disableModule(address)": {
        "notice": "Disables the module `module` for the Safe."
      },
      "enableModule(address)": {
        "notice": "Enables the module `module` for the Safe."
      },
      "entryPoint()": {
        "notice": "return the entryPoint used by this account. subclass should return the current entryPoint used by this account."
      },
      "execute((uint8,bool,uint256,address,uint256,bytes)[])": {
        "notice": "Allow eip-4337 entryPoint or wallet self to execute an action"
      },
      "getNonce()": {
        "notice": "Return the account nonce. This method returns the next sequential nonce. For a nonce of a specific key, use `entrypoint.getNonce(account, key)`"
      },
      "getSingleton()": {
        "notice": "Returns the Wallet implementation"
      },
      "validateUserOp((address,uint256,bytes,bytes,uint256,uint256,uint256,uint256,uint256,bytes,bytes),bytes32,uint256)": {
        "notice": "Validate user's signature and nonce. subclass doesn't need to override this method. Instead, it should override the specific internal validation methods."
      }
    },
    "version": 1
  },
  "storageLayout": {
    "storage": [
      {
        "astId": 3226,
        "contract": "contracts/Sodium.sol:Sodium",
        "label": "_singleton",
        "offset": 0,
        "slot": "0",
        "type": "t_address"
      },
      {
        "astId": 2407,
        "contract": "contracts/Sodium.sol:Sodium",
        "label": "modules",
        "offset": 0,
        "slot": "1",
        "type": "t_mapping(t_address,t_bool)"
      },
      {
        "astId": 2931,
        "contract": "contracts/Sodium.sol:Sodium",
        "label": "_sessions",
        "offset": 0,
        "slot": "2",
        "type": "t_mapping(t_bytes4,t_struct(Session)2926_storage)"
      },
      {
        "astId": 2935,
        "contract": "contracts/Sodium.sol:Sodium",
        "label": "_ownerToUniqueId",
        "offset": 0,
        "slot": "3",
        "type": "t_mapping(t_address,t_bytes4)"
      },
      {
        "astId": 2938,
        "contract": "contracts/Sodium.sol:Sodium",
        "label": "_safeSession",
        "offset": 0,
        "slot": "4",
        "type": "t_struct(Session)2926_storage"
      },
      {
        "astId": 1572,
        "contract": "contracts/Sodium.sol:Sodium",
        "label": "initialized",
        "offset": 0,
        "slot": "5",
        "type": "t_bool"
      },
      {
        "astId": 1576,
        "contract": "contracts/Sodium.sol:Sodium",
        "label": "salt",
        "offset": 0,
        "slot": "6",
        "type": "t_bytes32"
      }
    ],
    "types": {
      "t_address": {
        "encoding": "inplace",
        "label": "address",
        "numberOfBytes": "20"
      },
      "t_bool": {
        "encoding": "inplace",
        "label": "bool",
        "numberOfBytes": "1"
      },
      "t_bytes32": {
        "encoding": "inplace",
        "label": "bytes32",
        "numberOfBytes": "32"
      },
      "t_bytes4": {
        "encoding": "inplace",
        "label": "bytes4",
        "numberOfBytes": "4"
      },
      "t_mapping(t_address,t_bool)": {
        "encoding": "mapping",
        "key": "t_address",
        "label": "mapping(address => bool)",
        "numberOfBytes": "32",
        "value": "t_bool"
      },
      "t_mapping(t_address,t_bytes4)": {
        "encoding": "mapping",
        "key": "t_address",
        "label": "mapping(address => bytes4)",
        "numberOfBytes": "32",
        "value": "t_bytes4"
      },
      "t_mapping(t_bytes4,t_struct(Session)2926_storage)": {
        "encoding": "mapping",
        "key": "t_bytes4",
        "label": "mapping(bytes4 => struct SessionManager.Session)",
        "numberOfBytes": "32",
        "value": "t_struct(Session)2926_storage"
      },
      "t_struct(Session)2926_storage": {
        "encoding": "inplace",
        "label": "struct SessionManager.Session",
        "members": [
          {
            "astId": 2921,
            "contract": "contracts/Sodium.sol:Sodium",
            "label": "owner",
            "offset": 0,
            "slot": "0",
            "type": "t_address"
          },
          {
            "astId": 2923,
            "contract": "contracts/Sodium.sol:Sodium",
            "label": "uniqueId",
            "offset": 20,
            "slot": "0",
            "type": "t_bytes4"
          },
          {
            "astId": 2925,
            "contract": "contracts/Sodium.sol:Sodium",
            "label": "expires",
            "offset": 24,
            "slot": "0",
            "type": "t_uint64"
          }
        ],
        "numberOfBytes": "32"
      },
      "t_uint64": {
        "encoding": "inplace",
        "label": "uint64",
        "numberOfBytes": "8"
      }
    }
  }
}