{
  "address": "0x8987ECEa30337FD2ebC5A07Da0cc6EFFCc051BE6",
  "abi": [
    {
      "inputs": [],
      "stateMutability": "nonpayable",
      "type": "constructor"
    },
    {
      "inputs": [],
      "name": "DuplicateOperators",
      "type": "error"
    },
    {
      "inputs": [],
      "name": "InvalidOperators",
      "type": "error"
    },
    {
      "inputs": [],
      "name": "InvalidThreshold",
      "type": "error"
    },
    {
      "inputs": [],
      "name": "InvalidWeights",
      "type": "error"
    },
    {
      "inputs": [],
      "name": "LowSignaturesWeight",
      "type": "error"
    },
    {
      "inputs": [],
      "name": "MalformedSigners",
      "type": "error"
    },
    {
      "anonymous": false,
      "inputs": [
        {
          "indexed": false,
          "internalType": "address[]",
          "name": "newOperators",
          "type": "address[]"
        },
        {
          "indexed": false,
          "internalType": "uint256[]",
          "name": "newWeights",
          "type": "uint256[]"
        },
        {
          "indexed": false,
          "internalType": "uint256",
          "name": "newThreshold",
          "type": "uint256"
        }
      ],
      "name": "OperatorshipTransferred",
      "type": "event"
    },
    {
      "anonymous": false,
      "inputs": [
        {
          "indexed": true,
          "internalType": "address",
          "name": "previousOwner",
          "type": "address"
        },
        {
          "indexed": true,
          "internalType": "address",
          "name": "newOwner",
          "type": "address"
        }
      ],
      "name": "OwnershipTransferred",
      "type": "event"
    },
    {
      "inputs": [],
      "name": "currentEpoch",
      "outputs": [
        {
          "internalType": "uint256",
          "name": "",
          "type": "uint256"
        }
      ],
      "stateMutability": "view",
      "type": "function"
    },
    {
      "inputs": [
        {
          "internalType": "bytes32",
          "name": "",
          "type": "bytes32"
        }
      ],
      "name": "epochForHash",
      "outputs": [
        {
          "internalType": "uint256",
          "name": "",
          "type": "uint256"
        }
      ],
      "stateMutability": "view",
      "type": "function"
    },
    {
      "inputs": [
        {
          "internalType": "uint256",
          "name": "",
          "type": "uint256"
        }
      ],
      "name": "hashForEpoch",
      "outputs": [
        {
          "internalType": "bytes32",
          "name": "",
          "type": "bytes32"
        }
      ],
      "stateMutability": "view",
      "type": "function"
    },
    {
      "inputs": [],
      "name": "owner",
      "outputs": [
        {
          "internalType": "address",
          "name": "",
          "type": "address"
        }
      ],
      "stateMutability": "view",
      "type": "function"
    },
    {
      "inputs": [],
      "name": "renounceOwnership",
      "outputs": [],
      "stateMutability": "nonpayable",
      "type": "function"
    },
    {
      "inputs": [
        {
          "internalType": "bytes",
          "name": "params",
          "type": "bytes"
        }
      ],
      "name": "transferOperatorship",
      "outputs": [],
      "stateMutability": "nonpayable",
      "type": "function"
    },
    {
      "inputs": [
        {
          "internalType": "address",
          "name": "newOwner",
          "type": "address"
        }
      ],
      "name": "transferOwnership",
      "outputs": [],
      "stateMutability": "nonpayable",
      "type": "function"
    },
    {
      "inputs": [
        {
          "internalType": "bytes32",
          "name": "messageHash",
          "type": "bytes32"
        },
        {
          "internalType": "bytes",
          "name": "proof",
          "type": "bytes"
        }
      ],
      "name": "verifyProof",
      "outputs": [
        {
          "internalType": "bool",
          "name": "",
          "type": "bool"
        }
      ],
      "stateMutability": "view",
      "type": "function"
    }
  ],
  "transactionHash": "0x7a20e92dc4d2ead37c38ef83504248c9741ea6b8fe53e3608eff60aaf327b429",
  "args": [],
  "numDeployments": 1,
  "solcInputHash": "c2f7b39184c8322a773e645e701ffab3",
  "bytecode": "0x608060405234801561001057600080fd5b5061001a33610028565b61002332610028565b610078565b600080546001600160a01b038381166001600160a01b0319831681178455604051919092169283917f8be0079c531659141344cd1fd0a4f28419497f9722a3daafe3b4186f6b6457e09190a35050565b610fa9806100876000396000f3fe608060405234801561001057600080fd5b50600436106100885760003560e01c8063ba6742e51161005b578063ba6742e5146100f1578063d289d1cb14610111578063f1501c8914610124578063f2fde38b1461014457600080fd5b806348203b071461008d578063715018a6146100b557806376671808146100bf5780638da5cb5b146100d6575b600080fd5b6100a061009b3660046109b2565b610157565b60405190151581526020015b60405180910390f35b6100bd610204565b005b6100c860015481565b6040519081526020016100ac565b6000546040516001600160a01b0390911681526020016100ac565b6100c86100ff3660046109fe565b60026020526000908152604090205481565b6100bd61011f366004610a17565b610218565b6100c86101323660046109fe565b60036020526000908152604090205481565b6100bd610152366004610a6e565b610263565b60008080808061016986880188610c4c565b9350935093509350600084848460405160200161018893929190610d3c565b60408051601f19818403018152918152815160209283012060008181526003909352912054600154919250908115806101cb575060106101c88383610ddf565b10155b156101e957604051630849699d60e11b815260040160405180910390fd5b6101f68b888888886102e1565b149998505050505050505050565b61020c610400565b610216600061045a565b565b610220610400565b61025f82828080601f0160208091040260200160405190810160405280939291908181526020018383808284376000920191909152506104aa92505050565b5050565b61026b610400565b6001600160a01b0381166102d55760405162461bcd60e51b815260206004820152602660248201527f4f776e61626c653a206e6577206f776e657220697320746865207a65726f206160448201526564647265737360d01b60648201526084015b60405180910390fd5b6102de8161045a565b50565b83518151600080805b838110156103df5760006103178b88848151811061030a5761030a610df2565b6020026020010151610649565b90505b8584108015610354575089848151811061033657610336610df2565b60200260200101516001600160a01b0316816001600160a01b031614155b156103695761036284610e08565b935061031a565b8584036103895760405163c6fb539360e01b815260040160405180910390fd5b88848151811061039b5761039b610df2565b6020026020010151836103ae9190610e21565b92508783106103c2575050505050506103f9565b6103cb84610e08565b935050806103d890610e08565b90506102ea565b50604051630407644b60e31b815260040160405180910390fd5b5050505050565b6000546001600160a01b031633146102165760405162461bcd60e51b815260206004820181905260248201527f4f776e61626c653a2063616c6c6572206973206e6f7420746865206f776e657260448201526064016102cc565b600080546001600160a01b038381166001600160a01b0319831681178455604051919092169283917f8be0079c531659141344cd1fd0a4f28419497f9722a3daafe3b4186f6b6457e09190a35050565b6000806000838060200190518101906104c39190610e8f565b825182519396509194509250908115806104e357506104e18561066f565b155b1561050157604051630849699d60e11b815260040160405180910390fd5b8181146105215760405163108cef9d60e31b815260040160405180910390fd5b6000805b828110156105645785818151811061053f5761053f610df2565b6020026020010151826105529190610e21565b915061055d81610e08565b9050610525565b5083158061057157508381105b1561058f5760405163aabd5a0960e01b815260040160405180910390fd5b865160208089019190912060008181526003909252604090912054156105c85760405163adda47f760e01b815260040160405180910390fd5b600060015460016105d99190610e21565b60018190556000818152600260209081526040808320869055858352600390915290819020829055519091507f05b53362d4afea7533e835bd99f6c0f2c251e2f08b5c461734829516519dd5ac90610636908a908a908a90610d3c565b60405180910390a1505050505050505050565b6000806000610658858561071d565b9150915061066581610762565b5090505b92915050565b80516000908183818361068457610684610df2565b6020026020010151905060006001600160a01b0316816001600160a01b0316036106b2575060009392505050565b60015b828110156107125760008582815181106106d1576106d1610df2565b60200260200101519050806001600160a01b0316836001600160a01b0316106107005750600095945050505050565b915061070b81610e08565b90506106b5565b506001949350505050565b60008082516041036107535760208301516040840151606085015160001a610747878285856108ac565b9450945050505061075b565b506000905060025b9250929050565b600081600481111561077657610776610f5d565b0361077e5750565b600181600481111561079257610792610f5d565b036107df5760405162461bcd60e51b815260206004820152601860248201527f45434453413a20696e76616c6964207369676e6174757265000000000000000060448201526064016102cc565b60028160048111156107f3576107f3610f5d565b036108405760405162461bcd60e51b815260206004820152601f60248201527f45434453413a20696e76616c6964207369676e6174757265206c656e6774680060448201526064016102cc565b600381600481111561085457610854610f5d565b036102de5760405162461bcd60e51b815260206004820152602260248201527f45434453413a20696e76616c6964207369676e6174757265202773272076616c604482015261756560f01b60648201526084016102cc565b6000807f7fffffffffffffffffffffffffffffff5d576e7357a4501ddfe92f46681b20a08311156108e35750600090506003610967565b6040805160008082526020820180845289905260ff881692820192909252606081018690526080810185905260019060a0016020604051602081039080840390855afa158015610937573d6000803e3d6000fd5b5050604051601f1901519150506001600160a01b03811661096057600060019250925050610967565b9150600090505b94509492505050565b60008083601f84011261098257600080fd5b50813567ffffffffffffffff81111561099a57600080fd5b60208301915083602082850101111561075b57600080fd5b6000806000604084860312156109c757600080fd5b83359250602084013567ffffffffffffffff8111156109e557600080fd5b6109f186828701610970565b9497909650939450505050565b600060208284031215610a1057600080fd5b5035919050565b60008060208385031215610a2a57600080fd5b823567ffffffffffffffff811115610a4157600080fd5b610a4d85828601610970565b90969095509350505050565b6001600160a01b03811681146102de57600080fd5b600060208284031215610a8057600080fd5b8135610a8b81610a59565b9392505050565b634e487b7160e01b600052604160045260246000fd5b604051601f8201601f1916810167ffffffffffffffff81118282101715610ad157610ad1610a92565b604052919050565b600067ffffffffffffffff821115610af357610af3610a92565b5060051b60200190565b600082601f830112610b0e57600080fd5b81356020610b23610b1e83610ad9565b610aa8565b82815260059290921b84018101918181019086841115610b4257600080fd5b8286015b84811015610b5d5780358352918301918301610b46565b509695505050505050565b6000601f8381840112610b7a57600080fd5b82356020610b8a610b1e83610ad9565b82815260059290921b85018101918181019087841115610ba957600080fd5b8287015b84811015610c4057803567ffffffffffffffff80821115610bce5760008081fd5b818a0191508a603f830112610be35760008081fd5b85820135604082821115610bf957610bf9610a92565b610c0a828b01601f19168901610aa8565b92508183528c81838601011115610c215760008081fd5b8181850189850137506000908201870152845250918301918301610bad565b50979650505050505050565b60008060008060808587031215610c6257600080fd5b843567ffffffffffffffff80821115610c7a57600080fd5b818701915087601f830112610c8e57600080fd5b81356020610c9e610b1e83610ad9565b82815260059290921b8401810191818101908b841115610cbd57600080fd5b948201945b83861015610ce4578535610cd581610a59565b82529482019490820190610cc2565b98505088013592505080821115610cfa57600080fd5b610d0688838901610afd565b9450604087013593506060870135915080821115610d2357600080fd5b50610d3087828801610b68565b91505092959194509250565b606080825284519082018190526000906020906080840190828801845b82811015610d7e5781516001600160a01b031684529284019290840190600101610d59565b5050508381038285015285518082528683019183019060005b81811015610db357835183529284019291840191600101610d97565b5050809350505050826040830152949350505050565b634e487b7160e01b600052601160045260246000fd5b8181038181111561066957610669610dc9565b634e487b7160e01b600052603260045260246000fd5b600060018201610e1a57610e1a610dc9565b5060010190565b8082018082111561066957610669610dc9565b600082601f830112610e4557600080fd5b81516020610e55610b1e83610ad9565b82815260059290921b84018101918181019086841115610e7457600080fd5b8286015b84811015610b5d5780518352918301918301610e78565b600080600060608486031215610ea457600080fd5b835167ffffffffffffffff80821115610ebc57600080fd5b818601915086601f830112610ed057600080fd5b81516020610ee0610b1e83610ad9565b82815260059290921b8401810191818101908a841115610eff57600080fd5b948201945b83861015610f26578551610f1781610a59565b82529482019490820190610f04565b91890151919750909350505080821115610f3f57600080fd5b50610f4c86828701610e34565b925050604084015190509250925092565b634e487b7160e01b600052602160045260246000fdfea2646970667358221220a322c0b6155ec3150fd92316a236114373eb2ef7d0b0ee9e1bf21b37dcf258c664736f6c63430008110033",
  "devdoc": {
    "kind": "dev",
    "methods": {
      "owner()": {
        "details": "Returns the address of the current owner."
      },
      "renounceOwnership()": {
        "details": "Leaves the contract without owner. It will not be possible to call `onlyOwner` functions anymore. Can only be called by the current owner. NOTE: Renouncing ownership will leave the contract without an owner, thereby removing any functionality that is only available to the owner."
      },
      "transferOwnership(address)": {
        "details": "Transfers ownership of the contract to a new account (`newOwner`). Can only be called by the current owner."
      },
      "verifyProof(bytes32,bytes)": {
        "details": "This function takes messageHash and proof data and reverts if proof is invalid",
        "returns": {
          "_0": "True if provided operators are the current ones"
        }
      }
    },
    "version": 1
  },
  "userdoc": {
    "kind": "user",
    "methods": {},
    "version": 1
  },
  "storageLayout": {
    "storage": [
      {
        "astId": 1219,
        "contract": "contracts/chain/SodiumAuthWeighted.sol:SodiumAuthWeighted",
        "label": "_owner",
        "offset": 0,
        "slot": "0",
        "type": "t_address"
      },
      {
        "astId": 7393,
        "contract": "contracts/chain/SodiumAuthWeighted.sol:SodiumAuthWeighted",
        "label": "currentEpoch",
        "offset": 0,
        "slot": "1",
        "type": "t_uint256"
      },
      {
        "astId": 7397,
        "contract": "contracts/chain/SodiumAuthWeighted.sol:SodiumAuthWeighted",
        "label": "hashForEpoch",
        "offset": 0,
        "slot": "2",
        "type": "t_mapping(t_uint256,t_bytes32)"
      },
      {
        "astId": 7401,
        "contract": "contracts/chain/SodiumAuthWeighted.sol:SodiumAuthWeighted",
        "label": "epochForHash",
        "offset": 0,
        "slot": "3",
        "type": "t_mapping(t_bytes32,t_uint256)"
      }
    ],
    "types": {
      "t_address": {
        "encoding": "inplace",
        "label": "address",
        "numberOfBytes": "20"
      },
      "t_bytes32": {
        "encoding": "inplace",
        "label": "bytes32",
        "numberOfBytes": "32"
      },
      "t_mapping(t_bytes32,t_uint256)": {
        "encoding": "mapping",
        "key": "t_bytes32",
        "label": "mapping(bytes32 => uint256)",
        "numberOfBytes": "32",
        "value": "t_uint256"
      },
      "t_mapping(t_uint256,t_bytes32)": {
        "encoding": "mapping",
        "key": "t_uint256",
        "label": "mapping(uint256 => bytes32)",
        "numberOfBytes": "32",
        "value": "t_bytes32"
      },
      "t_uint256": {
        "encoding": "inplace",
        "label": "uint256",
        "numberOfBytes": "32"
      }
    }
  }
}