{
  "address": "0x0aE1B76389397Dc81c16eB8e2dEb0C592D3C873c",
  "abi": [
    {
      "inputs": [
        {
          "internalType": "contract SenderCreator",
          "name": "_senderCreator",
          "type": "address"
        }
      ],
      "stateMutability": "nonpayable",
      "type": "constructor"
    },
    {
      "inputs": [
        {
          "internalType": "uint256",
          "name": "preOpGas",
          "type": "uint256"
        },
        {
          "internalType": "uint256",
          "name": "paid",
          "type": "uint256"
        },
        {
          "internalType": "uint64",
          "name": "validAfter",
          "type": "uint64"
        },
        {
          "internalType": "uint64",
          "name": "validBefore",
          "type": "uint64"
        }
      ],
      "name": "ExecutionResult",
      "type": "error"
    },
    {
      "inputs": [
        {
          "internalType": "uint256",
          "name": "opIndex",
          "type": "uint256"
        },
        {
          "internalType": "address",
          "name": "paymaster",
          "type": "address"
        },
        {
          "internalType": "string",
          "name": "reason",
          "type": "string"
        }
      ],
      "name": "FailedOp",
      "type": "error"
    },
    {
      "inputs": [
        {
          "internalType": "address",
          "name": "sender",
          "type": "address"
        }
      ],
      "name": "SenderAddressResult",
      "type": "error"
    },
    {
      "inputs": [
        {
          "internalType": "address",
          "name": "aggregator",
          "type": "address"
        }
      ],
      "name": "SignatureValidationFailed",
      "type": "error"
    },
    {
      "inputs": [
        {
          "components": [
            {
              "internalType": "uint256",
              "name": "preOpGas",
              "type": "uint256"
            },
            {
              "internalType": "uint256",
              "name": "prefund",
              "type": "uint256"
            },
            {
              "internalType": "bool",
              "name": "sigFailed",
              "type": "bool"
            },
            {
              "internalType": "uint64",
              "name": "validAfter",
              "type": "uint64"
            },
            {
              "internalType": "uint64",
              "name": "validUntil",
              "type": "uint64"
            },
            {
              "internalType": "bytes",
              "name": "paymasterContext",
              "type": "bytes"
            }
          ],
          "internalType": "struct IEntryPoint.ReturnInfo",
          "name": "returnInfo",
          "type": "tuple"
        },
        {
          "components": [
            {
              "internalType": "uint256",
              "name": "stake",
              "type": "uint256"
            },
            {
              "internalType": "uint256",
              "name": "unstakeDelaySec",
              "type": "uint256"
            }
          ],
          "internalType": "struct IStakeManager.StakeInfo",
          "name": "senderInfo",
          "type": "tuple"
        },
        {
          "components": [
            {
              "internalType": "uint256",
              "name": "stake",
              "type": "uint256"
            },
            {
              "internalType": "uint256",
              "name": "unstakeDelaySec",
              "type": "uint256"
            }
          ],
          "internalType": "struct IStakeManager.StakeInfo",
          "name": "factoryInfo",
          "type": "tuple"
        },
        {
          "components": [
            {
              "internalType": "uint256",
              "name": "stake",
              "type": "uint256"
            },
            {
              "internalType": "uint256",
              "name": "unstakeDelaySec",
              "type": "uint256"
            }
          ],
          "internalType": "struct IStakeManager.StakeInfo",
          "name": "paymasterInfo",
          "type": "tuple"
        }
      ],
      "name": "ValidationResult",
      "type": "error"
    },
    {
      "inputs": [
        {
          "components": [
            {
              "internalType": "uint256",
              "name": "preOpGas",
              "type": "uint256"
            },
            {
              "internalType": "uint256",
              "name": "prefund",
              "type": "uint256"
            },
            {
              "internalType": "bool",
              "name": "sigFailed",
              "type": "bool"
            },
            {
              "internalType": "uint64",
              "name": "validAfter",
              "type": "uint64"
            },
            {
              "internalType": "uint64",
              "name": "validUntil",
              "type": "uint64"
            },
            {
              "internalType": "bytes",
              "name": "paymasterContext",
              "type": "bytes"
            }
          ],
          "internalType": "struct IEntryPoint.ReturnInfo",
          "name": "returnInfo",
          "type": "tuple"
        },
        {
          "components": [
            {
              "internalType": "uint256",
              "name": "stake",
              "type": "uint256"
            },
            {
              "internalType": "uint256",
              "name": "unstakeDelaySec",
              "type": "uint256"
            }
          ],
          "internalType": "struct IStakeManager.StakeInfo",
          "name": "senderInfo",
          "type": "tuple"
        },
        {
          "components": [
            {
              "internalType": "uint256",
              "name": "stake",
              "type": "uint256"
            },
            {
              "internalType": "uint256",
              "name": "unstakeDelaySec",
              "type": "uint256"
            }
          ],
          "internalType": "struct IStakeManager.StakeInfo",
          "name": "factoryInfo",
          "type": "tuple"
        },
        {
          "components": [
            {
              "internalType": "uint256",
              "name": "stake",
              "type": "uint256"
            },
            {
              "internalType": "uint256",
              "name": "unstakeDelaySec",
              "type": "uint256"
            }
          ],
          "internalType": "struct IStakeManager.StakeInfo",
          "name": "paymasterInfo",
          "type": "tuple"
        },
        {
          "components": [
            {
              "internalType": "address",
              "name": "actualAggregator",
              "type": "address"
            },
            {
              "components": [
                {
                  "internalType": "uint256",
                  "name": "stake",
                  "type": "uint256"
                },
                {
                  "internalType": "uint256",
                  "name": "unstakeDelaySec",
                  "type": "uint256"
                }
              ],
              "internalType": "struct IStakeManager.StakeInfo",
              "name": "stakeInfo",
              "type": "tuple"
            }
          ],
          "internalType": "struct IEntryPoint.AggregatorStakeInfo",
          "name": "aggregatorInfo",
          "type": "tuple"
        }
      ],
      "name": "ValidationResultWithAggregation",
      "type": "error"
    },
    {
      "anonymous": false,
      "inputs": [
        {
          "indexed": true,
          "internalType": "bytes32",
          "name": "userOpHash",
          "type": "bytes32"
        },
        {
          "indexed": true,
          "internalType": "address",
          "name": "sender",
          "type": "address"
        },
        {
          "indexed": false,
          "internalType": "address",
          "name": "factory",
          "type": "address"
        },
        {
          "indexed": false,
          "internalType": "address",
          "name": "paymaster",
          "type": "address"
        }
      ],
      "name": "AccountDeployed",
      "type": "event"
    },
    {
      "anonymous": false,
      "inputs": [
        {
          "indexed": true,
          "internalType": "address",
          "name": "account",
          "type": "address"
        },
        {
          "indexed": false,
          "internalType": "uint256",
          "name": "totalDeposit",
          "type": "uint256"
        }
      ],
      "name": "Deposited",
      "type": "event"
    },
    {
      "anonymous": false,
      "inputs": [
        {
          "indexed": false,
          "internalType": "address",
          "name": "aggregator",
          "type": "address"
        }
      ],
      "name": "SignatureAggregatorChanged",
      "type": "event"
    },
    {
      "anonymous": false,
      "inputs": [
        {
          "indexed": true,
          "internalType": "address",
          "name": "account",
          "type": "address"
        },
        {
          "indexed": false,
          "internalType": "uint256",
          "name": "totalStaked",
          "type": "uint256"
        },
        {
          "indexed": false,
          "internalType": "uint256",
          "name": "withdrawTime",
          "type": "uint256"
        }
      ],
      "name": "StakeLocked",
      "type": "event"
    },
    {
      "anonymous": false,
      "inputs": [
        {
          "indexed": true,
          "internalType": "address",
          "name": "account",
          "type": "address"
        },
        {
          "indexed": false,
          "internalType": "uint256",
          "name": "withdrawTime",
          "type": "uint256"
        }
      ],
      "name": "StakeUnlocked",
      "type": "event"
    },
    {
      "anonymous": false,
      "inputs": [
        {
          "indexed": true,
          "internalType": "address",
          "name": "account",
          "type": "address"
        },
        {
          "indexed": false,
          "internalType": "address",
          "name": "withdrawAddress",
          "type": "address"
        },
        {
          "indexed": false,
          "internalType": "uint256",
          "name": "amount",
          "type": "uint256"
        }
      ],
      "name": "StakeWithdrawn",
      "type": "event"
    },
    {
      "anonymous": false,
      "inputs": [
        {
          "indexed": true,
          "internalType": "bytes32",
          "name": "userOpHash",
          "type": "bytes32"
        },
        {
          "indexed": true,
          "internalType": "address",
          "name": "sender",
          "type": "address"
        },
        {
          "indexed": true,
          "internalType": "address",
          "name": "paymaster",
          "type": "address"
        },
        {
          "indexed": false,
          "internalType": "uint256",
          "name": "nonce",
          "type": "uint256"
        },
        {
          "indexed": false,
          "internalType": "bool",
          "name": "success",
          "type": "bool"
        },
        {
          "indexed": false,
          "internalType": "uint256",
          "name": "actualGasCost",
          "type": "uint256"
        },
        {
          "indexed": false,
          "internalType": "uint256",
          "name": "actualGasUsed",
          "type": "uint256"
        }
      ],
      "name": "UserOperationEvent",
      "type": "event"
    },
    {
      "anonymous": false,
      "inputs": [
        {
          "indexed": true,
          "internalType": "bytes32",
          "name": "userOpHash",
          "type": "bytes32"
        },
        {
          "indexed": true,
          "internalType": "address",
          "name": "sender",
          "type": "address"
        },
        {
          "indexed": false,
          "internalType": "uint256",
          "name": "nonce",
          "type": "uint256"
        },
        {
          "indexed": false,
          "internalType": "bytes",
          "name": "revertReason",
          "type": "bytes"
        }
      ],
      "name": "UserOperationRevertReason",
      "type": "event"
    },
    {
      "anonymous": false,
      "inputs": [
        {
          "indexed": true,
          "internalType": "address",
          "name": "account",
          "type": "address"
        },
        {
          "indexed": false,
          "internalType": "address",
          "name": "withdrawAddress",
          "type": "address"
        },
        {
          "indexed": false,
          "internalType": "uint256",
          "name": "amount",
          "type": "uint256"
        }
      ],
      "name": "Withdrawn",
      "type": "event"
    },
    {
      "inputs": [],
      "name": "SIG_VALIDATION_FAILED",
      "outputs": [
        {
          "internalType": "uint256",
          "name": "",
          "type": "uint256"
        }
      ],
      "stateMutability": "view",
      "type": "function"
    },
    {
      "inputs": [
        {
          "internalType": "uint32",
          "name": "_unstakeDelaySec",
          "type": "uint32"
        }
      ],
      "name": "addStake",
      "outputs": [],
      "stateMutability": "payable",
      "type": "function"
    },
    {
      "inputs": [
        {
          "internalType": "address",
          "name": "account",
          "type": "address"
        }
      ],
      "name": "balanceOf",
      "outputs": [
        {
          "internalType": "uint256",
          "name": "",
          "type": "uint256"
        }
      ],
      "stateMutability": "view",
      "type": "function"
    },
    {
      "inputs": [
        {
          "internalType": "address",
          "name": "account",
          "type": "address"
        }
      ],
      "name": "depositTo",
      "outputs": [],
      "stateMutability": "payable",
      "type": "function"
    },
    {
      "inputs": [
        {
          "internalType": "address",
          "name": "",
          "type": "address"
        }
      ],
      "name": "deposits",
      "outputs": [
        {
          "internalType": "uint112",
          "name": "deposit",
          "type": "uint112"
        },
        {
          "internalType": "bool",
          "name": "staked",
          "type": "bool"
        },
        {
          "internalType": "uint112",
          "name": "stake",
          "type": "uint112"
        },
        {
          "internalType": "uint32",
          "name": "unstakeDelaySec",
          "type": "uint32"
        },
        {
          "internalType": "uint64",
          "name": "withdrawTime",
          "type": "uint64"
        }
      ],
      "stateMutability": "view",
      "type": "function"
    },
    {
      "inputs": [
        {
          "internalType": "address",
          "name": "account",
          "type": "address"
        }
      ],
      "name": "getDepositInfo",
      "outputs": [
        {
          "components": [
            {
              "internalType": "uint112",
              "name": "deposit",
              "type": "uint112"
            },
            {
              "internalType": "bool",
              "name": "staked",
              "type": "bool"
            },
            {
              "internalType": "uint112",
              "name": "stake",
              "type": "uint112"
            },
            {
              "internalType": "uint32",
              "name": "unstakeDelaySec",
              "type": "uint32"
            },
            {
              "internalType": "uint64",
              "name": "withdrawTime",
              "type": "uint64"
            }
          ],
          "internalType": "struct IStakeManager.DepositInfo",
          "name": "info",
          "type": "tuple"
        }
      ],
      "stateMutability": "view",
      "type": "function"
    },
    {
      "inputs": [
        {
          "components": [
            {
              "internalType": "address",
              "name": "sender",
              "type": "address"
            },
            {
              "internalType": "uint256",
              "name": "nonce",
              "type": "uint256"
            },
            {
              "internalType": "bytes",
              "name": "initCode",
              "type": "bytes"
            },
            {
              "internalType": "bytes",
              "name": "callData",
              "type": "bytes"
            },
            {
              "internalType": "uint256",
              "name": "callGasLimit",
              "type": "uint256"
            },
            {
              "internalType": "uint256",
              "name": "verificationGasLimit",
              "type": "uint256"
            },
            {
              "internalType": "uint256",
              "name": "preVerificationGas",
              "type": "uint256"
            },
            {
              "internalType": "uint256",
              "name": "maxFeePerGas",
              "type": "uint256"
            },
            {
              "internalType": "uint256",
              "name": "maxPriorityFeePerGas",
              "type": "uint256"
            },
            {
              "internalType": "bytes",
              "name": "paymasterAndData",
              "type": "bytes"
            },
            {
              "internalType": "bytes",
              "name": "signature",
              "type": "bytes"
            }
          ],
          "internalType": "struct UserOperation",
          "name": "userOp",
          "type": "tuple"
        }
      ],
      "name": "getUserOpHash",
      "outputs": [
        {
          "internalType": "bytes32",
          "name": "",
          "type": "bytes32"
        }
      ],
      "stateMutability": "view",
      "type": "function"
    },
    {
      "inputs": [
        {
          "components": [
            {
              "components": [
                {
                  "internalType": "address",
                  "name": "sender",
                  "type": "address"
                },
                {
                  "internalType": "uint256",
                  "name": "nonce",
                  "type": "uint256"
                },
                {
                  "internalType": "bytes",
                  "name": "initCode",
                  "type": "bytes"
                },
                {
                  "internalType": "bytes",
                  "name": "callData",
                  "type": "bytes"
                },
                {
                  "internalType": "uint256",
                  "name": "callGasLimit",
                  "type": "uint256"
                },
                {
                  "internalType": "uint256",
                  "name": "verificationGasLimit",
                  "type": "uint256"
                },
                {
                  "internalType": "uint256",
                  "name": "preVerificationGas",
                  "type": "uint256"
                },
                {
                  "internalType": "uint256",
                  "name": "maxFeePerGas",
                  "type": "uint256"
                },
                {
                  "internalType": "uint256",
                  "name": "maxPriorityFeePerGas",
                  "type": "uint256"
                },
                {
                  "internalType": "bytes",
                  "name": "paymasterAndData",
                  "type": "bytes"
                },
                {
                  "internalType": "bytes",
                  "name": "signature",
                  "type": "bytes"
                }
              ],
              "internalType": "struct UserOperation[]",
              "name": "userOps",
              "type": "tuple[]"
            },
            {
              "internalType": "contract IAggregator",
              "name": "aggregator",
              "type": "address"
            },
            {
              "internalType": "bytes",
              "name": "signature",
              "type": "bytes"
            }
          ],
          "internalType": "struct IEntryPoint.UserOpsPerAggregator[]",
          "name": "opsPerAggregator",
          "type": "tuple[]"
        },
        {
          "internalType": "address payable",
          "name": "beneficiary",
          "type": "address"
        }
      ],
      "name": "handleAggregatedOps",
      "outputs": [],
      "stateMutability": "nonpayable",
      "type": "function"
    },
    {
      "inputs": [
        {
          "components": [
            {
              "internalType": "address",
              "name": "sender",
              "type": "address"
            },
            {
              "internalType": "uint256",
              "name": "nonce",
              "type": "uint256"
            },
            {
              "internalType": "bytes",
              "name": "initCode",
              "type": "bytes"
            },
            {
              "internalType": "bytes",
              "name": "callData",
              "type": "bytes"
            },
            {
              "internalType": "uint256",
              "name": "callGasLimit",
              "type": "uint256"
            },
            {
              "internalType": "uint256",
              "name": "verificationGasLimit",
              "type": "uint256"
            },
            {
              "internalType": "uint256",
              "name": "preVerificationGas",
              "type": "uint256"
            },
            {
              "internalType": "uint256",
              "name": "maxFeePerGas",
              "type": "uint256"
            },
            {
              "internalType": "uint256",
              "name": "maxPriorityFeePerGas",
              "type": "uint256"
            },
            {
              "internalType": "bytes",
              "name": "paymasterAndData",
              "type": "bytes"
            },
            {
              "internalType": "bytes",
              "name": "signature",
              "type": "bytes"
            }
          ],
          "internalType": "struct UserOperation[]",
          "name": "ops",
          "type": "tuple[]"
        },
        {
          "internalType": "address payable",
          "name": "beneficiary",
          "type": "address"
        }
      ],
      "name": "handleOps",
      "outputs": [],
      "stateMutability": "nonpayable",
      "type": "function"
    },
    {
      "inputs": [
        {
          "internalType": "bytes",
          "name": "callData",
          "type": "bytes"
        },
        {
          "components": [
            {
              "components": [
                {
                  "internalType": "address",
                  "name": "sender",
                  "type": "address"
                },
                {
                  "internalType": "uint256",
                  "name": "nonce",
                  "type": "uint256"
                },
                {
                  "internalType": "uint256",
                  "name": "callGasLimit",
                  "type": "uint256"
                },
                {
                  "internalType": "uint256",
                  "name": "verificationGasLimit",
                  "type": "uint256"
                },
                {
                  "internalType": "uint256",
                  "name": "preVerificationGas",
                  "type": "uint256"
                },
                {
                  "internalType": "address",
                  "name": "paymaster",
                  "type": "address"
                },
                {
                  "internalType": "uint256",
                  "name": "maxFeePerGas",
                  "type": "uint256"
                },
                {
                  "internalType": "uint256",
                  "name": "maxPriorityFeePerGas",
                  "type": "uint256"
                }
              ],
              "internalType": "struct EntryPoint.MemoryUserOp",
              "name": "mUserOp",
              "type": "tuple"
            },
            {
              "internalType": "bytes32",
              "name": "userOpHash",
              "type": "bytes32"
            },
            {
              "internalType": "uint256",
              "name": "prefund",
              "type": "uint256"
            },
            {
              "internalType": "uint256",
              "name": "contextOffset",
              "type": "uint256"
            },
            {
              "internalType": "uint256",
              "name": "preOpGas",
              "type": "uint256"
            }
          ],
          "internalType": "struct EntryPoint.UserOpInfo",
          "name": "opInfo",
          "type": "tuple"
        },
        {
          "internalType": "bytes",
          "name": "context",
          "type": "bytes"
        }
      ],
      "name": "innerHandleOp",
      "outputs": [
        {
          "internalType": "uint256",
          "name": "actualGasCost",
          "type": "uint256"
        }
      ],
      "stateMutability": "nonpayable",
      "type": "function"
    },
    {
      "inputs": [],
      "name": "senderCreator",
      "outputs": [
        {
          "internalType": "contract SenderCreator",
          "name": "",
          "type": "address"
        }
      ],
      "stateMutability": "view",
      "type": "function"
    },
    {
      "inputs": [
        {
          "components": [
            {
              "internalType": "address",
              "name": "sender",
              "type": "address"
            },
            {
              "internalType": "uint256",
              "name": "nonce",
              "type": "uint256"
            },
            {
              "internalType": "bytes",
              "name": "initCode",
              "type": "bytes"
            },
            {
              "internalType": "bytes",
              "name": "callData",
              "type": "bytes"
            },
            {
              "internalType": "uint256",
              "name": "callGasLimit",
              "type": "uint256"
            },
            {
              "internalType": "uint256",
              "name": "verificationGasLimit",
              "type": "uint256"
            },
            {
              "internalType": "uint256",
              "name": "preVerificationGas",
              "type": "uint256"
            },
            {
              "internalType": "uint256",
              "name": "maxFeePerGas",
              "type": "uint256"
            },
            {
              "internalType": "uint256",
              "name": "maxPriorityFeePerGas",
              "type": "uint256"
            },
            {
              "internalType": "bytes",
              "name": "paymasterAndData",
              "type": "bytes"
            },
            {
              "internalType": "bytes",
              "name": "signature",
              "type": "bytes"
            }
          ],
          "internalType": "struct UserOperation",
          "name": "op",
          "type": "tuple"
        }
      ],
      "name": "simulateHandleOp",
      "outputs": [],
      "stateMutability": "nonpayable",
      "type": "function"
    },
    {
      "inputs": [
        {
          "components": [
            {
              "internalType": "address",
              "name": "sender",
              "type": "address"
            },
            {
              "internalType": "uint256",
              "name": "nonce",
              "type": "uint256"
            },
            {
              "internalType": "bytes",
              "name": "initCode",
              "type": "bytes"
            },
            {
              "internalType": "bytes",
              "name": "callData",
              "type": "bytes"
            },
            {
              "internalType": "uint256",
              "name": "callGasLimit",
              "type": "uint256"
            },
            {
              "internalType": "uint256",
              "name": "verificationGasLimit",
              "type": "uint256"
            },
            {
              "internalType": "uint256",
              "name": "preVerificationGas",
              "type": "uint256"
            },
            {
              "internalType": "uint256",
              "name": "maxFeePerGas",
              "type": "uint256"
            },
            {
              "internalType": "uint256",
              "name": "maxPriorityFeePerGas",
              "type": "uint256"
            },
            {
              "internalType": "bytes",
              "name": "paymasterAndData",
              "type": "bytes"
            },
            {
              "internalType": "bytes",
              "name": "signature",
              "type": "bytes"
            }
          ],
          "internalType": "struct UserOperation",
          "name": "userOp",
          "type": "tuple"
        }
      ],
      "name": "simulateValidation",
      "outputs": [],
      "stateMutability": "nonpayable",
      "type": "function"
    },
    {
      "inputs": [],
      "name": "unlockStake",
      "outputs": [],
      "stateMutability": "nonpayable",
      "type": "function"
    },
    {
      "inputs": [
        {
          "internalType": "address payable",
          "name": "withdrawAddress",
          "type": "address"
        }
      ],
      "name": "withdrawStake",
      "outputs": [],
      "stateMutability": "nonpayable",
      "type": "function"
    },
    {
      "inputs": [
        {
          "internalType": "address payable",
          "name": "withdrawAddress",
          "type": "address"
        },
        {
          "internalType": "uint256",
          "name": "withdrawAmount",
          "type": "uint256"
        }
      ],
      "name": "withdrawTo",
      "outputs": [],
      "stateMutability": "nonpayable",
      "type": "function"
    },
    {
      "stateMutability": "payable",
      "type": "receive"
    }
  ],
  "transactionHash": "0x29b531f32be9244048d506735cd771341d07a83ee79fc9ad8ec713a8c9a2f069",
  "args": [
    "0xCA25952469BBae82c63A7A75D8aBc7dBf9442e18"
  ],
  "numDeployments": 2,
  "solcInputHash": "c3b247e30fbd4588b6c004e5d184ed7d",
  "bytecode": "0x60a06040523480156200001157600080fd5b506040516200383138038062003831833981016040819052620000349162000046565b6001600160a01b031660805262000078565b6000602082840312156200005957600080fd5b81516001600160a01b03811681146200007157600080fd5b9392505050565b6080516137966200009b60003960008181610131015261288e01526137966000f3fe6080604052600436106100f75760003560e01c80638f41ec5a1161008a578063c207711611610059578063c2077116146103b9578063c23a5cea146103d9578063ee219423146103f9578063fc7e286d1461041957600080fd5b80638f41ec5a1461035c578063a619353114610371578063b760faf914610391578063bb9fe6bf146103a457600080fd5b8063205c2878116100c6578063205c2878146101be5780634b1d7cf5146101de5780635287ce12146101fe57806370a082311461031d57600080fd5b80630396cb601461010c57806309ccb8801461011f5780631d732756146101705780631fad948c1461019e57600080fd5b3661010757610105336104d0565b005b600080fd5b61010561011a366004612b5c565b610537565b34801561012b57600080fd5b506101537f000000000000000000000000000000000000000000000000000000000000000081565b6040516001600160a01b0390911681526020015b60405180910390f35b34801561017c57600080fd5b5061019061018b366004612c80565b6107c3565b604051908152602001610167565b3480156101aa57600080fd5b506101056101b9366004612e07565b61097c565b3480156101ca57600080fd5b506101056101d9366004612e5d565b610abe565b3480156101ea57600080fd5b506101056101f9366004612e07565b610c3a565b34801561020a57600080fd5b506102c4610219366004612e89565b6040805160a081018252600080825260208201819052918101829052606081018290526080810191909152506001600160a01b031660009081526020818152604091829020825160a08101845281546001600160701b038082168352600160701b820460ff16151594830194909452600160781b90049092169282019290925260019091015463ffffffff8116606083015264010000000090046001600160401b0316608082015290565b6040805182516001600160701b03908116825260208085015115159083015283830151169181019190915260608083015163ffffffff16908201526080918201516001600160401b03169181019190915260a001610167565b34801561032957600080fd5b50610190610338366004612e89565b6001600160a01b03166000908152602081905260409020546001600160701b031690565b34801561036857600080fd5b50610190600181565b34801561037d57600080fd5b5061019061038c366004612ea6565b610ff3565b61010561039f366004612e89565b6104d0565b3480156103b057600080fd5b50610105611035565b3480156103c557600080fd5b506101056103d4366004612ea6565b611161565b3480156103e557600080fd5b506101056103f4366004612e89565b6111eb565b34801561040557600080fd5b50610105610414366004612ea6565b611422565b34801561042557600080fd5b50610489610434366004612e89565b600060208190529081526040902080546001909101546001600160701b0380831692600160701b810460ff1692600160781b9091049091169063ffffffff81169064010000000090046001600160401b031685565b604080516001600160701b0396871681529415156020860152929094169183019190915263ffffffff1660608201526001600160401b03909116608082015260a001610167565b6104da81346115c1565b6001600160a01b03811660008181526020818152604091829020805492516001600160701b03909316835292917f2da466a7b24304f47e87fa2e1e5a81b9831ce54fec19055ce277ca2f39ba42c491015b60405180910390a25050565b33600090815260208190526040902063ffffffff821661059e5760405162461bcd60e51b815260206004820152601a60248201527f6d757374207370656369667920756e7374616b652064656c617900000000000060448201526064015b60405180910390fd5b600181015463ffffffff90811690831610156105fc5760405162461bcd60e51b815260206004820152601c60248201527f63616e6e6f7420646563726561736520756e7374616b652074696d65000000006044820152606401610595565b805460009061061c903490600160781b90046001600160701b0316612ef7565b9050600081116106635760405162461bcd60e51b81526020600482015260126024820152711b9bc81cdd185ad9481cdc1958da599a595960721b6044820152606401610595565b6001600160701b0381106106aa5760405162461bcd60e51b815260206004820152600e60248201526d7374616b65206f766572666c6f7760901b6044820152606401610595565b6040805160a08101825283546001600160701b0390811682526001602080840182815286841685870190815263ffffffff808b16606088019081526000608089018181523380835296829052908a902098518954955194518916600160781b02600160781b600160e81b0319951515600160701b026effffffffffffffffffffffffffffff19909716919099161794909417929092169590951786555194909201805492516001600160401b0316640100000000026001600160601b0319909316949093169390931717905590517fa5ae833d0bb1dcd632d98a8b70973e8516812898e19bf27b70071ebc8dc52c01906107b6908490879091825263ffffffff16602082015260400190565b60405180910390a2505050565b6000805a90503330146108185760405162461bcd60e51b815260206004820152601760248201527f4141393220696e7465726e616c2063616c6c206f6e6c790000000000000000006044820152606401610595565b8451604081015160608201518101611388015a10156108425763deaddead60e01b60005260206000fd5b600088156109195760008084600001516001600160a01b0316848d8d60405161086c929190612f0a565b60006040518083038160008787f1925050503d80600081146108aa576040519150601f19603f3d011682016040523d82523d6000602084013e6108af565b606091505b509150915081610916578051156109115784600001516001600160a01b03168a602001517f1c4fada7374c0a9ee8841fc38afe82932dc0f8e69012e927f061a8bae611a201876020015184604051610908929190612f6a565b60405180910390a35b600192505b50505b600088608001515a860301905061096b6000838b8b8b8080601f01602080910402602001604051908101604052809392919081815260200183838082843760009201919091525088925061165d915050565b955050505050505b95945050505050565b816000816001600160401b0381111561099757610997612bd1565b6040519080825280602002602001820160405280156109d057816020015b6109bd612ad2565b8152602001906001900390816109b55790505b50905060005b82811015610a4b5760008282815181106109f2576109f2612f83565b60200260200101519050600080610a2f848a8a87818110610a1557610a15612f83565b9050602002810190610a279190612f99565b856000611950565b5091509150610a4084848484611aed565b5050506001016109d6565b506000805b83811015610aab57610a9f81888884818110610a6e57610a6e612f83565b9050602002810190610a809190612f99565b858481518110610a9257610a92612f83565b6020026020010151611c91565b90910190600101610a50565b50610ab68482611dcb565b505050505050565b33600090815260208190526040902080546001600160701b0316821115610b275760405162461bcd60e51b815260206004820152601960248201527f576974686472617720616d6f756e7420746f6f206c61726765000000000000006044820152606401610595565b8054610b3d9083906001600160701b0316612fba565b81546001600160701b0319166001600160701b0391909116178155604080516001600160a01b03851681526020810184905233917fd1c19fbcd4551a5edfb66d43d2e337c04837afda3482b42bdf569a8fccdae5fb910160405180910390a26000836001600160a01b03168360405160006040518083038185875af1925050503d8060008114610be9576040519150601f19603f3d011682016040523d82523d6000602084013e610bee565b606091505b5050905080610c345760405162461bcd60e51b81526020600482015260126024820152716661696c656420746f20776974686472617760701b6044820152606401610595565b50505050565b816000805b82811015610c9457858582818110610c5957610c59612f83565b9050602002810190610c6b9190612fcd565b610c759080612fe3565b610c80915083612ef7565b915080610c8c8161302c565b915050610c3f565b506000816001600160401b03811115610caf57610caf612bd1565b604051908082528060200260200182016040528015610ce857816020015b610cd5612ad2565b815260200190600190039081610ccd5790505b5090506000805b84811015610e8a5736888883818110610d0a57610d0a612f83565b9050602002810190610d1c9190612fcd565b9050366000610d2b8380612fe3565b90925090506000610d426040850160208601612e89565b90508160005b81811015610dd4576000898981518110610d6457610d64612f83565b60200260200101519050600080610da08b898987818110610d8757610d87612f83565b9050602002810190610d999190612f99565b8589611950565b5091509150610db184848484611aed565b8a610dbb8161302c565b9b50505050508080610dcc9061302c565b915050610d48565b506001600160a01b03821615610e72576001600160a01b03821663e3563a4f8585610e0260408a018a613045565b6040518563ffffffff1660e01b8152600401610e2194939291906131f0565b60006040518083038186803b158015610e3957600080fd5b505afa925050508015610e4a575060015b610e725760405163086a9f7560e41b81526001600160a01b0383166004820152602401610595565b50505050508080610e829061302c565b915050610cef565b50600080915060005b85811015610faa5736898983818110610eae57610eae612f83565b9050602002810190610ec09190612fcd565b90507f575ff3acadd5ab348fe1855e217e0f3678f8d767d7494c9f9fefbee2e17cca4d610ef36040830160208401612e89565b6040516001600160a01b03909116815260200160405180910390a1366000610f1b8380612fe3565b90925090508060005b81811015610f9257610f6688858584818110610f4257610f42612f83565b9050602002810190610f549190612f99565b8b8b81518110610a9257610a92612f83565b610f709088612ef7565b965087610f7c8161302c565b9850508080610f8a9061302c565b915050610f24565b50505050508080610fa29061302c565b915050610e93565b50604051600081527f575ff3acadd5ab348fe1855e217e0f3678f8d767d7494c9f9fefbee2e17cca4d9060200160405180910390a1610fe98682611dcb565b5050505050505050565b6000610ffe82611ec9565b6040805160208101929092523090820152466060820152608001604051602081830303815290604052805190602001209050919050565b3360009081526020819052604081206001810154909163ffffffff909116900361108e5760405162461bcd60e51b815260206004820152600a6024820152691b9bdd081cdd185ad95960b21b6044820152606401610595565b8054600160701b900460ff166110da5760405162461bcd60e51b8152602060048201526011602482015270616c726561647920756e7374616b696e6760781b6044820152606401610595565b60018101546000906110f29063ffffffff164261326d565b6001830180546bffffffffffffffff0000000019166401000000006001600160401b03841690810291909117909155835460ff60701b1916845560405190815290915033907ffa9b3c14cc825c412c9ed81b3ba365a5b459439403f18829e572ed53a4180f0a9060200161052b565b611169612ad2565b60008061117a600085856001611950565b509150915060008061118c8484611ee2565b925092505061119a43600052565b60006111a860008888611c91565b60808701516040516366c5612360e11b81526004810191909152602481018290526001600160401b03808616604483015284166064820152909150608401610595565b3360009081526020819052604090208054600160781b90046001600160701b0316806112505760405162461bcd60e51b81526020600482015260146024820152734e6f207374616b6520746f20776974686472617760601b6044820152606401610595565b600182015464010000000090046001600160401b03166112b25760405162461bcd60e51b815260206004820152601d60248201527f6d7573742063616c6c20756e6c6f636b5374616b6528292066697273740000006044820152606401610595565b6001820154426401000000009091046001600160401b031611156113185760405162461bcd60e51b815260206004820152601b60248201527f5374616b65207769746864726177616c206973206e6f742064756500000000006044820152606401610595565b6001820180546001600160601b03191690558154600160781b600160e81b0319168255604080516001600160a01b03851681526020810183905233917fb7c918e0e249f999e965cafeb6c664271b3f4317d296461500e71da39f0cbda3910160405180910390a26000836001600160a01b03168260405160006040518083038185875af1925050503d80600081146113cc576040519150601f19603f3d011682016040523d82523d6000602084013e6113d1565b606091505b5050905080610c345760405162461bcd60e51b815260206004820152601860248201527f6661696c656420746f207769746864726177207374616b6500000000000000006044820152606401610595565b61142a612ad2565b600080600061143d600086866001611950565b9250925092506000611456856000015160a00151611f5b565b85515190915060009061146890611f5b565b9050611487604051806040016040528060008152602001600081525090565b36600061149760408b018b613045565b9092509050600060148210156114ae5760006114c9565b6114bc601460008486613294565b6114c5916132be565b60601c5b90506114d481611f5b565b935050505060008060006114e88989611ee2565b92509250925060006040518060c001604052808c6080015181526020018c6040015181526020018515158152602001846001600160401b03168152602001836001600160401b031681526020016115408d6060015190565b905290506001600160a01b038816156115a057600060405180604001604052808a6001600160a01b031681526020016115788b611f5b565b81525090508187878a8460405163356877a360e01b8152600401610595959493929190613346565b8086868960405163f04297e960e01b815260040161059594939291906133c6565b6001600160a01b038216600090815260208190526040812080549091906115f29084906001600160701b0316612ef7565b90506001600160701b0381111561163e5760405162461bcd60e51b815260206004820152601060248201526f6465706f736974206f766572666c6f7760801b6044820152606401610595565b81546001600160701b0319166001600160701b03919091161790555050565b6000805a85519091506000908161167382611faa565b60a08301519091506001600160a01b0381166116925782519350611828565b80935060008851111561182857868202955060028a60028111156116b8576116b8613419565b1461172a57606083015160405163a9a2340960e01b81526001600160a01b0383169163a9a23409916116f2908e908d908c9060040161342f565b600060405180830381600088803b15801561170c57600080fd5b5087f1158015611720573d6000803e3d6000fd5b5050505050611828565b606083015160405163a9a2340960e01b81526001600160a01b0383169163a9a234099161175f908e908d908c9060040161342f565b600060405180830381600088803b15801561177957600080fd5b5087f19350505050801561178b575060015b61182857611797613476565b806308c379a0036117d457506117ab613492565b806117b657506117d6565b8b828260405162fa072b60e01b81526004016105959392919061351b565b505b60405162fa072b60e01b8152600481018c90526001600160a01b0382166024820152606060448201526011606482015270104d4c081c1bdcdd13dc081c995d995c9d607a1b608482015260a401610595565b5a8503870196508187029550858960400151101561189e5760405162fa072b60e01b8152600481018c90526001600160a01b038216602482015260606044820152601f60648201527f4135312070726566756e642062656c6f772061637475616c476173436f737400608482015260a401610595565b60408901518690036118b085826115c1565b6000808c60028111156118c5576118c5613419565b1490508460a001516001600160a01b031685600001516001600160a01b03168c602001517f49628fd1471006c1482da88028e9ce4dbb080b815c9b0344d39e5a8e6ec1419f8860200151858d8f604051611938949392919093845291151560208401526040830152606082015260800190565b60405180910390a45050505050505095945050505050565b6000806000805a86519091506119668882611fda565b61196f88610ff3565b6020880152604081015160608201516080830151171760e089013517610100890135176effffffffffffffffffffffffffffff8111156119f15760405162461bcd60e51b815260206004820152601860248201527f41413934206761732076616c756573206f766572666c6f7700000000000000006044820152606401610595565b6000806119fd846120d3565b9050611a0c8c8c8c8c85612121565b995096509150611a1b43600052565b60a08401516060906001600160a01b031615611a4357611a3e8d8d8d85876124ee565b985090505b60005a87039050808d60a001351015611abd578d8660a0015160405162fa072b60e01b81526004016105959291909182526001600160a01b03166020820152606060408201819052601e908201527f41413430206f76657220766572696669636174696f6e4761734c696d69740000608082015260a00190565b60408c018390528160608d015260c08d01355a8803018c6080018181525050505050505050509450945094915050565b600080611af984612735565b915091508115611b505760405162fa072b60e01b8152600481018790526000602482015260606044820152601460648201527320a0991a1039b4b3b730ba3ab9329032b93937b960611b608482015260a401610595565b8015611bac5760405162fa072b60e01b8152600481018790526000602482015260606044820152601760648201527f414132322065787069726564206f72206e6f7420647565000000000000000000608482015260a401610595565b611bb583612735565b90925090508115611c1c57845160a0015160405162fa072b60e01b8152600481018890526001600160a01b03909116602482015260606044820152601460648201527320a0999a1039b4b3b730ba3ab9329032b93937b960611b608482015260a401610595565b8015610ab657845160a0015160405162fa072b60e01b8152600481018890526001600160a01b03909116602482015260606044820152602160648201527f41413332207061796d61737465722065787069726564206f72206e6f742064756084820152606560f81b60a482015260c401610595565b6000805a90506000611ca4846060015190565b905030631d732756611cb96060880188613045565b87856040518563ffffffff1660e01b8152600401611cda9493929190613545565b6020604051808303816000875af1925050508015611d15575060408051601f3d908101601f19168201909252611d12918101906135f8565b60015b611dbf57600060206000803e50600051632152215360e01b8101611d8a57845160a0015160405162fa072b60e01b8152600481018990526001600160a01b03909116602482015260606044820152600f60648201526e41413935206f7574206f662067617360881b608482015260a401610595565b600085608001515a611d9c9086612fba565b611da69190612ef7565b9050611db688600288868561165d565b94505050611dc2565b92505b50509392505050565b6001600160a01b038216611e215760405162461bcd60e51b815260206004820152601860248201527f4141393020696e76616c69642062656e656669636961727900000000000000006044820152606401610595565b6000826001600160a01b03168260405160006040518083038185875af1925050503d8060008114611e6e576040519150601f19603f3d011682016040523d82523d6000602084013e611e73565b606091505b5050905080611ec45760405162461bcd60e51b815260206004820152601f60248201527f41413931206661696c65642073656e6420746f2062656e6566696369617279006044820152606401610595565b505050565b6000611ed482612780565b805190602001209050919050565b6000806000611ef0856127bf565b9194509250905060008080611f04876127bf565b9250925092508580611f135750825b9550816001600160401b0316856001600160401b03161015611f33578194505b806001600160401b0316846001600160401b03161115611f51578093505b5050509250925092565b604080518082018252600080825260208083018281526001600160a01b03959095168252819052919091208054600160781b90046001600160701b031682526001015463ffffffff1690915290565b60c081015160e082015160009190808203611fc6575092915050565b611fd2824883016127e5565b949350505050565b611fe76020830183612e89565b6001600160a01b0316815260208083013590820152608080830135604083015260a0830135606083015260c0808401359183019190915260e0808401359183019190915261010083013590820152366000612046610120850185613045565b909250905080156120c65760148110156120a25760405162461bcd60e51b815260206004820152601d60248201527f4141393320696e76616c6964207061796d6173746572416e64446174610000006044820152606401610595565b6120b0601460008385613294565b6120b9916132be565b60601c60a0840152610c34565b600060a084015250505050565b60a081015160009081906001600160a01b03166120f15760016120f4565b60035b60ff169050600083608001518285606001510285604001510101905061211984611faa565b029392505050565b6000806000805a87518051919250906121478b8a61214260408e018e613045565b6127ff565b6000196001600160a01b038916016122bd5761216243600052565b806001600160a01b03163b6000036121ca5760405162fa072b60e01b8152600060048201819052602482015260606044820152601960648201527f41413230206163636f756e74206e6f74206465706c6f79656400000000000000608482015260a401610595565b60a08201516001600160a01b0316158015906121f2575060a08201516001600160a01b03163b155b1561224d5760405162fa072b60e01b8152600060048201819052602482015260606044820152601b60648201527f41413330207061796d6173746572206e6f74206465706c6f7965640000000000608482015260a401610595565b806001600160a01b0316633ad59dbc6040518163ffffffff1660e01b8152600401602060405180830381865afa9250505080156122a7575060408051601f3d908101601f191682019092526122a491810190613611565b60015b6122b757600094508497506122bd565b97508794505b60a08201516000906001600160a01b03811661230b576001600160a01b0383166000908152602081905260409020546001600160701b031689811161230457808a03612307565b60005b9250505b826001600160a01b0316630825d1fc85606001518e8e602001518e876040518663ffffffff1660e01b8152600401612346949392919061362e565b60206040518083038160008887f193505050508015612382575060408051601f3d908101601f1916820190925261237f918101906135f8565b60015b61241d5761238e613476565b806308c379a0036123cc57506123a2613492565b806123ad57506123ce565b8d60008260405162fa072b60e01b81526004016105959392919061351b565b505b60405162fa072b60e01b8152600481018e9052600060248201526060604482015260166064820152754141323320726576657274656420286f72204f4f472960501b608482015260a401610595565b95506001600160a01b0381166124d9576001600160a01b038316600090815260208190526040902080546001600160701b0316808b11156124bc578e600060405162fa072b60e01b81526004016105959291909182526001600160a01b031660208201526060604082018190526017908201527f41413231206469646e2774207061792070726566756e64000000000000000000608082015260a00190565b81546001600160701b031916908b90036001600160701b03161790555b5a850397505050505050955095509592505050565b8251606081810151909160009184811161254a5760405162461bcd60e51b815260206004820152601f60248201527f4141343120746f6f206c6974746c6520766572696669636174696f6e476173006044820152606401610595565b60a08201516001600160a01b038116600090815260208190526040902080548784039291906001600160701b0316898110156125de5760405162fa072b60e01b8152600481018e90526001600160a01b038416602482015260606044820152601e60648201527f41413331207061796d6173746572206465706f73697420746f6f206c6f770000608482015260a401610595565b8981038260000160006101000a8154816001600160701b0302191690836001600160701b03160217905550826001600160a01b031663f465c77e858e8e602001518e6040518563ffffffff1660e01b815260040161263e93929190613666565b60006040518083038160008887f19350505050801561267f57506040513d6000823e601f3d908101601f1916820160405261267c919081019061368b565b60015b6127215761268b613476565b806308c379a0036126c8575061269f613492565b806126aa57506126ca565b8d848260405162fa072b60e01b81526004016105959392919061351b565b505b60405162fa072b60e01b8152600481018e90526001600160a01b03841660248201526060604482015260166064820152754141333320726576657274656420286f72204f4f472960501b608482015260a401610595565b909e909d509b505050505050505050505050565b6000808260000361274b57506000928392509050565b600080612757856127bf565b9195506001600160401b0390811693501690504281108061277757508142105b92505050915091565b6060366000612793610140850185613045565b915091508360208184030360405194506020810185016040528085528082602087013750505050919050565b60ff811615156000806127d76001600886901c61372c565b929460489490941c93915050565b60008183106127f457816127f6565b825b90505b92915050565b8015610c34578251516001600160a01b0381163b1561286e5760405162fa072b60e01b8152600481018690526000602482015260606044820152601f60648201527f414131302073656e64657220616c726561647920636f6e737472756374656400608482015260a401610595565b835160600151604051632b870d1b60e11b81526000916001600160a01b037f0000000000000000000000000000000000000000000000000000000000000000169163570e1a3691906128c6908890889060040161374c565b60206040518083038160008887f11580156128e5573d6000803e3d6000fd5b50505050506040513d601f19601f8201168201806040525081019061290a9190613611565b90506001600160a01b0381166129705760405162fa072b60e01b8152600481018790526000602482015260606044820152601b60648201527f4141313320696e6974436f6465206661696c6564206f72204f4f470000000000608482015260a401610595565b816001600160a01b0316816001600160a01b0316146129df5760405162fa072b60e01b8152600481018790526000602482015260606044820152602060648201527f4141313420696e6974436f6465206d7573742072657475726e2073656e646572608482015260a401610595565b806001600160a01b03163b600003612a475760405162fa072b60e01b8152600481018790526000602482015260606044820152602060648201527f4141313520696e6974436f6465206d757374206372656174652073656e646572608482015260a401610595565b6000612a566014828688613294565b612a5f916132be565b60601c9050826001600160a01b031686602001517fd51a9c61267aa6196961883ecf5ff2da6619c37dac0fa92122513fb32c032d2d83896000015160a00151604051612ac19291906001600160a01b0392831681529116602082015260400190565b60405180910390a350505050505050565b6040518060a00160405280612b3760405180610100016040528060006001600160a01b031681526020016000815260200160008152602001600081526020016000815260200160006001600160a01b0316815260200160008152602001600081525090565b8152602001600080191681526020016000815260200160008152602001600081525090565b600060208284031215612b6e57600080fd5b813563ffffffff81168114612b8257600080fd5b9392505050565b60008083601f840112612b9b57600080fd5b5081356001600160401b03811115612bb257600080fd5b602083019150836020828501011115612bca57600080fd5b9250929050565b634e487b7160e01b600052604160045260246000fd5b60a081018181106001600160401b0382111715612c0657612c06612bd1565b60405250565b61010081018181106001600160401b0382111715612c0657612c06612bd1565b601f8201601f191681016001600160401b0381118282101715612c5157612c51612bd1565b6040525050565b6001600160a01b0381168114612c6d57600080fd5b50565b8035612c7b81612c58565b919050565b60008060008060008587036101c0811215612c9a57600080fd5b86356001600160401b0380821115612cb157600080fd5b612cbd8a838b01612b89565b9098509650601f199290920191610180915081831215612cdc57600080fd5b604051612ce881612be7565b61010080851215612cf857600080fd5b6040519450612d0685612c0c565b612d1260208c01612c70565b855260408b0135602086015260608b0135604086015260808b0135606086015260a08b01356080860152612d4860c08c01612c70565b60a086015260e08b81013560c0870152908b0135908501529283526101208901356020840152610140890135604084015261016089013560608401528189013560808401529194506101a08801359180831115612da457600080fd5b5050612db288828901612b89565b969995985093965092949392505050565b60008083601f840112612dd557600080fd5b5081356001600160401b03811115612dec57600080fd5b6020830191508360208260051b8501011115612bca57600080fd5b600080600060408486031215612e1c57600080fd5b83356001600160401b03811115612e3257600080fd5b612e3e86828701612dc3565b9094509250506020840135612e5281612c58565b809150509250925092565b60008060408385031215612e7057600080fd5b8235612e7b81612c58565b946020939093013593505050565b600060208284031215612e9b57600080fd5b8135612b8281612c58565b600060208284031215612eb857600080fd5b81356001600160401b03811115612ece57600080fd5b82016101608185031215612b8257600080fd5b634e487b7160e01b600052601160045260246000fd5b808201808211156127f9576127f9612ee1565b8183823760009101908152919050565b60005b83811015612f35578181015183820152602001612f1d565b50506000910152565b60008151808452612f56816020860160208601612f1a565b601f01601f19169290920160200192915050565b828152604060208201526000611fd26040830184612f3e565b634e487b7160e01b600052603260045260246000fd5b6000823561015e19833603018112612fb057600080fd5b9190910192915050565b818103818111156127f9576127f9612ee1565b60008235605e19833603018112612fb057600080fd5b6000808335601e19843603018112612ffa57600080fd5b8301803591506001600160401b0382111561301457600080fd5b6020019150600581901b3603821315612bca57600080fd5b60006001820161303e5761303e612ee1565b5060010190565b6000808335601e1984360301811261305c57600080fd5b8301803591506001600160401b0382111561307657600080fd5b602001915036819003821315612bca57600080fd5b6000808335601e198436030181126130a257600080fd5b83016020810192503590506001600160401b038111156130c157600080fd5b803603821315612bca57600080fd5b81835281816020850137506000828201602090810191909152601f909101601f19169091010190565b60006101606131188461310b85612c70565b6001600160a01b03169052565b6020830135602085015261312f604084018461308b565b82604087015261314283870182846130d0565b92505050613153606084018461308b565b85830360608701526131668382846130d0565b925050506080830135608085015260a083013560a085015260c083013560c085015260e083013560e08501526101008084013581860152506101206131ad8185018561308b565b868403838801526131bf8482846130d0565b93505050506101406131d38185018561308b565b868403838801526131e58482846130d0565b979650505050505050565b6040808252810184905260006060600586901b830181019083018783805b8981101561325657868503605f190184528235368c900361015e19018112613234578283fd5b613240868d83016130f9565b955050602093840193929092019160010161320e565b5050505082810360208401526131e58185876130d0565b6001600160401b0381811683821601908082111561328d5761328d612ee1565b5092915050565b600080858511156132a457600080fd5b838611156132b157600080fd5b5050820193919092039150565b6001600160601b031981358181169160148510156132e65780818660140360031b1b83161692505b505092915050565b8051825260208101516020830152604081015115156040830152600060608201516001600160401b038082166060860152806080850151166080860152505060a082015160c060a0850152611fd260c0850182612f3e565b600061014080835261335a818401896132ee565b915050613374602083018780518252602090810151910152565b845160608301526020948501516080830152835160a08301529284015160c082015281516001600160a01b031660e0820152908301518051610100830152909201516101209092019190915292915050565b60e0815260006133d960e08301876132ee565b90506133f2602083018680518252602090810151910152565b8351606083015260208401516080830152825160a0830152602083015160c0830152610973565b634e487b7160e01b600052602160045260246000fd5b60006003851061344f57634e487b7160e01b600052602160045260246000fd5b848252606060208301526134666060830185612f3e565b9050826040830152949350505050565b600060033d111561348f5760046000803e5060005160e01c5b90565b600060443d10156134a05790565b6040516003193d81016004833e81513d6001600160401b0381602484011181841117156134cf57505050505090565b82850191508151818111156134e75750505050505090565b843d87010160208285010111156135015750505050505090565b61351060208286010187612c2c565b509095945050505050565b8381526001600160a01b038316602082015260606040820181905260009061097390830184612f3e565b60006101c080835261355a81840187896130d0565b9050845160018060a01b03808251166020860152602082015160408601526040820151606086015260608201516080860152608082015160a08601528060a08301511660c08601525060c081015160e085015260e08101516101008501525060208501516101208401526040850151610140840152606085015161016084015260808501516101808401528281036101a08401526131e58185612f3e565b60006020828403121561360a57600080fd5b5051919050565b60006020828403121561362357600080fd5b8151612b8281612c58565b60808152600061364160808301876130f9565b6020830195909552506001600160a01b03929092166040830152606090910152919050565b60608152600061367960608301866130f9565b60208301949094525060400152919050565b6000806040838503121561369e57600080fd5b82516001600160401b03808211156136b557600080fd5b818501915085601f8301126136c957600080fd5b8151818111156136db576136db612bd1565b60405191506136f4601f8201601f191660200183612c2c565b80825286602082850101111561370957600080fd5b61371a816020840160208601612f1a565b50602094909401519395939450505050565b818103600083128015838313168383128216171561328d5761328d612ee1565b602081526000611fd26020830184866130d056fea264697066735822122077d34739263480a9bbb6d277f6b2fcee11db662180c14d8b25b328fefe7edc1d64736f6c63430008110033",
  "devdoc": {
    "errors": {
      "FailedOp(uint256,address,string)": [
        {
          "params": {
            "opIndex": "- index into the array of ops to the failed one (in simulateValidation, this is always zero)",
            "paymaster": "- if paymaster.validatePaymasterUserOp fails, this will be the paymaster's address. if validateUserOp failed,       this value will be zero (since it failed before accessing the paymaster)",
            "reason": "- revert reason   Should be caught in off-chain handleOps simulation and not happen on-chain.   Useful for mitigating DoS attempts against batchers or for troubleshooting of account/paymaster reverts."
          }
        }
      ],
      "ValidationResult((uint256,uint256,bool,uint64,uint64,bytes),(uint256,uint256),(uint256,uint256),(uint256,uint256))": [
        {
          "params": {
            "factoryInfo": "stake information about the factor (if any)",
            "paymasterInfo": "stake information about the paymaster (if any)",
            "returnInfo": "gas and time-range returned values",
            "senderInfo": "stake information about the sender"
          }
        }
      ],
      "ValidationResultWithAggregation((uint256,uint256,bool,uint64,uint64,bytes),(uint256,uint256),(uint256,uint256),(uint256,uint256),(address,(uint256,uint256)))": [
        {
          "params": {
            "aggregatorInfo": "signature aggregation info (if the account requires signature aggregator)      bundler MUST use it to verify the signature, or reject the UserOperation",
            "factoryInfo": "stake information about the factor (if any)",
            "paymasterInfo": "stake information about the paymaster (if any)",
            "returnInfo": "gas and time-range returned values",
            "senderInfo": "stake information about the sender"
          }
        }
      ]
    },
    "kind": "dev",
    "methods": {
      "addStake(uint32)": {
        "params": {
          "_unstakeDelaySec": "the new lock duration before the deposit can be withdrawn."
        }
      },
      "handleAggregatedOps(((address,uint256,bytes,bytes,uint256,uint256,uint256,uint256,uint256,bytes,bytes)[],address,bytes)[],address)": {
        "params": {
          "beneficiary": "the address to receive the fees",
          "opsPerAggregator": "the operations to execute, grouped by aggregator (or address(0) for no-aggregator accounts)"
        }
      },
      "handleOps((address,uint256,bytes,bytes,uint256,uint256,uint256,uint256,uint256,bytes,bytes)[],address)": {
        "params": {
          "beneficiary": "the address to receive the fees",
          "ops": "the operations to execute"
        }
      },
      "simulateValidation((address,uint256,bytes,bytes,uint256,uint256,uint256,uint256,uint256,bytes,bytes))": {
        "details": "this method always revert. Successful result is ValidationResult error. other errors are failures.The node must also verify it doesn't use banned opcodes, and that it doesn't reference storage outside the account's data.",
        "params": {
          "userOp": "the user operation to validate."
        }
      },
      "withdrawStake(address)": {
        "params": {
          "withdrawAddress": "the address to send withdrawn value."
        }
      },
      "withdrawTo(address,uint256)": {
        "params": {
          "withdrawAddress": "the address to send withdrawn value.",
          "withdrawAmount": "the amount to withdraw."
        }
      }
    },
    "version": 1
  },
  "userdoc": {
    "errors": {
      "FailedOp(uint256,address,string)": [
        {
          "notice": "a custom revert error of handleOps, to identify the offending op.  NOTE: if simulateValidation passes successfully, there should be no reason for handleOps to fail on it."
        }
      ],
      "SenderAddressResult(address)": [
        {
          "notice": "return value of getSenderAddress"
        }
      ],
      "SignatureValidationFailed(address)": [
        {
          "notice": "error case when a signature aggregator fails to verify the aggregated signature it had created."
        }
      ],
      "ValidationResult((uint256,uint256,bool,uint64,uint64,bytes),(uint256,uint256),(uint256,uint256),(uint256,uint256))": [
        {
          "notice": "Successful result from simulateValidation."
        }
      ],
      "ValidationResultWithAggregation((uint256,uint256,bool,uint64,uint64,bytes),(uint256,uint256),(uint256,uint256),(uint256,uint256),(address,(uint256,uint256)))": [
        {
          "notice": "Successful result from simulateValidation, if the account returns a signature aggregator"
        }
      ]
    },
    "events": {
      "AccountDeployed(bytes32,address,address,address)": {
        "notice": "account \"sender\" was deployed."
      },
      "SignatureAggregatorChanged(address)": {
        "notice": "signature aggregator used by the following UserOperationEvents within this bundle."
      },
      "StakeLocked(address,uint256,uint256)": {
        "notice": "Emitted once a stake is scheduled for withdrawal"
      },
      "StakeUnlocked(address,uint256)": {
        "notice": "Emitted once a stake is scheduled for withdrawal"
      },
      "UserOperationRevertReason(bytes32,address,uint256,bytes)": {
        "notice": "An event emitted if the UserOperation \"callData\" reverted with non-zero length"
      }
    },
    "kind": "user",
    "methods": {
      "SIG_VALIDATION_FAILED()": {
        "notice": "for simulation purposes, validateUserOp (and validatePaymasterUserOp) must return this value in case of signature failure, instead of revert."
      },
      "addStake(uint32)": {
        "notice": "add to the account's stake - amount and delay any pending unstake is first cancelled."
      },
      "balanceOf(address)": {
        "notice": "return the deposit (for gas payment) of the account"
      },
      "depositTo(address)": {
        "notice": "add to the deposit of the given account"
      },
      "deposits(address)": {
        "notice": "maps paymaster to their deposits and stakes"
      },
      "getUserOpHash((address,uint256,bytes,bytes,uint256,uint256,uint256,uint256,uint256,bytes,bytes))": {
        "notice": "generate a request Id - unique identifier for this request. the request ID is a hash over the content of the userOp (except the signature), the entrypoint and the chainid."
      },
      "handleAggregatedOps(((address,uint256,bytes,bytes,uint256,uint256,uint256,uint256,uint256,bytes,bytes)[],address,bytes)[],address)": {
        "notice": "Execute a batch of UserOperation with Aggregators"
      },
      "handleOps((address,uint256,bytes,bytes,uint256,uint256,uint256,uint256,uint256,bytes,bytes)[],address)": {
        "notice": "Execute a batch of UserOperation. no signature aggregator is used. if any account requires an aggregator (that is, it returned an \"actualAggregator\" when performing simulateValidation), then handleAggregatedOps() must be used instead."
      },
      "innerHandleOp(bytes,((address,uint256,uint256,uint256,uint256,address,uint256,uint256),bytes32,uint256,uint256,uint256),bytes)": {
        "notice": "inner function to handle a UserOperation. Must be declared \"external\" to open a call context, but it can only be called by handleOps."
      },
      "simulateHandleOp((address,uint256,bytes,bytes,uint256,uint256,uint256,uint256,uint256,bytes,bytes))": {
        "notice": "simulate full execution of a UserOperation (including both validation and target execution) this method will always revert with \"ExecutionResult\". it performs full validation of the UserOperation, but ignores signature error. Note that in order to collect the the success/failure of the target call, it must be executed with trace enabled to track the emitted events."
      },
      "simulateValidation((address,uint256,bytes,bytes,uint256,uint256,uint256,uint256,uint256,bytes,bytes))": {
        "notice": "Simulate a call to account.validateUserOp and paymaster.validatePaymasterUserOp."
      },
      "unlockStake()": {
        "notice": "attempt to unlock the stake. the value can be withdrawn (using withdrawStake) after the unstake delay."
      },
      "withdrawStake(address)": {
        "notice": "withdraw from the (unlocked) stake. must first call unlockStake and wait for the unstakeDelay to pass"
      },
      "withdrawTo(address,uint256)": {
        "notice": "withdraw from the deposit."
      }
    },
    "version": 1
  },
  "storageLayout": {
    "storage": [
      {
        "astId": 2740,
        "contract": "contracts/eip4337/core/EntryPoint.sol:EntryPoint",
        "label": "deposits",
        "offset": 0,
        "slot": "0",
        "type": "t_mapping(t_address,t_struct(DepositInfo)3492_storage)"
      }
    ],
    "types": {
      "t_address": {
        "encoding": "inplace",
        "label": "address",
        "numberOfBytes": "20"
      },
      "t_bool": {
        "encoding": "inplace",
        "label": "bool",
        "numberOfBytes": "1"
      },
      "t_mapping(t_address,t_struct(DepositInfo)3492_storage)": {
        "encoding": "mapping",
        "key": "t_address",
        "label": "mapping(address => struct IStakeManager.DepositInfo)",
        "numberOfBytes": "32",
        "value": "t_struct(DepositInfo)3492_storage"
      },
      "t_struct(DepositInfo)3492_storage": {
        "encoding": "inplace",
        "label": "struct IStakeManager.DepositInfo",
        "members": [
          {
            "astId": 3483,
            "contract": "contracts/eip4337/core/EntryPoint.sol:EntryPoint",
            "label": "deposit",
            "offset": 0,
            "slot": "0",
            "type": "t_uint112"
          },
          {
            "astId": 3485,
            "contract": "contracts/eip4337/core/EntryPoint.sol:EntryPoint",
            "label": "staked",
            "offset": 14,
            "slot": "0",
            "type": "t_bool"
          },
          {
            "astId": 3487,
            "contract": "contracts/eip4337/core/EntryPoint.sol:EntryPoint",
            "label": "stake",
            "offset": 15,
            "slot": "0",
            "type": "t_uint112"
          },
          {
            "astId": 3489,
            "contract": "contracts/eip4337/core/EntryPoint.sol:EntryPoint",
            "label": "unstakeDelaySec",
            "offset": 0,
            "slot": "1",
            "type": "t_uint32"
          },
          {
            "astId": 3491,
            "contract": "contracts/eip4337/core/EntryPoint.sol:EntryPoint",
            "label": "withdrawTime",
            "offset": 4,
            "slot": "1",
            "type": "t_uint64"
          }
        ],
        "numberOfBytes": "64"
      },
      "t_uint112": {
        "encoding": "inplace",
        "label": "uint112",
        "numberOfBytes": "14"
      },
      "t_uint32": {
        "encoding": "inplace",
        "label": "uint32",
        "numberOfBytes": "4"
      },
      "t_uint64": {
        "encoding": "inplace",
        "label": "uint64",
        "numberOfBytes": "8"
      }
    }
  }
}