{
  "address": "0xCA25952469BBae82c63A7A75D8aBc7dBf9442e18",
  "abi": [
    {
      "inputs": [
        {
          "internalType": "bytes",
          "name": "initCode",
          "type": "bytes"
        }
      ],
      "name": "createSender",
      "outputs": [
        {
          "internalType": "address",
          "name": "sender",
          "type": "address"
        }
      ],
      "stateMutability": "nonpayable",
      "type": "function"
    },
    {
      "inputs": [
        {
          "internalType": "bytes",
          "name": "initCode",
          "type": "bytes"
        }
      ],
      "name": "getAddress",
      "outputs": [
        {
          "internalType": "address",
          "name": "",
          "type": "address"
        }
      ],
      "stateMutability": "view",
      "type": "function"
    }
  ],
  "transactionHash": "0x8802d864ca4fb8c45e04015a5830d4e9f522bb4d818ae9bb9c83a058282eefa3",
  "args": [],
  "numDeployments": 2,
  "solcInputHash": "c597daaabc672b8423039a30fbf09f03",
  "bytecode": "0x608060405234801561001057600080fd5b506104ee806100206000396000f3fe608060405234801561001057600080fd5b50600436106100365760003560e01c8063570e1a361461003b578063c47cf5de1461006a575b600080fd5b61004e610049366004610345565b61007d565b6040516001600160a01b03909116815260200160405180910390f35b61004e610078366004610345565b610114565b60008061008d60148285876103b7565b610096916103e1565b60601c905060006100ab6034601486886103b7565b6100b491610416565b905060006100c585603481896103b7565b8080601f01602080910402602001604051908101604052809392919081815260200183838082843760009201919091525092935061010a9250859150839050846101f5565b9695505050505050565b6000806101256034601485876103b7565b61012e91610416565b9050600061013f60148286886103b7565b610148916103e1565b60601c9050600060405180606001604052806028815260200161049160289139826001600160a01b0316604051602001610183929190610464565b60408051808303601f1901815282825280516020918201206001600160f81b0319828501523060601b6bffffffffffffffffffffffff19166021850152603584019690965260558084019690965281518084039096018652607590920190528351930192909220925050505b92915050565b60008060405180606001604052806028815260200161049160289139856001600160a01b031660405160200161022c929190610464565b6040516020818303038152906040529050828151826020016000f591506001600160a01b03821661029a5760405162461bcd60e51b815260206004820152601360248201527210dc99585d194c8818d85b1b0819985a5b1959606a1b60448201526064015b60405180910390fd5b6000826001600160a01b0316856040516102b4919061047d565b6000604051808303816000865af19150503d80600081146102f1576040519150601f19603f3d011682016040523d82523d6000602084013e6102f6565b606091505b505090508061033c5760405162461bcd60e51b81526020600482015260126024820152711a5b9a5d081dd85b1b195d0819985a5b195960721b6044820152606401610291565b50509392505050565b6000806020838503121561035857600080fd5b823567ffffffffffffffff8082111561037057600080fd5b818501915085601f83011261038457600080fd5b81358181111561039357600080fd5b8660208285010111156103a557600080fd5b60209290920196919550909350505050565b600080858511156103c757600080fd5b838611156103d457600080fd5b5050820193919092039150565b6bffffffffffffffffffffffff19813581811691601485101561040e5780818660140360031b1b83161692505b505092915050565b803560208310156101ef57600019602084900360031b1b1692915050565b6000815160005b81811015610455576020818501810151868301520161043b565b50600093019283525090919050565b60006104708285610434565b9283525050602001919050565b60006104898284610434565b939250505056fe603a600e3d39601a805130553df3363d3d373d3d3d363d30545af43d82803e903d91601857fd5bf3a26469706673582212203585792477fbd4435140a3e196b7cb0bc5f3b755621348f1d894b7a7b2c1913064736f6c63430008110033",
  "devdoc": {
    "kind": "dev",
    "methods": {},
    "version": 1
  },
  "userdoc": {
    "kind": "user",
    "methods": {},
    "notice": "helper contract for EntryPoint, to call userOp.initCode from a \"neutral\" address, which is explicitly not the entryPoint itself.",
    "version": 1
  },
  "storageLayout": {
    "storage": [],
    "types": null
  }
}