{
  "address": "0x56B61B9dDe85225b7899922D8dBBAFB27adA514a",
  "abi": [
    {
      "inputs": [
        {
          "internalType": "contract IEntryPoint",
          "name": "entryPoint",
          "type": "address"
        }
      ],
      "stateMutability": "nonpayable",
      "type": "constructor"
    },
    {
      "anonymous": false,
      "inputs": [
        {
          "indexed": false,
          "internalType": "address",
          "name": "owner",
          "type": "address"
        },
        {
          "indexed": false,
          "internalType": "bytes4",
          "name": "sessionKey",
          "type": "bytes4"
        }
      ],
      "name": "AddedSession",
      "type": "event"
    },
    {
      "anonymous": false,
      "inputs": [
        {
          "indexed": false,
          "internalType": "address",
          "name": "handler",
          "type": "address"
        }
      ],
      "name": "ChangedFallbackHandler",
      "type": "event"
    },
    {
      "anonymous": false,
      "inputs": [
        {
          "indexed": false,
          "internalType": "address",
          "name": "guard",
          "type": "address"
        }
      ],
      "name": "ChangedGuard",
      "type": "event"
    },
    {
      "anonymous": false,
      "inputs": [
        {
          "indexed": false,
          "internalType": "address",
          "name": "module",
          "type": "address"
        }
      ],
      "name": "DisabledModule",
      "type": "event"
    },
    {
      "anonymous": false,
      "inputs": [
        {
          "indexed": false,
          "internalType": "address",
          "name": "module",
          "type": "address"
        }
      ],
      "name": "EnabledModule",
      "type": "event"
    },
    {
      "anonymous": false,
      "inputs": [
        {
          "indexed": true,
          "internalType": "address",
          "name": "module",
          "type": "address"
        }
      ],
      "name": "ExecutionFromModuleFailure",
      "type": "event"
    },
    {
      "anonymous": false,
      "inputs": [
        {
          "indexed": true,
          "internalType": "address",
          "name": "module",
          "type": "address"
        }
      ],
      "name": "ExecutionFromModuleSuccess",
      "type": "event"
    },
    {
      "anonymous": false,
      "inputs": [
        {
          "indexed": true,
          "internalType": "address",
          "name": "sender",
          "type": "address"
        },
        {
          "indexed": false,
          "internalType": "uint256",
          "name": "value",
          "type": "uint256"
        }
      ],
      "name": "NativeTokenReceived",
      "type": "event"
    },
    {
      "anonymous": false,
      "inputs": [
        {
          "indexed": false,
          "internalType": "uint256",
          "name": "_space",
          "type": "uint256"
        },
        {
          "indexed": false,
          "internalType": "uint256",
          "name": "_newNonce",
          "type": "uint256"
        }
      ],
      "name": "NonceChange",
      "type": "event"
    },
    {
      "anonymous": false,
      "inputs": [
        {
          "indexed": false,
          "internalType": "address",
          "name": "owner",
          "type": "address"
        },
        {
          "indexed": false,
          "internalType": "bytes4",
          "name": "sessionKey",
          "type": "bytes4"
        }
      ],
      "name": "RemovedSession",
      "type": "event"
    },
    {
      "anonymous": false,
      "inputs": [
        {
          "indexed": true,
          "internalType": "address",
          "name": "sessionOwner",
          "type": "address"
        },
        {
          "indexed": false,
          "internalType": "bytes4",
          "name": "platform",
          "type": "bytes4"
        },
        {
          "indexed": false,
          "internalType": "address",
          "name": "fallbackHandler",
          "type": "address"
        }
      ],
      "name": "SodiumSetup",
      "type": "event"
    },
    {
      "stateMutability": "nonpayable",
      "type": "fallback"
    },
    {
      "inputs": [],
      "name": "VERSION",
      "outputs": [
        {
          "internalType": "string",
          "name": "",
          "type": "string"
        }
      ],
      "stateMutability": "view",
      "type": "function"
    },
    {
      "inputs": [],
      "name": "_entryPoint",
      "outputs": [
        {
          "internalType": "address",
          "name": "",
          "type": "address"
        }
      ],
      "stateMutability": "view",
      "type": "function"
    },
    {
      "inputs": [
        {
          "internalType": "address",
          "name": "owner",
          "type": "address"
        },
        {
          "internalType": "bytes4",
          "name": "platform",
          "type": "bytes4"
        }
      ],
      "name": "addSession",
      "outputs": [],
      "stateMutability": "nonpayable",
      "type": "function"
    },
    {
      "inputs": [
        {
          "internalType": "address",
          "name": "prevModule",
          "type": "address"
        },
        {
          "internalType": "address",
          "name": "module",
          "type": "address"
        }
      ],
      "name": "disableModule",
      "outputs": [],
      "stateMutability": "nonpayable",
      "type": "function"
    },
    {
      "inputs": [],
      "name": "domainSeparator",
      "outputs": [
        {
          "internalType": "bytes32",
          "name": "",
          "type": "bytes32"
        }
      ],
      "stateMutability": "view",
      "type": "function"
    },
    {
      "inputs": [
        {
          "internalType": "address",
          "name": "module",
          "type": "address"
        }
      ],
      "name": "enableModule",
      "outputs": [],
      "stateMutability": "nonpayable",
      "type": "function"
    },
    {
      "inputs": [],
      "name": "entryPoint",
      "outputs": [
        {
          "internalType": "contract IEntryPoint",
          "name": "",
          "type": "address"
        }
      ],
      "stateMutability": "view",
      "type": "function"
    },
    {
      "inputs": [
        {
          "internalType": "address",
          "name": "to",
          "type": "address"
        },
        {
          "internalType": "uint256",
          "name": "value",
          "type": "uint256"
        },
        {
          "internalType": "bytes",
          "name": "data",
          "type": "bytes"
        },
        {
          "internalType": "enum Enum.Operation",
          "name": "operation",
          "type": "uint8"
        }
      ],
      "name": "execTransactionFromModule",
      "outputs": [
        {
          "internalType": "bool",
          "name": "success",
          "type": "bool"
        }
      ],
      "stateMutability": "nonpayable",
      "type": "function"
    },
    {
      "inputs": [
        {
          "internalType": "address",
          "name": "to",
          "type": "address"
        },
        {
          "internalType": "uint256",
          "name": "value",
          "type": "uint256"
        },
        {
          "internalType": "bytes",
          "name": "data",
          "type": "bytes"
        },
        {
          "internalType": "enum Enum.Operation",
          "name": "operation",
          "type": "uint8"
        }
      ],
      "name": "execTransactionFromModuleReturnData",
      "outputs": [
        {
          "internalType": "bool",
          "name": "success",
          "type": "bool"
        },
        {
          "internalType": "bytes",
          "name": "returnData",
          "type": "bytes"
        }
      ],
      "stateMutability": "nonpayable",
      "type": "function"
    },
    {
      "inputs": [
        {
          "components": [
            {
              "internalType": "enum Enum.Operation",
              "name": "op",
              "type": "uint8"
            },
            {
              "internalType": "bool",
              "name": "revertOnError",
              "type": "bool"
            },
            {
              "internalType": "uint256",
              "name": "gasLimit",
              "type": "uint256"
            },
            {
              "internalType": "address",
              "name": "target",
              "type": "address"
            },
            {
              "internalType": "uint256",
              "name": "value",
              "type": "uint256"
            },
            {
              "internalType": "bytes",
              "name": "data",
              "type": "bytes"
            }
          ],
          "internalType": "struct Transaction[]",
          "name": "_txs",
          "type": "tuple[]"
        }
      ],
      "name": "execute",
      "outputs": [],
      "stateMutability": "nonpayable",
      "type": "function"
    },
    {
      "inputs": [],
      "name": "getChainId",
      "outputs": [
        {
          "internalType": "uint256",
          "name": "",
          "type": "uint256"
        }
      ],
      "stateMutability": "view",
      "type": "function"
    },
    {
      "inputs": [],
      "name": "getSessionOwners",
      "outputs": [
        {
          "internalType": "address[]",
          "name": "",
          "type": "address[]"
        }
      ],
      "stateMutability": "view",
      "type": "function"
    },
    {
      "inputs": [],
      "name": "getSingleton",
      "outputs": [
        {
          "internalType": "address",
          "name": "_imp",
          "type": "address"
        }
      ],
      "stateMutability": "view",
      "type": "function"
    },
    {
      "inputs": [
        {
          "internalType": "address",
          "name": "module",
          "type": "address"
        }
      ],
      "name": "isModuleEnabled",
      "outputs": [
        {
          "internalType": "bool",
          "name": "",
          "type": "bool"
        }
      ],
      "stateMutability": "view",
      "type": "function"
    },
    {
      "inputs": [
        {
          "internalType": "address",
          "name": "owner",
          "type": "address"
        }
      ],
      "name": "isSessionOwner",
      "outputs": [
        {
          "internalType": "bool",
          "name": "",
          "type": "bool"
        }
      ],
      "stateMutability": "view",
      "type": "function"
    },
    {
      "inputs": [],
      "name": "isSodiumSingleton",
      "outputs": [
        {
          "internalType": "bool",
          "name": "",
          "type": "bool"
        }
      ],
      "stateMutability": "pure",
      "type": "function"
    },
    {
      "inputs": [],
      "name": "nonce",
      "outputs": [
        {
          "internalType": "uint256",
          "name": "",
          "type": "uint256"
        }
      ],
      "stateMutability": "view",
      "type": "function"
    },
    {
      "inputs": [
        {
          "internalType": "uint256",
          "name": "_space",
          "type": "uint256"
        }
      ],
      "name": "readNonce",
      "outputs": [
        {
          "internalType": "uint256",
          "name": "",
          "type": "uint256"
        }
      ],
      "stateMutability": "view",
      "type": "function"
    },
    {
      "inputs": [
        {
          "internalType": "address",
          "name": "owner",
          "type": "address"
        },
        {
          "internalType": "bytes4",
          "name": "platform",
          "type": "bytes4"
        }
      ],
      "name": "removeSession",
      "outputs": [],
      "stateMutability": "nonpayable",
      "type": "function"
    },
    {
      "inputs": [
        {
          "internalType": "address",
          "name": "handler",
          "type": "address"
        }
      ],
      "name": "setFallbackHandler",
      "outputs": [],
      "stateMutability": "nonpayable",
      "type": "function"
    },
    {
      "inputs": [
        {
          "internalType": "address",
          "name": "guard",
          "type": "address"
        }
      ],
      "name": "setGuard",
      "outputs": [],
      "stateMutability": "nonpayable",
      "type": "function"
    },
    {
      "inputs": [
        {
          "internalType": "address",
          "name": "_sessionOwner",
          "type": "address"
        },
        {
          "internalType": "bytes4",
          "name": "_platform",
          "type": "bytes4"
        },
        {
          "internalType": "address",
          "name": "_fallbackHandler",
          "type": "address"
        }
      ],
      "name": "setup",
      "outputs": [],
      "stateMutability": "nonpayable",
      "type": "function"
    },
    {
      "inputs": [
        {
          "internalType": "contract Sodium",
          "name": "newSingleton",
          "type": "address"
        }
      ],
      "name": "upgradeTo",
      "outputs": [],
      "stateMutability": "nonpayable",
      "type": "function"
    },
    {
      "inputs": [
        {
          "components": [
            {
              "internalType": "address",
              "name": "sender",
              "type": "address"
            },
            {
              "internalType": "uint256",
              "name": "nonce",
              "type": "uint256"
            },
            {
              "internalType": "bytes",
              "name": "initCode",
              "type": "bytes"
            },
            {
              "internalType": "bytes",
              "name": "callData",
              "type": "bytes"
            },
            {
              "internalType": "uint256",
              "name": "callGasLimit",
              "type": "uint256"
            },
            {
              "internalType": "uint256",
              "name": "verificationGasLimit",
              "type": "uint256"
            },
            {
              "internalType": "uint256",
              "name": "preVerificationGas",
              "type": "uint256"
            },
            {
              "internalType": "uint256",
              "name": "maxFeePerGas",
              "type": "uint256"
            },
            {
              "internalType": "uint256",
              "name": "maxPriorityFeePerGas",
              "type": "uint256"
            },
            {
              "internalType": "bytes",
              "name": "paymasterAndData",
              "type": "bytes"
            },
            {
              "internalType": "bytes",
              "name": "signature",
              "type": "bytes"
            }
          ],
          "internalType": "struct UserOperation",
          "name": "userOp",
          "type": "tuple"
        },
        {
          "internalType": "bytes32",
          "name": "userOpHash",
          "type": "bytes32"
        },
        {
          "internalType": "uint256",
          "name": "missingAccountFunds",
          "type": "uint256"
        }
      ],
      "name": "validateUserOp",
      "outputs": [
        {
          "internalType": "uint256",
          "name": "validationData",
          "type": "uint256"
        }
      ],
      "stateMutability": "nonpayable",
      "type": "function"
    },
    {
      "stateMutability": "payable",
      "type": "receive"
    }
  ],
  "transactionHash": "0x1b657f26545c67d96a315ac27128933aa6a788c0f073212be9563a90660d3c55",
  "args": [
    "0xDCa3e88DE9f6A2d55917d1DFE0C81aEDD363c0f9"
  ],
  "numDeployments": 3,
  "solcInputHash": "83c51582ee67b079b63a960908c19d43",
  "bytecode": "0x60a060405234801561001057600080fd5b506040516119bd3803806119bd83398101604081905261002f91610040565b6001600160a01b0316608052610070565b60006020828403121561005257600080fd5b81516001600160a01b038116811461006957600080fd5b9392505050565b60805161191d6100a0600039600081816104060152818161045001528181610e640152611032015261191d6000f3fe60806040526004361061014f5760003560e01c80639a199a4f116100b6578063e009cfde1161006f578063e009cfde14610486578063e19a9dd9146104a6578063eb761718146104c6578063f08a0323146104e6578063f698da2514610506578063ffa1ad741461056d5761018b565b80639a199a4f146103ae578063a71d052b146103ce578063affed0e0146103e2578063b0d691fe146103f7578063b3080c241461043e578063cb103d70146104725761018b565b80634b819ba4116101085780634b819ba4146102de5780635229073f146102fe57806356cdfb6f1461032c578063610b59251461034e5780638aa26d4b1461036e5780638c3f55631461038e5761018b565b80632d9ad53d146101f15780633408e4701461023f5780633659cfe61461025c5780633a871cdd1461027e578063468721a71461029e5780634b574a02146102be5761018b565b3661018b5760405134815233907f9820dd13494dd7d9f03807aa0bb724fe8266855b5ac4db99848a199904f8074b9060200160405180910390a2005b34801561019757600080fd5b507f6c9a6c4a39284e37ed1cf53d337577d14212a4870fb976a4366c693b939918d58054806101c257005b36600080373360601b365260008060143601600080855af190503d6000803e806101eb573d6000fd5b503d6000f35b3480156101fd57600080fd5b5061022a61020c366004611311565b6001600160a01b031660009081526001602052604090205460ff1690565b60405190151581526020015b60405180910390f35b34801561024b57600080fd5b50465b604051908152602001610236565b34801561026857600080fd5b5061027c610277366004611311565b6105ab565b005b34801561028a57600080fd5b5061024e61029936600461132e565b61066a565b3480156102aa57600080fd5b5061022a6102b9366004611476565b610696565b3480156102ca57600080fd5b5061022a6102d9366004611311565b610758565b3480156102ea57600080fd5b5061027c6102f93660046114f8565b6107e0565b34801561030a57600080fd5b5061031e610319366004611476565b6108c3565b604051610236929190611591565b34801561033857600080fd5b506103416108f9565b60405161023691906115ac565b34801561035a57600080fd5b5061027c610369366004611311565b610a50565b34801561037a57600080fd5b5061027c6103893660046115f9565b610b07565b34801561039a57600080fd5b5061024e6103a936600461162e565b610be8565b3480156103ba57600080fd5b5061027c6103c93660046115f9565b610c1a565b3480156103da57600080fd5b50600161022a565b3480156103ee57600080fd5b5061024e610c85565b34801561040357600080fd5b507f00000000000000000000000000000000000000000000000000000000000000005b6040516001600160a01b039091168152602001610236565b34801561044a57600080fd5b506104267f000000000000000000000000000000000000000000000000000000000000000081565b34801561047e57600080fd5b503054610426565b34801561049257600080fd5b5061027c6104a1366004611647565b610c96565b3480156104b257600080fd5b5061027c6104c1366004611311565b610d41565b3480156104d257600080fd5b5061027c6104e136600461168e565b610da6565b3480156104f257600080fd5b5061027c610501366004611311565b610db7565b34801561051257600080fd5b5061024e60007f47e79534a245952e8b16893a336b85a3d9ea9fa8c573f3d803afb92a794692184660408051602081019390935282015230606082015260800160405160208183030381529060405280519060200120905090565b34801561057957600080fd5b5061059e60405180604001604052806005815260200164302e302e3160d81b81525081565b60405161023691906117d7565b6105b3610e20565b806001600160a01b031663a71d052b6040518163ffffffff1660e01b8152600401602060405180830381865afa1580156105f1573d6000803e3d6000fd5b505050506040513d601f19601f8201168201806040525081019061061591906117ea565b61065f5760405162461bcd60e51b81526020600482015260166024820152752737ba10309029b7b234bab69039b4b733b632ba37b760511b60448201526064015b60405180910390fd5b610667813055565b50565b6000610674610e59565b5060006106846040850185611807565b505061068f82610ed1565b9392505050565b3360009081526001602052604081205460ff166106df5760405162461bcd60e51b815260206004820152600760248201526614d113534c4c0d60ca1b6044820152606401610656565b6106ec858585855a610f2a565b905080156107245760405133907f6895c13664aa4f67288b25d7a21d7aaa34916e355fb9b6fae0a139a9085becb890600090a2610750565b60405133907facd2c8702804128fdb0db2bb49f6d127dd0181c13fd45dbfe16de0930e2bd37590600090a25b949350505050565b60006001600160a01b03821661077057506000919050565b600061077a6108f9565b905060005b81518110156107d65781818151811061079a5761079a611855565b60200260200101516001600160a01b0316846001600160a01b0316036107c4575060019392505050565b806107ce8161186b565b91505061077f565b5060009392505050565b60035460ff16156108295760405162461bcd60e51b8152602060048201526013602482015272105b1c9958591e481a5b9a5d1a585b1a5e9959606a1b6044820152606401610656565b6001600160a01b03811661087f5760405162461bcd60e51b815260206004820152601960248201527f52657175697265642066616c6c6261636b2068616e646c6572000000000000006044820152606401610656565b6003805460ff191660011790556108b4817f6c9a6c4a39284e37ed1cf53d337577d14212a4870fb976a4366c693b939918d555565b6108be8383610f71565b505050565b600060606108d386868686610696565b915060405160203d0181016040523d81523d6000602083013e8091505094509492505050565b6040805160038082526080820190925260609160009190602082018480368337505063eaf7652f60e01b600090815260026020527fcef516f59394dcea6f690864bc4b308ea8af47bff3ce7155948d621ccc0bd2795483519394506001600160a01b03169284925061096d5761096d611855565b6001600160a01b039283166020918202929092018101919091526304701feb60e31b600052600290527f84adbd5779b53219abc08c6a0721310eceb23df12233a77fc0d8a950b6fba164548251911690829060019081106109d0576109d0611855565b6001600160a01b039283166020918202929092018101919091526324108c8f60e21b6000526002908190527fe78882b8c3d591c252f166fa92ca2f5fe1ed6e04cf3f3e36bf49f4edcd2ab2b15483519216918391908110610a3357610a33611855565b6001600160a01b0390921660209283029190910190910152919050565b610a58610e20565b6001600160a01b03811660009081526001602052604090205460ff1615610aab5760405162461bcd60e51b815260206004820152600760248201526653444d4d31303160c81b6044820152606401610656565b6001600160a01b038116600081815260016020818152604092839020805460ff191690921790915590519182527fecdf3a3effea5783a3c4c2140e677577666428d44ed9d474a0b3a4c9943f844091015b60405180910390a150565b610b0f610e20565b6001600160e01b031981166000908152600260205260409020546001600160a01b03838116911614610b835760405162461bcd60e51b815260206004820152601860248201527f706c6174666f726d2073657373696f6e206578706972656400000000000000006044820152606401610656565b6001600160e01b031981166000908152600260205260409081902080546001600160a01b0319169055517f43853b1cc6094f8d7cd366a448173e51c7eeb87b51d3afe860100d38101f376590610bdc9084908490611892565b60405180910390a15050565b6000610c147f1ec7ef52f8bbd89fae80c55c6884305d3fb5ef41070638221dac337a4377b7df83610fde565b92915050565b610c22610e20565b6001600160e01b031981166000908152600260205260409020546001600160a01b031615610c77576001600160e01b03198116600090815260026020526040902054610c77906001600160a01b031682610b07565b610c818282610f71565b5050565b6000610c916000610be8565b905090565b610c9e610e20565b6001600160a01b03811660009081526001602052604090205460ff16610cf05760405162461bcd60e51b815260206004820152600760248201526653444d4d31303160c81b6044820152606401610656565b6001600160a01b038116600081815260016020908152604091829020805460ff1916905590519182527faab4fa2b463f581b2b32cb3b7e3b704b9ce37cc209b5fb4d77e593ace40542769101610bdc565b610d49610e20565b7f4a204f620c8c5ccdca3fd54d003badd85ba500436a431f0cbda4f558c93c34c88181556040516001600160a01b03831681527f1151116914515bc0891ff9047a6cb32cf902546f83066499bcf8ba33d2353fa290602001610bdc565b610dae61101e565b610667816110a0565b610dbf610e20565b610de7817f6c9a6c4a39284e37ed1cf53d337577d14212a4870fb976a4366c693b939918d555565b6040516001600160a01b03821681527f5ac6c46c93c8d0e53714ba3b53db3e7c046da994313d7ed0d192028bc7c228b090602001610afc565b333014610e575760405162461bcd60e51b8152602060048201526005602482015264475330333160d81b6044820152606401610656565b565b336001600160a01b037f00000000000000000000000000000000000000000000000000000000000000001614610e575760405162461bcd60e51b815260206004820152601c60248201527f6163636f756e743a206e6f742066726f6d20456e747279506f696e74000000006044820152606401610656565b801561066757604051600090339060001990849084818181858888f193505050503d8060008114610f1e576040519150601f19603f3d011682016040523d82523d6000602084013e610f23565b606091505b5050505050565b60006001836001811115610f4057610f406118b5565b03610f58576000808551602087018986f49050610f68565b600080855160208701888a87f190505b95945050505050565b610f7a81611273565b6001600160e01b031981166000908152600260205260409081902080546001600160a01b0319166001600160a01b038516179055517f032ab7f5ec464dc9f1ac11837a6f0e506cdca8a7850aa5eb37510e221c1e0e3d90610bdc9084908490611892565b6000808383604051602001610ffd929190918252602082015260400190565b60408051601f19818403018152919052805160209091012054949350505050565b333014806110545750336001600160a01b037f000000000000000000000000000000000000000000000000000000000000000016145b610e575760405162461bcd60e51b815260206004820152601e60248201527f6f6e6c7920656e747279506f696e74206f722077616c6c65742073656c6600006044820152606401610656565b60005b8151811015610c815760008282815181106110c0576110c0611855565b602002602001015190506000606082604001515a101561111b5760405162461bcd60e51b8152602060048201526016602482015275536f6469756d3a204e4f545f454e4f5547485f47415360501b6044820152606401610656565b600183516001811115611130576111306118b5565b036111b95782606001516001600160a01b0316836040015160001461115957836040015161115b565b5a5b8460a0015160405161116d91906118cb565b6000604051808303818686f4925050503d80600081146111a9576040519150601f19603f3d011682016040523d82523d6000602084013e6111ae565b606091505b509092509050611241565b82606001516001600160a01b0316836080015184604001516000146111e25784604001516111e4565b5a5b908560a001516040516111f791906118cb565b600060405180830381858888f193505050503d8060008114611235576040519150601f19603f3d011682016040523d82523d6000602084013e61123a565b606091505b5090925090505b81158015611250575082602001515b1561125d57805160208201fd5b505050808061126b9061186b565b9150506110a3565b6001600160e01b0319811663eaf7652f60e01b14806112a257506001600160e01b031981166304701feb60e31b145b806112bd57506001600160e01b031981166324108c8f60e21b145b6106675760405162461bcd60e51b815260206004820152601060248201526f696e76616c696420706c6174666f726d60801b6044820152606401610656565b6001600160a01b038116811461066757600080fd5b60006020828403121561132357600080fd5b813561068f816112fc565b60008060006060848603121561134357600080fd5b833567ffffffffffffffff81111561135a57600080fd5b8401610160818703121561136d57600080fd5b95602085013595506040909401359392505050565b634e487b7160e01b600052604160045260246000fd5b60405160c0810167ffffffffffffffff811182821017156113bb576113bb611382565b60405290565b604051601f8201601f1916810167ffffffffffffffff811182821017156113ea576113ea611382565b604052919050565b600082601f83011261140357600080fd5b813567ffffffffffffffff81111561141d5761141d611382565b611430601f8201601f19166020016113c1565b81815284602083860101111561144557600080fd5b816020850160208301376000918101602001919091529392505050565b80356002811061147157600080fd5b919050565b6000806000806080858703121561148c57600080fd5b8435611497816112fc565b935060208501359250604085013567ffffffffffffffff8111156114ba57600080fd5b6114c6878288016113f2565b9250506114d560608601611462565b905092959194509250565b80356001600160e01b03198116811461147157600080fd5b60008060006060848603121561150d57600080fd5b8335611518816112fc565b9250611526602085016114e0565b91506040840135611536816112fc565b809150509250925092565b60005b8381101561155c578181015183820152602001611544565b50506000910152565b6000815180845261157d816020860160208601611541565b601f01601f19169290920160200192915050565b82151581526040602082015260006107506040830184611565565b6020808252825182820181905260009190848201906040850190845b818110156115ed5783516001600160a01b0316835292840192918401916001016115c8565b50909695505050505050565b6000806040838503121561160c57600080fd5b8235611617816112fc565b9150611625602084016114e0565b90509250929050565b60006020828403121561164057600080fd5b5035919050565b6000806040838503121561165a57600080fd5b8235611665816112fc565b91506020830135611675816112fc565b809150509250929050565b801515811461066757600080fd5b600060208083850312156116a157600080fd5b823567ffffffffffffffff808211156116b957600080fd5b818501915085601f8301126116cd57600080fd5b8135818111156116df576116df611382565b8060051b6116ee8582016113c1565b918252838101850191858101908984111561170857600080fd5b86860192505b838310156117ca578235858111156117265760008081fd5b860160c0818c03601f190181131561173e5760008081fd5b611746611398565b6117518a8401611462565b815260408084013561176281611680565b808c84015250606080850135828401526080915081850135611783816112fc565b9083015260a084810135828401529284013592898411156117a657600091508182fd5b6117b48f8d868801016113f2565b908301525084525050918601919086019061170e565b9998505050505050505050565b60208152600061068f6020830184611565565b6000602082840312156117fc57600080fd5b815161068f81611680565b6000808335601e1984360301811261181e57600080fd5b83018035915067ffffffffffffffff82111561183957600080fd5b60200191503681900382131561184e57600080fd5b9250929050565b634e487b7160e01b600052603260045260246000fd5b60006001820161188b57634e487b7160e01b600052601160045260246000fd5b5060010190565b6001600160a01b039290921682526001600160e01b031916602082015260400190565b634e487b7160e01b600052602160045260246000fd5b600082516118dd818460208701611541565b919091019291505056fea264697066735822122048afc1ca76f1ed15148f0bb9413419600c6de471dfff57eec152265c543145ee64736f6c63430008110033",
  "devdoc": {
    "kind": "dev",
    "methods": {
      "disableModule(address,address)": {
        "details": "Allows to remove a module from the whitelist.      This can only be done via a Safe transaction.",
        "params": {
          "module": "Module to be removed.",
          "prevModule": "Module that pointed to the module to be removed in the linked list"
        }
      },
      "enableModule(address)": {
        "details": "Allows to add a module to the whitelist.      This can only be done via a Safe transaction.",
        "params": {
          "module": "Module to be whitelisted."
        }
      },
      "execTransactionFromModule(address,uint256,bytes,uint8)": {
        "details": "Allows a Module to execute a Safe transaction without any further confirmations.",
        "params": {
          "data": "Data payload of module transaction.",
          "operation": "Operation type of module transaction.",
          "to": "Destination address of module transaction.",
          "value": "Ether value of module transaction."
        }
      },
      "execTransactionFromModuleReturnData(address,uint256,bytes,uint8)": {
        "details": "Allows a Module to execute a Safe transaction without any further confirmations and return data",
        "params": {
          "data": "Data payload of module transaction.",
          "operation": "Operation type of module transaction.",
          "to": "Destination address of module transaction.",
          "value": "Ether value of module transaction."
        }
      },
      "execute((uint8,bool,uint256,address,uint256,bytes)[])": {
        "details": "Relayers must ensure that the gasLimit specified for each transaction      is acceptable to them. A user could specify large enough that it could      consume all the gas available.",
        "params": {
          "_txs": "Transactions to process"
        }
      },
      "getChainId()": {
        "details": "Returns the chain id used by this contract."
      },
      "getSessionOwners()": {
        "details": "Returns array of owners.",
        "returns": {
          "_0": "Array of session owners."
        }
      },
      "getSingleton()": {
        "returns": {
          "_imp": "The address of the current Wallet implementation"
        }
      },
      "isModuleEnabled(address)": {
        "details": "Returns if an module is enabled",
        "returns": {
          "_0": "True if the module is enabled"
        }
      },
      "nonce()": {
        "details": "The default nonce space is 0x00",
        "returns": {
          "_0": "The next nonce"
        }
      },
      "readNonce(uint256)": {
        "params": {
          "_space": "Nonce space, each space keeps an independent nonce count"
        },
        "returns": {
          "_0": "The next nonce"
        }
      },
      "setFallbackHandler(address)": {
        "details": "Allows to add a contract to handle fallback calls.      Only fallback calls without value and with data will be forwarded.      This can only be done via a Safe transaction.",
        "params": {
          "handler": "contract to handle fallbacks calls."
        }
      },
      "setGuard(address)": {
        "details": "Set a guard that checks transactions before execution",
        "params": {
          "guard": "The address of the guard to be used or the 0 address to disable the guard"
        }
      }
    },
    "version": 1
  },
  "userdoc": {
    "kind": "user",
    "methods": {
      "disableModule(address,address)": {
        "notice": "Disables the module `module` for the Safe."
      },
      "enableModule(address)": {
        "notice": "Enables the module `module` for the Safe."
      },
      "entryPoint()": {
        "notice": "return the entryPoint used by this account. subclass should return the current entryPoint used by this account."
      },
      "execute((uint8,bool,uint256,address,uint256,bytes)[])": {
        "notice": "Allow eip-4337 entryPoint or wallet self to execute an action"
      },
      "getSingleton()": {
        "notice": "Returns the Wallet implementation"
      },
      "nonce()": {
        "notice": "Returns the next nonce of the default nonce space"
      },
      "readNonce(uint256)": {
        "notice": "Returns the next nonce of the given nonce space"
      },
      "validateUserOp((address,uint256,bytes,bytes,uint256,uint256,uint256,uint256,uint256,bytes,bytes),bytes32,uint256)": {
        "notice": "Validate user's signature and nonce. subclass doesn't need to override this method. Instead, it should override the specific internal validation methods."
      }
    },
    "version": 1
  },
  "storageLayout": {
    "storage": [
      {
        "astId": 2558,
        "contract": "contracts/Sodium.sol:Sodium",
        "label": "_singleton",
        "offset": 0,
        "slot": "0",
        "type": "t_address"
      },
      {
        "astId": 1956,
        "contract": "contracts/Sodium.sol:Sodium",
        "label": "modules",
        "offset": 0,
        "slot": "1",
        "type": "t_mapping(t_address,t_bool)"
      },
      {
        "astId": 2292,
        "contract": "contracts/Sodium.sol:Sodium",
        "label": "sessionByPlatform",
        "offset": 0,
        "slot": "2",
        "type": "t_mapping(t_bytes4,t_address)"
      },
      {
        "astId": 1469,
        "contract": "contracts/Sodium.sol:Sodium",
        "label": "initialized",
        "offset": 0,
        "slot": "3",
        "type": "t_bool"
      }
    ],
    "types": {
      "t_address": {
        "encoding": "inplace",
        "label": "address",
        "numberOfBytes": "20"
      },
      "t_bool": {
        "encoding": "inplace",
        "label": "bool",
        "numberOfBytes": "1"
      },
      "t_bytes4": {
        "encoding": "inplace",
        "label": "bytes4",
        "numberOfBytes": "4"
      },
      "t_mapping(t_address,t_bool)": {
        "encoding": "mapping",
        "key": "t_address",
        "label": "mapping(address => bool)",
        "numberOfBytes": "32",
        "value": "t_bool"
      },
      "t_mapping(t_bytes4,t_address)": {
        "encoding": "mapping",
        "key": "t_bytes4",
        "label": "mapping(bytes4 => address)",
        "numberOfBytes": "32",
        "value": "t_address"
      }
    }
  }
}