{
  "address": "0x4D3F41a7572520555f3912FE99f5dD7e9dB839F8",
  "abi": [
    {
      "inputs": [
        {
          "internalType": "address",
          "name": "_mpcManager",
          "type": "address"
        },
        {
          "internalType": "address",
          "name": "_admin",
          "type": "address"
        }
      ],
      "stateMutability": "nonpayable",
      "type": "constructor"
    },
    {
      "anonymous": false,
      "inputs": [
        {
          "indexed": true,
          "internalType": "address",
          "name": "erc1155",
          "type": "address"
        },
        {
          "indexed": true,
          "internalType": "address",
          "name": "sender",
          "type": "address"
        },
        {
          "indexed": false,
          "internalType": "uint256[]",
          "name": "tokenIds",
          "type": "uint256[]"
        },
        {
          "indexed": false,
          "internalType": "uint256[]",
          "name": "values",
          "type": "uint256[]"
        },
        {
          "indexed": false,
          "internalType": "string[]",
          "name": "uris",
          "type": "string[]"
        },
        {
          "indexed": false,
          "internalType": "bytes",
          "name": "data",
          "type": "bytes"
        }
      ],
      "name": "ERC1155TokenReceived",
      "type": "event"
    },
    {
      "anonymous": false,
      "inputs": [
        {
          "indexed": true,
          "internalType": "address",
          "name": "erc20",
          "type": "address"
        },
        {
          "indexed": true,
          "internalType": "address",
          "name": "sender",
          "type": "address"
        },
        {
          "indexed": false,
          "internalType": "uint256",
          "name": "value",
          "type": "uint256"
        },
        {
          "indexed": false,
          "internalType": "string",
          "name": "symbol",
          "type": "string"
        },
        {
          "indexed": false,
          "internalType": "string",
          "name": "name",
          "type": "string"
        },
        {
          "indexed": false,
          "internalType": "uint8",
          "name": "decimals",
          "type": "uint8"
        },
        {
          "indexed": false,
          "internalType": "bytes",
          "name": "data",
          "type": "bytes"
        }
      ],
      "name": "ERC20TokenReceived",
      "type": "event"
    },
    {
      "anonymous": false,
      "inputs": [
        {
          "indexed": true,
          "internalType": "address",
          "name": "erc721",
          "type": "address"
        },
        {
          "indexed": true,
          "internalType": "address",
          "name": "sender",
          "type": "address"
        },
        {
          "indexed": false,
          "internalType": "uint256",
          "name": "tokenId",
          "type": "uint256"
        },
        {
          "indexed": false,
          "internalType": "string",
          "name": "symbol",
          "type": "string"
        },
        {
          "indexed": false,
          "internalType": "string",
          "name": "name",
          "type": "string"
        },
        {
          "indexed": false,
          "internalType": "string",
          "name": "uri",
          "type": "string"
        },
        {
          "indexed": false,
          "internalType": "bytes",
          "name": "data",
          "type": "bytes"
        }
      ],
      "name": "ERC721TokenReceived",
      "type": "event"
    },
    {
      "anonymous": false,
      "inputs": [
        {
          "indexed": false,
          "internalType": "address",
          "name": "newVault",
          "type": "address"
        }
      ],
      "name": "MigrationToNewVault",
      "type": "event"
    },
    {
      "anonymous": false,
      "inputs": [
        {
          "indexed": true,
          "internalType": "address",
          "name": "sender",
          "type": "address"
        },
        {
          "indexed": false,
          "internalType": "uint256",
          "name": "value",
          "type": "uint256"
        },
        {
          "indexed": false,
          "internalType": "bytes",
          "name": "data",
          "type": "bytes"
        }
      ],
      "name": "NativeTokenReceived",
      "type": "event"
    },
    {
      "anonymous": false,
      "inputs": [
        {
          "indexed": false,
          "internalType": "address",
          "name": "newVault",
          "type": "address"
        },
        {
          "indexed": false,
          "internalType": "uint256",
          "name": "activeTime",
          "type": "uint256"
        }
      ],
      "name": "PendingMigrationToNewVault",
      "type": "event"
    },
    {
      "stateMutability": "payable",
      "type": "fallback"
    },
    {
      "inputs": [],
      "name": "admin",
      "outputs": [
        {
          "internalType": "address",
          "name": "",
          "type": "address"
        }
      ],
      "stateMutability": "view",
      "type": "function"
    },
    {
      "inputs": [],
      "name": "adminDelay",
      "outputs": [
        {
          "internalType": "uint256",
          "name": "",
          "type": "uint256"
        }
      ],
      "stateMutability": "view",
      "type": "function"
    },
    {
      "inputs": [],
      "name": "approveMigration",
      "outputs": [],
      "stateMutability": "nonpayable",
      "type": "function"
    },
    {
      "inputs": [
        {
          "internalType": "address",
          "name": "_admin",
          "type": "address"
        }
      ],
      "name": "changeAdmin",
      "outputs": [],
      "stateMutability": "nonpayable",
      "type": "function"
    },
    {
      "inputs": [
        {
          "internalType": "address",
          "name": "_newVault",
          "type": "address"
        }
      ],
      "name": "migrationToNewVault",
      "outputs": [],
      "stateMutability": "nonpayable",
      "type": "function"
    },
    {
      "inputs": [
        {
          "internalType": "address",
          "name": "erc1155",
          "type": "address"
        },
        {
          "internalType": "uint256[]",
          "name": "tokenIds",
          "type": "uint256[]"
        },
        {
          "internalType": "uint256[]",
          "name": "amounts",
          "type": "uint256[]"
        }
      ],
      "name": "migrationToNewVaultERC1155",
      "outputs": [],
      "stateMutability": "nonpayable",
      "type": "function"
    },
    {
      "inputs": [
        {
          "internalType": "address",
          "name": "erc20",
          "type": "address"
        }
      ],
      "name": "migrationToNewVaultERC20",
      "outputs": [],
      "stateMutability": "nonpayable",
      "type": "function"
    },
    {
      "inputs": [
        {
          "internalType": "address",
          "name": "erc721",
          "type": "address"
        },
        {
          "internalType": "uint256",
          "name": "tokenId",
          "type": "uint256"
        }
      ],
      "name": "migrationToNewVaultERC721",
      "outputs": [],
      "stateMutability": "nonpayable",
      "type": "function"
    },
    {
      "inputs": [],
      "name": "migrationToNewVaultNative",
      "outputs": [],
      "stateMutability": "payable",
      "type": "function"
    },
    {
      "inputs": [],
      "name": "mpcManager",
      "outputs": [
        {
          "internalType": "contract IMPCManager",
          "name": "",
          "type": "address"
        }
      ],
      "stateMutability": "view",
      "type": "function"
    },
    {
      "inputs": [],
      "name": "newVault",
      "outputs": [
        {
          "internalType": "address",
          "name": "",
          "type": "address"
        }
      ],
      "stateMutability": "view",
      "type": "function"
    },
    {
      "inputs": [
        {
          "internalType": "address",
          "name": "",
          "type": "address"
        }
      ],
      "name": "nonceMap",
      "outputs": [
        {
          "internalType": "uint256",
          "name": "",
          "type": "uint256"
        }
      ],
      "stateMutability": "view",
      "type": "function"
    },
    {
      "inputs": [
        {
          "internalType": "address",
          "name": "_operator",
          "type": "address"
        },
        {
          "internalType": "address",
          "name": "_from",
          "type": "address"
        },
        {
          "internalType": "uint256[]",
          "name": "_ids",
          "type": "uint256[]"
        },
        {
          "internalType": "uint256[]",
          "name": "_values",
          "type": "uint256[]"
        },
        {
          "internalType": "bytes",
          "name": "_data",
          "type": "bytes"
        }
      ],
      "name": "onERC1155BatchReceived",
      "outputs": [
        {
          "internalType": "bytes4",
          "name": "",
          "type": "bytes4"
        }
      ],
      "stateMutability": "nonpayable",
      "type": "function"
    },
    {
      "inputs": [
        {
          "internalType": "address",
          "name": "_operator",
          "type": "address"
        },
        {
          "internalType": "address",
          "name": "_from",
          "type": "address"
        },
        {
          "internalType": "uint256",
          "name": "_id",
          "type": "uint256"
        },
        {
          "internalType": "uint256",
          "name": "_value",
          "type": "uint256"
        },
        {
          "internalType": "bytes",
          "name": "_data",
          "type": "bytes"
        }
      ],
      "name": "onERC1155Received",
      "outputs": [
        {
          "internalType": "bytes4",
          "name": "",
          "type": "bytes4"
        }
      ],
      "stateMutability": "nonpayable",
      "type": "function"
    },
    {
      "inputs": [
        {
          "internalType": "address",
          "name": "_operator",
          "type": "address"
        },
        {
          "internalType": "address",
          "name": "_from",
          "type": "address"
        },
        {
          "internalType": "uint256",
          "name": "_tokenId",
          "type": "uint256"
        },
        {
          "internalType": "bytes",
          "name": "_data",
          "type": "bytes"
        }
      ],
      "name": "onERC721Received",
      "outputs": [
        {
          "internalType": "bytes4",
          "name": "",
          "type": "bytes4"
        }
      ],
      "stateMutability": "nonpayable",
      "type": "function"
    },
    {
      "inputs": [],
      "name": "pendingNewVault",
      "outputs": [
        {
          "internalType": "address",
          "name": "addr",
          "type": "address"
        },
        {
          "internalType": "uint256",
          "name": "activeTime",
          "type": "uint256"
        }
      ],
      "stateMutability": "view",
      "type": "function"
    },
    {
      "inputs": [
        {
          "internalType": "contract IERC20Metadata",
          "name": "erc20",
          "type": "address"
        },
        {
          "internalType": "uint256",
          "name": "amount",
          "type": "uint256"
        },
        {
          "internalType": "bytes",
          "name": "data",
          "type": "bytes"
        }
      ],
      "name": "transferERC20",
      "outputs": [],
      "stateMutability": "nonpayable",
      "type": "function"
    },
    {
      "inputs": [
        {
          "internalType": "uint256",
          "name": "rand",
          "type": "uint256"
        },
        {
          "internalType": "address payable",
          "name": "to",
          "type": "address"
        },
        {
          "internalType": "uint256",
          "name": "amount",
          "type": "uint256"
        }
      ],
      "name": "transferNativeToken",
      "outputs": [],
      "stateMutability": "nonpayable",
      "type": "function"
    },
    {
      "inputs": [
        {
          "internalType": "bytes",
          "name": "data",
          "type": "bytes"
        }
      ],
      "name": "transferNativeToken",
      "outputs": [],
      "stateMutability": "payable",
      "type": "function"
    },
    {
      "stateMutability": "payable",
      "type": "receive"
    }
  ],
  "args": [
    "0x0aE1B76389397Dc81c16eB8e2dEb0C592D3C873c",
    "0x17a243f7Dd13BadE0a7001Ad71a7ef4628A75fCB"
  ],
  "numDeployments": 1,
  "solcInputHash": "85158755ab6abdb4e22ae1f368bd8d85",
  "bytecode": "0x608060405262093a806001553480156200001857600080fd5b5060405162001dff38038062001dff8339810160408190526200003b916200007f565b50600080546001600160a01b0319166001600160a01b0392909216919091179055620000b7565b80516001600160a01b03811681146200007a57600080fd5b919050565b600080604083850312156200009357600080fd5b6200009e8362000062565b9150620000ae6020840162000062565b90509250929050565b611d3880620000c76000396000f3fe6080604052600436106101185760003560e01c8063722d1fd6116100a05780638f283970116100645780638f283970146103c457806393dbdf1d146103e4578063bc197c81146103f7578063f23a6e6114610417578063f851a4401461043757610171565b8063722d1fd61461032e578063795b176d1461034e5780638343cbcc14610364578063846b3c8b1461036c57806388aaf0c8146103a457610171565b80632c1f90af116100e75780632c1f90af1461025b578063325564ec1461027b578063435d61981461029057806369f19039146102d35780636e978d77146102f357610171565b806307774c3a146101bb578063111ebaae146101dd578063150b7a02146101fd57806318a1948d1461023b57610171565b3661017157336001600160a01b03167f1eb8967d9af68243151a80b28201971f9f8372a2e860d277866487724dfe2e653460405161016791815260406020820181905260009082015260600190565b60405180910390a2005b336001600160a01b03167f1eb8967d9af68243151a80b28201971f9f8372a2e860d277866487724dfe2e653460405161016791815260406020820181905260009082015260600190565b3480156101c757600080fd5b506101db6101d636600461145c565b610457565b005b3480156101e957600080fd5b506101db6101f8366004611480565b610571565b34801561020957600080fd5b5061021d61021836600461157d565b610635565b6040516001600160e01b031990911681526020015b60405180910390f35b34801561024757600080fd5b506101db6102563660046115e9565b6107ea565b34801561026757600080fd5b506101db610276366004611661565b610882565b34801561028757600080fd5b506101db61091d565b34801561029c57600080fd5b506003546004546102b4916001600160a01b03169082565b604080516001600160a01b039093168352602083019190915201610232565b3480156102df57600080fd5b506101db6102ee36600461145c565b610a1e565b3480156102ff57600080fd5b5061032061030e36600461145c565b60066020526000908152604090205481565b604051908152602001610232565b34801561033a57600080fd5b506101db6103493660046116e4565b610b2c565b34801561035a57600080fd5b5061032060015481565b6101db610e59565b34801561037857600080fd5b5060005461038c906001600160a01b031681565b6040516001600160a01b039091168152602001610232565b3480156103b057600080fd5b5060055461038c906001600160a01b031681565b3480156103d057600080fd5b506101db6103df36600461145c565b610f39565b6101db6103f236600461173d565b610fc3565b34801561040357600080fd5b5061021d6104123660046117fa565b611059565b34801561042357600080fd5b5061021d6104323660046118a8565b6111df565b34801561044357600080fd5b5060025461038c906001600160a01b031681565b6005546001600160a01b03166104885760405162461bcd60e51b815260040161047f90611911565b60405180910390fd5b6040516370a0823160e01b81523060048201526000906001600160a01b038316906370a0823190602401602060405180830381865afa1580156104cf573d6000803e3d6000fd5b505050506040513d601f19601f820116820180604052508101906104f3919061193d565b60055460405163a9059cbb60e01b81526001600160a01b0391821660048201526024810183905291925083169063a9059cbb906044016020604051808303816000875af1158015610548573d6000803e3d6000fd5b505050506040513d601f19601f8201168201806040525081019061056c9190611956565b505050565b61057a836112dd565b604080516000808252602082019092526001600160a01b0384169083906040516105a4919061199c565b60006040518083038185875af1925050503d80600081146105e1576040519150601f19603f3d011682016040523d82523d6000602084013e6105e6565b606091505b505090508061062f5760405162461bcd60e51b81526020600482015260156024820152741d1c985b9cd9995c915d1a195c8e8819985a5b1959605a1b604482015260640161047f565b50505050565b6000803390506000816001600160a01b03166306fdde036040518163ffffffff1660e01b8152600401600060405180830381865afa15801561067b573d6000803e3d6000fd5b505050506040513d6000823e601f3d908101601f191682016040526106a391908101906119b8565b90506000826001600160a01b03166395d89b416040518163ffffffff1660e01b8152600401600060405180830381865afa1580156106e5573d6000803e3d6000fd5b505050506040513d6000823e601f3d908101601f1916820160405261070d91908101906119b8565b60405163c87b56dd60e01b8152600481018890529091506000906001600160a01b0385169063c87b56dd90602401600060405180830381865afa158015610758573d6000803e3d6000fd5b505050506040513d6000823e601f3d908101601f1916820160405261078091908101906119b8565b9050876001600160a01b0316336001600160a01b03167f6066d3e5dd04b1b5d0836050ef55017086568c383cee5fd14c3b724a1c8771ef898587868c6040516107cd959493929190611a5b565b60405180910390a350630a85bd0160e11b98975050505050505050565b6005546001600160a01b03166108125760405162461bcd60e51b815260040161047f90611911565b6005546040516323b872dd60e01b81523060048201526001600160a01b03918216602482015260448101839052908316906323b872dd90606401600060405180830381600087803b15801561086657600080fd5b505af115801561087a573d6000803e3d6000fd5b505050505050565b6005546001600160a01b03166108aa5760405162461bcd60e51b815260040161047f90611911565b600554604051631759616b60e11b81526001600160a01b0380881692632eb2c2d6926108e492309216908990899089908990600401611aec565b600060405180830381600087803b1580156108fe57600080fd5b505af1158015610912573d6000803e3d6000fd5b505050505050505050565b61092561139c565b6003546001600160a01b031661097d5760405162461bcd60e51b815260206004820152601b60248201527f5661756c743a206e6f2070656e64696e67206d6967726174696f6e0000000000604482015260640161047f565b6004544210156109c85760405162461bcd60e51b81526020600482015260166024820152755661756c743a206e6f74206163746976652074696d6560501b604482015260640161047f565b600354600580546001600160a01b0319166001600160a01b0390921691821790556040519081527fef22b3a52fdd465982b8de27fba072dbd583d959b1f217d0a91e13aea89710b09060200160405180910390a1565b610a266113ed565b610a2e61139c565b6001600160a01b038116610a845760405162461bcd60e51b815260206004820152601f60248201527f5661756c743a20696e76616c6964206e65775661756c74206164647265737300604482015260640161047f565b6040518060400160405280826001600160a01b0316815260200160015442610aac9190611b61565b90528051600380546001600160a01b0319166001600160a01b03909216919091179055602001516004556001547fc9faf2971a53188d02d80249a3c7ff7f35cca53b3c700f25d94eabbdb5b2204b908290610b079042611b61565b604080516001600160a01b03909316835260208301919091520160405180910390a150565b6000836001600160a01b03166395d89b416040518163ffffffff1660e01b8152600401600060405180830381865afa158015610b6c573d6000803e3d6000fd5b505050506040513d6000823e601f3d908101601f19168201604052610b9491908101906119b8565b90506000846001600160a01b03166306fdde036040518163ffffffff1660e01b8152600401600060405180830381865afa158015610bd6573d6000803e3d6000fd5b505050506040513d6000823e601f3d908101601f19168201604052610bfe91908101906119b8565b90506000856001600160a01b031663313ce5676040518163ffffffff1660e01b8152600401602060405180830381865afa158015610c40573d6000803e3d6000fd5b505050506040513d601f19601f82011682018060405250810190610c649190611b7a565b905060008511610cb65760405162461bcd60e51b815260206004820152601a60248201527f7472616e7366657245524332303a20616d6f756e742069732030000000000000604482015260640161047f565b604051636eb1769f60e11b81523360048201523060248201526000906001600160a01b0388169063dd62ed3e90604401602060405180830381865afa158015610d03573d6000803e3d6000fd5b505050506040513d601f19601f82011682018060405250810190610d27919061193d565b905085811015610d855760405162461bcd60e51b815260206004820152602360248201527f7472616e7366657245524332303a20616c6c6f77616e6365206e6f7420656e6f6044820152620eaced60eb1b606482015260840161047f565b6040516323b872dd60e01b8152336004820152306024820152604481018790526001600160a01b038816906323b872dd906064016020604051808303816000875af1158015610dd8573d6000803e3d6000fd5b505050506040513d601f19601f82011682018060405250810190610dfc9190611956565b50336001600160a01b0316876001600160a01b03167f96a015febdaad7f91cc988f4f1ef463e6d68057ebc6ab35ce9919034ffd2ed35888787878b604051610e48959493929190611b9d565b60405180910390a350505050505050565b6005546001600160a01b0316610e815760405162461bcd60e51b815260040161047f90611911565b6005546040805160008082526020820192839052926001600160a01b0316914791610eab9161199c565b60006040518083038185875af1925050503d8060008114610ee8576040519150601f19603f3d011682016040523d82523d6000602084013e610eed565b606091505b5050905080610f365760405162461bcd60e51b81526020600482015260156024820152741d1c985b9cd9995c915d1a195c8e8819985a5b1959605a1b604482015260640161047f565b50565b6001600160a01b038116610f995760405162461bcd60e51b815260206004820152602160248201527f4d50434d616e616765723a20696e76616c69642061646d696e206164647265736044820152607360f81b606482015260840161047f565b610fa16113ed565b600280546001600160a01b0319166001600160a01b0392909216919091179055565b600034116110135760405162461bcd60e51b815260206004820152601f60248201527f7472616e736665724e6174697665546f6b656e3a2076616c7565206973203000604482015260640161047f565b336001600160a01b03167f1eb8967d9af68243151a80b28201971f9f8372a2e860d277866487724dfe2e65348360405161104e929190611be5565b60405180910390a250565b6000803390506000855167ffffffffffffffff81111561107b5761107b6114b8565b6040519080825280602002602001820160405280156110ae57816020015b60608152602001906001900390816110995790505b50905060005b865181101561117957826001600160a01b0316630e89341c8883815181106110de576110de611bfe565b60200260200101516040518263ffffffff1660e01b815260040161110491815260200190565b600060405180830381865afa158015611121573d6000803e3d6000fd5b505050506040513d6000823e601f3d908101601f1916820160405261114991908101906119b8565b82828151811061115b5761115b611bfe565b6020026020010181905250808061117190611c14565b9150506110b4565b50866001600160a01b0316336001600160a01b03167f99cb878db172fb5b1d00aada0fd9cc2a5bb8a14c425cefde2acbe9d664a183c4888885896040516111c39493929190611c68565b60405180910390a35063bc197c8160e01b979650505050505050565b604080516001808252818301909252600091829190602080830190803683375050604080516001808252818301909252929350600092915060208083019080368337019050509050858260008151811061123b5761123b611bfe565b602002602001018181525050848160008151811061125b5761125b611bfe565b60200260200101818152505060006112768989858589611059565b90506001600160e01b0319811663bc197c8160e01b146112c85760405162461bcd60e51b815260206004820152600d60248201526c696e76616c6964206d6167696360981b604482015260640161047f565b5063f23a6e6160e01b98975050505050505050565b600054604051636ea0aa0360e01b8152600481018390523360248201526001600160a01b0390911690636ea0aa0390604401602060405180830381865afa15801561132c573d6000803e3d6000fd5b505050506040513d601f19601f820116820180604052508101906113509190611956565b610f365760405162461bcd60e51b815260206004820152601e60248201527f6f6e6c7920656e747279506f696e74206f722077616c6c65742073656c660000604482015260640161047f565b6005546001600160a01b0316156113eb5760405162461bcd60e51b815260206004820152601360248201527215985d5b1d0e881a5cc81858985b991bdb9959606a1b604482015260640161047f565b565b6002546001600160a01b031633146113eb5760405162461bcd60e51b815260206004820152601e60248201527f6f6e6c7920656e747279506f696e74206f722077616c6c65742073656c660000604482015260640161047f565b6001600160a01b0381168114610f3657600080fd5b60006020828403121561146e57600080fd5b813561147981611447565b9392505050565b60008060006060848603121561149557600080fd5b8335925060208401356114a781611447565b929592945050506040919091013590565b634e487b7160e01b600052604160045260246000fd5b604051601f8201601f1916810167ffffffffffffffff811182821017156114f7576114f76114b8565b604052919050565b600067ffffffffffffffff821115611519576115196114b8565b50601f01601f191660200190565b600082601f83011261153857600080fd5b813561154b611546826114ff565b6114ce565b81815284602083860101111561156057600080fd5b816020850160208301376000918101602001919091529392505050565b6000806000806080858703121561159357600080fd5b843561159e81611447565b935060208501356115ae81611447565b925060408501359150606085013567ffffffffffffffff8111156115d157600080fd5b6115dd87828801611527565b91505092959194509250565b600080604083850312156115fc57600080fd5b823561160781611447565b946020939093013593505050565b60008083601f84011261162757600080fd5b50813567ffffffffffffffff81111561163f57600080fd5b6020830191508360208260051b850101111561165a57600080fd5b9250929050565b60008060008060006060868803121561167957600080fd5b853561168481611447565b9450602086013567ffffffffffffffff808211156116a157600080fd5b6116ad89838a01611615565b909650945060408801359150808211156116c657600080fd5b506116d388828901611615565b969995985093965092949392505050565b6000806000606084860312156116f957600080fd5b833561170481611447565b925060208401359150604084013567ffffffffffffffff81111561172757600080fd5b61173386828701611527565b9150509250925092565b60006020828403121561174f57600080fd5b813567ffffffffffffffff81111561176657600080fd5b61177284828501611527565b949350505050565b600082601f83011261178b57600080fd5b8135602067ffffffffffffffff8211156117a7576117a76114b8565b8160051b6117b68282016114ce565b92835284810182019282810190878511156117d057600080fd5b83870192505b848310156117ef578235825291830191908301906117d6565b979650505050505050565b600080600080600060a0868803121561181257600080fd5b853561181d81611447565b9450602086013561182d81611447565b9350604086013567ffffffffffffffff8082111561184a57600080fd5b61185689838a0161177a565b9450606088013591508082111561186c57600080fd5b61187889838a0161177a565b9350608088013591508082111561188e57600080fd5b5061189b88828901611527565b9150509295509295909350565b600080600080600060a086880312156118c057600080fd5b85356118cb81611447565b945060208601356118db81611447565b93506040860135925060608601359150608086013567ffffffffffffffff81111561190557600080fd5b61189b88828901611527565b60208082526012908201527115985d5b1d0e881b9bc81b995dd5985d5b1d60721b604082015260600190565b60006020828403121561194f57600080fd5b5051919050565b60006020828403121561196857600080fd5b8151801515811461147957600080fd5b60005b8381101561199357818101518382015260200161197b565b50506000910152565b600082516119ae818460208701611978565b9190910192915050565b6000602082840312156119ca57600080fd5b815167ffffffffffffffff8111156119e157600080fd5b8201601f810184136119f257600080fd5b8051611a00611546826114ff565b818152856020838501011115611a1557600080fd5b611a26826020830160208601611978565b95945050505050565b60008151808452611a47816020860160208601611978565b601f01601f19169290920160200192915050565b85815260a060208201526000611a7460a0830187611a2f565b8281036040840152611a868187611a2f565b90508281036060840152611a9a8186611a2f565b90508281036080840152611aae8185611a2f565b98975050505050505050565b81835260006001600160fb1b03831115611ad357600080fd5b8260051b80836020870137939093016020019392505050565b6001600160a01b0387811682528616602082015260a060408201819052600090611b199083018688611aba565b8281036060840152611b2c818587611aba565b8381036080909401939093525050600081526020019695505050505050565b634e487b7160e01b600052601160045260246000fd5b80820180821115611b7457611b74611b4b565b92915050565b600060208284031215611b8c57600080fd5b815160ff8116811461147957600080fd5b85815260a060208201526000611bb660a0830187611a2f565b8281036040840152611bc88187611a2f565b905060ff851660608401528281036080840152611aae8185611a2f565b8281526040602082015260006117726040830184611a2f565b634e487b7160e01b600052603260045260246000fd5b600060018201611c2657611c26611b4b565b5060010190565b600081518084526020808501945080840160005b83811015611c5d57815187529582019590820190600101611c41565b509495945050505050565b608081526000611c7b6080830187611c2d565b602083820381850152611c8e8288611c2d565b915083820360408501528186518084528284019150828160051b85010183890160005b83811015611cdf57601f19878403018552611ccd838351611a2f565b94860194925090850190600101611cb1565b50508681036060880152611cf38189611a2f565b9b9a505050505050505050505056fea26469706673582212202e022dff918f6603e27c0ec18e8d7ea96cc44c7f4aee53eac8809b6ec6717a3364736f6c63430008110033",
  "devdoc": {
    "kind": "dev",
    "methods": {},
    "version": 1
  },
  "userdoc": {
    "kind": "user",
    "methods": {
      "onERC721Received(address,address,uint256,bytes)": {
        "notice": "ERC721"
      },
      "transferERC20(address,uint256,bytes)": {
        "notice": "This will allow public chain dapps to send tokens directly to the sodium chain"
      },
      "transferNativeToken(bytes)": {
        "notice": "native token bridge to"
      }
    },
    "version": 1
  },
  "storageLayout": {
    "storage": [
      {
        "astId": 3991,
        "contract": "contracts/bridge/Vault.sol:Vault",
        "label": "mpcManager",
        "offset": 0,
        "slot": "0",
        "type": "t_contract(IMPCManager)10418"
      },
      {
        "astId": 3994,
        "contract": "contracts/bridge/Vault.sol:Vault",
        "label": "adminDelay",
        "offset": 0,
        "slot": "1",
        "type": "t_uint256"
      },
      {
        "astId": 3996,
        "contract": "contracts/bridge/Vault.sol:Vault",
        "label": "admin",
        "offset": 0,
        "slot": "2",
        "type": "t_address"
      },
      {
        "astId": 4004,
        "contract": "contracts/bridge/Vault.sol:Vault",
        "label": "pendingNewVault",
        "offset": 0,
        "slot": "3",
        "type": "t_struct(PendingNewVault)4001_storage"
      },
      {
        "astId": 4006,
        "contract": "contracts/bridge/Vault.sol:Vault",
        "label": "newVault",
        "offset": 0,
        "slot": "5",
        "type": "t_address"
      },
      {
        "astId": 4010,
        "contract": "contracts/bridge/Vault.sol:Vault",
        "label": "nonceMap",
        "offset": 0,
        "slot": "6",
        "type": "t_mapping(t_address,t_uint256)"
      },
      {
        "astId": 4016,
        "contract": "contracts/bridge/Vault.sol:Vault",
        "label": "balances",
        "offset": 0,
        "slot": "7",
        "type": "t_mapping(t_address,t_mapping(t_address,t_uint256))"
      }
    ],
    "types": {
      "t_address": {
        "encoding": "inplace",
        "label": "address",
        "numberOfBytes": "20"
      },
      "t_contract(IMPCManager)10418": {
        "encoding": "inplace",
        "label": "contract IMPCManager",
        "numberOfBytes": "20"
      },
      "t_mapping(t_address,t_mapping(t_address,t_uint256))": {
        "encoding": "mapping",
        "key": "t_address",
        "label": "mapping(address => mapping(address => uint256))",
        "numberOfBytes": "32",
        "value": "t_mapping(t_address,t_uint256)"
      },
      "t_mapping(t_address,t_uint256)": {
        "encoding": "mapping",
        "key": "t_address",
        "label": "mapping(address => uint256)",
        "numberOfBytes": "32",
        "value": "t_uint256"
      },
      "t_struct(PendingNewVault)4001_storage": {
        "encoding": "inplace",
        "label": "struct Vault.PendingNewVault",
        "members": [
          {
            "astId": 3998,
            "contract": "contracts/bridge/Vault.sol:Vault",
            "label": "addr",
            "offset": 0,
            "slot": "0",
            "type": "t_address"
          },
          {
            "astId": 4000,
            "contract": "contracts/bridge/Vault.sol:Vault",
            "label": "activeTime",
            "offset": 0,
            "slot": "1",
            "type": "t_uint256"
          }
        ],
        "numberOfBytes": "64"
      },
      "t_uint256": {
        "encoding": "inplace",
        "label": "uint256",
        "numberOfBytes": "32"
      }
    }
  }
}