{
  "address": "0x622E2Af33CBA4e04752384AB1bcAcf2598B6C00D",
  "abi": [
    {
      "inputs": [],
      "stateMutability": "nonpayable",
      "type": "constructor"
    },
    {
      "anonymous": false,
      "inputs": [
        {
          "indexed": false,
          "internalType": "address",
          "name": "previousAdmin",
          "type": "address"
        },
        {
          "indexed": false,
          "internalType": "address",
          "name": "newAdmin",
          "type": "address"
        }
      ],
      "name": "AdminChanged",
      "type": "event"
    },
    {
      "anonymous": false,
      "inputs": [
        {
          "indexed": true,
          "internalType": "address",
          "name": "beacon",
          "type": "address"
        }
      ],
      "name": "BeaconUpgraded",
      "type": "event"
    },
    {
      "anonymous": false,
      "inputs": [
        {
          "indexed": false,
          "internalType": "uint8",
          "name": "version",
          "type": "uint8"
        }
      ],
      "name": "Initialized",
      "type": "event"
    },
    {
      "anonymous": false,
      "inputs": [
        {
          "indexed": true,
          "internalType": "address",
          "name": "previousOwner",
          "type": "address"
        },
        {
          "indexed": true,
          "internalType": "address",
          "name": "newOwner",
          "type": "address"
        }
      ],
      "name": "OwnershipTransferred",
      "type": "event"
    },
    {
      "anonymous": false,
      "inputs": [
        {
          "indexed": true,
          "internalType": "address",
          "name": "implementation",
          "type": "address"
        }
      ],
      "name": "Upgraded",
      "type": "event"
    },
    {
      "inputs": [],
      "name": "getNextUpgrade",
      "outputs": [
        {
          "components": [
            {
              "internalType": "address",
              "name": "implementation",
              "type": "address"
            },
            {
              "internalType": "uint64",
              "name": "lockExpires",
              "type": "uint64"
            }
          ],
          "internalType": "struct SodiumUserOperationValidator.PendingUpgrade",
          "name": "",
          "type": "tuple"
        }
      ],
      "stateMutability": "view",
      "type": "function"
    },
    {
      "inputs": [],
      "name": "initialize",
      "outputs": [],
      "stateMutability": "nonpayable",
      "type": "function"
    },
    {
      "inputs": [],
      "name": "owner",
      "outputs": [
        {
          "internalType": "address",
          "name": "",
          "type": "address"
        }
      ],
      "stateMutability": "view",
      "type": "function"
    },
    {
      "inputs": [],
      "name": "proxiableUUID",
      "outputs": [
        {
          "internalType": "bytes32",
          "name": "",
          "type": "bytes32"
        }
      ],
      "stateMutability": "view",
      "type": "function"
    },
    {
      "inputs": [],
      "name": "renounceOwnership",
      "outputs": [],
      "stateMutability": "nonpayable",
      "type": "function"
    },
    {
      "inputs": [
        {
          "internalType": "address",
          "name": "newOwner",
          "type": "address"
        }
      ],
      "name": "transferOwnership",
      "outputs": [],
      "stateMutability": "nonpayable",
      "type": "function"
    },
    {
      "inputs": [
        {
          "internalType": "address",
          "name": "newImplementation",
          "type": "address"
        }
      ],
      "name": "upgradeTo",
      "outputs": [],
      "stateMutability": "nonpayable",
      "type": "function"
    },
    {
      "inputs": [
        {
          "internalType": "address",
          "name": "newImplementation",
          "type": "address"
        },
        {
          "internalType": "bytes",
          "name": "data",
          "type": "bytes"
        }
      ],
      "name": "upgradeToAndCall",
      "outputs": [],
      "stateMutability": "payable",
      "type": "function"
    },
    {
      "inputs": [
        {
          "components": [
            {
              "internalType": "address",
              "name": "sender",
              "type": "address"
            },
            {
              "internalType": "uint256",
              "name": "nonce",
              "type": "uint256"
            },
            {
              "internalType": "bytes",
              "name": "initCode",
              "type": "bytes"
            },
            {
              "internalType": "bytes",
              "name": "callData",
              "type": "bytes"
            },
            {
              "internalType": "uint256",
              "name": "callGasLimit",
              "type": "uint256"
            },
            {
              "internalType": "uint256",
              "name": "verificationGasLimit",
              "type": "uint256"
            },
            {
              "internalType": "uint256",
              "name": "preVerificationGas",
              "type": "uint256"
            },
            {
              "internalType": "uint256",
              "name": "maxFeePerGas",
              "type": "uint256"
            },
            {
              "internalType": "uint256",
              "name": "maxPriorityFeePerGas",
              "type": "uint256"
            },
            {
              "internalType": "bytes",
              "name": "paymasterAndData",
              "type": "bytes"
            },
            {
              "internalType": "bytes",
              "name": "signature",
              "type": "bytes"
            }
          ],
          "internalType": "struct UserOperation",
          "name": "",
          "type": "tuple"
        }
      ],
      "name": "validateUserOp",
      "outputs": [
        {
          "internalType": "uint8",
          "name": "validationData",
          "type": "uint8"
        }
      ],
      "stateMutability": "pure",
      "type": "function"
    }
  ],
  "transactionHash": "0xbe8f12b4f02851d949e87bc0e4b12e39c17f3baa53a39fa52ccf2a2299b540ef",
  "args": [],
  "numDeployments": 1,
  "solcInputHash": "09a59c7c673a10f149d124c86e476dd0",
  "bytecode": "0x60a06040523060805234801561001457600080fd5b5061001d610022565b6100e2565b600054610100900460ff161561008e5760405162461bcd60e51b815260206004820152602760248201527f496e697469616c697a61626c653a20636f6e747261637420697320696e697469604482015266616c697a696e6760c81b606482015260840160405180910390fd5b60005460ff90811610156100e0576000805460ff191660ff9081179091556040519081527f7f26b83ff96e1f2b6a682f133852f6798a09c465da95921460cefb38474024989060200160405180910390a15b565b608051610e2f610119600039600081816101fd01528181610246015281816102e50152818161032501526103b80152610e2f6000f3fe6080604052600436106100865760003560e01c80638129fc1c116100595780638129fc1c146100fd5780638393db0b146101125780638da5cb5b14610145578063f2fde38b1461016d578063f502ea0c1461018d57600080fd5b80633659cfe61461008b5780634f1ef286146100ad57806352d1902d146100c0578063715018a6146100e8575b600080fd5b34801561009757600080fd5b506100ab6100a6366004610b14565b6101f3565b005b6100ab6100bb366004610b45565b6102db565b3480156100cc57600080fd5b506100d56103ab565b6040519081526020015b60405180910390f35b3480156100f457600080fd5b506100ab61045e565b34801561010957600080fd5b506100ab610472565b34801561011e57600080fd5b5061013361012d366004610c07565b50600090565b60405160ff90911681526020016100df565b34801561015157600080fd5b506033546040516001600160a01b0390911681526020016100df565b34801561017957600080fd5b506100ab610188366004610b14565b610593565b34801561019957600080fd5b5060408051808201825260008082526020918201528151808301835260c9546001600160a01b03811680835267ffffffffffffffff600160a01b9092048216928401928352845190815291511691810191909152016100df565b6001600160a01b037f00000000000000000000000000000000000000000000000000000000000000001630036102445760405162461bcd60e51b815260040161023b90610c43565b60405180910390fd5b7f00000000000000000000000000000000000000000000000000000000000000006001600160a01b031661028d600080516020610db3833981519152546001600160a01b031690565b6001600160a01b0316146102b35760405162461bcd60e51b815260040161023b90610c8f565b6102bc81610609565b604080516000808252602082019092526102d891839190610611565b50565b6001600160a01b037f00000000000000000000000000000000000000000000000000000000000000001630036103235760405162461bcd60e51b815260040161023b90610c43565b7f00000000000000000000000000000000000000000000000000000000000000006001600160a01b031661036c600080516020610db3833981519152546001600160a01b031690565b6001600160a01b0316146103925760405162461bcd60e51b815260040161023b90610c8f565b61039b82610609565b6103a782826001610611565b5050565b6000306001600160a01b037f0000000000000000000000000000000000000000000000000000000000000000161461044b5760405162461bcd60e51b815260206004820152603860248201527f555550535570677261646561626c653a206d757374206e6f742062652063616c60448201527f6c6564207468726f7567682064656c656761746563616c6c0000000000000000606482015260840161023b565b50600080516020610db383398151915290565b610466610781565b61047060006107db565b565b600054610100900460ff16158080156104925750600054600160ff909116105b806104ac5750303b1580156104ac575060005460ff166001145b61050f5760405162461bcd60e51b815260206004820152602e60248201527f496e697469616c697a61626c653a20636f6e747261637420697320616c72656160448201526d191e481a5b9a5d1a585b1a5e995960921b606482015260840161023b565b6000805460ff191660011790558015610532576000805461ff0019166101001790555b61053a61082d565b61054261085c565b61054b326107db565b80156102d8576000805461ff0019169055604051600181527f7f26b83ff96e1f2b6a682f133852f6798a09c465da95921460cefb38474024989060200160405180910390a150565b61059b610781565b6001600160a01b0381166106005760405162461bcd60e51b815260206004820152602660248201527f4f776e61626c653a206e6577206f776e657220697320746865207a65726f206160448201526564647265737360d01b606482015260840161023b565b6102d8816107db565b6102d8610781565b7f4910fdfa16fed3260ed0e7147f7cc6da11a60208b5b9406d12a635614ffd91435460ff16156106495761064483610883565b505050565b826001600160a01b03166352d1902d6040518163ffffffff1660e01b8152600401602060405180830381865afa9250505080156106a3575060408051601f3d908101601f191682019092526106a091810190610cdb565b60015b6107065760405162461bcd60e51b815260206004820152602e60248201527f45524331393637557067726164653a206e657720696d706c656d656e7461746960448201526d6f6e206973206e6f74205555505360901b606482015260840161023b565b600080516020610db383398151915281146107755760405162461bcd60e51b815260206004820152602960248201527f45524331393637557067726164653a20756e737570706f727465642070726f786044820152681a58589b195555525160ba1b606482015260840161023b565b5061064483838361091f565b6033546001600160a01b031633146104705760405162461bcd60e51b815260206004820181905260248201527f4f776e61626c653a2063616c6c6572206973206e6f7420746865206f776e6572604482015260640161023b565b603380546001600160a01b038381166001600160a01b0319831681179093556040519116919082907f8be0079c531659141344cd1fd0a4f28419497f9722a3daafe3b4186f6b6457e090600090a35050565b600054610100900460ff166108545760405162461bcd60e51b815260040161023b90610cf4565b61047061094a565b600054610100900460ff166104705760405162461bcd60e51b815260040161023b90610cf4565b6001600160a01b0381163b6108f05760405162461bcd60e51b815260206004820152602d60248201527f455243313936373a206e657720696d706c656d656e746174696f6e206973206e60448201526c1bdd08184818dbdb9d1c9858dd609a1b606482015260840161023b565b600080516020610db383398151915280546001600160a01b0319166001600160a01b0392909216919091179055565b6109288361097a565b6000825111806109355750805b156106445761094483836109ba565b50505050565b600054610100900460ff166109715760405162461bcd60e51b815260040161023b90610cf4565b610470336107db565b61098381610883565b6040516001600160a01b038216907fbc7cd75a20ee27fd9adebab32041f755214dbc6bffa90cc0225b39da2e5c2d3b90600090a250565b60606001600160a01b0383163b610a225760405162461bcd60e51b815260206004820152602660248201527f416464726573733a2064656c65676174652063616c6c20746f206e6f6e2d636f6044820152651b9d1c9858dd60d21b606482015260840161023b565b600080846001600160a01b031684604051610a3d9190610d63565b600060405180830381855af49150503d8060008114610a78576040519150601f19603f3d011682016040523d82523d6000602084013e610a7d565b606091505b5091509150610aa58282604051806060016040528060278152602001610dd360279139610aae565b95945050505050565b60608315610abd575081610ac7565b610ac78383610ace565b9392505050565b815115610ade5781518083602001fd5b8060405162461bcd60e51b815260040161023b9190610d7f565b80356001600160a01b0381168114610b0f57600080fd5b919050565b600060208284031215610b2657600080fd5b610ac782610af8565b634e487b7160e01b600052604160045260246000fd5b60008060408385031215610b5857600080fd5b610b6183610af8565b9150602083013567ffffffffffffffff80821115610b7e57600080fd5b818501915085601f830112610b9257600080fd5b813581811115610ba457610ba4610b2f565b604051601f8201601f19908116603f01168101908382118183101715610bcc57610bcc610b2f565b81604052828152886020848701011115610be557600080fd5b8260208601602083013760006020848301015280955050505050509250929050565b600060208284031215610c1957600080fd5b813567ffffffffffffffff811115610c3057600080fd5b82016101608185031215610ac757600080fd5b6020808252602c908201527f46756e6374696f6e206d7573742062652063616c6c6564207468726f7567682060408201526b19195b1959d85d1958d85b1b60a21b606082015260800190565b6020808252602c908201527f46756e6374696f6e206d7573742062652063616c6c6564207468726f7567682060408201526b6163746976652070726f787960a01b606082015260800190565b600060208284031215610ced57600080fd5b5051919050565b6020808252602b908201527f496e697469616c697a61626c653a20636f6e7472616374206973206e6f74206960408201526a6e697469616c697a696e6760a81b606082015260800190565b60005b83811015610d5a578181015183820152602001610d42565b50506000910152565b60008251610d75818460208701610d3f565b9190910192915050565b6020815260008251806020840152610d9e816040850160208701610d3f565b601f01601f1916919091016040019291505056fe360894a13ba1a3210667c828492db98dca3e2076cc3735a920a3ca505d382bbc416464726573733a206c6f772d6c6576656c2064656c65676174652063616c6c206661696c6564a2646970667358221220fb6a6ff1fe8bb59b36d76a4b3ecf6b6225b734fbd5a7dcd6e418ea4cd31f91ef64736f6c63430008110033",
  "devdoc": {
    "kind": "dev",
    "methods": {
      "constructor": {
        "custom:oz-upgrades-unsafe-allow": "constructor"
      },
      "owner()": {
        "details": "Returns the address of the current owner."
      },
      "proxiableUUID()": {
        "details": "Implementation of the ERC1822 {proxiableUUID} function. This returns the storage slot used by the implementation. It is used to validate the implementation's compatibility when performing an upgrade. IMPORTANT: A proxy pointing at a proxiable contract should not be considered proxiable itself, because this risks bricking a proxy that upgrades to it, by delegating to itself until out of gas. Thus it is critical that this function revert if invoked through a proxy. This is guaranteed by the `notDelegated` modifier."
      },
      "renounceOwnership()": {
        "details": "Leaves the contract without owner. It will not be possible to call `onlyOwner` functions anymore. Can only be called by the current owner. NOTE: Renouncing ownership will leave the contract without an owner, thereby removing any functionality that is only available to the owner."
      },
      "transferOwnership(address)": {
        "details": "Transfers ownership of the contract to a new account (`newOwner`). Can only be called by the current owner."
      },
      "upgradeTo(address)": {
        "details": "Upgrade the implementation of the proxy to `newImplementation`. Calls {_authorizeUpgrade}. Emits an {Upgraded} event."
      },
      "upgradeToAndCall(address,bytes)": {
        "details": "Upgrade the implementation of the proxy to `newImplementation`, and subsequently execute the function call encoded in `data`. Calls {_authorizeUpgrade}. Emits an {Upgraded} event."
      },
      "validateUserOp((address,uint256,bytes,bytes,uint256,uint256,uint256,uint256,uint256,bytes,bytes))": {
        "returns": {
          "validationData": "Indicates that there is no physical loss of the user's assets, similar to swap, bridge 0 => safe Indicates that the calling dapp is authenticated. 1 => medium security Indicates that the calling contract is not authenticated 2 => nosafe"
        }
      }
    },
    "version": 1
  },
  "userdoc": {
    "kind": "user",
    "methods": {
      "validateUserOp((address,uint256,bytes,bytes,uint256,uint256,uint256,uint256,uint256,bytes,bytes))": {
        "notice": "Validate UserOperation from EIP-4337"
      }
    },
    "version": 1
  },
  "storageLayout": {
    "storage": [
      {
        "astId": 527,
        "contract": "contracts/securityengine/SodiumUserOperationValidator.sol:SodiumUserOperationValidator",
        "label": "_initialized",
        "offset": 0,
        "slot": "0",
        "type": "t_uint8"
      },
      {
        "astId": 530,
        "contract": "contracts/securityengine/SodiumUserOperationValidator.sol:SodiumUserOperationValidator",
        "label": "_initializing",
        "offset": 1,
        "slot": "0",
        "type": "t_bool"
      },
      {
        "astId": 1150,
        "contract": "contracts/securityengine/SodiumUserOperationValidator.sol:SodiumUserOperationValidator",
        "label": "__gap",
        "offset": 0,
        "slot": "1",
        "type": "t_array(t_uint256)50_storage"
      },
      {
        "astId": 10,
        "contract": "contracts/securityengine/SodiumUserOperationValidator.sol:SodiumUserOperationValidator",
        "label": "_owner",
        "offset": 0,
        "slot": "51",
        "type": "t_address"
      },
      {
        "astId": 130,
        "contract": "contracts/securityengine/SodiumUserOperationValidator.sol:SodiumUserOperationValidator",
        "label": "__gap",
        "offset": 0,
        "slot": "52",
        "type": "t_array(t_uint256)49_storage"
      },
      {
        "astId": 509,
        "contract": "contracts/securityengine/SodiumUserOperationValidator.sol:SodiumUserOperationValidator",
        "label": "__gap",
        "offset": 0,
        "slot": "101",
        "type": "t_array(t_uint256)50_storage"
      },
      {
        "astId": 824,
        "contract": "contracts/securityengine/SodiumUserOperationValidator.sol:SodiumUserOperationValidator",
        "label": "__gap",
        "offset": 0,
        "slot": "151",
        "type": "t_array(t_uint256)50_storage"
      },
      {
        "astId": 14676,
        "contract": "contracts/securityengine/SodiumUserOperationValidator.sol:SodiumUserOperationValidator",
        "label": "_nextUpgrade",
        "offset": 0,
        "slot": "201",
        "type": "t_struct(PendingUpgrade)14684_storage"
      }
    ],
    "types": {
      "t_address": {
        "encoding": "inplace",
        "label": "address",
        "numberOfBytes": "20"
      },
      "t_array(t_uint256)49_storage": {
        "base": "t_uint256",
        "encoding": "inplace",
        "label": "uint256[49]",
        "numberOfBytes": "1568"
      },
      "t_array(t_uint256)50_storage": {
        "base": "t_uint256",
        "encoding": "inplace",
        "label": "uint256[50]",
        "numberOfBytes": "1600"
      },
      "t_bool": {
        "encoding": "inplace",
        "label": "bool",
        "numberOfBytes": "1"
      },
      "t_struct(PendingUpgrade)14684_storage": {
        "encoding": "inplace",
        "label": "struct SodiumUserOperationValidator.PendingUpgrade",
        "members": [
          {
            "astId": 14681,
            "contract": "contracts/securityengine/SodiumUserOperationValidator.sol:SodiumUserOperationValidator",
            "label": "implementation",
            "offset": 0,
            "slot": "0",
            "type": "t_address"
          },
          {
            "astId": 14683,
            "contract": "contracts/securityengine/SodiumUserOperationValidator.sol:SodiumUserOperationValidator",
            "label": "lockExpires",
            "offset": 20,
            "slot": "0",
            "type": "t_uint64"
          }
        ],
        "numberOfBytes": "32"
      },
      "t_uint256": {
        "encoding": "inplace",
        "label": "uint256",
        "numberOfBytes": "32"
      },
      "t_uint64": {
        "encoding": "inplace",
        "label": "uint64",
        "numberOfBytes": "8"
      },
      "t_uint8": {
        "encoding": "inplace",
        "label": "uint8",
        "numberOfBytes": "1"
      }
    }
  }
}